{
	"contracts/sale.sol": {
		"TokenSale": {
			"abi": [
				{
					"inputs": [
						{
							"internalType": "contract ERC20",
							"name": "_token",
							"type": "address"
						},
						{
							"internalType": "uint256",
							"name": "_presaleCap",
							"type": "uint256"
						},
						{
							"internalType": "uint256",
							"name": "_publicSaleCap",
							"type": "uint256"
						},
						{
							"internalType": "uint256",
							"name": "_presaleMinContribution",
							"type": "uint256"
						},
						{
							"internalType": "uint256",
							"name": "_presaleMaxContribution",
							"type": "uint256"
						},
						{
							"internalType": "uint256",
							"name": "_publicSaleMinContribution",
							"type": "uint256"
						},
						{
							"internalType": "uint256",
							"name": "_publicSaleMaxContribution",
							"type": "uint256"
						},
						{
							"internalType": "uint256",
							"name": "_presaleEndTime",
							"type": "uint256"
						},
						{
							"internalType": "uint256",
							"name": "_publicSaleStartTime",
							"type": "uint256"
						},
						{
							"internalType": "uint256",
							"name": "_publicSaleEndTime",
							"type": "uint256"
						},
						{
							"internalType": "address",
							"name": "_owner",
							"type": "address"
						}
					],
					"stateMutability": "nonpayable",
					"type": "constructor"
				},
				{
					"inputs": [
						{
							"internalType": "address",
							"name": "owner",
							"type": "address"
						}
					],
					"name": "OwnableInvalidOwner",
					"type": "error"
				},
				{
					"inputs": [
						{
							"internalType": "address",
							"name": "account",
							"type": "address"
						}
					],
					"name": "OwnableUnauthorizedAccount",
					"type": "error"
				},
				{
					"anonymous": false,
					"inputs": [
						{
							"indexed": true,
							"internalType": "address",
							"name": "previousOwner",
							"type": "address"
						},
						{
							"indexed": true,
							"internalType": "address",
							"name": "newOwner",
							"type": "address"
						}
					],
					"name": "OwnershipTransferred",
					"type": "event"
				},
				{
					"anonymous": false,
					"inputs": [
						{
							"indexed": true,
							"internalType": "address",
							"name": "contributor",
							"type": "address"
						},
						{
							"indexed": false,
							"internalType": "uint256",
							"name": "amount",
							"type": "uint256"
						}
					],
					"name": "RefundClaimed",
					"type": "event"
				},
				{
					"anonymous": false,
					"inputs": [
						{
							"indexed": true,
							"internalType": "address",
							"name": "recipient",
							"type": "address"
						},
						{
							"indexed": false,
							"internalType": "uint256",
							"name": "amount",
							"type": "uint256"
						}
					],
					"name": "TokensDistributed",
					"type": "event"
				},
				{
					"anonymous": false,
					"inputs": [
						{
							"indexed": true,
							"internalType": "address",
							"name": "buyer",
							"type": "address"
						},
						{
							"indexed": false,
							"internalType": "uint256",
							"name": "amount",
							"type": "uint256"
						},
						{
							"indexed": false,
							"internalType": "uint256",
							"name": "totalContribution",
							"type": "uint256"
						},
						{
							"indexed": false,
							"internalType": "bool",
							"name": "isPresale",
							"type": "bool"
						}
					],
					"name": "TokensPurchased",
					"type": "event"
				},
				{
					"inputs": [],
					"name": "claimRefund",
					"outputs": [],
					"stateMutability": "nonpayable",
					"type": "function"
				},
				{
					"inputs": [],
					"name": "closePresaleAndStartPublicSale",
					"outputs": [],
					"stateMutability": "nonpayable",
					"type": "function"
				},
				{
					"inputs": [],
					"name": "closePublicSale",
					"outputs": [],
					"stateMutability": "nonpayable",
					"type": "function"
				},
				{
					"inputs": [],
					"name": "contributeToPresale",
					"outputs": [],
					"stateMutability": "payable",
					"type": "function"
				},
				{
					"inputs": [],
					"name": "contributeToPublicSale",
					"outputs": [],
					"stateMutability": "payable",
					"type": "function"
				},
				{
					"inputs": [
						{
							"internalType": "address",
							"name": "_recipient",
							"type": "address"
						},
						{
							"internalType": "uint256",
							"name": "_amount",
							"type": "uint256"
						}
					],
					"name": "distributeTokens",
					"outputs": [],
					"stateMutability": "nonpayable",
					"type": "function"
				},
				{
					"inputs": [
						{
							"internalType": "uint256",
							"name": "_presaleEndTime",
							"type": "uint256"
						},
						{
							"internalType": "uint256",
							"name": "_publicSaleEndTime",
							"type": "uint256"
						}
					],
					"name": "extendSalePeriod",
					"outputs": [],
					"stateMutability": "nonpayable",
					"type": "function"
				},
				{
					"inputs": [],
					"name": "owner",
					"outputs": [
						{
							"internalType": "address",
							"name": "",
							"type": "address"
						}
					],
					"stateMutability": "view",
					"type": "function"
				},
				{
					"inputs": [],
					"name": "presaleCap",
					"outputs": [
						{
							"internalType": "uint256",
							"name": "",
							"type": "uint256"
						}
					],
					"stateMutability": "view",
					"type": "function"
				},
				{
					"inputs": [],
					"name": "presaleClosed",
					"outputs": [
						{
							"internalType": "bool",
							"name": "",
							"type": "bool"
						}
					],
					"stateMutability": "view",
					"type": "function"
				},
				{
					"inputs": [
						{
							"internalType": "address",
							"name": "",
							"type": "address"
						}
					],
					"name": "presaleContributions",
					"outputs": [
						{
							"internalType": "uint256",
							"name": "",
							"type": "uint256"
						}
					],
					"stateMutability": "view",
					"type": "function"
				},
				{
					"inputs": [],
					"name": "presaleEndTime",
					"outputs": [
						{
							"internalType": "uint256",
							"name": "",
							"type": "uint256"
						}
					],
					"stateMutability": "view",
					"type": "function"
				},
				{
					"inputs": [],
					"name": "presaleMaxContribution",
					"outputs": [
						{
							"internalType": "uint256",
							"name": "",
							"type": "uint256"
						}
					],
					"stateMutability": "view",
					"type": "function"
				},
				{
					"inputs": [],
					"name": "presaleMinContribution",
					"outputs": [
						{
							"internalType": "uint256",
							"name": "",
							"type": "uint256"
						}
					],
					"stateMutability": "view",
					"type": "function"
				},
				{
					"inputs": [],
					"name": "publicSaleCap",
					"outputs": [
						{
							"internalType": "uint256",
							"name": "",
							"type": "uint256"
						}
					],
					"stateMutability": "view",
					"type": "function"
				},
				{
					"inputs": [],
					"name": "publicSaleClosed",
					"outputs": [
						{
							"internalType": "bool",
							"name": "",
							"type": "bool"
						}
					],
					"stateMutability": "view",
					"type": "function"
				},
				{
					"inputs": [
						{
							"internalType": "address",
							"name": "",
							"type": "address"
						}
					],
					"name": "publicSaleContributions",
					"outputs": [
						{
							"internalType": "uint256",
							"name": "",
							"type": "uint256"
						}
					],
					"stateMutability": "view",
					"type": "function"
				},
				{
					"inputs": [],
					"name": "publicSaleEndTime",
					"outputs": [
						{
							"internalType": "uint256",
							"name": "",
							"type": "uint256"
						}
					],
					"stateMutability": "view",
					"type": "function"
				},
				{
					"inputs": [],
					"name": "publicSaleMaxContribution",
					"outputs": [
						{
							"internalType": "uint256",
							"name": "",
							"type": "uint256"
						}
					],
					"stateMutability": "view",
					"type": "function"
				},
				{
					"inputs": [],
					"name": "publicSaleMinContribution",
					"outputs": [
						{
							"internalType": "uint256",
							"name": "",
							"type": "uint256"
						}
					],
					"stateMutability": "view",
					"type": "function"
				},
				{
					"inputs": [],
					"name": "publicSaleStartTime",
					"outputs": [
						{
							"internalType": "uint256",
							"name": "",
							"type": "uint256"
						}
					],
					"stateMutability": "view",
					"type": "function"
				},
				{
					"inputs": [],
					"name": "renounceOwnership",
					"outputs": [],
					"stateMutability": "nonpayable",
					"type": "function"
				},
				{
					"inputs": [],
					"name": "token",
					"outputs": [
						{
							"internalType": "contract ERC20",
							"name": "",
							"type": "address"
						}
					],
					"stateMutability": "view",
					"type": "function"
				},
				{
					"inputs": [
						{
							"internalType": "address",
							"name": "newOwner",
							"type": "address"
						}
					],
					"name": "transferOwnership",
					"outputs": [],
					"stateMutability": "nonpayable",
					"type": "function"
				},
				{
					"inputs": [],
					"name": "withdrawExcessFunds",
					"outputs": [],
					"stateMutability": "nonpayable",
					"type": "function"
				}
			],
			"devdoc": {
				"errors": {
					"OwnableInvalidOwner(address)": [
						{
							"details": "The owner is not a valid owner account. (eg. `address(0)`)"
						}
					],
					"OwnableUnauthorizedAccount(address)": [
						{
							"details": "The caller account is not authorized to perform an operation."
						}
					]
				},
				"kind": "dev",
				"methods": {
					"owner()": {
						"details": "Returns the address of the current owner."
					},
					"renounceOwnership()": {
						"details": "Leaves the contract without owner. It will not be possible to call `onlyOwner` functions. Can only be called by the current owner. NOTE: Renouncing ownership will leave the contract without an owner, thereby disabling any functionality that is only available to the owner."
					},
					"transferOwnership(address)": {
						"details": "Transfers ownership of the contract to a new account (`newOwner`). Can only be called by the current owner."
					}
				},
				"version": 1
			},
			"evm": {
				"assembly": "    /* \"contracts/sale.sol\":167:6411  contract TokenSale is Ownable {... */\n  mstore(0x40, 0x80)\n    /* \"contracts/sale.sol\":770:775  false */\n  0x00\n    /* \"contracts/sale.sol\":742:775  bool public presaleClosed = false */\n  0x0d\n  exp(0x0100, 0x00)\n  dup2\n  sload\n  dup2\n  0xff\n  mul\n  not\n  and\n  swap1\n  dup4\n  iszero\n  iszero\n  mul\n  or\n  swap1\n  sstore\n  pop\n    /* \"contracts/sale.sol\":812:817  false */\n  0x00\n    /* \"contracts/sale.sol\":781:817  bool public publicSaleClosed = false */\n  0x0d\n  exp(0x0100, 0x01)\n  dup2\n  sload\n  dup2\n  0xff\n  mul\n  not\n  and\n  swap1\n  dup4\n  iszero\n  iszero\n  mul\n  or\n  swap1\n  sstore\n  pop\n    /* \"contracts/sale.sol\":1077:2029  constructor(... */\n  callvalue\n  dup1\n  iszero\n  tag_1\n  jumpi\n  0x00\n  dup1\n  revert\ntag_1:\n  pop\n  mload(0x40)\n  sub(codesize, bytecodeSize)\n  dup1\n  bytecodeSize\n  dup4\n  codecopy\n  dup2\n  dup2\n  add\n  0x40\n  mstore\n  dup2\n  add\n  swap1\n  tag_2\n  swap2\n  swap1\n  tag_3\n  jump\t// in\ntag_2:\n    /* \"contracts/sale.sol\":1530:1536  _owner */\n  dup1\n    /* \"@openzeppelin/contracts/access/Ownable.sol\":1297:1298  0 */\n  0x00\n    /* \"@openzeppelin/contracts/access/Ownable.sol\":1273:1299  initialOwner == address(0) */\n  0xffffffffffffffffffffffffffffffffffffffff\n  and\n    /* \"@openzeppelin/contracts/access/Ownable.sol\":1273:1285  initialOwner */\n  dup2\n    /* \"@openzeppelin/contracts/access/Ownable.sol\":1273:1299  initialOwner == address(0) */\n  0xffffffffffffffffffffffffffffffffffffffff\n  and\n  sub\n    /* \"@openzeppelin/contracts/access/Ownable.sol\":1269:1364  if (initialOwner == address(0)) {... */\n  tag_7\n  jumpi\n    /* \"@openzeppelin/contracts/access/Ownable.sol\":1350:1351  0 */\n  0x00\n    /* \"@openzeppelin/contracts/access/Ownable.sol\":1322:1353  OwnableInvalidOwner(address(0)) */\n  mload(0x40)\n  0x1e4fbdf700000000000000000000000000000000000000000000000000000000\n  dup2\n  mstore\n  0x04\n  add\n  tag_8\n  swap2\n  swap1\n  tag_9\n  jump\t// in\ntag_8:\n  mload(0x40)\n  dup1\n  swap2\n  sub\n  swap1\n  revert\n    /* \"@openzeppelin/contracts/access/Ownable.sol\":1269:1364  if (initialOwner == address(0)) {... */\ntag_7:\n    /* \"@openzeppelin/contracts/access/Ownable.sol\":1373:1405  _transferOwnership(initialOwner) */\n  tag_10\n    /* \"@openzeppelin/contracts/access/Ownable.sol\":1392:1404  initialOwner */\n  dup2\n    /* \"@openzeppelin/contracts/access/Ownable.sol\":1373:1391  _transferOwnership */\n  shl(0x20, tag_11)\n    /* \"@openzeppelin/contracts/access/Ownable.sol\":1373:1405  _transferOwnership(initialOwner) */\n  0x20\n  shr\n  jump\t// in\ntag_10:\n    /* \"@openzeppelin/contracts/access/Ownable.sol\":1225:1412  constructor(address initialOwner) {... */\n  pop\n    /* \"contracts/sale.sol\":1556:1562  _token */\n  dup11\n    /* \"contracts/sale.sol\":1548:1553  token */\n  0x01\n  0x00\n    /* \"contracts/sale.sol\":1548:1562  token = _token */\n  0x0100\n  exp\n  dup2\n  sload\n  dup2\n  0xffffffffffffffffffffffffffffffffffffffff\n  mul\n  not\n  and\n  swap1\n  dup4\n  0xffffffffffffffffffffffffffffffffffffffff\n  and\n  mul\n  or\n  swap1\n  sstore\n  pop\n    /* \"contracts/sale.sol\":1585:1596  _presaleCap */\n  dup10\n    /* \"contracts/sale.sol\":1572:1582  presaleCap */\n  0x02\n    /* \"contracts/sale.sol\":1572:1596  presaleCap = _presaleCap */\n  dup2\n  swap1\n  sstore\n  pop\n    /* \"contracts/sale.sol\":1622:1636  _publicSaleCap */\n  dup9\n    /* \"contracts/sale.sol\":1606:1619  publicSaleCap */\n  0x03\n    /* \"contracts/sale.sol\":1606:1636  publicSaleCap = _publicSaleCap */\n  dup2\n  swap1\n  sstore\n  pop\n    /* \"contracts/sale.sol\":1671:1694  _presaleMinContribution */\n  dup8\n    /* \"contracts/sale.sol\":1646:1668  presaleMinContribution */\n  0x04\n    /* \"contracts/sale.sol\":1646:1694  presaleMinContribution = _presaleMinContribution */\n  dup2\n  swap1\n  sstore\n  pop\n    /* \"contracts/sale.sol\":1729:1752  _presaleMaxContribution */\n  dup7\n    /* \"contracts/sale.sol\":1704:1726  presaleMaxContribution */\n  0x05\n    /* \"contracts/sale.sol\":1704:1752  presaleMaxContribution = _presaleMaxContribution */\n  dup2\n  swap1\n  sstore\n  pop\n    /* \"contracts/sale.sol\":1790:1816  _publicSaleMinContribution */\n  dup6\n    /* \"contracts/sale.sol\":1762:1787  publicSaleMinContribution */\n  0x06\n    /* \"contracts/sale.sol\":1762:1816  publicSaleMinContribution = _publicSaleMinContribution */\n  dup2\n  swap1\n  sstore\n  pop\n    /* \"contracts/sale.sol\":1854:1880  _publicSaleMaxContribution */\n  dup5\n    /* \"contracts/sale.sol\":1826:1851  publicSaleMaxContribution */\n  0x07\n    /* \"contracts/sale.sol\":1826:1880  publicSaleMaxContribution = _publicSaleMaxContribution */\n  dup2\n  swap1\n  sstore\n  pop\n    /* \"contracts/sale.sol\":1907:1922  _presaleEndTime */\n  dup4\n    /* \"contracts/sale.sol\":1890:1904  presaleEndTime */\n  0x08\n    /* \"contracts/sale.sol\":1890:1922  presaleEndTime = _presaleEndTime */\n  dup2\n  swap1\n  sstore\n  pop\n    /* \"contracts/sale.sol\":1954:1974  _publicSaleStartTime */\n  dup3\n    /* \"contracts/sale.sol\":1932:1951  publicSaleStartTime */\n  0x09\n    /* \"contracts/sale.sol\":1932:1974  publicSaleStartTime = _publicSaleStartTime */\n  dup2\n  swap1\n  sstore\n  pop\n    /* \"contracts/sale.sol\":2004:2022  _publicSaleEndTime */\n  dup2\n    /* \"contracts/sale.sol\":1984:2001  publicSaleEndTime */\n  0x0a\n    /* \"contracts/sale.sol\":1984:2022  publicSaleEndTime = _publicSaleEndTime */\n  dup2\n  swap1\n  sstore\n  pop\n    /* \"contracts/sale.sol\":1077:2029  constructor(... */\n  pop\n  pop\n  pop\n  pop\n  pop\n  pop\n  pop\n  pop\n  pop\n  pop\n  pop\n    /* \"contracts/sale.sol\":167:6411  contract TokenSale is Ownable {... */\n  jump(tag_13)\n    /* \"@openzeppelin/contracts/access/Ownable.sol\":2912:3099  function _transferOwnership(address newOwner) internal virtual {... */\ntag_11:\n    /* \"@openzeppelin/contracts/access/Ownable.sol\":2985:3001  address oldOwner */\n  0x00\n    /* \"@openzeppelin/contracts/access/Ownable.sol\":3004:3010  _owner */\n  dup1\n  0x00\n  swap1\n  sload\n  swap1\n  0x0100\n  exp\n  swap1\n  div\n  0xffffffffffffffffffffffffffffffffffffffff\n  and\n    /* \"@openzeppelin/contracts/access/Ownable.sol\":2985:3010  address oldOwner = _owner */\n  swap1\n  pop\n    /* \"@openzeppelin/contracts/access/Ownable.sol\":3029:3037  newOwner */\n  dup2\n    /* \"@openzeppelin/contracts/access/Ownable.sol\":3020:3026  _owner */\n  0x00\n  dup1\n    /* \"@openzeppelin/contracts/access/Ownable.sol\":3020:3037  _owner = newOwner */\n  0x0100\n  exp\n  dup2\n  sload\n  dup2\n  0xffffffffffffffffffffffffffffffffffffffff\n  mul\n  not\n  and\n  swap1\n  dup4\n  0xffffffffffffffffffffffffffffffffffffffff\n  and\n  mul\n  or\n  swap1\n  sstore\n  pop\n    /* \"@openzeppelin/contracts/access/Ownable.sol\":3083:3091  newOwner */\n  dup2\n    /* \"@openzeppelin/contracts/access/Ownable.sol\":3052:3092  OwnershipTransferred(oldOwner, newOwner) */\n  0xffffffffffffffffffffffffffffffffffffffff\n  and\n    /* \"@openzeppelin/contracts/access/Ownable.sol\":3073:3081  oldOwner */\n  dup2\n    /* \"@openzeppelin/contracts/access/Ownable.sol\":3052:3092  OwnershipTransferred(oldOwner, newOwner) */\n  0xffffffffffffffffffffffffffffffffffffffff\n  and\n  0x8be0079c531659141344cd1fd0a4f28419497f9722a3daafe3b4186f6b6457e0\n  mload(0x40)\n  mload(0x40)\n  dup1\n  swap2\n  sub\n  swap1\n  log3\n    /* \"@openzeppelin/contracts/access/Ownable.sol\":2975:3099  {... */\n  pop\n    /* \"@openzeppelin/contracts/access/Ownable.sol\":2912:3099  function _transferOwnership(address newOwner) internal virtual {... */\n  pop\n  jump\t// out\n    /* \"#utility.yul\":88:205   */\ntag_16:\n    /* \"#utility.yul\":197:198   */\n  0x00\n    /* \"#utility.yul\":194:195   */\n  dup1\n    /* \"#utility.yul\":187:199   */\n  revert\n    /* \"#utility.yul\":334:460   */\ntag_18:\n    /* \"#utility.yul\":371:378   */\n  0x00\n    /* \"#utility.yul\":411:453   */\n  0xffffffffffffffffffffffffffffffffffffffff\n    /* \"#utility.yul\":404:409   */\n  dup3\n    /* \"#utility.yul\":400:454   */\n  and\n    /* \"#utility.yul\":389:454   */\n  swap1\n  pop\n    /* \"#utility.yul\":334:460   */\n  swap2\n  swap1\n  pop\n  jump\t// out\n    /* \"#utility.yul\":466:562   */\ntag_19:\n    /* \"#utility.yul\":503:510   */\n  0x00\n    /* \"#utility.yul\":532:556   */\n  tag_35\n    /* \"#utility.yul\":550:555   */\n  dup3\n    /* \"#utility.yul\":532:556   */\n  tag_18\n  jump\t// in\ntag_35:\n    /* \"#utility.yul\":521:556   */\n  swap1\n  pop\n    /* \"#utility.yul\":466:562   */\n  swap2\n  swap1\n  pop\n  jump\t// out\n    /* \"#utility.yul\":568:677   */\ntag_20:\n    /* \"#utility.yul\":618:625   */\n  0x00\n    /* \"#utility.yul\":647:671   */\n  tag_37\n    /* \"#utility.yul\":665:670   */\n  dup3\n    /* \"#utility.yul\":647:671   */\n  tag_19\n  jump\t// in\ntag_37:\n    /* \"#utility.yul\":636:671   */\n  swap1\n  pop\n    /* \"#utility.yul\":568:677   */\n  swap2\n  swap1\n  pop\n  jump\t// out\n    /* \"#utility.yul\":683:831   */\ntag_21:\n    /* \"#utility.yul\":769:806   */\n  tag_39\n    /* \"#utility.yul\":800:805   */\n  dup2\n    /* \"#utility.yul\":769:806   */\n  tag_20\n  jump\t// in\ntag_39:\n    /* \"#utility.yul\":762:767   */\n  dup2\n    /* \"#utility.yul\":759:807   */\n  eq\n    /* \"#utility.yul\":749:825   */\n  tag_40\n  jumpi\n    /* \"#utility.yul\":821:822   */\n  0x00\n    /* \"#utility.yul\":818:819   */\n  dup1\n    /* \"#utility.yul\":811:823   */\n  revert\n    /* \"#utility.yul\":749:825   */\ntag_40:\n    /* \"#utility.yul\":683:831   */\n  pop\n  jump\t// out\n    /* \"#utility.yul\":837:1006   */\ntag_22:\n    /* \"#utility.yul\":907:912   */\n  0x00\n    /* \"#utility.yul\":938:944   */\n  dup2\n    /* \"#utility.yul\":932:945   */\n  mload\n    /* \"#utility.yul\":923:945   */\n  swap1\n  pop\n    /* \"#utility.yul\":954:1000   */\n  tag_42\n    /* \"#utility.yul\":994:999   */\n  dup2\n    /* \"#utility.yul\":954:1000   */\n  tag_21\n  jump\t// in\ntag_42:\n    /* \"#utility.yul\":837:1006   */\n  swap3\n  swap2\n  pop\n  pop\n  jump\t// out\n    /* \"#utility.yul\":1012:1089   */\ntag_23:\n    /* \"#utility.yul\":1049:1056   */\n  0x00\n    /* \"#utility.yul\":1078:1083   */\n  dup2\n    /* \"#utility.yul\":1067:1083   */\n  swap1\n  pop\n    /* \"#utility.yul\":1012:1089   */\n  swap2\n  swap1\n  pop\n  jump\t// out\n    /* \"#utility.yul\":1095:1217   */\ntag_24:\n    /* \"#utility.yul\":1168:1192   */\n  tag_45\n    /* \"#utility.yul\":1186:1191   */\n  dup2\n    /* \"#utility.yul\":1168:1192   */\n  tag_23\n  jump\t// in\ntag_45:\n    /* \"#utility.yul\":1161:1166   */\n  dup2\n    /* \"#utility.yul\":1158:1193   */\n  eq\n    /* \"#utility.yul\":1148:1211   */\n  tag_46\n  jumpi\n    /* \"#utility.yul\":1207:1208   */\n  0x00\n    /* \"#utility.yul\":1204:1205   */\n  dup1\n    /* \"#utility.yul\":1197:1209   */\n  revert\n    /* \"#utility.yul\":1148:1211   */\ntag_46:\n    /* \"#utility.yul\":1095:1217   */\n  pop\n  jump\t// out\n    /* \"#utility.yul\":1223:1366   */\ntag_25:\n    /* \"#utility.yul\":1280:1285   */\n  0x00\n    /* \"#utility.yul\":1311:1317   */\n  dup2\n    /* \"#utility.yul\":1305:1318   */\n  mload\n    /* \"#utility.yul\":1296:1318   */\n  swap1\n  pop\n    /* \"#utility.yul\":1327:1360   */\n  tag_48\n    /* \"#utility.yul\":1354:1359   */\n  dup2\n    /* \"#utility.yul\":1327:1360   */\n  tag_24\n  jump\t// in\ntag_48:\n    /* \"#utility.yul\":1223:1366   */\n  swap3\n  swap2\n  pop\n  pop\n  jump\t// out\n    /* \"#utility.yul\":1372:1494   */\ntag_26:\n    /* \"#utility.yul\":1445:1469   */\n  tag_50\n    /* \"#utility.yul\":1463:1468   */\n  dup2\n    /* \"#utility.yul\":1445:1469   */\n  tag_19\n  jump\t// in\ntag_50:\n    /* \"#utility.yul\":1438:1443   */\n  dup2\n    /* \"#utility.yul\":1435:1470   */\n  eq\n    /* \"#utility.yul\":1425:1488   */\n  tag_51\n  jumpi\n    /* \"#utility.yul\":1484:1485   */\n  0x00\n    /* \"#utility.yul\":1481:1482   */\n  dup1\n    /* \"#utility.yul\":1474:1486   */\n  revert\n    /* \"#utility.yul\":1425:1488   */\ntag_51:\n    /* \"#utility.yul\":1372:1494   */\n  pop\n  jump\t// out\n    /* \"#utility.yul\":1500:1643   */\ntag_27:\n    /* \"#utility.yul\":1557:1562   */\n  0x00\n    /* \"#utility.yul\":1588:1594   */\n  dup2\n    /* \"#utility.yul\":1582:1595   */\n  mload\n    /* \"#utility.yul\":1573:1595   */\n  swap1\n  pop\n    /* \"#utility.yul\":1604:1637   */\n  tag_53\n    /* \"#utility.yul\":1631:1636   */\n  dup2\n    /* \"#utility.yul\":1604:1637   */\n  tag_26\n  jump\t// in\ntag_53:\n    /* \"#utility.yul\":1500:1643   */\n  swap3\n  swap2\n  pop\n  pop\n  jump\t// out\n    /* \"#utility.yul\":1649:3596   */\ntag_3:\n    /* \"#utility.yul\":1822:1828   */\n  0x00\n    /* \"#utility.yul\":1830:1836   */\n  dup1\n    /* \"#utility.yul\":1838:1844   */\n  0x00\n    /* \"#utility.yul\":1846:1852   */\n  dup1\n    /* \"#utility.yul\":1854:1860   */\n  0x00\n    /* \"#utility.yul\":1862:1868   */\n  dup1\n    /* \"#utility.yul\":1870:1876   */\n  0x00\n    /* \"#utility.yul\":1878:1884   */\n  dup1\n    /* \"#utility.yul\":1886:1892   */\n  0x00\n    /* \"#utility.yul\":1894:1900   */\n  dup1\n    /* \"#utility.yul\":1902:1909   */\n  0x00\n    /* \"#utility.yul\":1952:1955   */\n  0x0160\n    /* \"#utility.yul\":1940:1949   */\n  dup13\n    /* \"#utility.yul\":1931:1938   */\n  dup15\n    /* \"#utility.yul\":1927:1950   */\n  sub\n    /* \"#utility.yul\":1923:1956   */\n  slt\n    /* \"#utility.yul\":1920:2040   */\n  iszero\n  tag_55\n  jumpi\n    /* \"#utility.yul\":1959:2038   */\n  tag_56\n  tag_16\n  jump\t// in\ntag_56:\n    /* \"#utility.yul\":1920:2040   */\ntag_55:\n    /* \"#utility.yul\":2079:2080   */\n  0x00\n    /* \"#utility.yul\":2104:2181   */\n  tag_57\n    /* \"#utility.yul\":2173:2180   */\n  dup15\n    /* \"#utility.yul\":2164:2170   */\n  dup3\n    /* \"#utility.yul\":2153:2162   */\n  dup16\n    /* \"#utility.yul\":2149:2171   */\n  add\n    /* \"#utility.yul\":2104:2181   */\n  tag_22\n  jump\t// in\ntag_57:\n    /* \"#utility.yul\":2094:2181   */\n  swap12\n  pop\n    /* \"#utility.yul\":2050:2191   */\n  pop\n    /* \"#utility.yul\":2230:2232   */\n  0x20\n    /* \"#utility.yul\":2256:2320   */\n  tag_58\n    /* \"#utility.yul\":2312:2319   */\n  dup15\n    /* \"#utility.yul\":2303:2309   */\n  dup3\n    /* \"#utility.yul\":2292:2301   */\n  dup16\n    /* \"#utility.yul\":2288:2310   */\n  add\n    /* \"#utility.yul\":2256:2320   */\n  tag_25\n  jump\t// in\ntag_58:\n    /* \"#utility.yul\":2246:2320   */\n  swap11\n  pop\n    /* \"#utility.yul\":2201:2330   */\n  pop\n    /* \"#utility.yul\":2369:2371   */\n  0x40\n    /* \"#utility.yul\":2395:2459   */\n  tag_59\n    /* \"#utility.yul\":2451:2458   */\n  dup15\n    /* \"#utility.yul\":2442:2448   */\n  dup3\n    /* \"#utility.yul\":2431:2440   */\n  dup16\n    /* \"#utility.yul\":2427:2449   */\n  add\n    /* \"#utility.yul\":2395:2459   */\n  tag_25\n  jump\t// in\ntag_59:\n    /* \"#utility.yul\":2385:2459   */\n  swap10\n  pop\n    /* \"#utility.yul\":2340:2469   */\n  pop\n    /* \"#utility.yul\":2508:2510   */\n  0x60\n    /* \"#utility.yul\":2534:2598   */\n  tag_60\n    /* \"#utility.yul\":2590:2597   */\n  dup15\n    /* \"#utility.yul\":2581:2587   */\n  dup3\n    /* \"#utility.yul\":2570:2579   */\n  dup16\n    /* \"#utility.yul\":2566:2588   */\n  add\n    /* \"#utility.yul\":2534:2598   */\n  tag_25\n  jump\t// in\ntag_60:\n    /* \"#utility.yul\":2524:2598   */\n  swap9\n  pop\n    /* \"#utility.yul\":2479:2608   */\n  pop\n    /* \"#utility.yul\":2647:2650   */\n  0x80\n    /* \"#utility.yul\":2674:2738   */\n  tag_61\n    /* \"#utility.yul\":2730:2737   */\n  dup15\n    /* \"#utility.yul\":2721:2727   */\n  dup3\n    /* \"#utility.yul\":2710:2719   */\n  dup16\n    /* \"#utility.yul\":2706:2728   */\n  add\n    /* \"#utility.yul\":2674:2738   */\n  tag_25\n  jump\t// in\ntag_61:\n    /* \"#utility.yul\":2664:2738   */\n  swap8\n  pop\n    /* \"#utility.yul\":2618:2748   */\n  pop\n    /* \"#utility.yul\":2787:2790   */\n  0xa0\n    /* \"#utility.yul\":2814:2878   */\n  tag_62\n    /* \"#utility.yul\":2870:2877   */\n  dup15\n    /* \"#utility.yul\":2861:2867   */\n  dup3\n    /* \"#utility.yul\":2850:2859   */\n  dup16\n    /* \"#utility.yul\":2846:2868   */\n  add\n    /* \"#utility.yul\":2814:2878   */\n  tag_25\n  jump\t// in\ntag_62:\n    /* \"#utility.yul\":2804:2878   */\n  swap7\n  pop\n    /* \"#utility.yul\":2758:2888   */\n  pop\n    /* \"#utility.yul\":2927:2930   */\n  0xc0\n    /* \"#utility.yul\":2954:3018   */\n  tag_63\n    /* \"#utility.yul\":3010:3017   */\n  dup15\n    /* \"#utility.yul\":3001:3007   */\n  dup3\n    /* \"#utility.yul\":2990:2999   */\n  dup16\n    /* \"#utility.yul\":2986:3008   */\n  add\n    /* \"#utility.yul\":2954:3018   */\n  tag_25\n  jump\t// in\ntag_63:\n    /* \"#utility.yul\":2944:3018   */\n  swap6\n  pop\n    /* \"#utility.yul\":2898:3028   */\n  pop\n    /* \"#utility.yul\":3067:3070   */\n  0xe0\n    /* \"#utility.yul\":3094:3158   */\n  tag_64\n    /* \"#utility.yul\":3150:3157   */\n  dup15\n    /* \"#utility.yul\":3141:3147   */\n  dup3\n    /* \"#utility.yul\":3130:3139   */\n  dup16\n    /* \"#utility.yul\":3126:3148   */\n  add\n    /* \"#utility.yul\":3094:3158   */\n  tag_25\n  jump\t// in\ntag_64:\n    /* \"#utility.yul\":3084:3158   */\n  swap5\n  pop\n    /* \"#utility.yul\":3038:3168   */\n  pop\n    /* \"#utility.yul\":3207:3210   */\n  0x0100\n    /* \"#utility.yul\":3234:3298   */\n  tag_65\n    /* \"#utility.yul\":3290:3297   */\n  dup15\n    /* \"#utility.yul\":3281:3287   */\n  dup3\n    /* \"#utility.yul\":3270:3279   */\n  dup16\n    /* \"#utility.yul\":3266:3288   */\n  add\n    /* \"#utility.yul\":3234:3298   */\n  tag_25\n  jump\t// in\ntag_65:\n    /* \"#utility.yul\":3224:3298   */\n  swap4\n  pop\n    /* \"#utility.yul\":3178:3308   */\n  pop\n    /* \"#utility.yul\":3347:3350   */\n  0x0120\n    /* \"#utility.yul\":3374:3438   */\n  tag_66\n    /* \"#utility.yul\":3430:3437   */\n  dup15\n    /* \"#utility.yul\":3421:3427   */\n  dup3\n    /* \"#utility.yul\":3410:3419   */\n  dup16\n    /* \"#utility.yul\":3406:3428   */\n  add\n    /* \"#utility.yul\":3374:3438   */\n  tag_25\n  jump\t// in\ntag_66:\n    /* \"#utility.yul\":3364:3438   */\n  swap3\n  pop\n    /* \"#utility.yul\":3318:3448   */\n  pop\n    /* \"#utility.yul\":3487:3490   */\n  0x0140\n    /* \"#utility.yul\":3515:3579   */\n  tag_67\n    /* \"#utility.yul\":3571:3578   */\n  dup15\n    /* \"#utility.yul\":3562:3568   */\n  dup3\n    /* \"#utility.yul\":3551:3560   */\n  dup16\n    /* \"#utility.yul\":3547:3569   */\n  add\n    /* \"#utility.yul\":3515:3579   */\n  tag_27\n  jump\t// in\ntag_67:\n    /* \"#utility.yul\":3504:3579   */\n  swap2\n  pop\n    /* \"#utility.yul\":3458:3589   */\n  pop\n    /* \"#utility.yul\":1649:3596   */\n  swap3\n  swap6\n  swap9\n  swap12\n  pop\n  swap3\n  swap6\n  swap9\n  swap12\n  swap1\n  swap4\n  swap7\n  swap10\n  pop\n  jump\t// out\n    /* \"#utility.yul\":3602:3720   */\ntag_28:\n    /* \"#utility.yul\":3689:3713   */\n  tag_69\n    /* \"#utility.yul\":3707:3712   */\n  dup2\n    /* \"#utility.yul\":3689:3713   */\n  tag_19\n  jump\t// in\ntag_69:\n    /* \"#utility.yul\":3684:3687   */\n  dup3\n    /* \"#utility.yul\":3677:3714   */\n  mstore\n    /* \"#utility.yul\":3602:3720   */\n  pop\n  pop\n  jump\t// out\n    /* \"#utility.yul\":3726:3948   */\ntag_9:\n    /* \"#utility.yul\":3819:3823   */\n  0x00\n    /* \"#utility.yul\":3857:3859   */\n  0x20\n    /* \"#utility.yul\":3846:3855   */\n  dup3\n    /* \"#utility.yul\":3842:3860   */\n  add\n    /* \"#utility.yul\":3834:3860   */\n  swap1\n  pop\n    /* \"#utility.yul\":3870:3941   */\n  tag_71\n    /* \"#utility.yul\":3938:3939   */\n  0x00\n    /* \"#utility.yul\":3927:3936   */\n  dup4\n    /* \"#utility.yul\":3923:3940   */\n  add\n    /* \"#utility.yul\":3914:3920   */\n  dup5\n    /* \"#utility.yul\":3870:3941   */\n  tag_28\n  jump\t// in\ntag_71:\n    /* \"#utility.yul\":3726:3948   */\n  swap3\n  swap2\n  pop\n  pop\n  jump\t// out\n    /* \"contracts/sale.sol\":167:6411  contract TokenSale is Ownable {... */\ntag_13:\n  dataSize(sub_0)\n  dup1\n  dataOffset(sub_0)\n  0x00\n  codecopy\n  0x00\n  return\nstop\n\nsub_0: assembly {\n        /* \"contracts/sale.sol\":167:6411  contract TokenSale is Ownable {... */\n      mstore(0x40, 0x80)\n      jumpi(tag_1, lt(calldatasize, 0x04))\n      shr(0xe0, calldataload(0x00))\n      dup1\n      0x6bb7b1d9\n      gt\n      tag_27\n      jumpi\n      dup1\n      0xb5545a3c\n      gt\n      tag_28\n      jumpi\n      dup1\n      0xe59c9510\n      gt\n      tag_29\n      jumpi\n      dup1\n      0xe59c9510\n      eq\n      tag_23\n      jumpi\n      dup1\n      0xf2fde38b\n      eq\n      tag_24\n      jumpi\n      dup1\n      0xfc0c546a\n      eq\n      tag_25\n      jumpi\n      dup1\n      0xfcb67c5b\n      eq\n      tag_26\n      jumpi\n      jump(tag_1)\n    tag_29:\n      dup1\n      0xb5545a3c\n      eq\n      tag_20\n      jumpi\n      dup1\n      0xc4849847\n      eq\n      tag_21\n      jumpi\n      dup1\n      0xccf125d8\n      eq\n      tag_22\n      jumpi\n      jump(tag_1)\n    tag_28:\n      dup1\n      0x6bb7b1d9\n      eq\n      tag_14\n      jumpi\n      dup1\n      0x7146e4fa\n      eq\n      tag_15\n      jumpi\n      dup1\n      0x715018a6\n      eq\n      tag_16\n      jumpi\n      dup1\n      0x87e449c3\n      eq\n      tag_17\n      jumpi\n      dup1\n      0x8da5cb5b\n      eq\n      tag_18\n      jumpi\n      dup1\n      0xabd2cc5f\n      eq\n      tag_19\n      jumpi\n      jump(tag_1)\n    tag_27:\n      dup1\n      0x2af89179\n      gt\n      tag_30\n      jumpi\n      dup1\n      0x2af89179\n      eq\n      tag_8\n      jumpi\n      dup1\n      0x35f74869\n      eq\n      tag_9\n      jumpi\n      dup1\n      0x477f1eba\n      eq\n      tag_10\n      jumpi\n      dup1\n      0x5e4d3b4b\n      eq\n      tag_11\n      jumpi\n      dup1\n      0x63d5502f\n      eq\n      tag_12\n      jumpi\n      dup1\n      0x64826b7a\n      eq\n      tag_13\n      jumpi\n      jump(tag_1)\n    tag_30:\n      dup1\n      0x0269d3b4\n      eq\n      tag_2\n      jumpi\n      dup1\n      0x1207c90d\n      eq\n      tag_3\n      jumpi\n      dup1\n      0x158a4988\n      eq\n      tag_4\n      jumpi\n      dup1\n      0x1e4d185f\n      eq\n      tag_5\n      jumpi\n      dup1\n      0x249b7c19\n      eq\n      tag_6\n      jumpi\n      dup1\n      0x2a517ab2\n      eq\n      tag_7\n      jumpi\n    tag_1:\n      0x00\n      dup1\n      revert\n        /* \"contracts/sale.sol\":2575:3291  function contributeToPresale() external payable onlyDuringPresale {... */\n    tag_2:\n      tag_31\n      tag_32\n      jump\t// in\n    tag_31:\n      stop\n        /* \"contracts/sale.sol\":5381:5613  function closePresaleAndStartPublicSale() external onlyOwnerOrAdmin {... */\n    tag_3:\n      callvalue\n      dup1\n      iszero\n      tag_33\n      jumpi\n      0x00\n      dup1\n      revert\n    tag_33:\n      pop\n      tag_34\n      tag_35\n      jump\t// in\n    tag_34:\n      stop\n        /* \"contracts/sale.sol\":4048:4307  function distributeTokens(address _recipient, uint256 _amount) external onlyOwnerOrAdmin {... */\n    tag_4:\n      callvalue\n      dup1\n      iszero\n      tag_36\n      jumpi\n      0x00\n      dup1\n      revert\n    tag_36:\n      pop\n      tag_37\n      0x04\n      dup1\n      calldatasize\n      sub\n      dup2\n      add\n      swap1\n      tag_38\n      swap2\n      swap1\n      tag_39\n      jump\t// in\n    tag_38:\n      tag_40\n      jump\t// in\n    tag_37:\n      stop\n        /* \"contracts/sale.sol\":577:609  uint256 public publicSaleEndTime */\n    tag_5:\n      callvalue\n      dup1\n      iszero\n      tag_41\n      jumpi\n      0x00\n      dup1\n      revert\n    tag_41:\n      pop\n      tag_42\n      tag_43\n      jump\t// in\n    tag_42:\n      mload(0x40)\n      tag_44\n      swap2\n      swap1\n      tag_45\n      jump\t// in\n    tag_44:\n      mload(0x40)\n      dup1\n      swap2\n      sub\n      swap1\n      return\n        /* \"contracts/sale.sol\":502:531  uint256 public presaleEndTime */\n    tag_6:\n      callvalue\n      dup1\n      iszero\n      tag_46\n      jumpi\n      0x00\n      dup1\n      revert\n    tag_46:\n      pop\n      tag_47\n      tag_48\n      jump\t// in\n    tag_47:\n      mload(0x40)\n      tag_49\n      swap2\n      swap1\n      tag_45\n      jump\t// in\n    tag_49:\n      mload(0x40)\n      dup1\n      swap2\n      sub\n      swap1\n      return\n        /* \"contracts/sale.sol\":409:449  uint256 public publicSaleMinContribution */\n    tag_7:\n      callvalue\n      dup1\n      iszero\n      tag_50\n      jumpi\n      0x00\n      dup1\n      revert\n    tag_50:\n      pop\n      tag_51\n      tag_52\n      jump\t// in\n    tag_51:\n      mload(0x40)\n      tag_53\n      swap2\n      swap1\n      tag_45\n      jump\t// in\n    tag_53:\n      mload(0x40)\n      dup1\n      swap2\n      sub\n      swap1\n      return\n        /* \"contracts/sale.sol\":5658:5838  function closePublicSale() external onlyOwnerOrAdmin {... */\n    tag_8:\n      callvalue\n      dup1\n      iszero\n      tag_54\n      jumpi\n      0x00\n      dup1\n      revert\n    tag_54:\n      pop\n      tag_55\n      tag_56\n      jump\t// in\n    tag_55:\n      stop\n        /* \"contracts/sale.sol\":677:735  mapping(address => uint256) public publicSaleContributions */\n    tag_9:\n      callvalue\n      dup1\n      iszero\n      tag_57\n      jumpi\n      0x00\n      dup1\n      revert\n    tag_57:\n      pop\n      tag_58\n      0x04\n      dup1\n      calldatasize\n      sub\n      dup2\n      add\n      swap1\n      tag_59\n      swap2\n      swap1\n      tag_60\n      jump\t// in\n    tag_59:\n      tag_61\n      jump\t// in\n    tag_58:\n      mload(0x40)\n      tag_62\n      swap2\n      swap1\n      tag_45\n      jump\t// in\n    tag_62:\n      mload(0x40)\n      dup1\n      swap2\n      sub\n      swap1\n      return\n        /* \"contracts/sale.sol\":616:671  mapping(address => uint256) public presaleContributions */\n    tag_10:\n      callvalue\n      dup1\n      iszero\n      tag_63\n      jumpi\n      0x00\n      dup1\n      revert\n    tag_63:\n      pop\n      tag_64\n      0x04\n      dup1\n      calldatasize\n      sub\n      dup2\n      add\n      swap1\n      tag_65\n      swap2\n      swap1\n      tag_60\n      jump\t// in\n    tag_65:\n      tag_66\n      jump\t// in\n    tag_64:\n      mload(0x40)\n      tag_67\n      swap2\n      swap1\n      tag_45\n      jump\t// in\n    tag_67:\n      mload(0x40)\n      dup1\n      swap2\n      sub\n      swap1\n      return\n        /* \"contracts/sale.sol\":5906:6108  function extendSalePeriod(uint256 _presaleEndTime, uint256 _publicSaleEndTime) external onlyOwnerOrAdmin {... */\n    tag_11:\n      callvalue\n      dup1\n      iszero\n      tag_68\n      jumpi\n      0x00\n      dup1\n      revert\n    tag_68:\n      pop\n      tag_69\n      0x04\n      dup1\n      calldatasize\n      sub\n      dup2\n      add\n      swap1\n      tag_70\n      swap2\n      swap1\n      tag_71\n      jump\t// in\n    tag_70:\n      tag_72\n      jump\t// in\n    tag_69:\n      stop\n        /* \"contracts/sale.sol\":256:281  uint256 public presaleCap */\n    tag_12:\n      callvalue\n      dup1\n      iszero\n      tag_73\n      jumpi\n      0x00\n      dup1\n      revert\n    tag_73:\n      pop\n      tag_74\n      tag_75\n      jump\t// in\n    tag_74:\n      mload(0x40)\n      tag_76\n      swap2\n      swap1\n      tag_45\n      jump\t// in\n    tag_76:\n      mload(0x40)\n      dup1\n      swap2\n      sub\n      swap1\n      return\n        /* \"contracts/sale.sol\":287:315  uint256 public publicSaleCap */\n    tag_13:\n      callvalue\n      dup1\n      iszero\n      tag_77\n      jumpi\n      0x00\n      dup1\n      revert\n    tag_77:\n      pop\n      tag_78\n      tag_79\n      jump\t// in\n    tag_78:\n      mload(0x40)\n      tag_80\n      swap2\n      swap1\n      tag_45\n      jump\t// in\n    tag_80:\n      mload(0x40)\n      dup1\n      swap2\n      sub\n      swap1\n      return\n        /* \"contracts/sale.sol\":537:571  uint256 public publicSaleStartTime */\n    tag_14:\n      callvalue\n      dup1\n      iszero\n      tag_81\n      jumpi\n      0x00\n      dup1\n      revert\n    tag_81:\n      pop\n      tag_82\n      tag_83\n      jump\t// in\n    tag_82:\n      mload(0x40)\n      tag_84\n      swap2\n      swap1\n      tag_45\n      jump\t// in\n    tag_84:\n      mload(0x40)\n      dup1\n      swap2\n      sub\n      swap1\n      return\n        /* \"contracts/sale.sol\":455:495  uint256 public publicSaleMaxContribution */\n    tag_15:\n      callvalue\n      dup1\n      iszero\n      tag_85\n      jumpi\n      0x00\n      dup1\n      revert\n    tag_85:\n      pop\n      tag_86\n      tag_87\n      jump\t// in\n    tag_86:\n      mload(0x40)\n      tag_88\n      swap2\n      swap1\n      tag_45\n      jump\t// in\n    tag_88:\n      mload(0x40)\n      dup1\n      swap2\n      sub\n      swap1\n      return\n        /* \"@openzeppelin/contracts/access/Ownable.sol\":2293:2394  function renounceOwnership() public virtual onlyOwner {... */\n    tag_16:\n      callvalue\n      dup1\n      iszero\n      tag_89\n      jumpi\n      0x00\n      dup1\n      revert\n    tag_89:\n      pop\n      tag_90\n      tag_91\n      jump\t// in\n    tag_90:\n      stop\n        /* \"contracts/sale.sol\":365:402  uint256 public presaleMaxContribution */\n    tag_17:\n      callvalue\n      dup1\n      iszero\n      tag_92\n      jumpi\n      0x00\n      dup1\n      revert\n    tag_92:\n      pop\n      tag_93\n      tag_94\n      jump\t// in\n    tag_93:\n      mload(0x40)\n      tag_95\n      swap2\n      swap1\n      tag_45\n      jump\t// in\n    tag_95:\n      mload(0x40)\n      dup1\n      swap2\n      sub\n      swap1\n      return\n        /* \"@openzeppelin/contracts/access/Ownable.sol\":1638:1723  function owner() public view virtual returns (address) {... */\n    tag_18:\n      callvalue\n      dup1\n      iszero\n      tag_96\n      jumpi\n      0x00\n      dup1\n      revert\n    tag_96:\n      pop\n      tag_97\n      tag_98\n      jump\t// in\n    tag_97:\n      mload(0x40)\n      tag_99\n      swap2\n      swap1\n      tag_100\n      jump\t// in\n    tag_99:\n      mload(0x40)\n      dup1\n      swap2\n      sub\n      swap1\n      return\n        /* \"contracts/sale.sol\":742:775  bool public presaleClosed = false */\n    tag_19:\n      callvalue\n      dup1\n      iszero\n      tag_101\n      jumpi\n      0x00\n      dup1\n      revert\n    tag_101:\n      pop\n      tag_102\n      tag_103\n      jump\t// in\n    tag_102:\n      mload(0x40)\n      tag_104\n      swap2\n      swap1\n      tag_105\n      jump\t// in\n    tag_104:\n      mload(0x40)\n      dup1\n      swap2\n      sub\n      swap1\n      return\n        /* \"contracts/sale.sol\":4313:5110  function claimRefund() external {... */\n    tag_20:\n      callvalue\n      dup1\n      iszero\n      tag_106\n      jumpi\n      0x00\n      dup1\n      revert\n    tag_106:\n      pop\n      tag_107\n      tag_108\n      jump\t// in\n    tag_107:\n      stop\n        /* \"contracts/sale.sol\":322:359  uint256 public presaleMinContribution */\n    tag_21:\n      callvalue\n      dup1\n      iszero\n      tag_109\n      jumpi\n      0x00\n      dup1\n      revert\n    tag_109:\n      pop\n      tag_110\n      tag_111\n      jump\t// in\n    tag_110:\n      mload(0x40)\n      tag_112\n      swap2\n      swap1\n      tag_45\n      jump\t// in\n    tag_112:\n      mload(0x40)\n      dup1\n      swap2\n      sub\n      swap1\n      return\n        /* \"contracts/sale.sol\":781:817  bool public publicSaleClosed = false */\n    tag_22:\n      callvalue\n      dup1\n      iszero\n      tag_113\n      jumpi\n      0x00\n      dup1\n      revert\n    tag_113:\n      pop\n      tag_114\n      tag_115\n      jump\t// in\n    tag_114:\n      mload(0x40)\n      tag_116\n      swap2\n      swap1\n      tag_105\n      jump\t// in\n    tag_116:\n      mload(0x40)\n      dup1\n      swap2\n      sub\n      swap1\n      return\n        /* \"contracts/sale.sol\":3297:4042  function contributeToPublicSale() external payable onlyDuringPublicSale {... */\n    tag_23:\n      tag_117\n      tag_118\n      jump\t// in\n    tag_117:\n      stop\n        /* \"@openzeppelin/contracts/access/Ownable.sol\":2543:2758  function transferOwnership(address newOwner) public virtual onlyOwner {... */\n    tag_24:\n      callvalue\n      dup1\n      iszero\n      tag_119\n      jumpi\n      0x00\n      dup1\n      revert\n    tag_119:\n      pop\n      tag_120\n      0x04\n      dup1\n      calldatasize\n      sub\n      dup2\n      add\n      swap1\n      tag_121\n      swap2\n      swap1\n      tag_60\n      jump\t// in\n    tag_121:\n      tag_122\n      jump\t// in\n    tag_120:\n      stop\n        /* \"contracts/sale.sol\":203:221  ERC20 public token */\n    tag_25:\n      callvalue\n      dup1\n      iszero\n      tag_123\n      jumpi\n      0x00\n      dup1\n      revert\n    tag_123:\n      pop\n      tag_124\n      tag_125\n      jump\t// in\n    tag_124:\n      mload(0x40)\n      tag_126\n      swap2\n      swap1\n      tag_127\n      jump\t// in\n    tag_126:\n      mload(0x40)\n      dup1\n      swap2\n      sub\n      swap1\n      return\n        /* \"contracts/sale.sol\":6170:6409  function withdrawExcessFunds() external onlyOwnerOrAdmin {... */\n    tag_26:\n      callvalue\n      dup1\n      iszero\n      tag_128\n      jumpi\n      0x00\n      dup1\n      revert\n    tag_128:\n      pop\n      tag_129\n      tag_130\n      jump\t// in\n    tag_129:\n      stop\n        /* \"contracts/sale.sol\":2575:3291  function contributeToPresale() external payable onlyDuringPresale {... */\n    tag_32:\n        /* \"contracts/sale.sol\":2100:2114  presaleEndTime */\n      sload(0x08)\n        /* \"contracts/sale.sol\":2082:2097  block.timestamp */\n      timestamp\n        /* \"contracts/sale.sol\":2082:2114  block.timestamp < presaleEndTime */\n      lt\n        /* \"contracts/sale.sol\":2074:2136  require(block.timestamp < presaleEndTime, \"Presale has ended\") */\n      tag_132\n      jumpi\n      mload(0x40)\n      0x08c379a000000000000000000000000000000000000000000000000000000000\n      dup2\n      mstore\n      0x04\n      add\n      tag_133\n      swap1\n      tag_134\n      jump\t// in\n    tag_133:\n      mload(0x40)\n      dup1\n      swap2\n      sub\n      swap1\n      revert\n    tag_132:\n        /* \"contracts/sale.sol\":2155:2168  presaleClosed */\n      0x0d\n      0x00\n      swap1\n      sload\n      swap1\n      0x0100\n      exp\n      swap1\n      div\n      0xff\n      and\n        /* \"contracts/sale.sol\":2154:2168  !presaleClosed */\n      iszero\n        /* \"contracts/sale.sol\":2146:2190  require(!presaleClosed, \"Presale is closed\") */\n      tag_135\n      jumpi\n      mload(0x40)\n      0x08c379a000000000000000000000000000000000000000000000000000000000\n      dup2\n      mstore\n      0x04\n      add\n      tag_136\n      swap1\n      tag_137\n      jump\t// in\n    tag_136:\n      mload(0x40)\n      dup1\n      swap2\n      sub\n      swap1\n      revert\n    tag_135:\n        /* \"contracts/sale.sol\":2672:2694  presaleMinContribution */\n      sload(0x04)\n        /* \"contracts/sale.sol\":2659:2668  msg.value */\n      callvalue\n        /* \"contracts/sale.sol\":2659:2694  msg.value >= presaleMinContribution */\n      lt\n      iszero\n        /* \"contracts/sale.sol\":2659:2733  msg.value >= presaleMinContribution && msg.value <= presaleMaxContribution */\n      dup1\n      iszero\n      tag_139\n      jumpi\n      pop\n        /* \"contracts/sale.sol\":2711:2733  presaleMaxContribution */\n      sload(0x05)\n        /* \"contracts/sale.sol\":2698:2707  msg.value */\n      callvalue\n        /* \"contracts/sale.sol\":2698:2733  msg.value <= presaleMaxContribution */\n      gt\n      iszero\n        /* \"contracts/sale.sol\":2659:2733  msg.value >= presaleMinContribution && msg.value <= presaleMaxContribution */\n    tag_139:\n        /* \"contracts/sale.sol\":2651:2765  require(msg.value >= presaleMinContribution && msg.value <= presaleMaxContribution, \"Invalid contribution amount\") */\n      tag_140\n      jumpi\n      mload(0x40)\n      0x08c379a000000000000000000000000000000000000000000000000000000000\n      dup2\n      mstore\n      0x04\n      add\n      tag_141\n      swap1\n      tag_142\n      jump\t// in\n    tag_141:\n      mload(0x40)\n      dup1\n      swap2\n      sub\n      swap1\n      revert\n    tag_140:\n        /* \"contracts/sale.sol\":2776:2801  uint256 totalContribution */\n      0x00\n        /* \"contracts/sale.sol\":2839:2848  msg.value */\n      callvalue\n        /* \"contracts/sale.sol\":2804:2824  presaleContributions */\n      0x0b\n        /* \"contracts/sale.sol\":2804:2836  presaleContributions[msg.sender] */\n      0x00\n        /* \"contracts/sale.sol\":2825:2835  msg.sender */\n      caller\n        /* \"contracts/sale.sol\":2804:2836  presaleContributions[msg.sender] */\n      0xffffffffffffffffffffffffffffffffffffffff\n      and\n      0xffffffffffffffffffffffffffffffffffffffff\n      and\n      dup2\n      mstore\n      0x20\n      add\n      swap1\n      dup2\n      mstore\n      0x20\n      add\n      0x00\n      keccak256\n      sload\n        /* \"contracts/sale.sol\":2804:2848  presaleContributions[msg.sender] + msg.value */\n      tag_143\n      swap2\n      swap1\n      tag_144\n      jump\t// in\n    tag_143:\n        /* \"contracts/sale.sol\":2776:2848  uint256 totalContribution = presaleContributions[msg.sender] + msg.value */\n      swap1\n      pop\n        /* \"contracts/sale.sol\":2887:2909  presaleMaxContribution */\n      sload(0x05)\n        /* \"contracts/sale.sol\":2866:2883  totalContribution */\n      dup2\n        /* \"contracts/sale.sol\":2866:2909  totalContribution <= presaleMaxContribution */\n      gt\n      iszero\n        /* \"contracts/sale.sol\":2858:2949  require(totalContribution <= presaleMaxContribution, \"Exceeded maximum contribution limit\") */\n      tag_145\n      jumpi\n      mload(0x40)\n      0x08c379a000000000000000000000000000000000000000000000000000000000\n      dup2\n      mstore\n      0x04\n      add\n      tag_146\n      swap1\n      tag_147\n      jump\t// in\n    tag_146:\n      mload(0x40)\n      dup1\n      swap2\n      sub\n      swap1\n      revert\n    tag_145:\n        /* \"contracts/sale.sol\":2995:3012  totalContribution */\n      dup1\n        /* \"contracts/sale.sol\":2960:2980  presaleContributions */\n      0x0b\n        /* \"contracts/sale.sol\":2960:2992  presaleContributions[msg.sender] */\n      0x00\n        /* \"contracts/sale.sol\":2981:2991  msg.sender */\n      caller\n        /* \"contracts/sale.sol\":2960:2992  presaleContributions[msg.sender] */\n      0xffffffffffffffffffffffffffffffffffffffff\n      and\n      0xffffffffffffffffffffffffffffffffffffffff\n      and\n      dup2\n      mstore\n      0x20\n      add\n      swap1\n      dup2\n      mstore\n      0x20\n      add\n      0x00\n      keccak256\n        /* \"contracts/sale.sol\":2960:3012  presaleContributions[msg.sender] = totalContribution */\n      dup2\n      swap1\n      sstore\n      pop\n        /* \"contracts/sale.sol\":3056:3066  presaleCap */\n      sload(0x02)\n        /* \"contracts/sale.sol\":3031:3052  address(this).balance */\n      selfbalance\n        /* \"contracts/sale.sol\":3031:3066  address(this).balance <= presaleCap */\n      gt\n      iszero\n        /* \"contracts/sale.sol\":3023:3090  require(address(this).balance <= presaleCap, \"Presale cap reached\") */\n      tag_148\n      jumpi\n      mload(0x40)\n      0x08c379a000000000000000000000000000000000000000000000000000000000\n      dup2\n      mstore\n      0x04\n      add\n      tag_149\n      swap1\n      tag_150\n      jump\t// in\n    tag_149:\n      mload(0x40)\n      dup1\n      swap2\n      sub\n      swap1\n      revert\n    tag_148:\n        /* \"contracts/sale.sol\":3101:3120  uint256 tokenAmount */\n      0x00\n        /* \"contracts/sale.sol\":3123:3154  calculateTokenAmount(msg.value) */\n      tag_151\n        /* \"contracts/sale.sol\":3144:3153  msg.value */\n      callvalue\n        /* \"contracts/sale.sol\":3123:3143  calculateTokenAmount */\n      tag_152\n        /* \"contracts/sale.sol\":3123:3154  calculateTokenAmount(msg.value) */\n      jump\t// in\n    tag_151:\n        /* \"contracts/sale.sol\":3101:3154  uint256 tokenAmount = calculateTokenAmount(msg.value) */\n      swap1\n      pop\n        /* \"contracts/sale.sol\":3164:3169  token */\n      0x01\n      0x00\n      swap1\n      sload\n      swap1\n      0x0100\n      exp\n      swap1\n      div\n      0xffffffffffffffffffffffffffffffffffffffff\n      and\n        /* \"contracts/sale.sol\":3164:3178  token.transfer */\n      0xffffffffffffffffffffffffffffffffffffffff\n      and\n      0xa9059cbb\n        /* \"contracts/sale.sol\":3179:3189  msg.sender */\n      caller\n        /* \"contracts/sale.sol\":3191:3202  tokenAmount */\n      dup4\n        /* \"contracts/sale.sol\":3164:3203  token.transfer(msg.sender, tokenAmount) */\n      mload(0x40)\n      dup4\n      0xffffffff\n      and\n      0xe0\n      shl\n      dup2\n      mstore\n      0x04\n      add\n      tag_153\n      swap3\n      swap2\n      swap1\n      tag_154\n      jump\t// in\n    tag_153:\n      0x20\n      mload(0x40)\n      dup1\n      dup4\n      sub\n      dup2\n      0x00\n      dup8\n      gas\n      call\n      iszero\n      dup1\n      iszero\n      tag_156\n      jumpi\n      returndatasize\n      0x00\n      dup1\n      returndatacopy\n      revert(0x00, returndatasize)\n    tag_156:\n      pop\n      pop\n      pop\n      pop\n      mload(0x40)\n      returndatasize\n      not(0x1f)\n      0x1f\n      dup3\n      add\n      and\n      dup3\n      add\n      dup1\n      0x40\n      mstore\n      pop\n      dup2\n      add\n      swap1\n      tag_157\n      swap2\n      swap1\n      tag_158\n      jump\t// in\n    tag_157:\n      pop\n        /* \"contracts/sale.sol\":3235:3245  msg.sender */\n      caller\n        /* \"contracts/sale.sol\":3219:3284  TokensPurchased(msg.sender, tokenAmount, totalContribution, true) */\n      0xffffffffffffffffffffffffffffffffffffffff\n      and\n      0x17dbed7147e35a6b6887ff6124ff77b06f413095af19e1057e0ecf80722b456e\n        /* \"contracts/sale.sol\":3247:3258  tokenAmount */\n      dup3\n        /* \"contracts/sale.sol\":3260:3277  totalContribution */\n      dup5\n        /* \"contracts/sale.sol\":3279:3283  true */\n      0x01\n        /* \"contracts/sale.sol\":3219:3284  TokensPurchased(msg.sender, tokenAmount, totalContribution, true) */\n      mload(0x40)\n      tag_159\n      swap4\n      swap3\n      swap2\n      swap1\n      tag_160\n      jump\t// in\n    tag_159:\n      mload(0x40)\n      dup1\n      swap2\n      sub\n      swap1\n      log2\n        /* \"contracts/sale.sol\":2641:3291  {... */\n      pop\n      pop\n        /* \"contracts/sale.sol\":2575:3291  function contributeToPresale() external payable onlyDuringPresale {... */\n      jump\t// out\n        /* \"contracts/sale.sol\":5381:5613  function closePresaleAndStartPublicSale() external onlyOwnerOrAdmin {... */\n    tag_35:\n        /* \"contracts/sale.sol\":2513:2523  msg.sender */\n      caller\n        /* \"contracts/sale.sol\":2502:2523  owner() == msg.sender */\n      0xffffffffffffffffffffffffffffffffffffffff\n      and\n        /* \"contracts/sale.sol\":2502:2509  owner() */\n      tag_162\n        /* \"contracts/sale.sol\":2502:2507  owner */\n      tag_98\n        /* \"contracts/sale.sol\":2502:2509  owner() */\n      jump\t// in\n    tag_162:\n        /* \"contracts/sale.sol\":2502:2523  owner() == msg.sender */\n      0xffffffffffffffffffffffffffffffffffffffff\n      and\n      eq\n        /* \"contracts/sale.sol\":2494:2551  require(owner() == msg.sender, \"Caller is not the owner\") */\n      tag_163\n      jumpi\n      mload(0x40)\n      0x08c379a000000000000000000000000000000000000000000000000000000000\n      dup2\n      mstore\n      0x04\n      add\n      tag_164\n      swap1\n      tag_165\n      jump\t// in\n    tag_164:\n      mload(0x40)\n      dup1\n      swap2\n      sub\n      swap1\n      revert\n    tag_163:\n        /* \"contracts/sale.sol\":5486:5500  presaleEndTime */\n      sload(0x08)\n        /* \"contracts/sale.sol\":5467:5482  block.timestamp */\n      timestamp\n        /* \"contracts/sale.sol\":5467:5500  block.timestamp >= presaleEndTime */\n      lt\n      iszero\n        /* \"contracts/sale.sol\":5459:5528  require(block.timestamp >= presaleEndTime, \"Presale is still active\") */\n      tag_167\n      jumpi\n      mload(0x40)\n      0x08c379a000000000000000000000000000000000000000000000000000000000\n      dup2\n      mstore\n      0x04\n      add\n      tag_168\n      swap1\n      tag_169\n      jump\t// in\n    tag_168:\n      mload(0x40)\n      dup1\n      swap2\n      sub\n      swap1\n      revert\n    tag_167:\n        /* \"contracts/sale.sol\":5555:5559  true */\n      0x01\n        /* \"contracts/sale.sol\":5539:5552  presaleClosed */\n      0x0d\n      0x00\n        /* \"contracts/sale.sol\":5539:5559  presaleClosed = true */\n      0x0100\n      exp\n      dup2\n      sload\n      dup2\n      0xff\n      mul\n      not\n      and\n      swap1\n      dup4\n      iszero\n      iszero\n      mul\n      or\n      swap1\n      sstore\n      pop\n        /* \"contracts/sale.sol\":5591:5606  block.timestamp */\n      timestamp\n        /* \"contracts/sale.sol\":5569:5588  publicSaleStartTime */\n      0x09\n        /* \"contracts/sale.sol\":5569:5606  publicSaleStartTime = block.timestamp */\n      dup2\n      swap1\n      sstore\n      pop\n        /* \"contracts/sale.sol\":5381:5613  function closePresaleAndStartPublicSale() external onlyOwnerOrAdmin {... */\n      jump\t// out\n        /* \"contracts/sale.sol\":4048:4307  function distributeTokens(address _recipient, uint256 _amount) external onlyOwnerOrAdmin {... */\n    tag_40:\n        /* \"contracts/sale.sol\":2513:2523  msg.sender */\n      caller\n        /* \"contracts/sale.sol\":2502:2523  owner() == msg.sender */\n      0xffffffffffffffffffffffffffffffffffffffff\n      and\n        /* \"contracts/sale.sol\":2502:2509  owner() */\n      tag_171\n        /* \"contracts/sale.sol\":2502:2507  owner */\n      tag_98\n        /* \"contracts/sale.sol\":2502:2509  owner() */\n      jump\t// in\n    tag_171:\n        /* \"contracts/sale.sol\":2502:2523  owner() == msg.sender */\n      0xffffffffffffffffffffffffffffffffffffffff\n      and\n      eq\n        /* \"contracts/sale.sol\":2494:2551  require(owner() == msg.sender, \"Caller is not the owner\") */\n      tag_172\n      jumpi\n      mload(0x40)\n      0x08c379a000000000000000000000000000000000000000000000000000000000\n      dup2\n      mstore\n      0x04\n      add\n      tag_173\n      swap1\n      tag_165\n      jump\t// in\n    tag_173:\n      mload(0x40)\n      dup1\n      swap2\n      sub\n      swap1\n      revert\n    tag_172:\n        /* \"contracts/sale.sol\":4165:4166  0 */\n      0x00\n        /* \"contracts/sale.sol\":4155:4162  _amount */\n      dup2\n        /* \"contracts/sale.sol\":4155:4166  _amount > 0 */\n      gt\n        /* \"contracts/sale.sol\":4147:4202  require(_amount > 0, \"Amount should be greater than 0\") */\n      tag_175\n      jumpi\n      mload(0x40)\n      0x08c379a000000000000000000000000000000000000000000000000000000000\n      dup2\n      mstore\n      0x04\n      add\n      tag_176\n      swap1\n      tag_177\n      jump\t// in\n    tag_176:\n      mload(0x40)\n      dup1\n      swap2\n      sub\n      swap1\n      revert\n    tag_175:\n        /* \"contracts/sale.sol\":4212:4217  token */\n      0x01\n      0x00\n      swap1\n      sload\n      swap1\n      0x0100\n      exp\n      swap1\n      div\n      0xffffffffffffffffffffffffffffffffffffffff\n      and\n        /* \"contracts/sale.sol\":4212:4226  token.transfer */\n      0xffffffffffffffffffffffffffffffffffffffff\n      and\n      0xa9059cbb\n        /* \"contracts/sale.sol\":4227:4237  _recipient */\n      dup4\n        /* \"contracts/sale.sol\":4239:4246  _amount */\n      dup4\n        /* \"contracts/sale.sol\":4212:4247  token.transfer(_recipient, _amount) */\n      mload(0x40)\n      dup4\n      0xffffffff\n      and\n      0xe0\n      shl\n      dup2\n      mstore\n      0x04\n      add\n      tag_178\n      swap3\n      swap2\n      swap1\n      tag_154\n      jump\t// in\n    tag_178:\n      0x20\n      mload(0x40)\n      dup1\n      dup4\n      sub\n      dup2\n      0x00\n      dup8\n      gas\n      call\n      iszero\n      dup1\n      iszero\n      tag_180\n      jumpi\n      returndatasize\n      0x00\n      dup1\n      returndatacopy\n      revert(0x00, returndatasize)\n    tag_180:\n      pop\n      pop\n      pop\n      pop\n      mload(0x40)\n      returndatasize\n      not(0x1f)\n      0x1f\n      dup3\n      add\n      and\n      dup3\n      add\n      dup1\n      0x40\n      mstore\n      pop\n      dup2\n      add\n      swap1\n      tag_181\n      swap2\n      swap1\n      tag_158\n      jump\t// in\n    tag_181:\n      pop\n        /* \"contracts/sale.sol\":4280:4290  _recipient */\n      dup2\n        /* \"contracts/sale.sol\":4262:4300  TokensDistributed(_recipient, _amount) */\n      0xffffffffffffffffffffffffffffffffffffffff\n      and\n      0x16b0da2ffcb90c6723317bd637d9aad7f04711f42bbe0ac0918ebe10f1f9001c\n        /* \"contracts/sale.sol\":4292:4299  _amount */\n      dup3\n        /* \"contracts/sale.sol\":4262:4300  TokensDistributed(_recipient, _amount) */\n      mload(0x40)\n      tag_182\n      swap2\n      swap1\n      tag_45\n      jump\t// in\n    tag_182:\n      mload(0x40)\n      dup1\n      swap2\n      sub\n      swap1\n      log2\n        /* \"contracts/sale.sol\":4048:4307  function distributeTokens(address _recipient, uint256 _amount) external onlyOwnerOrAdmin {... */\n      pop\n      pop\n      jump\t// out\n        /* \"contracts/sale.sol\":577:609  uint256 public publicSaleEndTime */\n    tag_43:\n      sload(0x0a)\n      dup2\n      jump\t// out\n        /* \"contracts/sale.sol\":502:531  uint256 public presaleEndTime */\n    tag_48:\n      sload(0x08)\n      dup2\n      jump\t// out\n        /* \"contracts/sale.sol\":409:449  uint256 public publicSaleMinContribution */\n    tag_52:\n      sload(0x06)\n      dup2\n      jump\t// out\n        /* \"contracts/sale.sol\":5658:5838  function closePublicSale() external onlyOwnerOrAdmin {... */\n    tag_56:\n        /* \"contracts/sale.sol\":2513:2523  msg.sender */\n      caller\n        /* \"contracts/sale.sol\":2502:2523  owner() == msg.sender */\n      0xffffffffffffffffffffffffffffffffffffffff\n      and\n        /* \"contracts/sale.sol\":2502:2509  owner() */\n      tag_184\n        /* \"contracts/sale.sol\":2502:2507  owner */\n      tag_98\n        /* \"contracts/sale.sol\":2502:2509  owner() */\n      jump\t// in\n    tag_184:\n        /* \"contracts/sale.sol\":2502:2523  owner() == msg.sender */\n      0xffffffffffffffffffffffffffffffffffffffff\n      and\n      eq\n        /* \"contracts/sale.sol\":2494:2551  require(owner() == msg.sender, \"Caller is not the owner\") */\n      tag_185\n      jumpi\n      mload(0x40)\n      0x08c379a000000000000000000000000000000000000000000000000000000000\n      dup2\n      mstore\n      0x04\n      add\n      tag_186\n      swap1\n      tag_165\n      jump\t// in\n    tag_186:\n      mload(0x40)\n      dup1\n      swap2\n      sub\n      swap1\n      revert\n    tag_185:\n        /* \"contracts/sale.sol\":5748:5765  publicSaleEndTime */\n      sload(0x0a)\n        /* \"contracts/sale.sol\":5729:5744  block.timestamp */\n      timestamp\n        /* \"contracts/sale.sol\":5729:5765  block.timestamp >= publicSaleEndTime */\n      lt\n      iszero\n        /* \"contracts/sale.sol\":5721:5797  require(block.timestamp >= publicSaleEndTime, \"Public sale is still active\") */\n      tag_188\n      jumpi\n      mload(0x40)\n      0x08c379a000000000000000000000000000000000000000000000000000000000\n      dup2\n      mstore\n      0x04\n      add\n      tag_189\n      swap1\n      tag_190\n      jump\t// in\n    tag_189:\n      mload(0x40)\n      dup1\n      swap2\n      sub\n      swap1\n      revert\n    tag_188:\n        /* \"contracts/sale.sol\":5827:5831  true */\n      0x01\n        /* \"contracts/sale.sol\":5808:5824  publicSaleClosed */\n      0x0d\n      0x01\n        /* \"contracts/sale.sol\":5808:5831  publicSaleClosed = true */\n      0x0100\n      exp\n      dup2\n      sload\n      dup2\n      0xff\n      mul\n      not\n      and\n      swap1\n      dup4\n      iszero\n      iszero\n      mul\n      or\n      swap1\n      sstore\n      pop\n        /* \"contracts/sale.sol\":5658:5838  function closePublicSale() external onlyOwnerOrAdmin {... */\n      jump\t// out\n        /* \"contracts/sale.sol\":677:735  mapping(address => uint256) public publicSaleContributions */\n    tag_61:\n      mstore(0x20, 0x0c)\n      dup1\n      0x00\n      mstore\n      keccak256(0x00, 0x40)\n      0x00\n      swap2\n      pop\n      swap1\n      pop\n      sload\n      dup2\n      jump\t// out\n        /* \"contracts/sale.sol\":616:671  mapping(address => uint256) public presaleContributions */\n    tag_66:\n      mstore(0x20, 0x0b)\n      dup1\n      0x00\n      mstore\n      keccak256(0x00, 0x40)\n      0x00\n      swap2\n      pop\n      swap1\n      pop\n      sload\n      dup2\n      jump\t// out\n        /* \"contracts/sale.sol\":5906:6108  function extendSalePeriod(uint256 _presaleEndTime, uint256 _publicSaleEndTime) external onlyOwnerOrAdmin {... */\n    tag_72:\n        /* \"contracts/sale.sol\":2513:2523  msg.sender */\n      caller\n        /* \"contracts/sale.sol\":2502:2523  owner() == msg.sender */\n      0xffffffffffffffffffffffffffffffffffffffff\n      and\n        /* \"contracts/sale.sol\":2502:2509  owner() */\n      tag_192\n        /* \"contracts/sale.sol\":2502:2507  owner */\n      tag_98\n        /* \"contracts/sale.sol\":2502:2509  owner() */\n      jump\t// in\n    tag_192:\n        /* \"contracts/sale.sol\":2502:2523  owner() == msg.sender */\n      0xffffffffffffffffffffffffffffffffffffffff\n      and\n      eq\n        /* \"contracts/sale.sol\":2494:2551  require(owner() == msg.sender, \"Caller is not the owner\") */\n      tag_193\n      jumpi\n      mload(0x40)\n      0x08c379a000000000000000000000000000000000000000000000000000000000\n      dup2\n      mstore\n      0x04\n      add\n      tag_194\n      swap1\n      tag_165\n      jump\t// in\n    tag_194:\n      mload(0x40)\n      dup1\n      swap2\n      sub\n      swap1\n      revert\n    tag_193:\n        /* \"contracts/sale.sol\":6038:6053  _presaleEndTime */\n      dup2\n        /* \"contracts/sale.sol\":6021:6035  presaleEndTime */\n      0x08\n        /* \"contracts/sale.sol\":6021:6053  presaleEndTime = _presaleEndTime */\n      dup2\n      swap1\n      sstore\n      pop\n        /* \"contracts/sale.sol\":6083:6101  _publicSaleEndTime */\n      dup1\n        /* \"contracts/sale.sol\":6063:6080  publicSaleEndTime */\n      0x0a\n        /* \"contracts/sale.sol\":6063:6101  publicSaleEndTime = _publicSaleEndTime */\n      dup2\n      swap1\n      sstore\n      pop\n        /* \"contracts/sale.sol\":5906:6108  function extendSalePeriod(uint256 _presaleEndTime, uint256 _publicSaleEndTime) external onlyOwnerOrAdmin {... */\n      pop\n      pop\n      jump\t// out\n        /* \"contracts/sale.sol\":256:281  uint256 public presaleCap */\n    tag_75:\n      sload(0x02)\n      dup2\n      jump\t// out\n        /* \"contracts/sale.sol\":287:315  uint256 public publicSaleCap */\n    tag_79:\n      sload(0x03)\n      dup2\n      jump\t// out\n        /* \"contracts/sale.sol\":537:571  uint256 public publicSaleStartTime */\n    tag_83:\n      sload(0x09)\n      dup2\n      jump\t// out\n        /* \"contracts/sale.sol\":455:495  uint256 public publicSaleMaxContribution */\n    tag_87:\n      sload(0x07)\n      dup2\n      jump\t// out\n        /* \"@openzeppelin/contracts/access/Ownable.sol\":2293:2394  function renounceOwnership() public virtual onlyOwner {... */\n    tag_91:\n        /* \"@openzeppelin/contracts/access/Ownable.sol\":1531:1544  _checkOwner() */\n      tag_197\n        /* \"@openzeppelin/contracts/access/Ownable.sol\":1531:1542  _checkOwner */\n      tag_198\n        /* \"@openzeppelin/contracts/access/Ownable.sol\":1531:1544  _checkOwner() */\n      jump\t// in\n    tag_197:\n        /* \"@openzeppelin/contracts/access/Ownable.sol\":2357:2387  _transferOwnership(address(0)) */\n      tag_200\n        /* \"@openzeppelin/contracts/access/Ownable.sol\":2384:2385  0 */\n      0x00\n        /* \"@openzeppelin/contracts/access/Ownable.sol\":2357:2375  _transferOwnership */\n      tag_201\n        /* \"@openzeppelin/contracts/access/Ownable.sol\":2357:2387  _transferOwnership(address(0)) */\n      jump\t// in\n    tag_200:\n        /* \"@openzeppelin/contracts/access/Ownable.sol\":2293:2394  function renounceOwnership() public virtual onlyOwner {... */\n      jump\t// out\n        /* \"contracts/sale.sol\":365:402  uint256 public presaleMaxContribution */\n    tag_94:\n      sload(0x05)\n      dup2\n      jump\t// out\n        /* \"@openzeppelin/contracts/access/Ownable.sol\":1638:1723  function owner() public view virtual returns (address) {... */\n    tag_98:\n        /* \"@openzeppelin/contracts/access/Ownable.sol\":1684:1691  address */\n      0x00\n        /* \"@openzeppelin/contracts/access/Ownable.sol\":1710:1716  _owner */\n      dup1\n      0x00\n      swap1\n      sload\n      swap1\n      0x0100\n      exp\n      swap1\n      div\n      0xffffffffffffffffffffffffffffffffffffffff\n      and\n        /* \"@openzeppelin/contracts/access/Ownable.sol\":1703:1716  return _owner */\n      swap1\n      pop\n        /* \"@openzeppelin/contracts/access/Ownable.sol\":1638:1723  function owner() public view virtual returns (address) {... */\n      swap1\n      jump\t// out\n        /* \"contracts/sale.sol\":742:775  bool public presaleClosed = false */\n    tag_103:\n      0x0d\n      0x00\n      swap1\n      sload\n      swap1\n      0x0100\n      exp\n      swap1\n      div\n      0xff\n      and\n      dup2\n      jump\t// out\n        /* \"contracts/sale.sol\":4313:5110  function claimRefund() external {... */\n    tag_108:\n        /* \"contracts/sale.sol\":4383:4397  presaleEndTime */\n      sload(0x08)\n        /* \"contracts/sale.sol\":4364:4379  block.timestamp */\n      timestamp\n        /* \"contracts/sale.sol\":4364:4397  block.timestamp >= presaleEndTime */\n      lt\n      iszero\n        /* \"contracts/sale.sol\":4364:4415  block.timestamp >= presaleEndTime && !presaleClosed */\n      dup1\n      iszero\n      tag_204\n      jumpi\n      pop\n        /* \"contracts/sale.sol\":4402:4415  presaleClosed */\n      0x0d\n      0x00\n      swap1\n      sload\n      swap1\n      0x0100\n      exp\n      swap1\n      div\n      0xff\n      and\n        /* \"contracts/sale.sol\":4401:4415  !presaleClosed */\n      iszero\n        /* \"contracts/sale.sol\":4364:4415  block.timestamp >= presaleEndTime && !presaleClosed */\n    tag_204:\n        /* \"contracts/sale.sol\":4363:4479  (block.timestamp >= presaleEndTime && !presaleClosed) || (block.timestamp >= publicSaleEndTime && !publicSaleClosed) */\n      dup1\n      tag_205\n      jumpi\n      pop\n        /* \"contracts/sale.sol\":4440:4457  publicSaleEndTime */\n      sload(0x0a)\n        /* \"contracts/sale.sol\":4421:4436  block.timestamp */\n      timestamp\n        /* \"contracts/sale.sol\":4421:4457  block.timestamp >= publicSaleEndTime */\n      lt\n      iszero\n        /* \"contracts/sale.sol\":4421:4478  block.timestamp >= publicSaleEndTime && !publicSaleClosed */\n      dup1\n      iszero\n      tag_206\n      jumpi\n      pop\n        /* \"contracts/sale.sol\":4462:4478  publicSaleClosed */\n      0x0d\n      0x01\n      swap1\n      sload\n      swap1\n      0x0100\n      exp\n      swap1\n      div\n      0xff\n      and\n        /* \"contracts/sale.sol\":4461:4478  !publicSaleClosed */\n      iszero\n        /* \"contracts/sale.sol\":4421:4478  block.timestamp >= publicSaleEndTime && !publicSaleClosed */\n    tag_206:\n        /* \"contracts/sale.sol\":4363:4479  (block.timestamp >= presaleEndTime && !presaleClosed) || (block.timestamp >= publicSaleEndTime && !publicSaleClosed) */\n    tag_205:\n        /* \"contracts/sale.sol\":4355:4506  require((block.timestamp >= presaleEndTime && !presaleClosed) || (block.timestamp >= publicSaleEndTime && !publicSaleClosed), \"Refund not allowed yet\") */\n      tag_207\n      jumpi\n      mload(0x40)\n      0x08c379a000000000000000000000000000000000000000000000000000000000\n      dup2\n      mstore\n      0x04\n      add\n      tag_208\n      swap1\n      tag_209\n      jump\t// in\n    tag_208:\n      mload(0x40)\n      dup1\n      swap2\n      sub\n      swap1\n      revert\n    tag_207:\n        /* \"contracts/sale.sol\":4517:4537  uint256 refundAmount */\n      0x00\n        /* \"contracts/sale.sol\":4556:4569  presaleClosed */\n      0x0d\n      0x00\n      swap1\n      sload\n      swap1\n      0x0100\n      exp\n      swap1\n      div\n      0xff\n      and\n        /* \"contracts/sale.sol\":4556:4609  presaleClosed && presaleContributions[msg.sender] > 0 */\n      dup1\n      iszero\n      tag_210\n      jumpi\n      pop\n        /* \"contracts/sale.sol\":4608:4609  0 */\n      0x00\n        /* \"contracts/sale.sol\":4573:4593  presaleContributions */\n      0x0b\n        /* \"contracts/sale.sol\":4573:4605  presaleContributions[msg.sender] */\n      0x00\n        /* \"contracts/sale.sol\":4594:4604  msg.sender */\n      caller\n        /* \"contracts/sale.sol\":4573:4605  presaleContributions[msg.sender] */\n      0xffffffffffffffffffffffffffffffffffffffff\n      and\n      0xffffffffffffffffffffffffffffffffffffffff\n      and\n      dup2\n      mstore\n      0x20\n      add\n      swap1\n      dup2\n      mstore\n      0x20\n      add\n      0x00\n      keccak256\n      sload\n        /* \"contracts/sale.sol\":4573:4609  presaleContributions[msg.sender] > 0 */\n      gt\n        /* \"contracts/sale.sol\":4556:4609  presaleClosed && presaleContributions[msg.sender] > 0 */\n    tag_210:\n        /* \"contracts/sale.sol\":4552:4734  if (presaleClosed && presaleContributions[msg.sender] > 0) {... */\n      iszero\n      tag_211\n      jumpi\n        /* \"contracts/sale.sol\":4641:4661  presaleContributions */\n      0x0b\n        /* \"contracts/sale.sol\":4641:4673  presaleContributions[msg.sender] */\n      0x00\n        /* \"contracts/sale.sol\":4662:4672  msg.sender */\n      caller\n        /* \"contracts/sale.sol\":4641:4673  presaleContributions[msg.sender] */\n      0xffffffffffffffffffffffffffffffffffffffff\n      and\n      0xffffffffffffffffffffffffffffffffffffffff\n      and\n      dup2\n      mstore\n      0x20\n      add\n      swap1\n      dup2\n      mstore\n      0x20\n      add\n      0x00\n      keccak256\n      sload\n        /* \"contracts/sale.sol\":4625:4673  refundAmount += presaleContributions[msg.sender] */\n      dup2\n      tag_212\n      swap2\n      swap1\n      tag_144\n      jump\t// in\n    tag_212:\n      swap1\n      pop\n        /* \"contracts/sale.sol\":4722:4723  0 */\n      0x00\n        /* \"contracts/sale.sol\":4687:4707  presaleContributions */\n      0x0b\n        /* \"contracts/sale.sol\":4687:4719  presaleContributions[msg.sender] */\n      0x00\n        /* \"contracts/sale.sol\":4708:4718  msg.sender */\n      caller\n        /* \"contracts/sale.sol\":4687:4719  presaleContributions[msg.sender] */\n      0xffffffffffffffffffffffffffffffffffffffff\n      and\n      0xffffffffffffffffffffffffffffffffffffffff\n      and\n      dup2\n      mstore\n      0x20\n      add\n      swap1\n      dup2\n      mstore\n      0x20\n      add\n      0x00\n      keccak256\n        /* \"contracts/sale.sol\":4687:4723  presaleContributions[msg.sender] = 0 */\n      dup2\n      swap1\n      sstore\n      pop\n        /* \"contracts/sale.sol\":4552:4734  if (presaleClosed && presaleContributions[msg.sender] > 0) {... */\n    tag_211:\n        /* \"contracts/sale.sol\":4748:4764  publicSaleClosed */\n      0x0d\n      0x01\n      swap1\n      sload\n      swap1\n      0x0100\n      exp\n      swap1\n      div\n      0xff\n      and\n        /* \"contracts/sale.sol\":4748:4807  publicSaleClosed && publicSaleContributions[msg.sender] > 0 */\n      dup1\n      iszero\n      tag_213\n      jumpi\n      pop\n        /* \"contracts/sale.sol\":4806:4807  0 */\n      0x00\n        /* \"contracts/sale.sol\":4768:4791  publicSaleContributions */\n      0x0c\n        /* \"contracts/sale.sol\":4768:4803  publicSaleContributions[msg.sender] */\n      0x00\n        /* \"contracts/sale.sol\":4792:4802  msg.sender */\n      caller\n        /* \"contracts/sale.sol\":4768:4803  publicSaleContributions[msg.sender] */\n      0xffffffffffffffffffffffffffffffffffffffff\n      and\n      0xffffffffffffffffffffffffffffffffffffffff\n      and\n      dup2\n      mstore\n      0x20\n      add\n      swap1\n      dup2\n      mstore\n      0x20\n      add\n      0x00\n      keccak256\n      sload\n        /* \"contracts/sale.sol\":4768:4807  publicSaleContributions[msg.sender] > 0 */\n      gt\n        /* \"contracts/sale.sol\":4748:4807  publicSaleClosed && publicSaleContributions[msg.sender] > 0 */\n    tag_213:\n        /* \"contracts/sale.sol\":4744:4938  if (publicSaleClosed && publicSaleContributions[msg.sender] > 0) {... */\n      iszero\n      tag_214\n      jumpi\n        /* \"contracts/sale.sol\":4839:4862  publicSaleContributions */\n      0x0c\n        /* \"contracts/sale.sol\":4839:4874  publicSaleContributions[msg.sender] */\n      0x00\n        /* \"contracts/sale.sol\":4863:4873  msg.sender */\n      caller\n        /* \"contracts/sale.sol\":4839:4874  publicSaleContributions[msg.sender] */\n      0xffffffffffffffffffffffffffffffffffffffff\n      and\n      0xffffffffffffffffffffffffffffffffffffffff\n      and\n      dup2\n      mstore\n      0x20\n      add\n      swap1\n      dup2\n      mstore\n      0x20\n      add\n      0x00\n      keccak256\n      sload\n        /* \"contracts/sale.sol\":4823:4874  refundAmount += publicSaleContributions[msg.sender] */\n      dup2\n      tag_215\n      swap2\n      swap1\n      tag_144\n      jump\t// in\n    tag_215:\n      swap1\n      pop\n        /* \"contracts/sale.sol\":4926:4927  0 */\n      0x00\n        /* \"contracts/sale.sol\":4888:4911  publicSaleContributions */\n      0x0c\n        /* \"contracts/sale.sol\":4888:4923  publicSaleContributions[msg.sender] */\n      0x00\n        /* \"contracts/sale.sol\":4912:4922  msg.sender */\n      caller\n        /* \"contracts/sale.sol\":4888:4923  publicSaleContributions[msg.sender] */\n      0xffffffffffffffffffffffffffffffffffffffff\n      and\n      0xffffffffffffffffffffffffffffffffffffffff\n      and\n      dup2\n      mstore\n      0x20\n      add\n      swap1\n      dup2\n      mstore\n      0x20\n      add\n      0x00\n      keccak256\n        /* \"contracts/sale.sol\":4888:4927  publicSaleContributions[msg.sender] = 0 */\n      dup2\n      swap1\n      sstore\n      pop\n        /* \"contracts/sale.sol\":4744:4938  if (publicSaleClosed && publicSaleContributions[msg.sender] > 0) {... */\n    tag_214:\n        /* \"contracts/sale.sol\":4971:4972  0 */\n      0x00\n        /* \"contracts/sale.sol\":4956:4968  refundAmount */\n      dup2\n        /* \"contracts/sale.sol\":4956:4972  refundAmount > 0 */\n      gt\n        /* \"contracts/sale.sol\":4948:4996  require(refundAmount > 0, \"No refund available\") */\n      tag_216\n      jumpi\n      mload(0x40)\n      0x08c379a000000000000000000000000000000000000000000000000000000000\n      dup2\n      mstore\n      0x04\n      add\n      tag_217\n      swap1\n      tag_218\n      jump\t// in\n    tag_217:\n      mload(0x40)\n      dup1\n      swap2\n      sub\n      swap1\n      revert\n    tag_216:\n        /* \"contracts/sale.sol\":5015:5025  msg.sender */\n      caller\n        /* \"contracts/sale.sol\":5007:5035  payable(msg.sender).transfer */\n      0xffffffffffffffffffffffffffffffffffffffff\n      and\n        /* \"contracts/sale.sol\":5007:5049  payable(msg.sender).transfer(refundAmount) */\n      0x08fc\n        /* \"contracts/sale.sol\":5036:5048  refundAmount */\n      dup3\n        /* \"contracts/sale.sol\":5007:5049  payable(msg.sender).transfer(refundAmount) */\n      swap1\n      dup2\n      iszero\n      mul\n      swap1\n      mload(0x40)\n      0x00\n      mload(0x40)\n      dup1\n      dup4\n      sub\n      dup2\n      dup6\n      dup9\n      dup9\n      call\n      swap4\n      pop\n      pop\n      pop\n      pop\n      iszero\n      dup1\n      iszero\n      tag_220\n      jumpi\n      returndatasize\n      0x00\n      dup1\n      returndatacopy\n      revert(0x00, returndatasize)\n    tag_220:\n      pop\n        /* \"contracts/sale.sol\":5078:5088  msg.sender */\n      caller\n        /* \"contracts/sale.sol\":5064:5103  RefundClaimed(msg.sender, refundAmount) */\n      0xffffffffffffffffffffffffffffffffffffffff\n      and\n      0x358fe4192934d3bf28ae181feda1f4bd08ca67f5e2fad55582cce5eb67304ae9\n        /* \"contracts/sale.sol\":5090:5102  refundAmount */\n      dup3\n        /* \"contracts/sale.sol\":5064:5103  RefundClaimed(msg.sender, refundAmount) */\n      mload(0x40)\n      tag_221\n      swap2\n      swap1\n      tag_45\n      jump\t// in\n    tag_221:\n      mload(0x40)\n      dup1\n      swap2\n      sub\n      swap1\n      log2\n        /* \"contracts/sale.sol\":4345:5110  {... */\n      pop\n        /* \"contracts/sale.sol\":4313:5110  function claimRefund() external {... */\n      jump\t// out\n        /* \"contracts/sale.sol\":322:359  uint256 public presaleMinContribution */\n    tag_111:\n      sload(0x04)\n      dup2\n      jump\t// out\n        /* \"contracts/sale.sol\":781:817  bool public publicSaleClosed = false */\n    tag_115:\n      0x0d\n      0x01\n      swap1\n      sload\n      swap1\n      0x0100\n      exp\n      swap1\n      div\n      0xff\n      and\n      dup2\n      jump\t// out\n        /* \"contracts/sale.sol\":3297:4042  function contributeToPublicSale() external payable onlyDuringPublicSale {... */\n    tag_118:\n        /* \"contracts/sale.sol\":2283:2302  publicSaleStartTime */\n      sload(0x09)\n        /* \"contracts/sale.sol\":2264:2279  block.timestamp */\n      timestamp\n        /* \"contracts/sale.sol\":2264:2302  block.timestamp >= publicSaleStartTime */\n      lt\n      iszero\n        /* \"contracts/sale.sol\":2264:2341  block.timestamp >= publicSaleStartTime && block.timestamp < publicSaleEndTime */\n      dup1\n      iszero\n      tag_223\n      jumpi\n      pop\n        /* \"contracts/sale.sol\":2324:2341  publicSaleEndTime */\n      sload(0x0a)\n        /* \"contracts/sale.sol\":2306:2321  block.timestamp */\n      timestamp\n        /* \"contracts/sale.sol\":2306:2341  block.timestamp < publicSaleEndTime */\n      lt\n        /* \"contracts/sale.sol\":2264:2341  block.timestamp >= publicSaleStartTime && block.timestamp < publicSaleEndTime */\n    tag_223:\n        /* \"contracts/sale.sol\":2256:2371  require(block.timestamp >= publicSaleStartTime && block.timestamp < publicSaleEndTime, \"Public sale is not active\") */\n      tag_224\n      jumpi\n      mload(0x40)\n      0x08c379a000000000000000000000000000000000000000000000000000000000\n      dup2\n      mstore\n      0x04\n      add\n      tag_225\n      swap1\n      tag_226\n      jump\t// in\n    tag_225:\n      mload(0x40)\n      dup1\n      swap2\n      sub\n      swap1\n      revert\n    tag_224:\n        /* \"contracts/sale.sol\":2390:2406  publicSaleClosed */\n      0x0d\n      0x01\n      swap1\n      sload\n      swap1\n      0x0100\n      exp\n      swap1\n      div\n      0xff\n      and\n        /* \"contracts/sale.sol\":2389:2406  !publicSaleClosed */\n      iszero\n        /* \"contracts/sale.sol\":2381:2432  require(!publicSaleClosed, \"Public sale is closed\") */\n      tag_227\n      jumpi\n      mload(0x40)\n      0x08c379a000000000000000000000000000000000000000000000000000000000\n      dup2\n      mstore\n      0x04\n      add\n      tag_228\n      swap1\n      tag_229\n      jump\t// in\n    tag_228:\n      mload(0x40)\n      dup1\n      swap2\n      sub\n      swap1\n      revert\n    tag_227:\n        /* \"contracts/sale.sol\":3400:3425  publicSaleMinContribution */\n      sload(0x06)\n        /* \"contracts/sale.sol\":3387:3396  msg.value */\n      callvalue\n        /* \"contracts/sale.sol\":3387:3425  msg.value >= publicSaleMinContribution */\n      lt\n      iszero\n        /* \"contracts/sale.sol\":3387:3467  msg.value >= publicSaleMinContribution && msg.value <= publicSaleMaxContribution */\n      dup1\n      iszero\n      tag_231\n      jumpi\n      pop\n        /* \"contracts/sale.sol\":3442:3467  publicSaleMaxContribution */\n      sload(0x07)\n        /* \"contracts/sale.sol\":3429:3438  msg.value */\n      callvalue\n        /* \"contracts/sale.sol\":3429:3467  msg.value <= publicSaleMaxContribution */\n      gt\n      iszero\n        /* \"contracts/sale.sol\":3387:3467  msg.value >= publicSaleMinContribution && msg.value <= publicSaleMaxContribution */\n    tag_231:\n        /* \"contracts/sale.sol\":3379:3499  require(msg.value >= publicSaleMinContribution && msg.value <= publicSaleMaxContribution, \"Invalid contribution amount\") */\n      tag_232\n      jumpi\n      mload(0x40)\n      0x08c379a000000000000000000000000000000000000000000000000000000000\n      dup2\n      mstore\n      0x04\n      add\n      tag_233\n      swap1\n      tag_142\n      jump\t// in\n    tag_233:\n      mload(0x40)\n      dup1\n      swap2\n      sub\n      swap1\n      revert\n    tag_232:\n        /* \"contracts/sale.sol\":3510:3535  uint256 totalContribution */\n      0x00\n        /* \"contracts/sale.sol\":3576:3585  msg.value */\n      callvalue\n        /* \"contracts/sale.sol\":3538:3561  publicSaleContributions */\n      0x0c\n        /* \"contracts/sale.sol\":3538:3573  publicSaleContributions[msg.sender] */\n      0x00\n        /* \"contracts/sale.sol\":3562:3572  msg.sender */\n      caller\n        /* \"contracts/sale.sol\":3538:3573  publicSaleContributions[msg.sender] */\n      0xffffffffffffffffffffffffffffffffffffffff\n      and\n      0xffffffffffffffffffffffffffffffffffffffff\n      and\n      dup2\n      mstore\n      0x20\n      add\n      swap1\n      dup2\n      mstore\n      0x20\n      add\n      0x00\n      keccak256\n      sload\n        /* \"contracts/sale.sol\":3538:3585  publicSaleContributions[msg.sender] + msg.value */\n      tag_234\n      swap2\n      swap1\n      tag_144\n      jump\t// in\n    tag_234:\n        /* \"contracts/sale.sol\":3510:3585  uint256 totalContribution = publicSaleContributions[msg.sender] + msg.value */\n      swap1\n      pop\n        /* \"contracts/sale.sol\":3624:3649  publicSaleMaxContribution */\n      sload(0x07)\n        /* \"contracts/sale.sol\":3603:3620  totalContribution */\n      dup2\n        /* \"contracts/sale.sol\":3603:3649  totalContribution <= publicSaleMaxContribution */\n      gt\n      iszero\n        /* \"contracts/sale.sol\":3595:3689  require(totalContribution <= publicSaleMaxContribution, \"Exceeded maximum contribution limit\") */\n      tag_235\n      jumpi\n      mload(0x40)\n      0x08c379a000000000000000000000000000000000000000000000000000000000\n      dup2\n      mstore\n      0x04\n      add\n      tag_236\n      swap1\n      tag_147\n      jump\t// in\n    tag_236:\n      mload(0x40)\n      dup1\n      swap2\n      sub\n      swap1\n      revert\n    tag_235:\n        /* \"contracts/sale.sol\":3738:3755  totalContribution */\n      dup1\n        /* \"contracts/sale.sol\":3700:3723  publicSaleContributions */\n      0x0c\n        /* \"contracts/sale.sol\":3700:3735  publicSaleContributions[msg.sender] */\n      0x00\n        /* \"contracts/sale.sol\":3724:3734  msg.sender */\n      caller\n        /* \"contracts/sale.sol\":3700:3735  publicSaleContributions[msg.sender] */\n      0xffffffffffffffffffffffffffffffffffffffff\n      and\n      0xffffffffffffffffffffffffffffffffffffffff\n      and\n      dup2\n      mstore\n      0x20\n      add\n      swap1\n      dup2\n      mstore\n      0x20\n      add\n      0x00\n      keccak256\n        /* \"contracts/sale.sol\":3700:3755  publicSaleContributions[msg.sender] = totalContribution */\n      dup2\n      swap1\n      sstore\n      pop\n        /* \"contracts/sale.sol\":3799:3812  publicSaleCap */\n      sload(0x03)\n        /* \"contracts/sale.sol\":3774:3795  address(this).balance */\n      selfbalance\n        /* \"contracts/sale.sol\":3774:3812  address(this).balance <= publicSaleCap */\n      gt\n      iszero\n        /* \"contracts/sale.sol\":3766:3840  require(address(this).balance <= publicSaleCap, \"Public sale cap reached\") */\n      tag_237\n      jumpi\n      mload(0x40)\n      0x08c379a000000000000000000000000000000000000000000000000000000000\n      dup2\n      mstore\n      0x04\n      add\n      tag_238\n      swap1\n      tag_239\n      jump\t// in\n    tag_238:\n      mload(0x40)\n      dup1\n      swap2\n      sub\n      swap1\n      revert\n    tag_237:\n        /* \"contracts/sale.sol\":3851:3870  uint256 tokenAmount */\n      0x00\n        /* \"contracts/sale.sol\":3873:3904  calculateTokenAmount(msg.value) */\n      tag_240\n        /* \"contracts/sale.sol\":3894:3903  msg.value */\n      callvalue\n        /* \"contracts/sale.sol\":3873:3893  calculateTokenAmount */\n      tag_152\n        /* \"contracts/sale.sol\":3873:3904  calculateTokenAmount(msg.value) */\n      jump\t// in\n    tag_240:\n        /* \"contracts/sale.sol\":3851:3904  uint256 tokenAmount = calculateTokenAmount(msg.value) */\n      swap1\n      pop\n        /* \"contracts/sale.sol\":3914:3919  token */\n      0x01\n      0x00\n      swap1\n      sload\n      swap1\n      0x0100\n      exp\n      swap1\n      div\n      0xffffffffffffffffffffffffffffffffffffffff\n      and\n        /* \"contracts/sale.sol\":3914:3928  token.transfer */\n      0xffffffffffffffffffffffffffffffffffffffff\n      and\n      0xa9059cbb\n        /* \"contracts/sale.sol\":3929:3939  msg.sender */\n      caller\n        /* \"contracts/sale.sol\":3941:3952  tokenAmount */\n      dup4\n        /* \"contracts/sale.sol\":3914:3953  token.transfer(msg.sender, tokenAmount) */\n      mload(0x40)\n      dup4\n      0xffffffff\n      and\n      0xe0\n      shl\n      dup2\n      mstore\n      0x04\n      add\n      tag_241\n      swap3\n      swap2\n      swap1\n      tag_154\n      jump\t// in\n    tag_241:\n      0x20\n      mload(0x40)\n      dup1\n      dup4\n      sub\n      dup2\n      0x00\n      dup8\n      gas\n      call\n      iszero\n      dup1\n      iszero\n      tag_243\n      jumpi\n      returndatasize\n      0x00\n      dup1\n      returndatacopy\n      revert(0x00, returndatasize)\n    tag_243:\n      pop\n      pop\n      pop\n      pop\n      mload(0x40)\n      returndatasize\n      not(0x1f)\n      0x1f\n      dup3\n      add\n      and\n      dup3\n      add\n      dup1\n      0x40\n      mstore\n      pop\n      dup2\n      add\n      swap1\n      tag_244\n      swap2\n      swap1\n      tag_158\n      jump\t// in\n    tag_244:\n      pop\n        /* \"contracts/sale.sol\":3985:3995  msg.sender */\n      caller\n        /* \"contracts/sale.sol\":3969:4035  TokensPurchased(msg.sender, tokenAmount, totalContribution, false) */\n      0xffffffffffffffffffffffffffffffffffffffff\n      and\n      0x17dbed7147e35a6b6887ff6124ff77b06f413095af19e1057e0ecf80722b456e\n        /* \"contracts/sale.sol\":3997:4008  tokenAmount */\n      dup3\n        /* \"contracts/sale.sol\":4010:4027  totalContribution */\n      dup5\n        /* \"contracts/sale.sol\":4029:4034  false */\n      0x00\n        /* \"contracts/sale.sol\":3969:4035  TokensPurchased(msg.sender, tokenAmount, totalContribution, false) */\n      mload(0x40)\n      tag_245\n      swap4\n      swap3\n      swap2\n      swap1\n      tag_160\n      jump\t// in\n    tag_245:\n      mload(0x40)\n      dup1\n      swap2\n      sub\n      swap1\n      log2\n        /* \"contracts/sale.sol\":3369:4042  {... */\n      pop\n      pop\n        /* \"contracts/sale.sol\":3297:4042  function contributeToPublicSale() external payable onlyDuringPublicSale {... */\n      jump\t// out\n        /* \"@openzeppelin/contracts/access/Ownable.sol\":2543:2758  function transferOwnership(address newOwner) public virtual onlyOwner {... */\n    tag_122:\n        /* \"@openzeppelin/contracts/access/Ownable.sol\":1531:1544  _checkOwner() */\n      tag_247\n        /* \"@openzeppelin/contracts/access/Ownable.sol\":1531:1542  _checkOwner */\n      tag_198\n        /* \"@openzeppelin/contracts/access/Ownable.sol\":1531:1544  _checkOwner() */\n      jump\t// in\n    tag_247:\n        /* \"@openzeppelin/contracts/access/Ownable.sol\":2647:2648  0 */\n      0x00\n        /* \"@openzeppelin/contracts/access/Ownable.sol\":2627:2649  newOwner == address(0) */\n      0xffffffffffffffffffffffffffffffffffffffff\n      and\n        /* \"@openzeppelin/contracts/access/Ownable.sol\":2627:2635  newOwner */\n      dup2\n        /* \"@openzeppelin/contracts/access/Ownable.sol\":2627:2649  newOwner == address(0) */\n      0xffffffffffffffffffffffffffffffffffffffff\n      and\n      sub\n        /* \"@openzeppelin/contracts/access/Ownable.sol\":2623:2714  if (newOwner == address(0)) {... */\n      tag_249\n      jumpi\n        /* \"@openzeppelin/contracts/access/Ownable.sol\":2700:2701  0 */\n      0x00\n        /* \"@openzeppelin/contracts/access/Ownable.sol\":2672:2703  OwnableInvalidOwner(address(0)) */\n      mload(0x40)\n      0x1e4fbdf700000000000000000000000000000000000000000000000000000000\n      dup2\n      mstore\n      0x04\n      add\n      tag_250\n      swap2\n      swap1\n      tag_100\n      jump\t// in\n    tag_250:\n      mload(0x40)\n      dup1\n      swap2\n      sub\n      swap1\n      revert\n        /* \"@openzeppelin/contracts/access/Ownable.sol\":2623:2714  if (newOwner == address(0)) {... */\n    tag_249:\n        /* \"@openzeppelin/contracts/access/Ownable.sol\":2723:2751  _transferOwnership(newOwner) */\n      tag_251\n        /* \"@openzeppelin/contracts/access/Ownable.sol\":2742:2750  newOwner */\n      dup2\n        /* \"@openzeppelin/contracts/access/Ownable.sol\":2723:2741  _transferOwnership */\n      tag_201\n        /* \"@openzeppelin/contracts/access/Ownable.sol\":2723:2751  _transferOwnership(newOwner) */\n      jump\t// in\n    tag_251:\n        /* \"@openzeppelin/contracts/access/Ownable.sol\":2543:2758  function transferOwnership(address newOwner) public virtual onlyOwner {... */\n      pop\n      jump\t// out\n        /* \"contracts/sale.sol\":203:221  ERC20 public token */\n    tag_125:\n      0x01\n      0x00\n      swap1\n      sload\n      swap1\n      0x0100\n      exp\n      swap1\n      div\n      0xffffffffffffffffffffffffffffffffffffffff\n      and\n      dup2\n      jump\t// out\n        /* \"contracts/sale.sol\":6170:6409  function withdrawExcessFunds() external onlyOwnerOrAdmin {... */\n    tag_130:\n        /* \"contracts/sale.sol\":2513:2523  msg.sender */\n      caller\n        /* \"contracts/sale.sol\":2502:2523  owner() == msg.sender */\n      0xffffffffffffffffffffffffffffffffffffffff\n      and\n        /* \"contracts/sale.sol\":2502:2509  owner() */\n      tag_253\n        /* \"contracts/sale.sol\":2502:2507  owner */\n      tag_98\n        /* \"contracts/sale.sol\":2502:2509  owner() */\n      jump\t// in\n    tag_253:\n        /* \"contracts/sale.sol\":2502:2523  owner() == msg.sender */\n      0xffffffffffffffffffffffffffffffffffffffff\n      and\n      eq\n        /* \"contracts/sale.sol\":2494:2551  require(owner() == msg.sender, \"Caller is not the owner\") */\n      tag_254\n      jumpi\n      mload(0x40)\n      0x08c379a000000000000000000000000000000000000000000000000000000000\n      dup2\n      mstore\n      0x04\n      add\n      tag_255\n      swap1\n      tag_165\n      jump\t// in\n    tag_255:\n      mload(0x40)\n      dup1\n      swap2\n      sub\n      swap1\n      revert\n    tag_254:\n        /* \"contracts/sale.sol\":6282:6295  publicSaleCap */\n      sload(0x03)\n        /* \"contracts/sale.sol\":6269:6279  presaleCap */\n      sload(0x02)\n        /* \"contracts/sale.sol\":6269:6295  presaleCap + publicSaleCap */\n      tag_257\n      swap2\n      swap1\n      tag_144\n      jump\t// in\n    tag_257:\n        /* \"contracts/sale.sol\":6245:6266  address(this).balance */\n      selfbalance\n        /* \"contracts/sale.sol\":6245:6295  address(this).balance > presaleCap + publicSaleCap */\n      gt\n        /* \"contracts/sale.sol\":6237:6315  require(address(this).balance > presaleCap + publicSaleCap, \"No excess funds\") */\n      tag_258\n      jumpi\n      mload(0x40)\n      0x08c379a000000000000000000000000000000000000000000000000000000000\n      dup2\n      mstore\n      0x04\n      add\n      tag_259\n      swap1\n      tag_260\n      jump\t// in\n    tag_259:\n      mload(0x40)\n      dup1\n      swap2\n      sub\n      swap1\n      revert\n    tag_258:\n        /* \"contracts/sale.sol\":6333:6340  owner() */\n      tag_261\n        /* \"contracts/sale.sol\":6333:6338  owner */\n      tag_98\n        /* \"contracts/sale.sol\":6333:6340  owner() */\n      jump\t// in\n    tag_261:\n        /* \"contracts/sale.sol\":6325:6350  payable(owner()).transfer */\n      0xffffffffffffffffffffffffffffffffffffffff\n      and\n        /* \"contracts/sale.sol\":6325:6402  payable(owner()).transfer(address(this).balance - presaleCap - publicSaleCap) */\n      0x08fc\n        /* \"contracts/sale.sol\":6388:6401  publicSaleCap */\n      sload(0x03)\n        /* \"contracts/sale.sol\":6375:6385  presaleCap */\n      sload(0x02)\n        /* \"contracts/sale.sol\":6351:6372  address(this).balance */\n      selfbalance\n        /* \"contracts/sale.sol\":6351:6385  address(this).balance - presaleCap */\n      tag_262\n      swap2\n      swap1\n      tag_263\n      jump\t// in\n    tag_262:\n        /* \"contracts/sale.sol\":6351:6401  address(this).balance - presaleCap - publicSaleCap */\n      tag_264\n      swap2\n      swap1\n      tag_263\n      jump\t// in\n    tag_264:\n        /* \"contracts/sale.sol\":6325:6402  payable(owner()).transfer(address(this).balance - presaleCap - publicSaleCap) */\n      swap1\n      dup2\n      iszero\n      mul\n      swap1\n      mload(0x40)\n      0x00\n      mload(0x40)\n      dup1\n      dup4\n      sub\n      dup2\n      dup6\n      dup9\n      dup9\n      call\n      swap4\n      pop\n      pop\n      pop\n      pop\n      iszero\n      dup1\n      iszero\n      tag_266\n      jumpi\n      returndatasize\n      0x00\n      dup1\n      returndatacopy\n      revert(0x00, returndatasize)\n    tag_266:\n      pop\n        /* \"contracts/sale.sol\":6170:6409  function withdrawExcessFunds() external onlyOwnerOrAdmin {... */\n      jump\t// out\n        /* \"contracts/sale.sol\":5116:5313  function calculateTokenAmount(uint256 _weiAmount) internal pure returns (uint256) {... */\n    tag_152:\n        /* \"contracts/sale.sol\":5189:5196  uint256 */\n      0x00\n        /* \"contracts/sale.sol\":5239:5251  uint256 rate */\n      dup1\n        /* \"contracts/sale.sol\":5254:5257  100 */\n      0x64\n        /* \"contracts/sale.sol\":5239:5257  uint256 rate = 100 */\n      swap1\n      pop\n        /* \"contracts/sale.sol\":5306:5310  rate */\n      dup1\n        /* \"contracts/sale.sol\":5293:5303  _weiAmount */\n      dup4\n        /* \"contracts/sale.sol\":5293:5310  _weiAmount * rate */\n      tag_268\n      swap2\n      swap1\n      tag_269\n      jump\t// in\n    tag_268:\n        /* \"contracts/sale.sol\":5286:5310  return _weiAmount * rate */\n      swap2\n      pop\n      pop\n        /* \"contracts/sale.sol\":5116:5313  function calculateTokenAmount(uint256 _weiAmount) internal pure returns (uint256) {... */\n      swap2\n      swap1\n      pop\n      jump\t// out\n        /* \"@openzeppelin/contracts/access/Ownable.sol\":1796:1958  function _checkOwner() internal view virtual {... */\n    tag_198:\n        /* \"@openzeppelin/contracts/access/Ownable.sol\":1866:1878  _msgSender() */\n      tag_271\n        /* \"@openzeppelin/contracts/access/Ownable.sol\":1866:1876  _msgSender */\n      tag_272\n        /* \"@openzeppelin/contracts/access/Ownable.sol\":1866:1878  _msgSender() */\n      jump\t// in\n    tag_271:\n        /* \"@openzeppelin/contracts/access/Ownable.sol\":1855:1878  owner() != _msgSender() */\n      0xffffffffffffffffffffffffffffffffffffffff\n      and\n        /* \"@openzeppelin/contracts/access/Ownable.sol\":1855:1862  owner() */\n      tag_273\n        /* \"@openzeppelin/contracts/access/Ownable.sol\":1855:1860  owner */\n      tag_98\n        /* \"@openzeppelin/contracts/access/Ownable.sol\":1855:1862  owner() */\n      jump\t// in\n    tag_273:\n        /* \"@openzeppelin/contracts/access/Ownable.sol\":1855:1878  owner() != _msgSender() */\n      0xffffffffffffffffffffffffffffffffffffffff\n      and\n      eq\n        /* \"@openzeppelin/contracts/access/Ownable.sol\":1851:1952  if (owner() != _msgSender()) {... */\n      tag_274\n      jumpi\n        /* \"@openzeppelin/contracts/access/Ownable.sol\":1928:1940  _msgSender() */\n      tag_275\n        /* \"@openzeppelin/contracts/access/Ownable.sol\":1928:1938  _msgSender */\n      tag_272\n        /* \"@openzeppelin/contracts/access/Ownable.sol\":1928:1940  _msgSender() */\n      jump\t// in\n    tag_275:\n        /* \"@openzeppelin/contracts/access/Ownable.sol\":1901:1941  OwnableUnauthorizedAccount(_msgSender()) */\n      mload(0x40)\n      0x118cdaa700000000000000000000000000000000000000000000000000000000\n      dup2\n      mstore\n      0x04\n      add\n      tag_276\n      swap2\n      swap1\n      tag_100\n      jump\t// in\n    tag_276:\n      mload(0x40)\n      dup1\n      swap2\n      sub\n      swap1\n      revert\n        /* \"@openzeppelin/contracts/access/Ownable.sol\":1851:1952  if (owner() != _msgSender()) {... */\n    tag_274:\n        /* \"@openzeppelin/contracts/access/Ownable.sol\":1796:1958  function _checkOwner() internal view virtual {... */\n      jump\t// out\n        /* \"@openzeppelin/contracts/access/Ownable.sol\":2912:3099  function _transferOwnership(address newOwner) internal virtual {... */\n    tag_201:\n        /* \"@openzeppelin/contracts/access/Ownable.sol\":2985:3001  address oldOwner */\n      0x00\n        /* \"@openzeppelin/contracts/access/Ownable.sol\":3004:3010  _owner */\n      dup1\n      0x00\n      swap1\n      sload\n      swap1\n      0x0100\n      exp\n      swap1\n      div\n      0xffffffffffffffffffffffffffffffffffffffff\n      and\n        /* \"@openzeppelin/contracts/access/Ownable.sol\":2985:3010  address oldOwner = _owner */\n      swap1\n      pop\n        /* \"@openzeppelin/contracts/access/Ownable.sol\":3029:3037  newOwner */\n      dup2\n        /* \"@openzeppelin/contracts/access/Ownable.sol\":3020:3026  _owner */\n      0x00\n      dup1\n        /* \"@openzeppelin/contracts/access/Ownable.sol\":3020:3037  _owner = newOwner */\n      0x0100\n      exp\n      dup2\n      sload\n      dup2\n      0xffffffffffffffffffffffffffffffffffffffff\n      mul\n      not\n      and\n      swap1\n      dup4\n      0xffffffffffffffffffffffffffffffffffffffff\n      and\n      mul\n      or\n      swap1\n      sstore\n      pop\n        /* \"@openzeppelin/contracts/access/Ownable.sol\":3083:3091  newOwner */\n      dup2\n        /* \"@openzeppelin/contracts/access/Ownable.sol\":3052:3092  OwnershipTransferred(oldOwner, newOwner) */\n      0xffffffffffffffffffffffffffffffffffffffff\n      and\n        /* \"@openzeppelin/contracts/access/Ownable.sol\":3073:3081  oldOwner */\n      dup2\n        /* \"@openzeppelin/contracts/access/Ownable.sol\":3052:3092  OwnershipTransferred(oldOwner, newOwner) */\n      0xffffffffffffffffffffffffffffffffffffffff\n      and\n      0x8be0079c531659141344cd1fd0a4f28419497f9722a3daafe3b4186f6b6457e0\n      mload(0x40)\n      mload(0x40)\n      dup1\n      swap2\n      sub\n      swap1\n      log3\n        /* \"@openzeppelin/contracts/access/Ownable.sol\":2975:3099  {... */\n      pop\n        /* \"@openzeppelin/contracts/access/Ownable.sol\":2912:3099  function _transferOwnership(address newOwner) internal virtual {... */\n      pop\n      jump\t// out\n        /* \"@openzeppelin/contracts/utils/Context.sol\":656:752  function _msgSender() internal view virtual returns (address) {... */\n    tag_272:\n        /* \"@openzeppelin/contracts/utils/Context.sol\":709:716  address */\n      0x00\n        /* \"@openzeppelin/contracts/utils/Context.sol\":735:745  msg.sender */\n      caller\n        /* \"@openzeppelin/contracts/utils/Context.sol\":728:745  return msg.sender */\n      swap1\n      pop\n        /* \"@openzeppelin/contracts/utils/Context.sol\":656:752  function _msgSender() internal view virtual returns (address) {... */\n      swap1\n      jump\t// out\n        /* \"#utility.yul\":88:205   */\n    tag_280:\n        /* \"#utility.yul\":197:198   */\n      0x00\n        /* \"#utility.yul\":194:195   */\n      dup1\n        /* \"#utility.yul\":187:199   */\n      revert\n        /* \"#utility.yul\":334:460   */\n    tag_282:\n        /* \"#utility.yul\":371:378   */\n      0x00\n        /* \"#utility.yul\":411:453   */\n      0xffffffffffffffffffffffffffffffffffffffff\n        /* \"#utility.yul\":404:409   */\n      dup3\n        /* \"#utility.yul\":400:454   */\n      and\n        /* \"#utility.yul\":389:454   */\n      swap1\n      pop\n        /* \"#utility.yul\":334:460   */\n      swap2\n      swap1\n      pop\n      jump\t// out\n        /* \"#utility.yul\":466:562   */\n    tag_283:\n        /* \"#utility.yul\":503:510   */\n      0x00\n        /* \"#utility.yul\":532:556   */\n      tag_338\n        /* \"#utility.yul\":550:555   */\n      dup3\n        /* \"#utility.yul\":532:556   */\n      tag_282\n      jump\t// in\n    tag_338:\n        /* \"#utility.yul\":521:556   */\n      swap1\n      pop\n        /* \"#utility.yul\":466:562   */\n      swap2\n      swap1\n      pop\n      jump\t// out\n        /* \"#utility.yul\":568:690   */\n    tag_284:\n        /* \"#utility.yul\":641:665   */\n      tag_340\n        /* \"#utility.yul\":659:664   */\n      dup2\n        /* \"#utility.yul\":641:665   */\n      tag_283\n      jump\t// in\n    tag_340:\n        /* \"#utility.yul\":634:639   */\n      dup2\n        /* \"#utility.yul\":631:666   */\n      eq\n        /* \"#utility.yul\":621:684   */\n      tag_341\n      jumpi\n        /* \"#utility.yul\":680:681   */\n      0x00\n        /* \"#utility.yul\":677:678   */\n      dup1\n        /* \"#utility.yul\":670:682   */\n      revert\n        /* \"#utility.yul\":621:684   */\n    tag_341:\n        /* \"#utility.yul\":568:690   */\n      pop\n      jump\t// out\n        /* \"#utility.yul\":696:835   */\n    tag_285:\n        /* \"#utility.yul\":742:747   */\n      0x00\n        /* \"#utility.yul\":780:786   */\n      dup2\n        /* \"#utility.yul\":767:787   */\n      calldataload\n        /* \"#utility.yul\":758:787   */\n      swap1\n      pop\n        /* \"#utility.yul\":796:829   */\n      tag_343\n        /* \"#utility.yul\":823:828   */\n      dup2\n        /* \"#utility.yul\":796:829   */\n      tag_284\n      jump\t// in\n    tag_343:\n        /* \"#utility.yul\":696:835   */\n      swap3\n      swap2\n      pop\n      pop\n      jump\t// out\n        /* \"#utility.yul\":841:918   */\n    tag_286:\n        /* \"#utility.yul\":878:885   */\n      0x00\n        /* \"#utility.yul\":907:912   */\n      dup2\n        /* \"#utility.yul\":896:912   */\n      swap1\n      pop\n        /* \"#utility.yul\":841:918   */\n      swap2\n      swap1\n      pop\n      jump\t// out\n        /* \"#utility.yul\":924:1046   */\n    tag_287:\n        /* \"#utility.yul\":997:1021   */\n      tag_346\n        /* \"#utility.yul\":1015:1020   */\n      dup2\n        /* \"#utility.yul\":997:1021   */\n      tag_286\n      jump\t// in\n    tag_346:\n        /* \"#utility.yul\":990:995   */\n      dup2\n        /* \"#utility.yul\":987:1022   */\n      eq\n        /* \"#utility.yul\":977:1040   */\n      tag_347\n      jumpi\n        /* \"#utility.yul\":1036:1037   */\n      0x00\n        /* \"#utility.yul\":1033:1034   */\n      dup1\n        /* \"#utility.yul\":1026:1038   */\n      revert\n        /* \"#utility.yul\":977:1040   */\n    tag_347:\n        /* \"#utility.yul\":924:1046   */\n      pop\n      jump\t// out\n        /* \"#utility.yul\":1052:1191   */\n    tag_288:\n        /* \"#utility.yul\":1098:1103   */\n      0x00\n        /* \"#utility.yul\":1136:1142   */\n      dup2\n        /* \"#utility.yul\":1123:1143   */\n      calldataload\n        /* \"#utility.yul\":1114:1143   */\n      swap1\n      pop\n        /* \"#utility.yul\":1152:1185   */\n      tag_349\n        /* \"#utility.yul\":1179:1184   */\n      dup2\n        /* \"#utility.yul\":1152:1185   */\n      tag_287\n      jump\t// in\n    tag_349:\n        /* \"#utility.yul\":1052:1191   */\n      swap3\n      swap2\n      pop\n      pop\n      jump\t// out\n        /* \"#utility.yul\":1197:1671   */\n    tag_39:\n        /* \"#utility.yul\":1265:1271   */\n      0x00\n        /* \"#utility.yul\":1273:1279   */\n      dup1\n        /* \"#utility.yul\":1322:1324   */\n      0x40\n        /* \"#utility.yul\":1310:1319   */\n      dup4\n        /* \"#utility.yul\":1301:1308   */\n      dup6\n        /* \"#utility.yul\":1297:1320   */\n      sub\n        /* \"#utility.yul\":1293:1325   */\n      slt\n        /* \"#utility.yul\":1290:1409   */\n      iszero\n      tag_351\n      jumpi\n        /* \"#utility.yul\":1328:1407   */\n      tag_352\n      tag_280\n      jump\t// in\n    tag_352:\n        /* \"#utility.yul\":1290:1409   */\n    tag_351:\n        /* \"#utility.yul\":1448:1449   */\n      0x00\n        /* \"#utility.yul\":1473:1526   */\n      tag_353\n        /* \"#utility.yul\":1518:1525   */\n      dup6\n        /* \"#utility.yul\":1509:1515   */\n      dup3\n        /* \"#utility.yul\":1498:1507   */\n      dup7\n        /* \"#utility.yul\":1494:1516   */\n      add\n        /* \"#utility.yul\":1473:1526   */\n      tag_285\n      jump\t// in\n    tag_353:\n        /* \"#utility.yul\":1463:1526   */\n      swap3\n      pop\n        /* \"#utility.yul\":1419:1536   */\n      pop\n        /* \"#utility.yul\":1575:1577   */\n      0x20\n        /* \"#utility.yul\":1601:1654   */\n      tag_354\n        /* \"#utility.yul\":1646:1653   */\n      dup6\n        /* \"#utility.yul\":1637:1643   */\n      dup3\n        /* \"#utility.yul\":1626:1635   */\n      dup7\n        /* \"#utility.yul\":1622:1644   */\n      add\n        /* \"#utility.yul\":1601:1654   */\n      tag_288\n      jump\t// in\n    tag_354:\n        /* \"#utility.yul\":1591:1654   */\n      swap2\n      pop\n        /* \"#utility.yul\":1546:1664   */\n      pop\n        /* \"#utility.yul\":1197:1671   */\n      swap3\n      pop\n      swap3\n      swap1\n      pop\n      jump\t// out\n        /* \"#utility.yul\":1677:1795   */\n    tag_289:\n        /* \"#utility.yul\":1764:1788   */\n      tag_356\n        /* \"#utility.yul\":1782:1787   */\n      dup2\n        /* \"#utility.yul\":1764:1788   */\n      tag_286\n      jump\t// in\n    tag_356:\n        /* \"#utility.yul\":1759:1762   */\n      dup3\n        /* \"#utility.yul\":1752:1789   */\n      mstore\n        /* \"#utility.yul\":1677:1795   */\n      pop\n      pop\n      jump\t// out\n        /* \"#utility.yul\":1801:2023   */\n    tag_45:\n        /* \"#utility.yul\":1894:1898   */\n      0x00\n        /* \"#utility.yul\":1932:1934   */\n      0x20\n        /* \"#utility.yul\":1921:1930   */\n      dup3\n        /* \"#utility.yul\":1917:1935   */\n      add\n        /* \"#utility.yul\":1909:1935   */\n      swap1\n      pop\n        /* \"#utility.yul\":1945:2016   */\n      tag_358\n        /* \"#utility.yul\":2013:2014   */\n      0x00\n        /* \"#utility.yul\":2002:2011   */\n      dup4\n        /* \"#utility.yul\":1998:2015   */\n      add\n        /* \"#utility.yul\":1989:1995   */\n      dup5\n        /* \"#utility.yul\":1945:2016   */\n      tag_289\n      jump\t// in\n    tag_358:\n        /* \"#utility.yul\":1801:2023   */\n      swap3\n      swap2\n      pop\n      pop\n      jump\t// out\n        /* \"#utility.yul\":2029:2358   */\n    tag_60:\n        /* \"#utility.yul\":2088:2094   */\n      0x00\n        /* \"#utility.yul\":2137:2139   */\n      0x20\n        /* \"#utility.yul\":2125:2134   */\n      dup3\n        /* \"#utility.yul\":2116:2123   */\n      dup5\n        /* \"#utility.yul\":2112:2135   */\n      sub\n        /* \"#utility.yul\":2108:2140   */\n      slt\n        /* \"#utility.yul\":2105:2224   */\n      iszero\n      tag_360\n      jumpi\n        /* \"#utility.yul\":2143:2222   */\n      tag_361\n      tag_280\n      jump\t// in\n    tag_361:\n        /* \"#utility.yul\":2105:2224   */\n    tag_360:\n        /* \"#utility.yul\":2263:2264   */\n      0x00\n        /* \"#utility.yul\":2288:2341   */\n      tag_362\n        /* \"#utility.yul\":2333:2340   */\n      dup5\n        /* \"#utility.yul\":2324:2330   */\n      dup3\n        /* \"#utility.yul\":2313:2322   */\n      dup6\n        /* \"#utility.yul\":2309:2331   */\n      add\n        /* \"#utility.yul\":2288:2341   */\n      tag_285\n      jump\t// in\n    tag_362:\n        /* \"#utility.yul\":2278:2341   */\n      swap2\n      pop\n        /* \"#utility.yul\":2234:2351   */\n      pop\n        /* \"#utility.yul\":2029:2358   */\n      swap3\n      swap2\n      pop\n      pop\n      jump\t// out\n        /* \"#utility.yul\":2364:2838   */\n    tag_71:\n        /* \"#utility.yul\":2432:2438   */\n      0x00\n        /* \"#utility.yul\":2440:2446   */\n      dup1\n        /* \"#utility.yul\":2489:2491   */\n      0x40\n        /* \"#utility.yul\":2477:2486   */\n      dup4\n        /* \"#utility.yul\":2468:2475   */\n      dup6\n        /* \"#utility.yul\":2464:2487   */\n      sub\n        /* \"#utility.yul\":2460:2492   */\n      slt\n        /* \"#utility.yul\":2457:2576   */\n      iszero\n      tag_364\n      jumpi\n        /* \"#utility.yul\":2495:2574   */\n      tag_365\n      tag_280\n      jump\t// in\n    tag_365:\n        /* \"#utility.yul\":2457:2576   */\n    tag_364:\n        /* \"#utility.yul\":2615:2616   */\n      0x00\n        /* \"#utility.yul\":2640:2693   */\n      tag_366\n        /* \"#utility.yul\":2685:2692   */\n      dup6\n        /* \"#utility.yul\":2676:2682   */\n      dup3\n        /* \"#utility.yul\":2665:2674   */\n      dup7\n        /* \"#utility.yul\":2661:2683   */\n      add\n        /* \"#utility.yul\":2640:2693   */\n      tag_288\n      jump\t// in\n    tag_366:\n        /* \"#utility.yul\":2630:2693   */\n      swap3\n      pop\n        /* \"#utility.yul\":2586:2703   */\n      pop\n        /* \"#utility.yul\":2742:2744   */\n      0x20\n        /* \"#utility.yul\":2768:2821   */\n      tag_367\n        /* \"#utility.yul\":2813:2820   */\n      dup6\n        /* \"#utility.yul\":2804:2810   */\n      dup3\n        /* \"#utility.yul\":2793:2802   */\n      dup7\n        /* \"#utility.yul\":2789:2811   */\n      add\n        /* \"#utility.yul\":2768:2821   */\n      tag_288\n      jump\t// in\n    tag_367:\n        /* \"#utility.yul\":2758:2821   */\n      swap2\n      pop\n        /* \"#utility.yul\":2713:2831   */\n      pop\n        /* \"#utility.yul\":2364:2838   */\n      swap3\n      pop\n      swap3\n      swap1\n      pop\n      jump\t// out\n        /* \"#utility.yul\":2844:2962   */\n    tag_290:\n        /* \"#utility.yul\":2931:2955   */\n      tag_369\n        /* \"#utility.yul\":2949:2954   */\n      dup2\n        /* \"#utility.yul\":2931:2955   */\n      tag_283\n      jump\t// in\n    tag_369:\n        /* \"#utility.yul\":2926:2929   */\n      dup3\n        /* \"#utility.yul\":2919:2956   */\n      mstore\n        /* \"#utility.yul\":2844:2962   */\n      pop\n      pop\n      jump\t// out\n        /* \"#utility.yul\":2968:3190   */\n    tag_100:\n        /* \"#utility.yul\":3061:3065   */\n      0x00\n        /* \"#utility.yul\":3099:3101   */\n      0x20\n        /* \"#utility.yul\":3088:3097   */\n      dup3\n        /* \"#utility.yul\":3084:3102   */\n      add\n        /* \"#utility.yul\":3076:3102   */\n      swap1\n      pop\n        /* \"#utility.yul\":3112:3183   */\n      tag_371\n        /* \"#utility.yul\":3180:3181   */\n      0x00\n        /* \"#utility.yul\":3169:3178   */\n      dup4\n        /* \"#utility.yul\":3165:3182   */\n      add\n        /* \"#utility.yul\":3156:3162   */\n      dup5\n        /* \"#utility.yul\":3112:3183   */\n      tag_290\n      jump\t// in\n    tag_371:\n        /* \"#utility.yul\":2968:3190   */\n      swap3\n      swap2\n      pop\n      pop\n      jump\t// out\n        /* \"#utility.yul\":3196:3286   */\n    tag_291:\n        /* \"#utility.yul\":3230:3237   */\n      0x00\n        /* \"#utility.yul\":3273:3278   */\n      dup2\n        /* \"#utility.yul\":3266:3279   */\n      iszero\n        /* \"#utility.yul\":3259:3280   */\n      iszero\n        /* \"#utility.yul\":3248:3280   */\n      swap1\n      pop\n        /* \"#utility.yul\":3196:3286   */\n      swap2\n      swap1\n      pop\n      jump\t// out\n        /* \"#utility.yul\":3292:3401   */\n    tag_292:\n        /* \"#utility.yul\":3373:3394   */\n      tag_374\n        /* \"#utility.yul\":3388:3393   */\n      dup2\n        /* \"#utility.yul\":3373:3394   */\n      tag_291\n      jump\t// in\n    tag_374:\n        /* \"#utility.yul\":3368:3371   */\n      dup3\n        /* \"#utility.yul\":3361:3395   */\n      mstore\n        /* \"#utility.yul\":3292:3401   */\n      pop\n      pop\n      jump\t// out\n        /* \"#utility.yul\":3407:3617   */\n    tag_105:\n        /* \"#utility.yul\":3494:3498   */\n      0x00\n        /* \"#utility.yul\":3532:3534   */\n      0x20\n        /* \"#utility.yul\":3521:3530   */\n      dup3\n        /* \"#utility.yul\":3517:3535   */\n      add\n        /* \"#utility.yul\":3509:3535   */\n      swap1\n      pop\n        /* \"#utility.yul\":3545:3610   */\n      tag_376\n        /* \"#utility.yul\":3607:3608   */\n      0x00\n        /* \"#utility.yul\":3596:3605   */\n      dup4\n        /* \"#utility.yul\":3592:3609   */\n      add\n        /* \"#utility.yul\":3583:3589   */\n      dup5\n        /* \"#utility.yul\":3545:3610   */\n      tag_292\n      jump\t// in\n    tag_376:\n        /* \"#utility.yul\":3407:3617   */\n      swap3\n      swap2\n      pop\n      pop\n      jump\t// out\n        /* \"#utility.yul\":3623:3683   */\n    tag_293:\n        /* \"#utility.yul\":3651:3654   */\n      0x00\n        /* \"#utility.yul\":3672:3677   */\n      dup2\n        /* \"#utility.yul\":3665:3677   */\n      swap1\n      pop\n        /* \"#utility.yul\":3623:3683   */\n      swap2\n      swap1\n      pop\n      jump\t// out\n        /* \"#utility.yul\":3689:3831   */\n    tag_294:\n        /* \"#utility.yul\":3739:3748   */\n      0x00\n        /* \"#utility.yul\":3772:3825   */\n      tag_379\n        /* \"#utility.yul\":3790:3824   */\n      tag_380\n        /* \"#utility.yul\":3799:3823   */\n      tag_381\n        /* \"#utility.yul\":3817:3822   */\n      dup5\n        /* \"#utility.yul\":3799:3823   */\n      tag_282\n      jump\t// in\n    tag_381:\n        /* \"#utility.yul\":3790:3824   */\n      tag_293\n      jump\t// in\n    tag_380:\n        /* \"#utility.yul\":3772:3825   */\n      tag_282\n      jump\t// in\n    tag_379:\n        /* \"#utility.yul\":3759:3825   */\n      swap1\n      pop\n        /* \"#utility.yul\":3689:3831   */\n      swap2\n      swap1\n      pop\n      jump\t// out\n        /* \"#utility.yul\":3837:3963   */\n    tag_295:\n        /* \"#utility.yul\":3887:3896   */\n      0x00\n        /* \"#utility.yul\":3920:3957   */\n      tag_383\n        /* \"#utility.yul\":3951:3956   */\n      dup3\n        /* \"#utility.yul\":3920:3957   */\n      tag_294\n      jump\t// in\n    tag_383:\n        /* \"#utility.yul\":3907:3957   */\n      swap1\n      pop\n        /* \"#utility.yul\":3837:3963   */\n      swap2\n      swap1\n      pop\n      jump\t// out\n        /* \"#utility.yul\":3969:4108   */\n    tag_296:\n        /* \"#utility.yul\":4032:4041   */\n      0x00\n        /* \"#utility.yul\":4065:4102   */\n      tag_385\n        /* \"#utility.yul\":4096:4101   */\n      dup3\n        /* \"#utility.yul\":4065:4102   */\n      tag_295\n      jump\t// in\n    tag_385:\n        /* \"#utility.yul\":4052:4102   */\n      swap1\n      pop\n        /* \"#utility.yul\":3969:4108   */\n      swap2\n      swap1\n      pop\n      jump\t// out\n        /* \"#utility.yul\":4114:4271   */\n    tag_297:\n        /* \"#utility.yul\":4214:4264   */\n      tag_387\n        /* \"#utility.yul\":4258:4263   */\n      dup2\n        /* \"#utility.yul\":4214:4264   */\n      tag_296\n      jump\t// in\n    tag_387:\n        /* \"#utility.yul\":4209:4212   */\n      dup3\n        /* \"#utility.yul\":4202:4265   */\n      mstore\n        /* \"#utility.yul\":4114:4271   */\n      pop\n      pop\n      jump\t// out\n        /* \"#utility.yul\":4277:4525   */\n    tag_127:\n        /* \"#utility.yul\":4383:4387   */\n      0x00\n        /* \"#utility.yul\":4421:4423   */\n      0x20\n        /* \"#utility.yul\":4410:4419   */\n      dup3\n        /* \"#utility.yul\":4406:4424   */\n      add\n        /* \"#utility.yul\":4398:4424   */\n      swap1\n      pop\n        /* \"#utility.yul\":4434:4518   */\n      tag_389\n        /* \"#utility.yul\":4515:4516   */\n      0x00\n        /* \"#utility.yul\":4504:4513   */\n      dup4\n        /* \"#utility.yul\":4500:4517   */\n      add\n        /* \"#utility.yul\":4491:4497   */\n      dup5\n        /* \"#utility.yul\":4434:4518   */\n      tag_297\n      jump\t// in\n    tag_389:\n        /* \"#utility.yul\":4277:4525   */\n      swap3\n      swap2\n      pop\n      pop\n      jump\t// out\n        /* \"#utility.yul\":4531:4700   */\n    tag_298:\n        /* \"#utility.yul\":4615:4626   */\n      0x00\n        /* \"#utility.yul\":4649:4655   */\n      dup3\n        /* \"#utility.yul\":4644:4647   */\n      dup3\n        /* \"#utility.yul\":4637:4656   */\n      mstore\n        /* \"#utility.yul\":4689:4693   */\n      0x20\n        /* \"#utility.yul\":4684:4687   */\n      dup3\n        /* \"#utility.yul\":4680:4694   */\n      add\n        /* \"#utility.yul\":4665:4694   */\n      swap1\n      pop\n        /* \"#utility.yul\":4531:4700   */\n      swap3\n      swap2\n      pop\n      pop\n      jump\t// out\n        /* \"#utility.yul\":4706:4873   */\n    tag_299:\n        /* \"#utility.yul\":4846:4865   */\n      0x50726573616c652068617320656e646564000000000000000000000000000000\n        /* \"#utility.yul\":4842:4843   */\n      0x00\n        /* \"#utility.yul\":4834:4840   */\n      dup3\n        /* \"#utility.yul\":4830:4844   */\n      add\n        /* \"#utility.yul\":4823:4866   */\n      mstore\n        /* \"#utility.yul\":4706:4873   */\n      pop\n      jump\t// out\n        /* \"#utility.yul\":4879:5245   */\n    tag_300:\n        /* \"#utility.yul\":5021:5024   */\n      0x00\n        /* \"#utility.yul\":5042:5109   */\n      tag_393\n        /* \"#utility.yul\":5106:5108   */\n      0x11\n        /* \"#utility.yul\":5101:5104   */\n      dup4\n        /* \"#utility.yul\":5042:5109   */\n      tag_298\n      jump\t// in\n    tag_393:\n        /* \"#utility.yul\":5035:5109   */\n      swap2\n      pop\n        /* \"#utility.yul\":5118:5211   */\n      tag_394\n        /* \"#utility.yul\":5207:5210   */\n      dup3\n        /* \"#utility.yul\":5118:5211   */\n      tag_299\n      jump\t// in\n    tag_394:\n        /* \"#utility.yul\":5236:5238   */\n      0x20\n        /* \"#utility.yul\":5231:5234   */\n      dup3\n        /* \"#utility.yul\":5227:5239   */\n      add\n        /* \"#utility.yul\":5220:5239   */\n      swap1\n      pop\n        /* \"#utility.yul\":4879:5245   */\n      swap2\n      swap1\n      pop\n      jump\t// out\n        /* \"#utility.yul\":5251:5670   */\n    tag_134:\n        /* \"#utility.yul\":5417:5421   */\n      0x00\n        /* \"#utility.yul\":5455:5457   */\n      0x20\n        /* \"#utility.yul\":5444:5453   */\n      dup3\n        /* \"#utility.yul\":5440:5458   */\n      add\n        /* \"#utility.yul\":5432:5458   */\n      swap1\n      pop\n        /* \"#utility.yul\":5504:5513   */\n      dup2\n        /* \"#utility.yul\":5498:5502   */\n      dup2\n        /* \"#utility.yul\":5494:5514   */\n      sub\n        /* \"#utility.yul\":5490:5491   */\n      0x00\n        /* \"#utility.yul\":5479:5488   */\n      dup4\n        /* \"#utility.yul\":5475:5492   */\n      add\n        /* \"#utility.yul\":5468:5515   */\n      mstore\n        /* \"#utility.yul\":5532:5663   */\n      tag_396\n        /* \"#utility.yul\":5658:5662   */\n      dup2\n        /* \"#utility.yul\":5532:5663   */\n      tag_300\n      jump\t// in\n    tag_396:\n        /* \"#utility.yul\":5524:5663   */\n      swap1\n      pop\n        /* \"#utility.yul\":5251:5670   */\n      swap2\n      swap1\n      pop\n      jump\t// out\n        /* \"#utility.yul\":5676:5843   */\n    tag_301:\n        /* \"#utility.yul\":5816:5835   */\n      0x50726573616c6520697320636c6f736564000000000000000000000000000000\n        /* \"#utility.yul\":5812:5813   */\n      0x00\n        /* \"#utility.yul\":5804:5810   */\n      dup3\n        /* \"#utility.yul\":5800:5814   */\n      add\n        /* \"#utility.yul\":5793:5836   */\n      mstore\n        /* \"#utility.yul\":5676:5843   */\n      pop\n      jump\t// out\n        /* \"#utility.yul\":5849:6215   */\n    tag_302:\n        /* \"#utility.yul\":5991:5994   */\n      0x00\n        /* \"#utility.yul\":6012:6079   */\n      tag_399\n        /* \"#utility.yul\":6076:6078   */\n      0x11\n        /* \"#utility.yul\":6071:6074   */\n      dup4\n        /* \"#utility.yul\":6012:6079   */\n      tag_298\n      jump\t// in\n    tag_399:\n        /* \"#utility.yul\":6005:6079   */\n      swap2\n      pop\n        /* \"#utility.yul\":6088:6181   */\n      tag_400\n        /* \"#utility.yul\":6177:6180   */\n      dup3\n        /* \"#utility.yul\":6088:6181   */\n      tag_301\n      jump\t// in\n    tag_400:\n        /* \"#utility.yul\":6206:6208   */\n      0x20\n        /* \"#utility.yul\":6201:6204   */\n      dup3\n        /* \"#utility.yul\":6197:6209   */\n      add\n        /* \"#utility.yul\":6190:6209   */\n      swap1\n      pop\n        /* \"#utility.yul\":5849:6215   */\n      swap2\n      swap1\n      pop\n      jump\t// out\n        /* \"#utility.yul\":6221:6640   */\n    tag_137:\n        /* \"#utility.yul\":6387:6391   */\n      0x00\n        /* \"#utility.yul\":6425:6427   */\n      0x20\n        /* \"#utility.yul\":6414:6423   */\n      dup3\n        /* \"#utility.yul\":6410:6428   */\n      add\n        /* \"#utility.yul\":6402:6428   */\n      swap1\n      pop\n        /* \"#utility.yul\":6474:6483   */\n      dup2\n        /* \"#utility.yul\":6468:6472   */\n      dup2\n        /* \"#utility.yul\":6464:6484   */\n      sub\n        /* \"#utility.yul\":6460:6461   */\n      0x00\n        /* \"#utility.yul\":6449:6458   */\n      dup4\n        /* \"#utility.yul\":6445:6462   */\n      add\n        /* \"#utility.yul\":6438:6485   */\n      mstore\n        /* \"#utility.yul\":6502:6633   */\n      tag_402\n        /* \"#utility.yul\":6628:6632   */\n      dup2\n        /* \"#utility.yul\":6502:6633   */\n      tag_302\n      jump\t// in\n    tag_402:\n        /* \"#utility.yul\":6494:6633   */\n      swap1\n      pop\n        /* \"#utility.yul\":6221:6640   */\n      swap2\n      swap1\n      pop\n      jump\t// out\n        /* \"#utility.yul\":6646:6823   */\n    tag_303:\n        /* \"#utility.yul\":6786:6815   */\n      0x496e76616c696420636f6e747269627574696f6e20616d6f756e740000000000\n        /* \"#utility.yul\":6782:6783   */\n      0x00\n        /* \"#utility.yul\":6774:6780   */\n      dup3\n        /* \"#utility.yul\":6770:6784   */\n      add\n        /* \"#utility.yul\":6763:6816   */\n      mstore\n        /* \"#utility.yul\":6646:6823   */\n      pop\n      jump\t// out\n        /* \"#utility.yul\":6829:7195   */\n    tag_304:\n        /* \"#utility.yul\":6971:6974   */\n      0x00\n        /* \"#utility.yul\":6992:7059   */\n      tag_405\n        /* \"#utility.yul\":7056:7058   */\n      0x1b\n        /* \"#utility.yul\":7051:7054   */\n      dup4\n        /* \"#utility.yul\":6992:7059   */\n      tag_298\n      jump\t// in\n    tag_405:\n        /* \"#utility.yul\":6985:7059   */\n      swap2\n      pop\n        /* \"#utility.yul\":7068:7161   */\n      tag_406\n        /* \"#utility.yul\":7157:7160   */\n      dup3\n        /* \"#utility.yul\":7068:7161   */\n      tag_303\n      jump\t// in\n    tag_406:\n        /* \"#utility.yul\":7186:7188   */\n      0x20\n        /* \"#utility.yul\":7181:7184   */\n      dup3\n        /* \"#utility.yul\":7177:7189   */\n      add\n        /* \"#utility.yul\":7170:7189   */\n      swap1\n      pop\n        /* \"#utility.yul\":6829:7195   */\n      swap2\n      swap1\n      pop\n      jump\t// out\n        /* \"#utility.yul\":7201:7620   */\n    tag_142:\n        /* \"#utility.yul\":7367:7371   */\n      0x00\n        /* \"#utility.yul\":7405:7407   */\n      0x20\n        /* \"#utility.yul\":7394:7403   */\n      dup3\n        /* \"#utility.yul\":7390:7408   */\n      add\n        /* \"#utility.yul\":7382:7408   */\n      swap1\n      pop\n        /* \"#utility.yul\":7454:7463   */\n      dup2\n        /* \"#utility.yul\":7448:7452   */\n      dup2\n        /* \"#utility.yul\":7444:7464   */\n      sub\n        /* \"#utility.yul\":7440:7441   */\n      0x00\n        /* \"#utility.yul\":7429:7438   */\n      dup4\n        /* \"#utility.yul\":7425:7442   */\n      add\n        /* \"#utility.yul\":7418:7465   */\n      mstore\n        /* \"#utility.yul\":7482:7613   */\n      tag_408\n        /* \"#utility.yul\":7608:7612   */\n      dup2\n        /* \"#utility.yul\":7482:7613   */\n      tag_304\n      jump\t// in\n    tag_408:\n        /* \"#utility.yul\":7474:7613   */\n      swap1\n      pop\n        /* \"#utility.yul\":7201:7620   */\n      swap2\n      swap1\n      pop\n      jump\t// out\n        /* \"#utility.yul\":7626:7806   */\n    tag_305:\n        /* \"#utility.yul\":7674:7751   */\n      0x4e487b7100000000000000000000000000000000000000000000000000000000\n        /* \"#utility.yul\":7671:7672   */\n      0x00\n        /* \"#utility.yul\":7664:7752   */\n      mstore\n        /* \"#utility.yul\":7771:7775   */\n      0x11\n        /* \"#utility.yul\":7768:7769   */\n      0x04\n        /* \"#utility.yul\":7761:7776   */\n      mstore\n        /* \"#utility.yul\":7795:7799   */\n      0x24\n        /* \"#utility.yul\":7792:7793   */\n      0x00\n        /* \"#utility.yul\":7785:7800   */\n      revert\n        /* \"#utility.yul\":7812:8003   */\n    tag_144:\n        /* \"#utility.yul\":7852:7855   */\n      0x00\n        /* \"#utility.yul\":7871:7891   */\n      tag_411\n        /* \"#utility.yul\":7889:7890   */\n      dup3\n        /* \"#utility.yul\":7871:7891   */\n      tag_286\n      jump\t// in\n    tag_411:\n        /* \"#utility.yul\":7866:7891   */\n      swap2\n      pop\n        /* \"#utility.yul\":7905:7925   */\n      tag_412\n        /* \"#utility.yul\":7923:7924   */\n      dup4\n        /* \"#utility.yul\":7905:7925   */\n      tag_286\n      jump\t// in\n    tag_412:\n        /* \"#utility.yul\":7900:7925   */\n      swap3\n      pop\n        /* \"#utility.yul\":7948:7949   */\n      dup3\n        /* \"#utility.yul\":7945:7946   */\n      dup3\n        /* \"#utility.yul\":7941:7950   */\n      add\n        /* \"#utility.yul\":7934:7950   */\n      swap1\n      pop\n        /* \"#utility.yul\":7969:7972   */\n      dup1\n        /* \"#utility.yul\":7966:7967   */\n      dup3\n        /* \"#utility.yul\":7963:7973   */\n      gt\n        /* \"#utility.yul\":7960:7996   */\n      iszero\n      tag_413\n      jumpi\n        /* \"#utility.yul\":7976:7994   */\n      tag_414\n      tag_305\n      jump\t// in\n    tag_414:\n        /* \"#utility.yul\":7960:7996   */\n    tag_413:\n        /* \"#utility.yul\":7812:8003   */\n      swap3\n      swap2\n      pop\n      pop\n      jump\t// out\n        /* \"#utility.yul\":8009:8231   */\n    tag_306:\n        /* \"#utility.yul\":8149:8183   */\n      0x4578636565646564206d6178696d756d20636f6e747269627574696f6e206c69\n        /* \"#utility.yul\":8145:8146   */\n      0x00\n        /* \"#utility.yul\":8137:8143   */\n      dup3\n        /* \"#utility.yul\":8133:8147   */\n      add\n        /* \"#utility.yul\":8126:8184   */\n      mstore\n        /* \"#utility.yul\":8218:8223   */\n      0x6d69740000000000000000000000000000000000000000000000000000000000\n        /* \"#utility.yul\":8213:8215   */\n      0x20\n        /* \"#utility.yul\":8205:8211   */\n      dup3\n        /* \"#utility.yul\":8201:8216   */\n      add\n        /* \"#utility.yul\":8194:8224   */\n      mstore\n        /* \"#utility.yul\":8009:8231   */\n      pop\n      jump\t// out\n        /* \"#utility.yul\":8237:8603   */\n    tag_307:\n        /* \"#utility.yul\":8379:8382   */\n      0x00\n        /* \"#utility.yul\":8400:8467   */\n      tag_417\n        /* \"#utility.yul\":8464:8466   */\n      0x23\n        /* \"#utility.yul\":8459:8462   */\n      dup4\n        /* \"#utility.yul\":8400:8467   */\n      tag_298\n      jump\t// in\n    tag_417:\n        /* \"#utility.yul\":8393:8467   */\n      swap2\n      pop\n        /* \"#utility.yul\":8476:8569   */\n      tag_418\n        /* \"#utility.yul\":8565:8568   */\n      dup3\n        /* \"#utility.yul\":8476:8569   */\n      tag_306\n      jump\t// in\n    tag_418:\n        /* \"#utility.yul\":8594:8596   */\n      0x40\n        /* \"#utility.yul\":8589:8592   */\n      dup3\n        /* \"#utility.yul\":8585:8597   */\n      add\n        /* \"#utility.yul\":8578:8597   */\n      swap1\n      pop\n        /* \"#utility.yul\":8237:8603   */\n      swap2\n      swap1\n      pop\n      jump\t// out\n        /* \"#utility.yul\":8609:9028   */\n    tag_147:\n        /* \"#utility.yul\":8775:8779   */\n      0x00\n        /* \"#utility.yul\":8813:8815   */\n      0x20\n        /* \"#utility.yul\":8802:8811   */\n      dup3\n        /* \"#utility.yul\":8798:8816   */\n      add\n        /* \"#utility.yul\":8790:8816   */\n      swap1\n      pop\n        /* \"#utility.yul\":8862:8871   */\n      dup2\n        /* \"#utility.yul\":8856:8860   */\n      dup2\n        /* \"#utility.yul\":8852:8872   */\n      sub\n        /* \"#utility.yul\":8848:8849   */\n      0x00\n        /* \"#utility.yul\":8837:8846   */\n      dup4\n        /* \"#utility.yul\":8833:8850   */\n      add\n        /* \"#utility.yul\":8826:8873   */\n      mstore\n        /* \"#utility.yul\":8890:9021   */\n      tag_420\n        /* \"#utility.yul\":9016:9020   */\n      dup2\n        /* \"#utility.yul\":8890:9021   */\n      tag_307\n      jump\t// in\n    tag_420:\n        /* \"#utility.yul\":8882:9021   */\n      swap1\n      pop\n        /* \"#utility.yul\":8609:9028   */\n      swap2\n      swap1\n      pop\n      jump\t// out\n        /* \"#utility.yul\":9034:9203   */\n    tag_308:\n        /* \"#utility.yul\":9174:9195   */\n      0x50726573616c6520636170207265616368656400000000000000000000000000\n        /* \"#utility.yul\":9170:9171   */\n      0x00\n        /* \"#utility.yul\":9162:9168   */\n      dup3\n        /* \"#utility.yul\":9158:9172   */\n      add\n        /* \"#utility.yul\":9151:9196   */\n      mstore\n        /* \"#utility.yul\":9034:9203   */\n      pop\n      jump\t// out\n        /* \"#utility.yul\":9209:9575   */\n    tag_309:\n        /* \"#utility.yul\":9351:9354   */\n      0x00\n        /* \"#utility.yul\":9372:9439   */\n      tag_423\n        /* \"#utility.yul\":9436:9438   */\n      0x13\n        /* \"#utility.yul\":9431:9434   */\n      dup4\n        /* \"#utility.yul\":9372:9439   */\n      tag_298\n      jump\t// in\n    tag_423:\n        /* \"#utility.yul\":9365:9439   */\n      swap2\n      pop\n        /* \"#utility.yul\":9448:9541   */\n      tag_424\n        /* \"#utility.yul\":9537:9540   */\n      dup3\n        /* \"#utility.yul\":9448:9541   */\n      tag_308\n      jump\t// in\n    tag_424:\n        /* \"#utility.yul\":9566:9568   */\n      0x20\n        /* \"#utility.yul\":9561:9564   */\n      dup3\n        /* \"#utility.yul\":9557:9569   */\n      add\n        /* \"#utility.yul\":9550:9569   */\n      swap1\n      pop\n        /* \"#utility.yul\":9209:9575   */\n      swap2\n      swap1\n      pop\n      jump\t// out\n        /* \"#utility.yul\":9581:10000   */\n    tag_150:\n        /* \"#utility.yul\":9747:9751   */\n      0x00\n        /* \"#utility.yul\":9785:9787   */\n      0x20\n        /* \"#utility.yul\":9774:9783   */\n      dup3\n        /* \"#utility.yul\":9770:9788   */\n      add\n        /* \"#utility.yul\":9762:9788   */\n      swap1\n      pop\n        /* \"#utility.yul\":9834:9843   */\n      dup2\n        /* \"#utility.yul\":9828:9832   */\n      dup2\n        /* \"#utility.yul\":9824:9844   */\n      sub\n        /* \"#utility.yul\":9820:9821   */\n      0x00\n        /* \"#utility.yul\":9809:9818   */\n      dup4\n        /* \"#utility.yul\":9805:9822   */\n      add\n        /* \"#utility.yul\":9798:9845   */\n      mstore\n        /* \"#utility.yul\":9862:9993   */\n      tag_426\n        /* \"#utility.yul\":9988:9992   */\n      dup2\n        /* \"#utility.yul\":9862:9993   */\n      tag_309\n      jump\t// in\n    tag_426:\n        /* \"#utility.yul\":9854:9993   */\n      swap1\n      pop\n        /* \"#utility.yul\":9581:10000   */\n      swap2\n      swap1\n      pop\n      jump\t// out\n        /* \"#utility.yul\":10006:10338   */\n    tag_154:\n        /* \"#utility.yul\":10127:10131   */\n      0x00\n        /* \"#utility.yul\":10165:10167   */\n      0x40\n        /* \"#utility.yul\":10154:10163   */\n      dup3\n        /* \"#utility.yul\":10150:10168   */\n      add\n        /* \"#utility.yul\":10142:10168   */\n      swap1\n      pop\n        /* \"#utility.yul\":10178:10249   */\n      tag_428\n        /* \"#utility.yul\":10246:10247   */\n      0x00\n        /* \"#utility.yul\":10235:10244   */\n      dup4\n        /* \"#utility.yul\":10231:10248   */\n      add\n        /* \"#utility.yul\":10222:10228   */\n      dup6\n        /* \"#utility.yul\":10178:10249   */\n      tag_290\n      jump\t// in\n    tag_428:\n        /* \"#utility.yul\":10259:10331   */\n      tag_429\n        /* \"#utility.yul\":10327:10329   */\n      0x20\n        /* \"#utility.yul\":10316:10325   */\n      dup4\n        /* \"#utility.yul\":10312:10330   */\n      add\n        /* \"#utility.yul\":10303:10309   */\n      dup5\n        /* \"#utility.yul\":10259:10331   */\n      tag_289\n      jump\t// in\n    tag_429:\n        /* \"#utility.yul\":10006:10338   */\n      swap4\n      swap3\n      pop\n      pop\n      pop\n      jump\t// out\n        /* \"#utility.yul\":10344:10460   */\n    tag_310:\n        /* \"#utility.yul\":10414:10435   */\n      tag_431\n        /* \"#utility.yul\":10429:10434   */\n      dup2\n        /* \"#utility.yul\":10414:10435   */\n      tag_291\n      jump\t// in\n    tag_431:\n        /* \"#utility.yul\":10407:10412   */\n      dup2\n        /* \"#utility.yul\":10404:10436   */\n      eq\n        /* \"#utility.yul\":10394:10454   */\n      tag_432\n      jumpi\n        /* \"#utility.yul\":10450:10451   */\n      0x00\n        /* \"#utility.yul\":10447:10448   */\n      dup1\n        /* \"#utility.yul\":10440:10452   */\n      revert\n        /* \"#utility.yul\":10394:10454   */\n    tag_432:\n        /* \"#utility.yul\":10344:10460   */\n      pop\n      jump\t// out\n        /* \"#utility.yul\":10466:10603   */\n    tag_311:\n        /* \"#utility.yul\":10520:10525   */\n      0x00\n        /* \"#utility.yul\":10551:10557   */\n      dup2\n        /* \"#utility.yul\":10545:10558   */\n      mload\n        /* \"#utility.yul\":10536:10558   */\n      swap1\n      pop\n        /* \"#utility.yul\":10567:10597   */\n      tag_434\n        /* \"#utility.yul\":10591:10596   */\n      dup2\n        /* \"#utility.yul\":10567:10597   */\n      tag_310\n      jump\t// in\n    tag_434:\n        /* \"#utility.yul\":10466:10603   */\n      swap3\n      swap2\n      pop\n      pop\n      jump\t// out\n        /* \"#utility.yul\":10609:10954   */\n    tag_158:\n        /* \"#utility.yul\":10676:10682   */\n      0x00\n        /* \"#utility.yul\":10725:10727   */\n      0x20\n        /* \"#utility.yul\":10713:10722   */\n      dup3\n        /* \"#utility.yul\":10704:10711   */\n      dup5\n        /* \"#utility.yul\":10700:10723   */\n      sub\n        /* \"#utility.yul\":10696:10728   */\n      slt\n        /* \"#utility.yul\":10693:10812   */\n      iszero\n      tag_436\n      jumpi\n        /* \"#utility.yul\":10731:10810   */\n      tag_437\n      tag_280\n      jump\t// in\n    tag_437:\n        /* \"#utility.yul\":10693:10812   */\n    tag_436:\n        /* \"#utility.yul\":10851:10852   */\n      0x00\n        /* \"#utility.yul\":10876:10937   */\n      tag_438\n        /* \"#utility.yul\":10929:10936   */\n      dup5\n        /* \"#utility.yul\":10920:10926   */\n      dup3\n        /* \"#utility.yul\":10909:10918   */\n      dup6\n        /* \"#utility.yul\":10905:10927   */\n      add\n        /* \"#utility.yul\":10876:10937   */\n      tag_311\n      jump\t// in\n    tag_438:\n        /* \"#utility.yul\":10866:10937   */\n      swap2\n      pop\n        /* \"#utility.yul\":10822:10947   */\n      pop\n        /* \"#utility.yul\":10609:10954   */\n      swap3\n      swap2\n      pop\n      pop\n      jump\t// out\n        /* \"#utility.yul\":10960:11390   */\n    tag_160:\n        /* \"#utility.yul\":11103:11107   */\n      0x00\n        /* \"#utility.yul\":11141:11143   */\n      0x60\n        /* \"#utility.yul\":11130:11139   */\n      dup3\n        /* \"#utility.yul\":11126:11144   */\n      add\n        /* \"#utility.yul\":11118:11144   */\n      swap1\n      pop\n        /* \"#utility.yul\":11154:11225   */\n      tag_440\n        /* \"#utility.yul\":11222:11223   */\n      0x00\n        /* \"#utility.yul\":11211:11220   */\n      dup4\n        /* \"#utility.yul\":11207:11224   */\n      add\n        /* \"#utility.yul\":11198:11204   */\n      dup7\n        /* \"#utility.yul\":11154:11225   */\n      tag_289\n      jump\t// in\n    tag_440:\n        /* \"#utility.yul\":11235:11307   */\n      tag_441\n        /* \"#utility.yul\":11303:11305   */\n      0x20\n        /* \"#utility.yul\":11292:11301   */\n      dup4\n        /* \"#utility.yul\":11288:11306   */\n      add\n        /* \"#utility.yul\":11279:11285   */\n      dup6\n        /* \"#utility.yul\":11235:11307   */\n      tag_289\n      jump\t// in\n    tag_441:\n        /* \"#utility.yul\":11317:11383   */\n      tag_442\n        /* \"#utility.yul\":11379:11381   */\n      0x40\n        /* \"#utility.yul\":11368:11377   */\n      dup4\n        /* \"#utility.yul\":11364:11382   */\n      add\n        /* \"#utility.yul\":11355:11361   */\n      dup5\n        /* \"#utility.yul\":11317:11383   */\n      tag_292\n      jump\t// in\n    tag_442:\n        /* \"#utility.yul\":10960:11390   */\n      swap5\n      swap4\n      pop\n      pop\n      pop\n      pop\n      jump\t// out\n        /* \"#utility.yul\":11396:11569   */\n    tag_312:\n        /* \"#utility.yul\":11536:11561   */\n      0x43616c6c6572206973206e6f7420746865206f776e6572000000000000000000\n        /* \"#utility.yul\":11532:11533   */\n      0x00\n        /* \"#utility.yul\":11524:11530   */\n      dup3\n        /* \"#utility.yul\":11520:11534   */\n      add\n        /* \"#utility.yul\":11513:11562   */\n      mstore\n        /* \"#utility.yul\":11396:11569   */\n      pop\n      jump\t// out\n        /* \"#utility.yul\":11575:11941   */\n    tag_313:\n        /* \"#utility.yul\":11717:11720   */\n      0x00\n        /* \"#utility.yul\":11738:11805   */\n      tag_445\n        /* \"#utility.yul\":11802:11804   */\n      0x17\n        /* \"#utility.yul\":11797:11800   */\n      dup4\n        /* \"#utility.yul\":11738:11805   */\n      tag_298\n      jump\t// in\n    tag_445:\n        /* \"#utility.yul\":11731:11805   */\n      swap2\n      pop\n        /* \"#utility.yul\":11814:11907   */\n      tag_446\n        /* \"#utility.yul\":11903:11906   */\n      dup3\n        /* \"#utility.yul\":11814:11907   */\n      tag_312\n      jump\t// in\n    tag_446:\n        /* \"#utility.yul\":11932:11934   */\n      0x20\n        /* \"#utility.yul\":11927:11930   */\n      dup3\n        /* \"#utility.yul\":11923:11935   */\n      add\n        /* \"#utility.yul\":11916:11935   */\n      swap1\n      pop\n        /* \"#utility.yul\":11575:11941   */\n      swap2\n      swap1\n      pop\n      jump\t// out\n        /* \"#utility.yul\":11947:12366   */\n    tag_165:\n        /* \"#utility.yul\":12113:12117   */\n      0x00\n        /* \"#utility.yul\":12151:12153   */\n      0x20\n        /* \"#utility.yul\":12140:12149   */\n      dup3\n        /* \"#utility.yul\":12136:12154   */\n      add\n        /* \"#utility.yul\":12128:12154   */\n      swap1\n      pop\n        /* \"#utility.yul\":12200:12209   */\n      dup2\n        /* \"#utility.yul\":12194:12198   */\n      dup2\n        /* \"#utility.yul\":12190:12210   */\n      sub\n        /* \"#utility.yul\":12186:12187   */\n      0x00\n        /* \"#utility.yul\":12175:12184   */\n      dup4\n        /* \"#utility.yul\":12171:12188   */\n      add\n        /* \"#utility.yul\":12164:12211   */\n      mstore\n        /* \"#utility.yul\":12228:12359   */\n      tag_448\n        /* \"#utility.yul\":12354:12358   */\n      dup2\n        /* \"#utility.yul\":12228:12359   */\n      tag_313\n      jump\t// in\n    tag_448:\n        /* \"#utility.yul\":12220:12359   */\n      swap1\n      pop\n        /* \"#utility.yul\":11947:12366   */\n      swap2\n      swap1\n      pop\n      jump\t// out\n        /* \"#utility.yul\":12372:12545   */\n    tag_314:\n        /* \"#utility.yul\":12512:12537   */\n      0x50726573616c65206973207374696c6c20616374697665000000000000000000\n        /* \"#utility.yul\":12508:12509   */\n      0x00\n        /* \"#utility.yul\":12500:12506   */\n      dup3\n        /* \"#utility.yul\":12496:12510   */\n      add\n        /* \"#utility.yul\":12489:12538   */\n      mstore\n        /* \"#utility.yul\":12372:12545   */\n      pop\n      jump\t// out\n        /* \"#utility.yul\":12551:12917   */\n    tag_315:\n        /* \"#utility.yul\":12693:12696   */\n      0x00\n        /* \"#utility.yul\":12714:12781   */\n      tag_451\n        /* \"#utility.yul\":12778:12780   */\n      0x17\n        /* \"#utility.yul\":12773:12776   */\n      dup4\n        /* \"#utility.yul\":12714:12781   */\n      tag_298\n      jump\t// in\n    tag_451:\n        /* \"#utility.yul\":12707:12781   */\n      swap2\n      pop\n        /* \"#utility.yul\":12790:12883   */\n      tag_452\n        /* \"#utility.yul\":12879:12882   */\n      dup3\n        /* \"#utility.yul\":12790:12883   */\n      tag_314\n      jump\t// in\n    tag_452:\n        /* \"#utility.yul\":12908:12910   */\n      0x20\n        /* \"#utility.yul\":12903:12906   */\n      dup3\n        /* \"#utility.yul\":12899:12911   */\n      add\n        /* \"#utility.yul\":12892:12911   */\n      swap1\n      pop\n        /* \"#utility.yul\":12551:12917   */\n      swap2\n      swap1\n      pop\n      jump\t// out\n        /* \"#utility.yul\":12923:13342   */\n    tag_169:\n        /* \"#utility.yul\":13089:13093   */\n      0x00\n        /* \"#utility.yul\":13127:13129   */\n      0x20\n        /* \"#utility.yul\":13116:13125   */\n      dup3\n        /* \"#utility.yul\":13112:13130   */\n      add\n        /* \"#utility.yul\":13104:13130   */\n      swap1\n      pop\n        /* \"#utility.yul\":13176:13185   */\n      dup2\n        /* \"#utility.yul\":13170:13174   */\n      dup2\n        /* \"#utility.yul\":13166:13186   */\n      sub\n        /* \"#utility.yul\":13162:13163   */\n      0x00\n        /* \"#utility.yul\":13151:13160   */\n      dup4\n        /* \"#utility.yul\":13147:13164   */\n      add\n        /* \"#utility.yul\":13140:13187   */\n      mstore\n        /* \"#utility.yul\":13204:13335   */\n      tag_454\n        /* \"#utility.yul\":13330:13334   */\n      dup2\n        /* \"#utility.yul\":13204:13335   */\n      tag_315\n      jump\t// in\n    tag_454:\n        /* \"#utility.yul\":13196:13335   */\n      swap1\n      pop\n        /* \"#utility.yul\":12923:13342   */\n      swap2\n      swap1\n      pop\n      jump\t// out\n        /* \"#utility.yul\":13348:13529   */\n    tag_316:\n        /* \"#utility.yul\":13488:13521   */\n      0x416d6f756e742073686f756c642062652067726561746572207468616e203000\n        /* \"#utility.yul\":13484:13485   */\n      0x00\n        /* \"#utility.yul\":13476:13482   */\n      dup3\n        /* \"#utility.yul\":13472:13486   */\n      add\n        /* \"#utility.yul\":13465:13522   */\n      mstore\n        /* \"#utility.yul\":13348:13529   */\n      pop\n      jump\t// out\n        /* \"#utility.yul\":13535:13901   */\n    tag_317:\n        /* \"#utility.yul\":13677:13680   */\n      0x00\n        /* \"#utility.yul\":13698:13765   */\n      tag_457\n        /* \"#utility.yul\":13762:13764   */\n      0x1f\n        /* \"#utility.yul\":13757:13760   */\n      dup4\n        /* \"#utility.yul\":13698:13765   */\n      tag_298\n      jump\t// in\n    tag_457:\n        /* \"#utility.yul\":13691:13765   */\n      swap2\n      pop\n        /* \"#utility.yul\":13774:13867   */\n      tag_458\n        /* \"#utility.yul\":13863:13866   */\n      dup3\n        /* \"#utility.yul\":13774:13867   */\n      tag_316\n      jump\t// in\n    tag_458:\n        /* \"#utility.yul\":13892:13894   */\n      0x20\n        /* \"#utility.yul\":13887:13890   */\n      dup3\n        /* \"#utility.yul\":13883:13895   */\n      add\n        /* \"#utility.yul\":13876:13895   */\n      swap1\n      pop\n        /* \"#utility.yul\":13535:13901   */\n      swap2\n      swap1\n      pop\n      jump\t// out\n        /* \"#utility.yul\":13907:14326   */\n    tag_177:\n        /* \"#utility.yul\":14073:14077   */\n      0x00\n        /* \"#utility.yul\":14111:14113   */\n      0x20\n        /* \"#utility.yul\":14100:14109   */\n      dup3\n        /* \"#utility.yul\":14096:14114   */\n      add\n        /* \"#utility.yul\":14088:14114   */\n      swap1\n      pop\n        /* \"#utility.yul\":14160:14169   */\n      dup2\n        /* \"#utility.yul\":14154:14158   */\n      dup2\n        /* \"#utility.yul\":14150:14170   */\n      sub\n        /* \"#utility.yul\":14146:14147   */\n      0x00\n        /* \"#utility.yul\":14135:14144   */\n      dup4\n        /* \"#utility.yul\":14131:14148   */\n      add\n        /* \"#utility.yul\":14124:14171   */\n      mstore\n        /* \"#utility.yul\":14188:14319   */\n      tag_460\n        /* \"#utility.yul\":14314:14318   */\n      dup2\n        /* \"#utility.yul\":14188:14319   */\n      tag_317\n      jump\t// in\n    tag_460:\n        /* \"#utility.yul\":14180:14319   */\n      swap1\n      pop\n        /* \"#utility.yul\":13907:14326   */\n      swap2\n      swap1\n      pop\n      jump\t// out\n        /* \"#utility.yul\":14332:14509   */\n    tag_318:\n        /* \"#utility.yul\":14472:14501   */\n      0x5075626c69632073616c65206973207374696c6c206163746976650000000000\n        /* \"#utility.yul\":14468:14469   */\n      0x00\n        /* \"#utility.yul\":14460:14466   */\n      dup3\n        /* \"#utility.yul\":14456:14470   */\n      add\n        /* \"#utility.yul\":14449:14502   */\n      mstore\n        /* \"#utility.yul\":14332:14509   */\n      pop\n      jump\t// out\n        /* \"#utility.yul\":14515:14881   */\n    tag_319:\n        /* \"#utility.yul\":14657:14660   */\n      0x00\n        /* \"#utility.yul\":14678:14745   */\n      tag_463\n        /* \"#utility.yul\":14742:14744   */\n      0x1b\n        /* \"#utility.yul\":14737:14740   */\n      dup4\n        /* \"#utility.yul\":14678:14745   */\n      tag_298\n      jump\t// in\n    tag_463:\n        /* \"#utility.yul\":14671:14745   */\n      swap2\n      pop\n        /* \"#utility.yul\":14754:14847   */\n      tag_464\n        /* \"#utility.yul\":14843:14846   */\n      dup3\n        /* \"#utility.yul\":14754:14847   */\n      tag_318\n      jump\t// in\n    tag_464:\n        /* \"#utility.yul\":14872:14874   */\n      0x20\n        /* \"#utility.yul\":14867:14870   */\n      dup3\n        /* \"#utility.yul\":14863:14875   */\n      add\n        /* \"#utility.yul\":14856:14875   */\n      swap1\n      pop\n        /* \"#utility.yul\":14515:14881   */\n      swap2\n      swap1\n      pop\n      jump\t// out\n        /* \"#utility.yul\":14887:15306   */\n    tag_190:\n        /* \"#utility.yul\":15053:15057   */\n      0x00\n        /* \"#utility.yul\":15091:15093   */\n      0x20\n        /* \"#utility.yul\":15080:15089   */\n      dup3\n        /* \"#utility.yul\":15076:15094   */\n      add\n        /* \"#utility.yul\":15068:15094   */\n      swap1\n      pop\n        /* \"#utility.yul\":15140:15149   */\n      dup2\n        /* \"#utility.yul\":15134:15138   */\n      dup2\n        /* \"#utility.yul\":15130:15150   */\n      sub\n        /* \"#utility.yul\":15126:15127   */\n      0x00\n        /* \"#utility.yul\":15115:15124   */\n      dup4\n        /* \"#utility.yul\":15111:15128   */\n      add\n        /* \"#utility.yul\":15104:15151   */\n      mstore\n        /* \"#utility.yul\":15168:15299   */\n      tag_466\n        /* \"#utility.yul\":15294:15298   */\n      dup2\n        /* \"#utility.yul\":15168:15299   */\n      tag_319\n      jump\t// in\n    tag_466:\n        /* \"#utility.yul\":15160:15299   */\n      swap1\n      pop\n        /* \"#utility.yul\":14887:15306   */\n      swap2\n      swap1\n      pop\n      jump\t// out\n        /* \"#utility.yul\":15312:15484   */\n    tag_320:\n        /* \"#utility.yul\":15452:15476   */\n      0x526566756e64206e6f7420616c6c6f7765642079657400000000000000000000\n        /* \"#utility.yul\":15448:15449   */\n      0x00\n        /* \"#utility.yul\":15440:15446   */\n      dup3\n        /* \"#utility.yul\":15436:15450   */\n      add\n        /* \"#utility.yul\":15429:15477   */\n      mstore\n        /* \"#utility.yul\":15312:15484   */\n      pop\n      jump\t// out\n        /* \"#utility.yul\":15490:15856   */\n    tag_321:\n        /* \"#utility.yul\":15632:15635   */\n      0x00\n        /* \"#utility.yul\":15653:15720   */\n      tag_469\n        /* \"#utility.yul\":15717:15719   */\n      0x16\n        /* \"#utility.yul\":15712:15715   */\n      dup4\n        /* \"#utility.yul\":15653:15720   */\n      tag_298\n      jump\t// in\n    tag_469:\n        /* \"#utility.yul\":15646:15720   */\n      swap2\n      pop\n        /* \"#utility.yul\":15729:15822   */\n      tag_470\n        /* \"#utility.yul\":15818:15821   */\n      dup3\n        /* \"#utility.yul\":15729:15822   */\n      tag_320\n      jump\t// in\n    tag_470:\n        /* \"#utility.yul\":15847:15849   */\n      0x20\n        /* \"#utility.yul\":15842:15845   */\n      dup3\n        /* \"#utility.yul\":15838:15850   */\n      add\n        /* \"#utility.yul\":15831:15850   */\n      swap1\n      pop\n        /* \"#utility.yul\":15490:15856   */\n      swap2\n      swap1\n      pop\n      jump\t// out\n        /* \"#utility.yul\":15862:16281   */\n    tag_209:\n        /* \"#utility.yul\":16028:16032   */\n      0x00\n        /* \"#utility.yul\":16066:16068   */\n      0x20\n        /* \"#utility.yul\":16055:16064   */\n      dup3\n        /* \"#utility.yul\":16051:16069   */\n      add\n        /* \"#utility.yul\":16043:16069   */\n      swap1\n      pop\n        /* \"#utility.yul\":16115:16124   */\n      dup2\n        /* \"#utility.yul\":16109:16113   */\n      dup2\n        /* \"#utility.yul\":16105:16125   */\n      sub\n        /* \"#utility.yul\":16101:16102   */\n      0x00\n        /* \"#utility.yul\":16090:16099   */\n      dup4\n        /* \"#utility.yul\":16086:16103   */\n      add\n        /* \"#utility.yul\":16079:16126   */\n      mstore\n        /* \"#utility.yul\":16143:16274   */\n      tag_472\n        /* \"#utility.yul\":16269:16273   */\n      dup2\n        /* \"#utility.yul\":16143:16274   */\n      tag_321\n      jump\t// in\n    tag_472:\n        /* \"#utility.yul\":16135:16274   */\n      swap1\n      pop\n        /* \"#utility.yul\":15862:16281   */\n      swap2\n      swap1\n      pop\n      jump\t// out\n        /* \"#utility.yul\":16287:16456   */\n    tag_322:\n        /* \"#utility.yul\":16427:16448   */\n      0x4e6f20726566756e6420617661696c61626c6500000000000000000000000000\n        /* \"#utility.yul\":16423:16424   */\n      0x00\n        /* \"#utility.yul\":16415:16421   */\n      dup3\n        /* \"#utility.yul\":16411:16425   */\n      add\n        /* \"#utility.yul\":16404:16449   */\n      mstore\n        /* \"#utility.yul\":16287:16456   */\n      pop\n      jump\t// out\n        /* \"#utility.yul\":16462:16828   */\n    tag_323:\n        /* \"#utility.yul\":16604:16607   */\n      0x00\n        /* \"#utility.yul\":16625:16692   */\n      tag_475\n        /* \"#utility.yul\":16689:16691   */\n      0x13\n        /* \"#utility.yul\":16684:16687   */\n      dup4\n        /* \"#utility.yul\":16625:16692   */\n      tag_298\n      jump\t// in\n    tag_475:\n        /* \"#utility.yul\":16618:16692   */\n      swap2\n      pop\n        /* \"#utility.yul\":16701:16794   */\n      tag_476\n        /* \"#utility.yul\":16790:16793   */\n      dup3\n        /* \"#utility.yul\":16701:16794   */\n      tag_322\n      jump\t// in\n    tag_476:\n        /* \"#utility.yul\":16819:16821   */\n      0x20\n        /* \"#utility.yul\":16814:16817   */\n      dup3\n        /* \"#utility.yul\":16810:16822   */\n      add\n        /* \"#utility.yul\":16803:16822   */\n      swap1\n      pop\n        /* \"#utility.yul\":16462:16828   */\n      swap2\n      swap1\n      pop\n      jump\t// out\n        /* \"#utility.yul\":16834:17253   */\n    tag_218:\n        /* \"#utility.yul\":17000:17004   */\n      0x00\n        /* \"#utility.yul\":17038:17040   */\n      0x20\n        /* \"#utility.yul\":17027:17036   */\n      dup3\n        /* \"#utility.yul\":17023:17041   */\n      add\n        /* \"#utility.yul\":17015:17041   */\n      swap1\n      pop\n        /* \"#utility.yul\":17087:17096   */\n      dup2\n        /* \"#utility.yul\":17081:17085   */\n      dup2\n        /* \"#utility.yul\":17077:17097   */\n      sub\n        /* \"#utility.yul\":17073:17074   */\n      0x00\n        /* \"#utility.yul\":17062:17071   */\n      dup4\n        /* \"#utility.yul\":17058:17075   */\n      add\n        /* \"#utility.yul\":17051:17098   */\n      mstore\n        /* \"#utility.yul\":17115:17246   */\n      tag_478\n        /* \"#utility.yul\":17241:17245   */\n      dup2\n        /* \"#utility.yul\":17115:17246   */\n      tag_323\n      jump\t// in\n    tag_478:\n        /* \"#utility.yul\":17107:17246   */\n      swap1\n      pop\n        /* \"#utility.yul\":16834:17253   */\n      swap2\n      swap1\n      pop\n      jump\t// out\n        /* \"#utility.yul\":17259:17434   */\n    tag_324:\n        /* \"#utility.yul\":17399:17426   */\n      0x5075626c69632073616c65206973206e6f742061637469766500000000000000\n        /* \"#utility.yul\":17395:17396   */\n      0x00\n        /* \"#utility.yul\":17387:17393   */\n      dup3\n        /* \"#utility.yul\":17383:17397   */\n      add\n        /* \"#utility.yul\":17376:17427   */\n      mstore\n        /* \"#utility.yul\":17259:17434   */\n      pop\n      jump\t// out\n        /* \"#utility.yul\":17440:17806   */\n    tag_325:\n        /* \"#utility.yul\":17582:17585   */\n      0x00\n        /* \"#utility.yul\":17603:17670   */\n      tag_481\n        /* \"#utility.yul\":17667:17669   */\n      0x19\n        /* \"#utility.yul\":17662:17665   */\n      dup4\n        /* \"#utility.yul\":17603:17670   */\n      tag_298\n      jump\t// in\n    tag_481:\n        /* \"#utility.yul\":17596:17670   */\n      swap2\n      pop\n        /* \"#utility.yul\":17679:17772   */\n      tag_482\n        /* \"#utility.yul\":17768:17771   */\n      dup3\n        /* \"#utility.yul\":17679:17772   */\n      tag_324\n      jump\t// in\n    tag_482:\n        /* \"#utility.yul\":17797:17799   */\n      0x20\n        /* \"#utility.yul\":17792:17795   */\n      dup3\n        /* \"#utility.yul\":17788:17800   */\n      add\n        /* \"#utility.yul\":17781:17800   */\n      swap1\n      pop\n        /* \"#utility.yul\":17440:17806   */\n      swap2\n      swap1\n      pop\n      jump\t// out\n        /* \"#utility.yul\":17812:18231   */\n    tag_226:\n        /* \"#utility.yul\":17978:17982   */\n      0x00\n        /* \"#utility.yul\":18016:18018   */\n      0x20\n        /* \"#utility.yul\":18005:18014   */\n      dup3\n        /* \"#utility.yul\":18001:18019   */\n      add\n        /* \"#utility.yul\":17993:18019   */\n      swap1\n      pop\n        /* \"#utility.yul\":18065:18074   */\n      dup2\n        /* \"#utility.yul\":18059:18063   */\n      dup2\n        /* \"#utility.yul\":18055:18075   */\n      sub\n        /* \"#utility.yul\":18051:18052   */\n      0x00\n        /* \"#utility.yul\":18040:18049   */\n      dup4\n        /* \"#utility.yul\":18036:18053   */\n      add\n        /* \"#utility.yul\":18029:18076   */\n      mstore\n        /* \"#utility.yul\":18093:18224   */\n      tag_484\n        /* \"#utility.yul\":18219:18223   */\n      dup2\n        /* \"#utility.yul\":18093:18224   */\n      tag_325\n      jump\t// in\n    tag_484:\n        /* \"#utility.yul\":18085:18224   */\n      swap1\n      pop\n        /* \"#utility.yul\":17812:18231   */\n      swap2\n      swap1\n      pop\n      jump\t// out\n        /* \"#utility.yul\":18237:18408   */\n    tag_326:\n        /* \"#utility.yul\":18377:18400   */\n      0x5075626c69632073616c6520697320636c6f7365640000000000000000000000\n        /* \"#utility.yul\":18373:18374   */\n      0x00\n        /* \"#utility.yul\":18365:18371   */\n      dup3\n        /* \"#utility.yul\":18361:18375   */\n      add\n        /* \"#utility.yul\":18354:18401   */\n      mstore\n        /* \"#utility.yul\":18237:18408   */\n      pop\n      jump\t// out\n        /* \"#utility.yul\":18414:18780   */\n    tag_327:\n        /* \"#utility.yul\":18556:18559   */\n      0x00\n        /* \"#utility.yul\":18577:18644   */\n      tag_487\n        /* \"#utility.yul\":18641:18643   */\n      0x15\n        /* \"#utility.yul\":18636:18639   */\n      dup4\n        /* \"#utility.yul\":18577:18644   */\n      tag_298\n      jump\t// in\n    tag_487:\n        /* \"#utility.yul\":18570:18644   */\n      swap2\n      pop\n        /* \"#utility.yul\":18653:18746   */\n      tag_488\n        /* \"#utility.yul\":18742:18745   */\n      dup3\n        /* \"#utility.yul\":18653:18746   */\n      tag_326\n      jump\t// in\n    tag_488:\n        /* \"#utility.yul\":18771:18773   */\n      0x20\n        /* \"#utility.yul\":18766:18769   */\n      dup3\n        /* \"#utility.yul\":18762:18774   */\n      add\n        /* \"#utility.yul\":18755:18774   */\n      swap1\n      pop\n        /* \"#utility.yul\":18414:18780   */\n      swap2\n      swap1\n      pop\n      jump\t// out\n        /* \"#utility.yul\":18786:19205   */\n    tag_229:\n        /* \"#utility.yul\":18952:18956   */\n      0x00\n        /* \"#utility.yul\":18990:18992   */\n      0x20\n        /* \"#utility.yul\":18979:18988   */\n      dup3\n        /* \"#utility.yul\":18975:18993   */\n      add\n        /* \"#utility.yul\":18967:18993   */\n      swap1\n      pop\n        /* \"#utility.yul\":19039:19048   */\n      dup2\n        /* \"#utility.yul\":19033:19037   */\n      dup2\n        /* \"#utility.yul\":19029:19049   */\n      sub\n        /* \"#utility.yul\":19025:19026   */\n      0x00\n        /* \"#utility.yul\":19014:19023   */\n      dup4\n        /* \"#utility.yul\":19010:19027   */\n      add\n        /* \"#utility.yul\":19003:19050   */\n      mstore\n        /* \"#utility.yul\":19067:19198   */\n      tag_490\n        /* \"#utility.yul\":19193:19197   */\n      dup2\n        /* \"#utility.yul\":19067:19198   */\n      tag_327\n      jump\t// in\n    tag_490:\n        /* \"#utility.yul\":19059:19198   */\n      swap1\n      pop\n        /* \"#utility.yul\":18786:19205   */\n      swap2\n      swap1\n      pop\n      jump\t// out\n        /* \"#utility.yul\":19211:19384   */\n    tag_328:\n        /* \"#utility.yul\":19351:19376   */\n      0x5075626c69632073616c65206361702072656163686564000000000000000000\n        /* \"#utility.yul\":19347:19348   */\n      0x00\n        /* \"#utility.yul\":19339:19345   */\n      dup3\n        /* \"#utility.yul\":19335:19349   */\n      add\n        /* \"#utility.yul\":19328:19377   */\n      mstore\n        /* \"#utility.yul\":19211:19384   */\n      pop\n      jump\t// out\n        /* \"#utility.yul\":19390:19756   */\n    tag_329:\n        /* \"#utility.yul\":19532:19535   */\n      0x00\n        /* \"#utility.yul\":19553:19620   */\n      tag_493\n        /* \"#utility.yul\":19617:19619   */\n      0x17\n        /* \"#utility.yul\":19612:19615   */\n      dup4\n        /* \"#utility.yul\":19553:19620   */\n      tag_298\n      jump\t// in\n    tag_493:\n        /* \"#utility.yul\":19546:19620   */\n      swap2\n      pop\n        /* \"#utility.yul\":19629:19722   */\n      tag_494\n        /* \"#utility.yul\":19718:19721   */\n      dup3\n        /* \"#utility.yul\":19629:19722   */\n      tag_328\n      jump\t// in\n    tag_494:\n        /* \"#utility.yul\":19747:19749   */\n      0x20\n        /* \"#utility.yul\":19742:19745   */\n      dup3\n        /* \"#utility.yul\":19738:19750   */\n      add\n        /* \"#utility.yul\":19731:19750   */\n      swap1\n      pop\n        /* \"#utility.yul\":19390:19756   */\n      swap2\n      swap1\n      pop\n      jump\t// out\n        /* \"#utility.yul\":19762:20181   */\n    tag_239:\n        /* \"#utility.yul\":19928:19932   */\n      0x00\n        /* \"#utility.yul\":19966:19968   */\n      0x20\n        /* \"#utility.yul\":19955:19964   */\n      dup3\n        /* \"#utility.yul\":19951:19969   */\n      add\n        /* \"#utility.yul\":19943:19969   */\n      swap1\n      pop\n        /* \"#utility.yul\":20015:20024   */\n      dup2\n        /* \"#utility.yul\":20009:20013   */\n      dup2\n        /* \"#utility.yul\":20005:20025   */\n      sub\n        /* \"#utility.yul\":20001:20002   */\n      0x00\n        /* \"#utility.yul\":19990:19999   */\n      dup4\n        /* \"#utility.yul\":19986:20003   */\n      add\n        /* \"#utility.yul\":19979:20026   */\n      mstore\n        /* \"#utility.yul\":20043:20174   */\n      tag_496\n        /* \"#utility.yul\":20169:20173   */\n      dup2\n        /* \"#utility.yul\":20043:20174   */\n      tag_329\n      jump\t// in\n    tag_496:\n        /* \"#utility.yul\":20035:20174   */\n      swap1\n      pop\n        /* \"#utility.yul\":19762:20181   */\n      swap2\n      swap1\n      pop\n      jump\t// out\n        /* \"#utility.yul\":20187:20352   */\n    tag_330:\n        /* \"#utility.yul\":20327:20344   */\n      0x4e6f206578636573732066756e64730000000000000000000000000000000000\n        /* \"#utility.yul\":20323:20324   */\n      0x00\n        /* \"#utility.yul\":20315:20321   */\n      dup3\n        /* \"#utility.yul\":20311:20325   */\n      add\n        /* \"#utility.yul\":20304:20345   */\n      mstore\n        /* \"#utility.yul\":20187:20352   */\n      pop\n      jump\t// out\n        /* \"#utility.yul\":20358:20724   */\n    tag_331:\n        /* \"#utility.yul\":20500:20503   */\n      0x00\n        /* \"#utility.yul\":20521:20588   */\n      tag_499\n        /* \"#utility.yul\":20585:20587   */\n      0x0f\n        /* \"#utility.yul\":20580:20583   */\n      dup4\n        /* \"#utility.yul\":20521:20588   */\n      tag_298\n      jump\t// in\n    tag_499:\n        /* \"#utility.yul\":20514:20588   */\n      swap2\n      pop\n        /* \"#utility.yul\":20597:20690   */\n      tag_500\n        /* \"#utility.yul\":20686:20689   */\n      dup3\n        /* \"#utility.yul\":20597:20690   */\n      tag_330\n      jump\t// in\n    tag_500:\n        /* \"#utility.yul\":20715:20717   */\n      0x20\n        /* \"#utility.yul\":20710:20713   */\n      dup3\n        /* \"#utility.yul\":20706:20718   */\n      add\n        /* \"#utility.yul\":20699:20718   */\n      swap1\n      pop\n        /* \"#utility.yul\":20358:20724   */\n      swap2\n      swap1\n      pop\n      jump\t// out\n        /* \"#utility.yul\":20730:21149   */\n    tag_260:\n        /* \"#utility.yul\":20896:20900   */\n      0x00\n        /* \"#utility.yul\":20934:20936   */\n      0x20\n        /* \"#utility.yul\":20923:20932   */\n      dup3\n        /* \"#utility.yul\":20919:20937   */\n      add\n        /* \"#utility.yul\":20911:20937   */\n      swap1\n      pop\n        /* \"#utility.yul\":20983:20992   */\n      dup2\n        /* \"#utility.yul\":20977:20981   */\n      dup2\n        /* \"#utility.yul\":20973:20993   */\n      sub\n        /* \"#utility.yul\":20969:20970   */\n      0x00\n        /* \"#utility.yul\":20958:20967   */\n      dup4\n        /* \"#utility.yul\":20954:20971   */\n      add\n        /* \"#utility.yul\":20947:20994   */\n      mstore\n        /* \"#utility.yul\":21011:21142   */\n      tag_502\n        /* \"#utility.yul\":21137:21141   */\n      dup2\n        /* \"#utility.yul\":21011:21142   */\n      tag_331\n      jump\t// in\n    tag_502:\n        /* \"#utility.yul\":21003:21142   */\n      swap1\n      pop\n        /* \"#utility.yul\":20730:21149   */\n      swap2\n      swap1\n      pop\n      jump\t// out\n        /* \"#utility.yul\":21155:21349   */\n    tag_263:\n        /* \"#utility.yul\":21195:21199   */\n      0x00\n        /* \"#utility.yul\":21215:21235   */\n      tag_504\n        /* \"#utility.yul\":21233:21234   */\n      dup3\n        /* \"#utility.yul\":21215:21235   */\n      tag_286\n      jump\t// in\n    tag_504:\n        /* \"#utility.yul\":21210:21235   */\n      swap2\n      pop\n        /* \"#utility.yul\":21249:21269   */\n      tag_505\n        /* \"#utility.yul\":21267:21268   */\n      dup4\n        /* \"#utility.yul\":21249:21269   */\n      tag_286\n      jump\t// in\n    tag_505:\n        /* \"#utility.yul\":21244:21269   */\n      swap3\n      pop\n        /* \"#utility.yul\":21293:21294   */\n      dup3\n        /* \"#utility.yul\":21290:21291   */\n      dup3\n        /* \"#utility.yul\":21286:21295   */\n      sub\n        /* \"#utility.yul\":21278:21295   */\n      swap1\n      pop\n        /* \"#utility.yul\":21317:21318   */\n      dup2\n        /* \"#utility.yul\":21311:21315   */\n      dup2\n        /* \"#utility.yul\":21308:21319   */\n      gt\n        /* \"#utility.yul\":21305:21342   */\n      iszero\n      tag_506\n      jumpi\n        /* \"#utility.yul\":21322:21340   */\n      tag_507\n      tag_305\n      jump\t// in\n    tag_507:\n        /* \"#utility.yul\":21305:21342   */\n    tag_506:\n        /* \"#utility.yul\":21155:21349   */\n      swap3\n      swap2\n      pop\n      pop\n      jump\t// out\n        /* \"#utility.yul\":21355:21765   */\n    tag_269:\n        /* \"#utility.yul\":21395:21402   */\n      0x00\n        /* \"#utility.yul\":21418:21438   */\n      tag_509\n        /* \"#utility.yul\":21436:21437   */\n      dup3\n        /* \"#utility.yul\":21418:21438   */\n      tag_286\n      jump\t// in\n    tag_509:\n        /* \"#utility.yul\":21413:21438   */\n      swap2\n      pop\n        /* \"#utility.yul\":21452:21472   */\n      tag_510\n        /* \"#utility.yul\":21470:21471   */\n      dup4\n        /* \"#utility.yul\":21452:21472   */\n      tag_286\n      jump\t// in\n    tag_510:\n        /* \"#utility.yul\":21447:21472   */\n      swap3\n      pop\n        /* \"#utility.yul\":21507:21508   */\n      dup3\n        /* \"#utility.yul\":21504:21505   */\n      dup3\n        /* \"#utility.yul\":21500:21509   */\n      mul\n        /* \"#utility.yul\":21529:21559   */\n      tag_511\n        /* \"#utility.yul\":21547:21558   */\n      dup2\n        /* \"#utility.yul\":21529:21559   */\n      tag_286\n      jump\t// in\n    tag_511:\n        /* \"#utility.yul\":21518:21559   */\n      swap2\n      pop\n        /* \"#utility.yul\":21708:21709   */\n      dup3\n        /* \"#utility.yul\":21699:21706   */\n      dup3\n        /* \"#utility.yul\":21695:21710   */\n      div\n        /* \"#utility.yul\":21692:21693   */\n      dup5\n        /* \"#utility.yul\":21689:21711   */\n      eq\n        /* \"#utility.yul\":21669:21670   */\n      dup4\n        /* \"#utility.yul\":21662:21671   */\n      iszero\n        /* \"#utility.yul\":21642:21725   */\n      or\n        /* \"#utility.yul\":21619:21758   */\n      tag_512\n      jumpi\n        /* \"#utility.yul\":21738:21756   */\n      tag_513\n      tag_305\n      jump\t// in\n    tag_513:\n        /* \"#utility.yul\":21619:21758   */\n    tag_512:\n        /* \"#utility.yul\":21403:21765   */\n      pop\n        /* \"#utility.yul\":21355:21765   */\n      swap3\n      swap2\n      pop\n      pop\n      jump\t// out\n\n    auxdata: 0xa26469706673582212209fbbdb7ebeab067683b6c2695034b5872d9569ab05a92275241774b539f0f74f64736f6c63430008160033\n}\n",
				"bytecode": {
					"linkReferences": {},
					"object": "60806040525f600d5f6101000a81548160ff0219169083151502179055505f600d60016101000a81548160ff02191690831515021790555034801562000043575f80fd5b50604051620024ad380380620024ad83398181016040528101906200006991906200031f565b805f73ffffffffffffffffffffffffffffffffffffffff168173ffffffffffffffffffffffffffffffffffffffff1603620000dd575f6040517f1e4fbdf7000000000000000000000000000000000000000000000000000000008152600401620000d4919062000436565b60405180910390fd5b620000ee816200017f60201b60201c565b508a60015f6101000a81548173ffffffffffffffffffffffffffffffffffffffff021916908373ffffffffffffffffffffffffffffffffffffffff160217905550896002819055508860038190555087600481905550866005819055508560068190555084600781905550836008819055508260098190555081600a81905550505050505050505050505062000451565b5f805f9054906101000a900473ffffffffffffffffffffffffffffffffffffffff169050815f806101000a81548173ffffffffffffffffffffffffffffffffffffffff021916908373ffffffffffffffffffffffffffffffffffffffff1602179055508173ffffffffffffffffffffffffffffffffffffffff168173ffffffffffffffffffffffffffffffffffffffff167f8be0079c531659141344cd1fd0a4f28419497f9722a3daafe3b4186f6b6457e060405160405180910390a35050565b5f80fd5b5f73ffffffffffffffffffffffffffffffffffffffff82169050919050565b5f6200026f8262000244565b9050919050565b5f620002828262000263565b9050919050565b620002948162000276565b81146200029f575f80fd5b50565b5f81519050620002b28162000289565b92915050565b5f819050919050565b620002cc81620002b8565b8114620002d7575f80fd5b50565b5f81519050620002ea81620002c1565b92915050565b620002fb8162000263565b811462000306575f80fd5b50565b5f815190506200031981620002f0565b92915050565b5f805f805f805f805f805f6101608c8e03121562000342576200034162000240565b5b5f620003518e828f01620002a2565b9b50506020620003648e828f01620002da565b9a50506040620003778e828f01620002da565b99505060606200038a8e828f01620002da565b98505060806200039d8e828f01620002da565b97505060a0620003b08e828f01620002da565b96505060c0620003c38e828f01620002da565b95505060e0620003d68e828f01620002da565b945050610100620003ea8e828f01620002da565b935050610120620003fe8e828f01620002da565b925050610140620004128e828f0162000309565b9150509295989b509295989b9093969950565b620004308162000263565b82525050565b5f6020820190506200044b5f83018462000425565b92915050565b61204e806200045f5f395ff3fe608060405260043610610165575f3560e01c80636bb7b1d9116100d0578063b5545a3c11610089578063e59c951011610063578063e59c95101461048b578063f2fde38b14610495578063fc0c546a146104bd578063fcb67c5b146104e757610165565b8063b5545a3c14610421578063c484984714610437578063ccf125d81461046157610165565b80636bb7b1d9146103395780637146e4fa14610363578063715018a61461038d57806387e449c3146103a35780638da5cb5b146103cd578063abd2cc5f146103f757610165565b80632af89179116101225780632af891791461022f57806335f7486914610245578063477f1eba146102815780635e4d3b4b146102bd57806363d5502f146102e557806364826b7a1461030f57610165565b80630269d3b4146101695780631207c90d14610173578063158a4988146101895780631e4d185f146101b1578063249b7c19146101db5780632a517ab214610205575b5f80fd5b6101716104fd565b005b34801561017e575f80fd5b506101876107fb565b005b348015610194575f80fd5b506101af60048036038101906101aa91906116a7565b6108d8565b005b3480156101bc575f80fd5b506101c5610a7e565b6040516101d291906116f4565b60405180910390f35b3480156101e6575f80fd5b506101ef610a84565b6040516101fc91906116f4565b60405180910390f35b348015610210575f80fd5b50610219610a8a565b60405161022691906116f4565b60405180910390f35b34801561023a575f80fd5b50610243610a90565b005b348015610250575f80fd5b5061026b6004803603810190610266919061170d565b610b67565b60405161027891906116f4565b60405180910390f35b34801561028c575f80fd5b506102a760048036038101906102a2919061170d565b610b7c565b6040516102b491906116f4565b60405180910390f35b3480156102c8575f80fd5b506102e360048036038101906102de9190611738565b610b91565b005b3480156102f0575f80fd5b506102f9610c18565b60405161030691906116f4565b60405180910390f35b34801561031a575f80fd5b50610323610c1e565b60405161033091906116f4565b60405180910390f35b348015610344575f80fd5b5061034d610c24565b60405161035a91906116f4565b60405180910390f35b34801561036e575f80fd5b50610377610c2a565b60405161038491906116f4565b60405180910390f35b348015610398575f80fd5b506103a1610c30565b005b3480156103ae575f80fd5b506103b7610c43565b6040516103c491906116f4565b60405180910390f35b3480156103d8575f80fd5b506103e1610c49565b6040516103ee9190611785565b60405180910390f35b348015610402575f80fd5b5061040b610c70565b60405161041891906117b8565b60405180910390f35b34801561042c575f80fd5b50610435610c82565b005b348015610442575f80fd5b5061044b610fb2565b60405161045891906116f4565b60405180910390f35b34801561046c575f80fd5b50610475610fb8565b60405161048291906117b8565b60405180910390f35b610493610fcb565b005b3480156104a0575f80fd5b506104bb60048036038101906104b6919061170d565b6112d7565b005b3480156104c8575f80fd5b506104d161135b565b6040516104de919061182c565b60405180910390f35b3480156104f2575f80fd5b506104fb611380565b005b6008544210610541576040517f08c379a00000000000000000000000000000000000000000000000000000000081526004016105389061189f565b60405180910390fd5b600d5f9054906101000a900460ff1615610590576040517f08c379a000000000000000000000000000000000000000000000000000000000815260040161058790611907565b60405180910390fd5b60045434101580156105a457506005543411155b6105e3576040517f08c379a00000000000000000000000000000000000000000000000000000000081526004016105da9061196f565b60405180910390fd5b5f34600b5f3373ffffffffffffffffffffffffffffffffffffffff1673ffffffffffffffffffffffffffffffffffffffff1681526020019081526020015f205461062d91906119ba565b9050600554811115610674576040517f08c379a000000000000000000000000000000000000000000000000000000000815260040161066b90611a5d565b60405180910390fd5b80600b5f3373ffffffffffffffffffffffffffffffffffffffff1673ffffffffffffffffffffffffffffffffffffffff1681526020019081526020015f20819055506002544711156106fb576040517f08c379a00000000000000000000000000000000000000000000000000000000081526004016106f290611ac5565b60405180910390fd5b5f610705346114ad565b905060015f9054906101000a900473ffffffffffffffffffffffffffffffffffffffff1673ffffffffffffffffffffffffffffffffffffffff1663a9059cbb33836040518363ffffffff1660e01b8152600401610763929190611ae3565b6020604051808303815f875af115801561077f573d5f803e3d5ffd5b505050506040513d601f19601f820116820180604052508101906107a39190611b34565b503373ffffffffffffffffffffffffffffffffffffffff167f17dbed7147e35a6b6887ff6124ff77b06f413095af19e1057e0ecf80722b456e828460016040516107ef93929190611b5f565b60405180910390a25050565b3373ffffffffffffffffffffffffffffffffffffffff1661081a610c49565b73ffffffffffffffffffffffffffffffffffffffff1614610870576040517f08c379a000000000000000000000000000000000000000000000000000000000815260040161086790611bde565b60405180910390fd5b6008544210156108b5576040517f08c379a00000000000000000000000000000000000000000000000000000000081526004016108ac90611c46565b60405180910390fd5b6001600d5f6101000a81548160ff02191690831515021790555042600981905550565b3373ffffffffffffffffffffffffffffffffffffffff166108f7610c49565b73ffffffffffffffffffffffffffffffffffffffff161461094d576040517f08c379a000000000000000000000000000000000000000000000000000000000815260040161094490611bde565b60405180910390fd5b5f811161098f576040517f08c379a000000000000000000000000000000000000000000000000000000000815260040161098690611cae565b60405180910390fd5b60015f9054906101000a900473ffffffffffffffffffffffffffffffffffffffff1673ffffffffffffffffffffffffffffffffffffffff1663a9059cbb83836040518363ffffffff1660e01b81526004016109eb929190611ae3565b6020604051808303815f875af1158015610a07573d5f803e3d5ffd5b505050506040513d601f19601f82011682018060405250810190610a2b9190611b34565b508173ffffffffffffffffffffffffffffffffffffffff167f16b0da2ffcb90c6723317bd637d9aad7f04711f42bbe0ac0918ebe10f1f9001c82604051610a7291906116f4565b60405180910390a25050565b600a5481565b60085481565b60065481565b3373ffffffffffffffffffffffffffffffffffffffff16610aaf610c49565b73ffffffffffffffffffffffffffffffffffffffff1614610b05576040517f08c379a0000000000000000000000000000000000000000000000000000000008152600401610afc90611bde565b60405180910390fd5b600a54421015610b4a576040517f08c379a0000000000000000000000000000000000000000000000000000000008152600401610b4190611d16565b60405180910390fd5b6001600d60016101000a81548160ff021916908315150217905550565b600c602052805f5260405f205f915090505481565b600b602052805f5260405f205f915090505481565b3373ffffffffffffffffffffffffffffffffffffffff16610bb0610c49565b73ffffffffffffffffffffffffffffffffffffffff1614610c06576040517f08c379a0000000000000000000000000000000000000000000000000000000008152600401610bfd90611bde565b60405180910390fd5b8160088190555080600a819055505050565b60025481565b60035481565b60095481565b60075481565b610c386114c7565b610c415f61154e565b565b60055481565b5f805f9054906101000a900473ffffffffffffffffffffffffffffffffffffffff16905090565b600d5f9054906101000a900460ff1681565b6008544210158015610ca05750600d5f9054906101000a900460ff16155b80610cc65750600a544210158015610cc55750600d60019054906101000a900460ff16155b5b610d05576040517f08c379a0000000000000000000000000000000000000000000000000000000008152600401610cfc90611d7e565b60405180910390fd5b5f600d5f9054906101000a900460ff168015610d5d57505f600b5f3373ffffffffffffffffffffffffffffffffffffffff1673ffffffffffffffffffffffffffffffffffffffff1681526020019081526020015f2054115b15610df057600b5f3373ffffffffffffffffffffffffffffffffffffffff1673ffffffffffffffffffffffffffffffffffffffff1681526020019081526020015f205481610dab91906119ba565b90505f600b5f3373ffffffffffffffffffffffffffffffffffffffff1673ffffffffffffffffffffffffffffffffffffffff1681526020019081526020015f20819055505b600d60019054906101000a900460ff168015610e4857505f600c5f3373ffffffffffffffffffffffffffffffffffffffff1673ffffffffffffffffffffffffffffffffffffffff1681526020019081526020015f2054115b15610edb57600c5f3373ffffffffffffffffffffffffffffffffffffffff1673ffffffffffffffffffffffffffffffffffffffff1681526020019081526020015f205481610e9691906119ba565b90505f600c5f3373ffffffffffffffffffffffffffffffffffffffff1673ffffffffffffffffffffffffffffffffffffffff1681526020019081526020015f20819055505b5f8111610f1d576040517f08c379a0000000000000000000000000000000000000000000000000000000008152600401610f1490611de6565b60405180910390fd5b3373ffffffffffffffffffffffffffffffffffffffff166108fc8290811502906040515f60405180830381858888f19350505050158015610f60573d5f803e3d5ffd5b503373ffffffffffffffffffffffffffffffffffffffff167f358fe4192934d3bf28ae181feda1f4bd08ca67f5e2fad55582cce5eb67304ae982604051610fa791906116f4565b60405180910390a250565b60045481565b600d60019054906101000a900460ff1681565b6009544210158015610fde5750600a5442105b61101d576040517f08c379a000000000000000000000000000000000000000000000000000000000815260040161101490611e4e565b60405180910390fd5b600d60019054906101000a900460ff161561106d576040517f08c379a000000000000000000000000000000000000000000000000000000000815260040161106490611eb6565b60405180910390fd5b600654341015801561108157506007543411155b6110c0576040517f08c379a00000000000000000000000000000000000000000000000000000000081526004016110b79061196f565b60405180910390fd5b5f34600c5f3373ffffffffffffffffffffffffffffffffffffffff1673ffffffffffffffffffffffffffffffffffffffff1681526020019081526020015f205461110a91906119ba565b9050600754811115611151576040517f08c379a000000000000000000000000000000000000000000000000000000000815260040161114890611a5d565b60405180910390fd5b80600c5f3373ffffffffffffffffffffffffffffffffffffffff1673ffffffffffffffffffffffffffffffffffffffff1681526020019081526020015f20819055506003544711156111d8576040517f08c379a00000000000000000000000000000000000000000000000000000000081526004016111cf90611f1e565b60405180910390fd5b5f6111e2346114ad565b905060015f9054906101000a900473ffffffffffffffffffffffffffffffffffffffff1673ffffffffffffffffffffffffffffffffffffffff1663a9059cbb33836040518363ffffffff1660e01b8152600401611240929190611ae3565b6020604051808303815f875af115801561125c573d5f803e3d5ffd5b505050506040513d601f19601f820116820180604052508101906112809190611b34565b503373ffffffffffffffffffffffffffffffffffffffff167f17dbed7147e35a6b6887ff6124ff77b06f413095af19e1057e0ecf80722b456e82845f6040516112cb93929190611b5f565b60405180910390a25050565b6112df6114c7565b5f73ffffffffffffffffffffffffffffffffffffffff168173ffffffffffffffffffffffffffffffffffffffff160361134f575f6040517f1e4fbdf70000000000000000000000000000000000000000000000000000000081526004016113469190611785565b60405180910390fd5b6113588161154e565b50565b60015f9054906101000a900473ffffffffffffffffffffffffffffffffffffffff1681565b3373ffffffffffffffffffffffffffffffffffffffff1661139f610c49565b73ffffffffffffffffffffffffffffffffffffffff16146113f5576040517f08c379a00000000000000000000000000000000000000000000000000000000081526004016113ec90611bde565b60405180910390fd5b60035460025461140591906119ba565b4711611446576040517f08c379a000000000000000000000000000000000000000000000000000000000815260040161143d90611f86565b60405180910390fd5b61144e610c49565b73ffffffffffffffffffffffffffffffffffffffff166108fc600354600254476114789190611fa4565b6114829190611fa4565b90811502906040515f60405180830381858888f193505050501580156114aa573d5f803e3d5ffd5b50565b5f806064905080836114bf9190611fd7565b915050919050565b6114cf61160f565b73ffffffffffffffffffffffffffffffffffffffff166114ed610c49565b73ffffffffffffffffffffffffffffffffffffffff161461154c5761151061160f565b6040517f118cdaa70000000000000000000000000000000000000000000000000000000081526004016115439190611785565b60405180910390fd5b565b5f805f9054906101000a900473ffffffffffffffffffffffffffffffffffffffff169050815f806101000a81548173ffffffffffffffffffffffffffffffffffffffff021916908373ffffffffffffffffffffffffffffffffffffffff1602179055508173ffffffffffffffffffffffffffffffffffffffff168173ffffffffffffffffffffffffffffffffffffffff167f8be0079c531659141344cd1fd0a4f28419497f9722a3daafe3b4186f6b6457e060405160405180910390a35050565b5f33905090565b5f80fd5b5f73ffffffffffffffffffffffffffffffffffffffff82169050919050565b5f6116438261161a565b9050919050565b61165381611639565b811461165d575f80fd5b50565b5f8135905061166e8161164a565b92915050565b5f819050919050565b61168681611674565b8114611690575f80fd5b50565b5f813590506116a18161167d565b92915050565b5f80604083850312156116bd576116bc611616565b5b5f6116ca85828601611660565b92505060206116db85828601611693565b9150509250929050565b6116ee81611674565b82525050565b5f6020820190506117075f8301846116e5565b92915050565b5f6020828403121561172257611721611616565b5b5f61172f84828501611660565b91505092915050565b5f806040838503121561174e5761174d611616565b5b5f61175b85828601611693565b925050602061176c85828601611693565b9150509250929050565b61177f81611639565b82525050565b5f6020820190506117985f830184611776565b92915050565b5f8115159050919050565b6117b28161179e565b82525050565b5f6020820190506117cb5f8301846117a9565b92915050565b5f819050919050565b5f6117f46117ef6117ea8461161a565b6117d1565b61161a565b9050919050565b5f611805826117da565b9050919050565b5f611816826117fb565b9050919050565b6118268161180c565b82525050565b5f60208201905061183f5f83018461181d565b92915050565b5f82825260208201905092915050565b7f50726573616c652068617320656e6465640000000000000000000000000000005f82015250565b5f611889601183611845565b915061189482611855565b602082019050919050565b5f6020820190508181035f8301526118b68161187d565b9050919050565b7f50726573616c6520697320636c6f7365640000000000000000000000000000005f82015250565b5f6118f1601183611845565b91506118fc826118bd565b602082019050919050565b5f6020820190508181035f83015261191e816118e5565b9050919050565b7f496e76616c696420636f6e747269627574696f6e20616d6f756e7400000000005f82015250565b5f611959601b83611845565b915061196482611925565b602082019050919050565b5f6020820190508181035f8301526119868161194d565b9050919050565b7f4e487b71000000000000000000000000000000000000000000000000000000005f52601160045260245ffd5b5f6119c482611674565b91506119cf83611674565b92508282019050808211156119e7576119e661198d565b5b92915050565b7f4578636565646564206d6178696d756d20636f6e747269627574696f6e206c695f8201527f6d69740000000000000000000000000000000000000000000000000000000000602082015250565b5f611a47602383611845565b9150611a52826119ed565b604082019050919050565b5f6020820190508181035f830152611a7481611a3b565b9050919050565b7f50726573616c65206361702072656163686564000000000000000000000000005f82015250565b5f611aaf601383611845565b9150611aba82611a7b565b602082019050919050565b5f6020820190508181035f830152611adc81611aa3565b9050919050565b5f604082019050611af65f830185611776565b611b0360208301846116e5565b9392505050565b611b138161179e565b8114611b1d575f80fd5b50565b5f81519050611b2e81611b0a565b92915050565b5f60208284031215611b4957611b48611616565b5b5f611b5684828501611b20565b91505092915050565b5f606082019050611b725f8301866116e5565b611b7f60208301856116e5565b611b8c60408301846117a9565b949350505050565b7f43616c6c6572206973206e6f7420746865206f776e65720000000000000000005f82015250565b5f611bc8601783611845565b9150611bd382611b94565b602082019050919050565b5f6020820190508181035f830152611bf581611bbc565b9050919050565b7f50726573616c65206973207374696c6c206163746976650000000000000000005f82015250565b5f611c30601783611845565b9150611c3b82611bfc565b602082019050919050565b5f6020820190508181035f830152611c5d81611c24565b9050919050565b7f416d6f756e742073686f756c642062652067726561746572207468616e2030005f82015250565b5f611c98601f83611845565b9150611ca382611c64565b602082019050919050565b5f6020820190508181035f830152611cc581611c8c565b9050919050565b7f5075626c69632073616c65206973207374696c6c2061637469766500000000005f82015250565b5f611d00601b83611845565b9150611d0b82611ccc565b602082019050919050565b5f6020820190508181035f830152611d2d81611cf4565b9050919050565b7f526566756e64206e6f7420616c6c6f77656420796574000000000000000000005f82015250565b5f611d68601683611845565b9150611d7382611d34565b602082019050919050565b5f6020820190508181035f830152611d9581611d5c565b9050919050565b7f4e6f20726566756e6420617661696c61626c65000000000000000000000000005f82015250565b5f611dd0601383611845565b9150611ddb82611d9c565b602082019050919050565b5f6020820190508181035f830152611dfd81611dc4565b9050919050565b7f5075626c69632073616c65206973206e6f7420616374697665000000000000005f82015250565b5f611e38601983611845565b9150611e4382611e04565b602082019050919050565b5f6020820190508181035f830152611e6581611e2c565b9050919050565b7f5075626c69632073616c6520697320636c6f73656400000000000000000000005f82015250565b5f611ea0601583611845565b9150611eab82611e6c565b602082019050919050565b5f6020820190508181035f830152611ecd81611e94565b9050919050565b7f5075626c69632073616c652063617020726561636865640000000000000000005f82015250565b5f611f08601783611845565b9150611f1382611ed4565b602082019050919050565b5f6020820190508181035f830152611f3581611efc565b9050919050565b7f4e6f206578636573732066756e647300000000000000000000000000000000005f82015250565b5f611f70600f83611845565b9150611f7b82611f3c565b602082019050919050565b5f6020820190508181035f830152611f9d81611f64565b9050919050565b5f611fae82611674565b9150611fb983611674565b9250828203905081811115611fd157611fd061198d565b5b92915050565b5f611fe182611674565b9150611fec83611674565b9250828202611ffa81611674565b915082820484148315176120115761201061198d565b5b509291505056fea26469706673582212209fbbdb7ebeab067683b6c2695034b5872d9569ab05a92275241774b539f0f74f64736f6c63430008160033",
					"opcodes": "PUSH1 0x80 PUSH1 0x40 MSTORE PUSH0 PUSH1 0xD PUSH0 PUSH2 0x100 EXP DUP2 SLOAD DUP2 PUSH1 0xFF MUL NOT AND SWAP1 DUP4 ISZERO ISZERO MUL OR SWAP1 SSTORE POP PUSH0 PUSH1 0xD PUSH1 0x1 PUSH2 0x100 EXP DUP2 SLOAD DUP2 PUSH1 0xFF MUL NOT AND SWAP1 DUP4 ISZERO ISZERO MUL OR SWAP1 SSTORE POP CALLVALUE DUP1 ISZERO PUSH3 0x43 JUMPI PUSH0 DUP1 REVERT JUMPDEST POP PUSH1 0x40 MLOAD PUSH3 0x24AD CODESIZE SUB DUP1 PUSH3 0x24AD DUP4 CODECOPY DUP2 DUP2 ADD PUSH1 0x40 MSTORE DUP2 ADD SWAP1 PUSH3 0x69 SWAP2 SWAP1 PUSH3 0x31F JUMP JUMPDEST DUP1 PUSH0 PUSH20 0xFFFFFFFFFFFFFFFFFFFFFFFFFFFFFFFFFFFFFFFF AND DUP2 PUSH20 0xFFFFFFFFFFFFFFFFFFFFFFFFFFFFFFFFFFFFFFFF AND SUB PUSH3 0xDD JUMPI PUSH0 PUSH1 0x40 MLOAD PUSH32 0x1E4FBDF700000000000000000000000000000000000000000000000000000000 DUP2 MSTORE PUSH1 0x4 ADD PUSH3 0xD4 SWAP2 SWAP1 PUSH3 0x436 JUMP JUMPDEST PUSH1 0x40 MLOAD DUP1 SWAP2 SUB SWAP1 REVERT JUMPDEST PUSH3 0xEE DUP2 PUSH3 0x17F PUSH1 0x20 SHL PUSH1 0x20 SHR JUMP JUMPDEST POP DUP11 PUSH1 0x1 PUSH0 PUSH2 0x100 EXP DUP2 SLOAD DUP2 PUSH20 0xFFFFFFFFFFFFFFFFFFFFFFFFFFFFFFFFFFFFFFFF MUL NOT AND SWAP1 DUP4 PUSH20 0xFFFFFFFFFFFFFFFFFFFFFFFFFFFFFFFFFFFFFFFF AND MUL OR SWAP1 SSTORE POP DUP10 PUSH1 0x2 DUP2 SWAP1 SSTORE POP DUP9 PUSH1 0x3 DUP2 SWAP1 SSTORE POP DUP8 PUSH1 0x4 DUP2 SWAP1 SSTORE POP DUP7 PUSH1 0x5 DUP2 SWAP1 SSTORE POP DUP6 PUSH1 0x6 DUP2 SWAP1 SSTORE POP DUP5 PUSH1 0x7 DUP2 SWAP1 SSTORE POP DUP4 PUSH1 0x8 DUP2 SWAP1 SSTORE POP DUP3 PUSH1 0x9 DUP2 SWAP1 SSTORE POP DUP2 PUSH1 0xA DUP2 SWAP1 SSTORE POP POP POP POP POP POP POP POP POP POP POP POP PUSH3 0x451 JUMP JUMPDEST PUSH0 DUP1 PUSH0 SWAP1 SLOAD SWAP1 PUSH2 0x100 EXP SWAP1 DIV PUSH20 0xFFFFFFFFFFFFFFFFFFFFFFFFFFFFFFFFFFFFFFFF AND SWAP1 POP DUP2 PUSH0 DUP1 PUSH2 0x100 EXP DUP2 SLOAD DUP2 PUSH20 0xFFFFFFFFFFFFFFFFFFFFFFFFFFFFFFFFFFFFFFFF MUL NOT AND SWAP1 DUP4 PUSH20 0xFFFFFFFFFFFFFFFFFFFFFFFFFFFFFFFFFFFFFFFF AND MUL OR SWAP1 SSTORE POP DUP2 PUSH20 0xFFFFFFFFFFFFFFFFFFFFFFFFFFFFFFFFFFFFFFFF AND DUP2 PUSH20 0xFFFFFFFFFFFFFFFFFFFFFFFFFFFFFFFFFFFFFFFF AND PUSH32 0x8BE0079C531659141344CD1FD0A4F28419497F9722A3DAAFE3B4186F6B6457E0 PUSH1 0x40 MLOAD PUSH1 0x40 MLOAD DUP1 SWAP2 SUB SWAP1 LOG3 POP POP JUMP JUMPDEST PUSH0 DUP1 REVERT JUMPDEST PUSH0 PUSH20 0xFFFFFFFFFFFFFFFFFFFFFFFFFFFFFFFFFFFFFFFF DUP3 AND SWAP1 POP SWAP2 SWAP1 POP JUMP JUMPDEST PUSH0 PUSH3 0x26F DUP3 PUSH3 0x244 JUMP JUMPDEST SWAP1 POP SWAP2 SWAP1 POP JUMP JUMPDEST PUSH0 PUSH3 0x282 DUP3 PUSH3 0x263 JUMP JUMPDEST SWAP1 POP SWAP2 SWAP1 POP JUMP JUMPDEST PUSH3 0x294 DUP2 PUSH3 0x276 JUMP JUMPDEST DUP2 EQ PUSH3 0x29F JUMPI PUSH0 DUP1 REVERT JUMPDEST POP JUMP JUMPDEST PUSH0 DUP2 MLOAD SWAP1 POP PUSH3 0x2B2 DUP2 PUSH3 0x289 JUMP JUMPDEST SWAP3 SWAP2 POP POP JUMP JUMPDEST PUSH0 DUP2 SWAP1 POP SWAP2 SWAP1 POP JUMP JUMPDEST PUSH3 0x2CC DUP2 PUSH3 0x2B8 JUMP JUMPDEST DUP2 EQ PUSH3 0x2D7 JUMPI PUSH0 DUP1 REVERT JUMPDEST POP JUMP JUMPDEST PUSH0 DUP2 MLOAD SWAP1 POP PUSH3 0x2EA DUP2 PUSH3 0x2C1 JUMP JUMPDEST SWAP3 SWAP2 POP POP JUMP JUMPDEST PUSH3 0x2FB DUP2 PUSH3 0x263 JUMP JUMPDEST DUP2 EQ PUSH3 0x306 JUMPI PUSH0 DUP1 REVERT JUMPDEST POP JUMP JUMPDEST PUSH0 DUP2 MLOAD SWAP1 POP PUSH3 0x319 DUP2 PUSH3 0x2F0 JUMP JUMPDEST SWAP3 SWAP2 POP POP JUMP JUMPDEST PUSH0 DUP1 PUSH0 DUP1 PUSH0 DUP1 PUSH0 DUP1 PUSH0 DUP1 PUSH0 PUSH2 0x160 DUP13 DUP15 SUB SLT ISZERO PUSH3 0x342 JUMPI PUSH3 0x341 PUSH3 0x240 JUMP JUMPDEST JUMPDEST PUSH0 PUSH3 0x351 DUP15 DUP3 DUP16 ADD PUSH3 0x2A2 JUMP JUMPDEST SWAP12 POP POP PUSH1 0x20 PUSH3 0x364 DUP15 DUP3 DUP16 ADD PUSH3 0x2DA JUMP JUMPDEST SWAP11 POP POP PUSH1 0x40 PUSH3 0x377 DUP15 DUP3 DUP16 ADD PUSH3 0x2DA JUMP JUMPDEST SWAP10 POP POP PUSH1 0x60 PUSH3 0x38A DUP15 DUP3 DUP16 ADD PUSH3 0x2DA JUMP JUMPDEST SWAP9 POP POP PUSH1 0x80 PUSH3 0x39D DUP15 DUP3 DUP16 ADD PUSH3 0x2DA JUMP JUMPDEST SWAP8 POP POP PUSH1 0xA0 PUSH3 0x3B0 DUP15 DUP3 DUP16 ADD PUSH3 0x2DA JUMP JUMPDEST SWAP7 POP POP PUSH1 0xC0 PUSH3 0x3C3 DUP15 DUP3 DUP16 ADD PUSH3 0x2DA JUMP JUMPDEST SWAP6 POP POP PUSH1 0xE0 PUSH3 0x3D6 DUP15 DUP3 DUP16 ADD PUSH3 0x2DA JUMP JUMPDEST SWAP5 POP POP PUSH2 0x100 PUSH3 0x3EA DUP15 DUP3 DUP16 ADD PUSH3 0x2DA JUMP JUMPDEST SWAP4 POP POP PUSH2 0x120 PUSH3 0x3FE DUP15 DUP3 DUP16 ADD PUSH3 0x2DA JUMP JUMPDEST SWAP3 POP POP PUSH2 0x140 PUSH3 0x412 DUP15 DUP3 DUP16 ADD PUSH3 0x309 JUMP JUMPDEST SWAP2 POP POP SWAP3 SWAP6 SWAP9 SWAP12 POP SWAP3 SWAP6 SWAP9 SWAP12 SWAP1 SWAP4 SWAP7 SWAP10 POP JUMP JUMPDEST PUSH3 0x430 DUP2 PUSH3 0x263 JUMP JUMPDEST DUP3 MSTORE POP POP JUMP JUMPDEST PUSH0 PUSH1 0x20 DUP3 ADD SWAP1 POP PUSH3 0x44B PUSH0 DUP4 ADD DUP5 PUSH3 0x425 JUMP JUMPDEST SWAP3 SWAP2 POP POP JUMP JUMPDEST PUSH2 0x204E DUP1 PUSH3 0x45F PUSH0 CODECOPY PUSH0 RETURN INVALID PUSH1 0x80 PUSH1 0x40 MSTORE PUSH1 0x4 CALLDATASIZE LT PUSH2 0x165 JUMPI PUSH0 CALLDATALOAD PUSH1 0xE0 SHR DUP1 PUSH4 0x6BB7B1D9 GT PUSH2 0xD0 JUMPI DUP1 PUSH4 0xB5545A3C GT PUSH2 0x89 JUMPI DUP1 PUSH4 0xE59C9510 GT PUSH2 0x63 JUMPI DUP1 PUSH4 0xE59C9510 EQ PUSH2 0x48B JUMPI DUP1 PUSH4 0xF2FDE38B EQ PUSH2 0x495 JUMPI DUP1 PUSH4 0xFC0C546A EQ PUSH2 0x4BD JUMPI DUP1 PUSH4 0xFCB67C5B EQ PUSH2 0x4E7 JUMPI PUSH2 0x165 JUMP JUMPDEST DUP1 PUSH4 0xB5545A3C EQ PUSH2 0x421 JUMPI DUP1 PUSH4 0xC4849847 EQ PUSH2 0x437 JUMPI DUP1 PUSH4 0xCCF125D8 EQ PUSH2 0x461 JUMPI PUSH2 0x165 JUMP JUMPDEST DUP1 PUSH4 0x6BB7B1D9 EQ PUSH2 0x339 JUMPI DUP1 PUSH4 0x7146E4FA EQ PUSH2 0x363 JUMPI DUP1 PUSH4 0x715018A6 EQ PUSH2 0x38D JUMPI DUP1 PUSH4 0x87E449C3 EQ PUSH2 0x3A3 JUMPI DUP1 PUSH4 0x8DA5CB5B EQ PUSH2 0x3CD JUMPI DUP1 PUSH4 0xABD2CC5F EQ PUSH2 0x3F7 JUMPI PUSH2 0x165 JUMP JUMPDEST DUP1 PUSH4 0x2AF89179 GT PUSH2 0x122 JUMPI DUP1 PUSH4 0x2AF89179 EQ PUSH2 0x22F JUMPI DUP1 PUSH4 0x35F74869 EQ PUSH2 0x245 JUMPI DUP1 PUSH4 0x477F1EBA EQ PUSH2 0x281 JUMPI DUP1 PUSH4 0x5E4D3B4B EQ PUSH2 0x2BD JUMPI DUP1 PUSH4 0x63D5502F EQ PUSH2 0x2E5 JUMPI DUP1 PUSH4 0x64826B7A EQ PUSH2 0x30F JUMPI PUSH2 0x165 JUMP JUMPDEST DUP1 PUSH4 0x269D3B4 EQ PUSH2 0x169 JUMPI DUP1 PUSH4 0x1207C90D EQ PUSH2 0x173 JUMPI DUP1 PUSH4 0x158A4988 EQ PUSH2 0x189 JUMPI DUP1 PUSH4 0x1E4D185F EQ PUSH2 0x1B1 JUMPI DUP1 PUSH4 0x249B7C19 EQ PUSH2 0x1DB JUMPI DUP1 PUSH4 0x2A517AB2 EQ PUSH2 0x205 JUMPI JUMPDEST PUSH0 DUP1 REVERT JUMPDEST PUSH2 0x171 PUSH2 0x4FD JUMP JUMPDEST STOP JUMPDEST CALLVALUE DUP1 ISZERO PUSH2 0x17E JUMPI PUSH0 DUP1 REVERT JUMPDEST POP PUSH2 0x187 PUSH2 0x7FB JUMP JUMPDEST STOP JUMPDEST CALLVALUE DUP1 ISZERO PUSH2 0x194 JUMPI PUSH0 DUP1 REVERT JUMPDEST POP PUSH2 0x1AF PUSH1 0x4 DUP1 CALLDATASIZE SUB DUP2 ADD SWAP1 PUSH2 0x1AA SWAP2 SWAP1 PUSH2 0x16A7 JUMP JUMPDEST PUSH2 0x8D8 JUMP JUMPDEST STOP JUMPDEST CALLVALUE DUP1 ISZERO PUSH2 0x1BC JUMPI PUSH0 DUP1 REVERT JUMPDEST POP PUSH2 0x1C5 PUSH2 0xA7E JUMP JUMPDEST PUSH1 0x40 MLOAD PUSH2 0x1D2 SWAP2 SWAP1 PUSH2 0x16F4 JUMP JUMPDEST PUSH1 0x40 MLOAD DUP1 SWAP2 SUB SWAP1 RETURN JUMPDEST CALLVALUE DUP1 ISZERO PUSH2 0x1E6 JUMPI PUSH0 DUP1 REVERT JUMPDEST POP PUSH2 0x1EF PUSH2 0xA84 JUMP JUMPDEST PUSH1 0x40 MLOAD PUSH2 0x1FC SWAP2 SWAP1 PUSH2 0x16F4 JUMP JUMPDEST PUSH1 0x40 MLOAD DUP1 SWAP2 SUB SWAP1 RETURN JUMPDEST CALLVALUE DUP1 ISZERO PUSH2 0x210 JUMPI PUSH0 DUP1 REVERT JUMPDEST POP PUSH2 0x219 PUSH2 0xA8A JUMP JUMPDEST PUSH1 0x40 MLOAD PUSH2 0x226 SWAP2 SWAP1 PUSH2 0x16F4 JUMP JUMPDEST PUSH1 0x40 MLOAD DUP1 SWAP2 SUB SWAP1 RETURN JUMPDEST CALLVALUE DUP1 ISZERO PUSH2 0x23A JUMPI PUSH0 DUP1 REVERT JUMPDEST POP PUSH2 0x243 PUSH2 0xA90 JUMP JUMPDEST STOP JUMPDEST CALLVALUE DUP1 ISZERO PUSH2 0x250 JUMPI PUSH0 DUP1 REVERT JUMPDEST POP PUSH2 0x26B PUSH1 0x4 DUP1 CALLDATASIZE SUB DUP2 ADD SWAP1 PUSH2 0x266 SWAP2 SWAP1 PUSH2 0x170D JUMP JUMPDEST PUSH2 0xB67 JUMP JUMPDEST PUSH1 0x40 MLOAD PUSH2 0x278 SWAP2 SWAP1 PUSH2 0x16F4 JUMP JUMPDEST PUSH1 0x40 MLOAD DUP1 SWAP2 SUB SWAP1 RETURN JUMPDEST CALLVALUE DUP1 ISZERO PUSH2 0x28C JUMPI PUSH0 DUP1 REVERT JUMPDEST POP PUSH2 0x2A7 PUSH1 0x4 DUP1 CALLDATASIZE SUB DUP2 ADD SWAP1 PUSH2 0x2A2 SWAP2 SWAP1 PUSH2 0x170D JUMP JUMPDEST PUSH2 0xB7C JUMP JUMPDEST PUSH1 0x40 MLOAD PUSH2 0x2B4 SWAP2 SWAP1 PUSH2 0x16F4 JUMP JUMPDEST PUSH1 0x40 MLOAD DUP1 SWAP2 SUB SWAP1 RETURN JUMPDEST CALLVALUE DUP1 ISZERO PUSH2 0x2C8 JUMPI PUSH0 DUP1 REVERT JUMPDEST POP PUSH2 0x2E3 PUSH1 0x4 DUP1 CALLDATASIZE SUB DUP2 ADD SWAP1 PUSH2 0x2DE SWAP2 SWAP1 PUSH2 0x1738 JUMP JUMPDEST PUSH2 0xB91 JUMP JUMPDEST STOP JUMPDEST CALLVALUE DUP1 ISZERO PUSH2 0x2F0 JUMPI PUSH0 DUP1 REVERT JUMPDEST POP PUSH2 0x2F9 PUSH2 0xC18 JUMP JUMPDEST PUSH1 0x40 MLOAD PUSH2 0x306 SWAP2 SWAP1 PUSH2 0x16F4 JUMP JUMPDEST PUSH1 0x40 MLOAD DUP1 SWAP2 SUB SWAP1 RETURN JUMPDEST CALLVALUE DUP1 ISZERO PUSH2 0x31A JUMPI PUSH0 DUP1 REVERT JUMPDEST POP PUSH2 0x323 PUSH2 0xC1E JUMP JUMPDEST PUSH1 0x40 MLOAD PUSH2 0x330 SWAP2 SWAP1 PUSH2 0x16F4 JUMP JUMPDEST PUSH1 0x40 MLOAD DUP1 SWAP2 SUB SWAP1 RETURN JUMPDEST CALLVALUE DUP1 ISZERO PUSH2 0x344 JUMPI PUSH0 DUP1 REVERT JUMPDEST POP PUSH2 0x34D PUSH2 0xC24 JUMP JUMPDEST PUSH1 0x40 MLOAD PUSH2 0x35A SWAP2 SWAP1 PUSH2 0x16F4 JUMP JUMPDEST PUSH1 0x40 MLOAD DUP1 SWAP2 SUB SWAP1 RETURN JUMPDEST CALLVALUE DUP1 ISZERO PUSH2 0x36E JUMPI PUSH0 DUP1 REVERT JUMPDEST POP PUSH2 0x377 PUSH2 0xC2A JUMP JUMPDEST PUSH1 0x40 MLOAD PUSH2 0x384 SWAP2 SWAP1 PUSH2 0x16F4 JUMP JUMPDEST PUSH1 0x40 MLOAD DUP1 SWAP2 SUB SWAP1 RETURN JUMPDEST CALLVALUE DUP1 ISZERO PUSH2 0x398 JUMPI PUSH0 DUP1 REVERT JUMPDEST POP PUSH2 0x3A1 PUSH2 0xC30 JUMP JUMPDEST STOP JUMPDEST CALLVALUE DUP1 ISZERO PUSH2 0x3AE JUMPI PUSH0 DUP1 REVERT JUMPDEST POP PUSH2 0x3B7 PUSH2 0xC43 JUMP JUMPDEST PUSH1 0x40 MLOAD PUSH2 0x3C4 SWAP2 SWAP1 PUSH2 0x16F4 JUMP JUMPDEST PUSH1 0x40 MLOAD DUP1 SWAP2 SUB SWAP1 RETURN JUMPDEST CALLVALUE DUP1 ISZERO PUSH2 0x3D8 JUMPI PUSH0 DUP1 REVERT JUMPDEST POP PUSH2 0x3E1 PUSH2 0xC49 JUMP JUMPDEST PUSH1 0x40 MLOAD PUSH2 0x3EE SWAP2 SWAP1 PUSH2 0x1785 JUMP JUMPDEST PUSH1 0x40 MLOAD DUP1 SWAP2 SUB SWAP1 RETURN JUMPDEST CALLVALUE DUP1 ISZERO PUSH2 0x402 JUMPI PUSH0 DUP1 REVERT JUMPDEST POP PUSH2 0x40B PUSH2 0xC70 JUMP JUMPDEST PUSH1 0x40 MLOAD PUSH2 0x418 SWAP2 SWAP1 PUSH2 0x17B8 JUMP JUMPDEST PUSH1 0x40 MLOAD DUP1 SWAP2 SUB SWAP1 RETURN JUMPDEST CALLVALUE DUP1 ISZERO PUSH2 0x42C JUMPI PUSH0 DUP1 REVERT JUMPDEST POP PUSH2 0x435 PUSH2 0xC82 JUMP JUMPDEST STOP JUMPDEST CALLVALUE DUP1 ISZERO PUSH2 0x442 JUMPI PUSH0 DUP1 REVERT JUMPDEST POP PUSH2 0x44B PUSH2 0xFB2 JUMP JUMPDEST PUSH1 0x40 MLOAD PUSH2 0x458 SWAP2 SWAP1 PUSH2 0x16F4 JUMP JUMPDEST PUSH1 0x40 MLOAD DUP1 SWAP2 SUB SWAP1 RETURN JUMPDEST CALLVALUE DUP1 ISZERO PUSH2 0x46C JUMPI PUSH0 DUP1 REVERT JUMPDEST POP PUSH2 0x475 PUSH2 0xFB8 JUMP JUMPDEST PUSH1 0x40 MLOAD PUSH2 0x482 SWAP2 SWAP1 PUSH2 0x17B8 JUMP JUMPDEST PUSH1 0x40 MLOAD DUP1 SWAP2 SUB SWAP1 RETURN JUMPDEST PUSH2 0x493 PUSH2 0xFCB JUMP JUMPDEST STOP JUMPDEST CALLVALUE DUP1 ISZERO PUSH2 0x4A0 JUMPI PUSH0 DUP1 REVERT JUMPDEST POP PUSH2 0x4BB PUSH1 0x4 DUP1 CALLDATASIZE SUB DUP2 ADD SWAP1 PUSH2 0x4B6 SWAP2 SWAP1 PUSH2 0x170D JUMP JUMPDEST PUSH2 0x12D7 JUMP JUMPDEST STOP JUMPDEST CALLVALUE DUP1 ISZERO PUSH2 0x4C8 JUMPI PUSH0 DUP1 REVERT JUMPDEST POP PUSH2 0x4D1 PUSH2 0x135B JUMP JUMPDEST PUSH1 0x40 MLOAD PUSH2 0x4DE SWAP2 SWAP1 PUSH2 0x182C JUMP JUMPDEST PUSH1 0x40 MLOAD DUP1 SWAP2 SUB SWAP1 RETURN JUMPDEST CALLVALUE DUP1 ISZERO PUSH2 0x4F2 JUMPI PUSH0 DUP1 REVERT JUMPDEST POP PUSH2 0x4FB PUSH2 0x1380 JUMP JUMPDEST STOP JUMPDEST PUSH1 0x8 SLOAD TIMESTAMP LT PUSH2 0x541 JUMPI PUSH1 0x40 MLOAD PUSH32 0x8C379A000000000000000000000000000000000000000000000000000000000 DUP2 MSTORE PUSH1 0x4 ADD PUSH2 0x538 SWAP1 PUSH2 0x189F JUMP JUMPDEST PUSH1 0x40 MLOAD DUP1 SWAP2 SUB SWAP1 REVERT JUMPDEST PUSH1 0xD PUSH0 SWAP1 SLOAD SWAP1 PUSH2 0x100 EXP SWAP1 DIV PUSH1 0xFF AND ISZERO PUSH2 0x590 JUMPI PUSH1 0x40 MLOAD PUSH32 0x8C379A000000000000000000000000000000000000000000000000000000000 DUP2 MSTORE PUSH1 0x4 ADD PUSH2 0x587 SWAP1 PUSH2 0x1907 JUMP JUMPDEST PUSH1 0x40 MLOAD DUP1 SWAP2 SUB SWAP1 REVERT JUMPDEST PUSH1 0x4 SLOAD CALLVALUE LT ISZERO DUP1 ISZERO PUSH2 0x5A4 JUMPI POP PUSH1 0x5 SLOAD CALLVALUE GT ISZERO JUMPDEST PUSH2 0x5E3 JUMPI PUSH1 0x40 MLOAD PUSH32 0x8C379A000000000000000000000000000000000000000000000000000000000 DUP2 MSTORE PUSH1 0x4 ADD PUSH2 0x5DA SWAP1 PUSH2 0x196F JUMP JUMPDEST PUSH1 0x40 MLOAD DUP1 SWAP2 SUB SWAP1 REVERT JUMPDEST PUSH0 CALLVALUE PUSH1 0xB PUSH0 CALLER PUSH20 0xFFFFFFFFFFFFFFFFFFFFFFFFFFFFFFFFFFFFFFFF AND PUSH20 0xFFFFFFFFFFFFFFFFFFFFFFFFFFFFFFFFFFFFFFFF AND DUP2 MSTORE PUSH1 0x20 ADD SWAP1 DUP2 MSTORE PUSH1 0x20 ADD PUSH0 KECCAK256 SLOAD PUSH2 0x62D SWAP2 SWAP1 PUSH2 0x19BA JUMP JUMPDEST SWAP1 POP PUSH1 0x5 SLOAD DUP2 GT ISZERO PUSH2 0x674 JUMPI PUSH1 0x40 MLOAD PUSH32 0x8C379A000000000000000000000000000000000000000000000000000000000 DUP2 MSTORE PUSH1 0x4 ADD PUSH2 0x66B SWAP1 PUSH2 0x1A5D JUMP JUMPDEST PUSH1 0x40 MLOAD DUP1 SWAP2 SUB SWAP1 REVERT JUMPDEST DUP1 PUSH1 0xB PUSH0 CALLER PUSH20 0xFFFFFFFFFFFFFFFFFFFFFFFFFFFFFFFFFFFFFFFF AND PUSH20 0xFFFFFFFFFFFFFFFFFFFFFFFFFFFFFFFFFFFFFFFF AND DUP2 MSTORE PUSH1 0x20 ADD SWAP1 DUP2 MSTORE PUSH1 0x20 ADD PUSH0 KECCAK256 DUP2 SWAP1 SSTORE POP PUSH1 0x2 SLOAD SELFBALANCE GT ISZERO PUSH2 0x6FB JUMPI PUSH1 0x40 MLOAD PUSH32 0x8C379A000000000000000000000000000000000000000000000000000000000 DUP2 MSTORE PUSH1 0x4 ADD PUSH2 0x6F2 SWAP1 PUSH2 0x1AC5 JUMP JUMPDEST PUSH1 0x40 MLOAD DUP1 SWAP2 SUB SWAP1 REVERT JUMPDEST PUSH0 PUSH2 0x705 CALLVALUE PUSH2 0x14AD JUMP JUMPDEST SWAP1 POP PUSH1 0x1 PUSH0 SWAP1 SLOAD SWAP1 PUSH2 0x100 EXP SWAP1 DIV PUSH20 0xFFFFFFFFFFFFFFFFFFFFFFFFFFFFFFFFFFFFFFFF AND PUSH20 0xFFFFFFFFFFFFFFFFFFFFFFFFFFFFFFFFFFFFFFFF AND PUSH4 0xA9059CBB CALLER DUP4 PUSH1 0x40 MLOAD DUP4 PUSH4 0xFFFFFFFF AND PUSH1 0xE0 SHL DUP2 MSTORE PUSH1 0x4 ADD PUSH2 0x763 SWAP3 SWAP2 SWAP1 PUSH2 0x1AE3 JUMP JUMPDEST PUSH1 0x20 PUSH1 0x40 MLOAD DUP1 DUP4 SUB DUP2 PUSH0 DUP8 GAS CALL ISZERO DUP1 ISZERO PUSH2 0x77F JUMPI RETURNDATASIZE PUSH0 DUP1 RETURNDATACOPY RETURNDATASIZE PUSH0 REVERT JUMPDEST POP POP POP POP PUSH1 0x40 MLOAD RETURNDATASIZE PUSH1 0x1F NOT PUSH1 0x1F DUP3 ADD AND DUP3 ADD DUP1 PUSH1 0x40 MSTORE POP DUP2 ADD SWAP1 PUSH2 0x7A3 SWAP2 SWAP1 PUSH2 0x1B34 JUMP JUMPDEST POP CALLER PUSH20 0xFFFFFFFFFFFFFFFFFFFFFFFFFFFFFFFFFFFFFFFF AND PUSH32 0x17DBED7147E35A6B6887FF6124FF77B06F413095AF19E1057E0ECF80722B456E DUP3 DUP5 PUSH1 0x1 PUSH1 0x40 MLOAD PUSH2 0x7EF SWAP4 SWAP3 SWAP2 SWAP1 PUSH2 0x1B5F JUMP JUMPDEST PUSH1 0x40 MLOAD DUP1 SWAP2 SUB SWAP1 LOG2 POP POP JUMP JUMPDEST CALLER PUSH20 0xFFFFFFFFFFFFFFFFFFFFFFFFFFFFFFFFFFFFFFFF AND PUSH2 0x81A PUSH2 0xC49 JUMP JUMPDEST PUSH20 0xFFFFFFFFFFFFFFFFFFFFFFFFFFFFFFFFFFFFFFFF AND EQ PUSH2 0x870 JUMPI PUSH1 0x40 MLOAD PUSH32 0x8C379A000000000000000000000000000000000000000000000000000000000 DUP2 MSTORE PUSH1 0x4 ADD PUSH2 0x867 SWAP1 PUSH2 0x1BDE JUMP JUMPDEST PUSH1 0x40 MLOAD DUP1 SWAP2 SUB SWAP1 REVERT JUMPDEST PUSH1 0x8 SLOAD TIMESTAMP LT ISZERO PUSH2 0x8B5 JUMPI PUSH1 0x40 MLOAD PUSH32 0x8C379A000000000000000000000000000000000000000000000000000000000 DUP2 MSTORE PUSH1 0x4 ADD PUSH2 0x8AC SWAP1 PUSH2 0x1C46 JUMP JUMPDEST PUSH1 0x40 MLOAD DUP1 SWAP2 SUB SWAP1 REVERT JUMPDEST PUSH1 0x1 PUSH1 0xD PUSH0 PUSH2 0x100 EXP DUP2 SLOAD DUP2 PUSH1 0xFF MUL NOT AND SWAP1 DUP4 ISZERO ISZERO MUL OR SWAP1 SSTORE POP TIMESTAMP PUSH1 0x9 DUP2 SWAP1 SSTORE POP JUMP JUMPDEST CALLER PUSH20 0xFFFFFFFFFFFFFFFFFFFFFFFFFFFFFFFFFFFFFFFF AND PUSH2 0x8F7 PUSH2 0xC49 JUMP JUMPDEST PUSH20 0xFFFFFFFFFFFFFFFFFFFFFFFFFFFFFFFFFFFFFFFF AND EQ PUSH2 0x94D JUMPI PUSH1 0x40 MLOAD PUSH32 0x8C379A000000000000000000000000000000000000000000000000000000000 DUP2 MSTORE PUSH1 0x4 ADD PUSH2 0x944 SWAP1 PUSH2 0x1BDE JUMP JUMPDEST PUSH1 0x40 MLOAD DUP1 SWAP2 SUB SWAP1 REVERT JUMPDEST PUSH0 DUP2 GT PUSH2 0x98F JUMPI PUSH1 0x40 MLOAD PUSH32 0x8C379A000000000000000000000000000000000000000000000000000000000 DUP2 MSTORE PUSH1 0x4 ADD PUSH2 0x986 SWAP1 PUSH2 0x1CAE JUMP JUMPDEST PUSH1 0x40 MLOAD DUP1 SWAP2 SUB SWAP1 REVERT JUMPDEST PUSH1 0x1 PUSH0 SWAP1 SLOAD SWAP1 PUSH2 0x100 EXP SWAP1 DIV PUSH20 0xFFFFFFFFFFFFFFFFFFFFFFFFFFFFFFFFFFFFFFFF AND PUSH20 0xFFFFFFFFFFFFFFFFFFFFFFFFFFFFFFFFFFFFFFFF AND PUSH4 0xA9059CBB DUP4 DUP4 PUSH1 0x40 MLOAD DUP4 PUSH4 0xFFFFFFFF AND PUSH1 0xE0 SHL DUP2 MSTORE PUSH1 0x4 ADD PUSH2 0x9EB SWAP3 SWAP2 SWAP1 PUSH2 0x1AE3 JUMP JUMPDEST PUSH1 0x20 PUSH1 0x40 MLOAD DUP1 DUP4 SUB DUP2 PUSH0 DUP8 GAS CALL ISZERO DUP1 ISZERO PUSH2 0xA07 JUMPI RETURNDATASIZE PUSH0 DUP1 RETURNDATACOPY RETURNDATASIZE PUSH0 REVERT JUMPDEST POP POP POP POP PUSH1 0x40 MLOAD RETURNDATASIZE PUSH1 0x1F NOT PUSH1 0x1F DUP3 ADD AND DUP3 ADD DUP1 PUSH1 0x40 MSTORE POP DUP2 ADD SWAP1 PUSH2 0xA2B SWAP2 SWAP1 PUSH2 0x1B34 JUMP JUMPDEST POP DUP2 PUSH20 0xFFFFFFFFFFFFFFFFFFFFFFFFFFFFFFFFFFFFFFFF AND PUSH32 0x16B0DA2FFCB90C6723317BD637D9AAD7F04711F42BBE0AC0918EBE10F1F9001C DUP3 PUSH1 0x40 MLOAD PUSH2 0xA72 SWAP2 SWAP1 PUSH2 0x16F4 JUMP JUMPDEST PUSH1 0x40 MLOAD DUP1 SWAP2 SUB SWAP1 LOG2 POP POP JUMP JUMPDEST PUSH1 0xA SLOAD DUP2 JUMP JUMPDEST PUSH1 0x8 SLOAD DUP2 JUMP JUMPDEST PUSH1 0x6 SLOAD DUP2 JUMP JUMPDEST CALLER PUSH20 0xFFFFFFFFFFFFFFFFFFFFFFFFFFFFFFFFFFFFFFFF AND PUSH2 0xAAF PUSH2 0xC49 JUMP JUMPDEST PUSH20 0xFFFFFFFFFFFFFFFFFFFFFFFFFFFFFFFFFFFFFFFF AND EQ PUSH2 0xB05 JUMPI PUSH1 0x40 MLOAD PUSH32 0x8C379A000000000000000000000000000000000000000000000000000000000 DUP2 MSTORE PUSH1 0x4 ADD PUSH2 0xAFC SWAP1 PUSH2 0x1BDE JUMP JUMPDEST PUSH1 0x40 MLOAD DUP1 SWAP2 SUB SWAP1 REVERT JUMPDEST PUSH1 0xA SLOAD TIMESTAMP LT ISZERO PUSH2 0xB4A JUMPI PUSH1 0x40 MLOAD PUSH32 0x8C379A000000000000000000000000000000000000000000000000000000000 DUP2 MSTORE PUSH1 0x4 ADD PUSH2 0xB41 SWAP1 PUSH2 0x1D16 JUMP JUMPDEST PUSH1 0x40 MLOAD DUP1 SWAP2 SUB SWAP1 REVERT JUMPDEST PUSH1 0x1 PUSH1 0xD PUSH1 0x1 PUSH2 0x100 EXP DUP2 SLOAD DUP2 PUSH1 0xFF MUL NOT AND SWAP1 DUP4 ISZERO ISZERO MUL OR SWAP1 SSTORE POP JUMP JUMPDEST PUSH1 0xC PUSH1 0x20 MSTORE DUP1 PUSH0 MSTORE PUSH1 0x40 PUSH0 KECCAK256 PUSH0 SWAP2 POP SWAP1 POP SLOAD DUP2 JUMP JUMPDEST PUSH1 0xB PUSH1 0x20 MSTORE DUP1 PUSH0 MSTORE PUSH1 0x40 PUSH0 KECCAK256 PUSH0 SWAP2 POP SWAP1 POP SLOAD DUP2 JUMP JUMPDEST CALLER PUSH20 0xFFFFFFFFFFFFFFFFFFFFFFFFFFFFFFFFFFFFFFFF AND PUSH2 0xBB0 PUSH2 0xC49 JUMP JUMPDEST PUSH20 0xFFFFFFFFFFFFFFFFFFFFFFFFFFFFFFFFFFFFFFFF AND EQ PUSH2 0xC06 JUMPI PUSH1 0x40 MLOAD PUSH32 0x8C379A000000000000000000000000000000000000000000000000000000000 DUP2 MSTORE PUSH1 0x4 ADD PUSH2 0xBFD SWAP1 PUSH2 0x1BDE JUMP JUMPDEST PUSH1 0x40 MLOAD DUP1 SWAP2 SUB SWAP1 REVERT JUMPDEST DUP2 PUSH1 0x8 DUP2 SWAP1 SSTORE POP DUP1 PUSH1 0xA DUP2 SWAP1 SSTORE POP POP POP JUMP JUMPDEST PUSH1 0x2 SLOAD DUP2 JUMP JUMPDEST PUSH1 0x3 SLOAD DUP2 JUMP JUMPDEST PUSH1 0x9 SLOAD DUP2 JUMP JUMPDEST PUSH1 0x7 SLOAD DUP2 JUMP JUMPDEST PUSH2 0xC38 PUSH2 0x14C7 JUMP JUMPDEST PUSH2 0xC41 PUSH0 PUSH2 0x154E JUMP JUMPDEST JUMP JUMPDEST PUSH1 0x5 SLOAD DUP2 JUMP JUMPDEST PUSH0 DUP1 PUSH0 SWAP1 SLOAD SWAP1 PUSH2 0x100 EXP SWAP1 DIV PUSH20 0xFFFFFFFFFFFFFFFFFFFFFFFFFFFFFFFFFFFFFFFF AND SWAP1 POP SWAP1 JUMP JUMPDEST PUSH1 0xD PUSH0 SWAP1 SLOAD SWAP1 PUSH2 0x100 EXP SWAP1 DIV PUSH1 0xFF AND DUP2 JUMP JUMPDEST PUSH1 0x8 SLOAD TIMESTAMP LT ISZERO DUP1 ISZERO PUSH2 0xCA0 JUMPI POP PUSH1 0xD PUSH0 SWAP1 SLOAD SWAP1 PUSH2 0x100 EXP SWAP1 DIV PUSH1 0xFF AND ISZERO JUMPDEST DUP1 PUSH2 0xCC6 JUMPI POP PUSH1 0xA SLOAD TIMESTAMP LT ISZERO DUP1 ISZERO PUSH2 0xCC5 JUMPI POP PUSH1 0xD PUSH1 0x1 SWAP1 SLOAD SWAP1 PUSH2 0x100 EXP SWAP1 DIV PUSH1 0xFF AND ISZERO JUMPDEST JUMPDEST PUSH2 0xD05 JUMPI PUSH1 0x40 MLOAD PUSH32 0x8C379A000000000000000000000000000000000000000000000000000000000 DUP2 MSTORE PUSH1 0x4 ADD PUSH2 0xCFC SWAP1 PUSH2 0x1D7E JUMP JUMPDEST PUSH1 0x40 MLOAD DUP1 SWAP2 SUB SWAP1 REVERT JUMPDEST PUSH0 PUSH1 0xD PUSH0 SWAP1 SLOAD SWAP1 PUSH2 0x100 EXP SWAP1 DIV PUSH1 0xFF AND DUP1 ISZERO PUSH2 0xD5D JUMPI POP PUSH0 PUSH1 0xB PUSH0 CALLER PUSH20 0xFFFFFFFFFFFFFFFFFFFFFFFFFFFFFFFFFFFFFFFF AND PUSH20 0xFFFFFFFFFFFFFFFFFFFFFFFFFFFFFFFFFFFFFFFF AND DUP2 MSTORE PUSH1 0x20 ADD SWAP1 DUP2 MSTORE PUSH1 0x20 ADD PUSH0 KECCAK256 SLOAD GT JUMPDEST ISZERO PUSH2 0xDF0 JUMPI PUSH1 0xB PUSH0 CALLER PUSH20 0xFFFFFFFFFFFFFFFFFFFFFFFFFFFFFFFFFFFFFFFF AND PUSH20 0xFFFFFFFFFFFFFFFFFFFFFFFFFFFFFFFFFFFFFFFF AND DUP2 MSTORE PUSH1 0x20 ADD SWAP1 DUP2 MSTORE PUSH1 0x20 ADD PUSH0 KECCAK256 SLOAD DUP2 PUSH2 0xDAB SWAP2 SWAP1 PUSH2 0x19BA JUMP JUMPDEST SWAP1 POP PUSH0 PUSH1 0xB PUSH0 CALLER PUSH20 0xFFFFFFFFFFFFFFFFFFFFFFFFFFFFFFFFFFFFFFFF AND PUSH20 0xFFFFFFFFFFFFFFFFFFFFFFFFFFFFFFFFFFFFFFFF AND DUP2 MSTORE PUSH1 0x20 ADD SWAP1 DUP2 MSTORE PUSH1 0x20 ADD PUSH0 KECCAK256 DUP2 SWAP1 SSTORE POP JUMPDEST PUSH1 0xD PUSH1 0x1 SWAP1 SLOAD SWAP1 PUSH2 0x100 EXP SWAP1 DIV PUSH1 0xFF AND DUP1 ISZERO PUSH2 0xE48 JUMPI POP PUSH0 PUSH1 0xC PUSH0 CALLER PUSH20 0xFFFFFFFFFFFFFFFFFFFFFFFFFFFFFFFFFFFFFFFF AND PUSH20 0xFFFFFFFFFFFFFFFFFFFFFFFFFFFFFFFFFFFFFFFF AND DUP2 MSTORE PUSH1 0x20 ADD SWAP1 DUP2 MSTORE PUSH1 0x20 ADD PUSH0 KECCAK256 SLOAD GT JUMPDEST ISZERO PUSH2 0xEDB JUMPI PUSH1 0xC PUSH0 CALLER PUSH20 0xFFFFFFFFFFFFFFFFFFFFFFFFFFFFFFFFFFFFFFFF AND PUSH20 0xFFFFFFFFFFFFFFFFFFFFFFFFFFFFFFFFFFFFFFFF AND DUP2 MSTORE PUSH1 0x20 ADD SWAP1 DUP2 MSTORE PUSH1 0x20 ADD PUSH0 KECCAK256 SLOAD DUP2 PUSH2 0xE96 SWAP2 SWAP1 PUSH2 0x19BA JUMP JUMPDEST SWAP1 POP PUSH0 PUSH1 0xC PUSH0 CALLER PUSH20 0xFFFFFFFFFFFFFFFFFFFFFFFFFFFFFFFFFFFFFFFF AND PUSH20 0xFFFFFFFFFFFFFFFFFFFFFFFFFFFFFFFFFFFFFFFF AND DUP2 MSTORE PUSH1 0x20 ADD SWAP1 DUP2 MSTORE PUSH1 0x20 ADD PUSH0 KECCAK256 DUP2 SWAP1 SSTORE POP JUMPDEST PUSH0 DUP2 GT PUSH2 0xF1D JUMPI PUSH1 0x40 MLOAD PUSH32 0x8C379A000000000000000000000000000000000000000000000000000000000 DUP2 MSTORE PUSH1 0x4 ADD PUSH2 0xF14 SWAP1 PUSH2 0x1DE6 JUMP JUMPDEST PUSH1 0x40 MLOAD DUP1 SWAP2 SUB SWAP1 REVERT JUMPDEST CALLER PUSH20 0xFFFFFFFFFFFFFFFFFFFFFFFFFFFFFFFFFFFFFFFF AND PUSH2 0x8FC DUP3 SWAP1 DUP2 ISZERO MUL SWAP1 PUSH1 0x40 MLOAD PUSH0 PUSH1 0x40 MLOAD DUP1 DUP4 SUB DUP2 DUP6 DUP9 DUP9 CALL SWAP4 POP POP POP POP ISZERO DUP1 ISZERO PUSH2 0xF60 JUMPI RETURNDATASIZE PUSH0 DUP1 RETURNDATACOPY RETURNDATASIZE PUSH0 REVERT JUMPDEST POP CALLER PUSH20 0xFFFFFFFFFFFFFFFFFFFFFFFFFFFFFFFFFFFFFFFF AND PUSH32 0x358FE4192934D3BF28AE181FEDA1F4BD08CA67F5E2FAD55582CCE5EB67304AE9 DUP3 PUSH1 0x40 MLOAD PUSH2 0xFA7 SWAP2 SWAP1 PUSH2 0x16F4 JUMP JUMPDEST PUSH1 0x40 MLOAD DUP1 SWAP2 SUB SWAP1 LOG2 POP JUMP JUMPDEST PUSH1 0x4 SLOAD DUP2 JUMP JUMPDEST PUSH1 0xD PUSH1 0x1 SWAP1 SLOAD SWAP1 PUSH2 0x100 EXP SWAP1 DIV PUSH1 0xFF AND DUP2 JUMP JUMPDEST PUSH1 0x9 SLOAD TIMESTAMP LT ISZERO DUP1 ISZERO PUSH2 0xFDE JUMPI POP PUSH1 0xA SLOAD TIMESTAMP LT JUMPDEST PUSH2 0x101D JUMPI PUSH1 0x40 MLOAD PUSH32 0x8C379A000000000000000000000000000000000000000000000000000000000 DUP2 MSTORE PUSH1 0x4 ADD PUSH2 0x1014 SWAP1 PUSH2 0x1E4E JUMP JUMPDEST PUSH1 0x40 MLOAD DUP1 SWAP2 SUB SWAP1 REVERT JUMPDEST PUSH1 0xD PUSH1 0x1 SWAP1 SLOAD SWAP1 PUSH2 0x100 EXP SWAP1 DIV PUSH1 0xFF AND ISZERO PUSH2 0x106D JUMPI PUSH1 0x40 MLOAD PUSH32 0x8C379A000000000000000000000000000000000000000000000000000000000 DUP2 MSTORE PUSH1 0x4 ADD PUSH2 0x1064 SWAP1 PUSH2 0x1EB6 JUMP JUMPDEST PUSH1 0x40 MLOAD DUP1 SWAP2 SUB SWAP1 REVERT JUMPDEST PUSH1 0x6 SLOAD CALLVALUE LT ISZERO DUP1 ISZERO PUSH2 0x1081 JUMPI POP PUSH1 0x7 SLOAD CALLVALUE GT ISZERO JUMPDEST PUSH2 0x10C0 JUMPI PUSH1 0x40 MLOAD PUSH32 0x8C379A000000000000000000000000000000000000000000000000000000000 DUP2 MSTORE PUSH1 0x4 ADD PUSH2 0x10B7 SWAP1 PUSH2 0x196F JUMP JUMPDEST PUSH1 0x40 MLOAD DUP1 SWAP2 SUB SWAP1 REVERT JUMPDEST PUSH0 CALLVALUE PUSH1 0xC PUSH0 CALLER PUSH20 0xFFFFFFFFFFFFFFFFFFFFFFFFFFFFFFFFFFFFFFFF AND PUSH20 0xFFFFFFFFFFFFFFFFFFFFFFFFFFFFFFFFFFFFFFFF AND DUP2 MSTORE PUSH1 0x20 ADD SWAP1 DUP2 MSTORE PUSH1 0x20 ADD PUSH0 KECCAK256 SLOAD PUSH2 0x110A SWAP2 SWAP1 PUSH2 0x19BA JUMP JUMPDEST SWAP1 POP PUSH1 0x7 SLOAD DUP2 GT ISZERO PUSH2 0x1151 JUMPI PUSH1 0x40 MLOAD PUSH32 0x8C379A000000000000000000000000000000000000000000000000000000000 DUP2 MSTORE PUSH1 0x4 ADD PUSH2 0x1148 SWAP1 PUSH2 0x1A5D JUMP JUMPDEST PUSH1 0x40 MLOAD DUP1 SWAP2 SUB SWAP1 REVERT JUMPDEST DUP1 PUSH1 0xC PUSH0 CALLER PUSH20 0xFFFFFFFFFFFFFFFFFFFFFFFFFFFFFFFFFFFFFFFF AND PUSH20 0xFFFFFFFFFFFFFFFFFFFFFFFFFFFFFFFFFFFFFFFF AND DUP2 MSTORE PUSH1 0x20 ADD SWAP1 DUP2 MSTORE PUSH1 0x20 ADD PUSH0 KECCAK256 DUP2 SWAP1 SSTORE POP PUSH1 0x3 SLOAD SELFBALANCE GT ISZERO PUSH2 0x11D8 JUMPI PUSH1 0x40 MLOAD PUSH32 0x8C379A000000000000000000000000000000000000000000000000000000000 DUP2 MSTORE PUSH1 0x4 ADD PUSH2 0x11CF SWAP1 PUSH2 0x1F1E JUMP JUMPDEST PUSH1 0x40 MLOAD DUP1 SWAP2 SUB SWAP1 REVERT JUMPDEST PUSH0 PUSH2 0x11E2 CALLVALUE PUSH2 0x14AD JUMP JUMPDEST SWAP1 POP PUSH1 0x1 PUSH0 SWAP1 SLOAD SWAP1 PUSH2 0x100 EXP SWAP1 DIV PUSH20 0xFFFFFFFFFFFFFFFFFFFFFFFFFFFFFFFFFFFFFFFF AND PUSH20 0xFFFFFFFFFFFFFFFFFFFFFFFFFFFFFFFFFFFFFFFF AND PUSH4 0xA9059CBB CALLER DUP4 PUSH1 0x40 MLOAD DUP4 PUSH4 0xFFFFFFFF AND PUSH1 0xE0 SHL DUP2 MSTORE PUSH1 0x4 ADD PUSH2 0x1240 SWAP3 SWAP2 SWAP1 PUSH2 0x1AE3 JUMP JUMPDEST PUSH1 0x20 PUSH1 0x40 MLOAD DUP1 DUP4 SUB DUP2 PUSH0 DUP8 GAS CALL ISZERO DUP1 ISZERO PUSH2 0x125C JUMPI RETURNDATASIZE PUSH0 DUP1 RETURNDATACOPY RETURNDATASIZE PUSH0 REVERT JUMPDEST POP POP POP POP PUSH1 0x40 MLOAD RETURNDATASIZE PUSH1 0x1F NOT PUSH1 0x1F DUP3 ADD AND DUP3 ADD DUP1 PUSH1 0x40 MSTORE POP DUP2 ADD SWAP1 PUSH2 0x1280 SWAP2 SWAP1 PUSH2 0x1B34 JUMP JUMPDEST POP CALLER PUSH20 0xFFFFFFFFFFFFFFFFFFFFFFFFFFFFFFFFFFFFFFFF AND PUSH32 0x17DBED7147E35A6B6887FF6124FF77B06F413095AF19E1057E0ECF80722B456E DUP3 DUP5 PUSH0 PUSH1 0x40 MLOAD PUSH2 0x12CB SWAP4 SWAP3 SWAP2 SWAP1 PUSH2 0x1B5F JUMP JUMPDEST PUSH1 0x40 MLOAD DUP1 SWAP2 SUB SWAP1 LOG2 POP POP JUMP JUMPDEST PUSH2 0x12DF PUSH2 0x14C7 JUMP JUMPDEST PUSH0 PUSH20 0xFFFFFFFFFFFFFFFFFFFFFFFFFFFFFFFFFFFFFFFF AND DUP2 PUSH20 0xFFFFFFFFFFFFFFFFFFFFFFFFFFFFFFFFFFFFFFFF AND SUB PUSH2 0x134F JUMPI PUSH0 PUSH1 0x40 MLOAD PUSH32 0x1E4FBDF700000000000000000000000000000000000000000000000000000000 DUP2 MSTORE PUSH1 0x4 ADD PUSH2 0x1346 SWAP2 SWAP1 PUSH2 0x1785 JUMP JUMPDEST PUSH1 0x40 MLOAD DUP1 SWAP2 SUB SWAP1 REVERT JUMPDEST PUSH2 0x1358 DUP2 PUSH2 0x154E JUMP JUMPDEST POP JUMP JUMPDEST PUSH1 0x1 PUSH0 SWAP1 SLOAD SWAP1 PUSH2 0x100 EXP SWAP1 DIV PUSH20 0xFFFFFFFFFFFFFFFFFFFFFFFFFFFFFFFFFFFFFFFF AND DUP2 JUMP JUMPDEST CALLER PUSH20 0xFFFFFFFFFFFFFFFFFFFFFFFFFFFFFFFFFFFFFFFF AND PUSH2 0x139F PUSH2 0xC49 JUMP JUMPDEST PUSH20 0xFFFFFFFFFFFFFFFFFFFFFFFFFFFFFFFFFFFFFFFF AND EQ PUSH2 0x13F5 JUMPI PUSH1 0x40 MLOAD PUSH32 0x8C379A000000000000000000000000000000000000000000000000000000000 DUP2 MSTORE PUSH1 0x4 ADD PUSH2 0x13EC SWAP1 PUSH2 0x1BDE JUMP JUMPDEST PUSH1 0x40 MLOAD DUP1 SWAP2 SUB SWAP1 REVERT JUMPDEST PUSH1 0x3 SLOAD PUSH1 0x2 SLOAD PUSH2 0x1405 SWAP2 SWAP1 PUSH2 0x19BA JUMP JUMPDEST SELFBALANCE GT PUSH2 0x1446 JUMPI PUSH1 0x40 MLOAD PUSH32 0x8C379A000000000000000000000000000000000000000000000000000000000 DUP2 MSTORE PUSH1 0x4 ADD PUSH2 0x143D SWAP1 PUSH2 0x1F86 JUMP JUMPDEST PUSH1 0x40 MLOAD DUP1 SWAP2 SUB SWAP1 REVERT JUMPDEST PUSH2 0x144E PUSH2 0xC49 JUMP JUMPDEST PUSH20 0xFFFFFFFFFFFFFFFFFFFFFFFFFFFFFFFFFFFFFFFF AND PUSH2 0x8FC PUSH1 0x3 SLOAD PUSH1 0x2 SLOAD SELFBALANCE PUSH2 0x1478 SWAP2 SWAP1 PUSH2 0x1FA4 JUMP JUMPDEST PUSH2 0x1482 SWAP2 SWAP1 PUSH2 0x1FA4 JUMP JUMPDEST SWAP1 DUP2 ISZERO MUL SWAP1 PUSH1 0x40 MLOAD PUSH0 PUSH1 0x40 MLOAD DUP1 DUP4 SUB DUP2 DUP6 DUP9 DUP9 CALL SWAP4 POP POP POP POP ISZERO DUP1 ISZERO PUSH2 0x14AA JUMPI RETURNDATASIZE PUSH0 DUP1 RETURNDATACOPY RETURNDATASIZE PUSH0 REVERT JUMPDEST POP JUMP JUMPDEST PUSH0 DUP1 PUSH1 0x64 SWAP1 POP DUP1 DUP4 PUSH2 0x14BF SWAP2 SWAP1 PUSH2 0x1FD7 JUMP JUMPDEST SWAP2 POP POP SWAP2 SWAP1 POP JUMP JUMPDEST PUSH2 0x14CF PUSH2 0x160F JUMP JUMPDEST PUSH20 0xFFFFFFFFFFFFFFFFFFFFFFFFFFFFFFFFFFFFFFFF AND PUSH2 0x14ED PUSH2 0xC49 JUMP JUMPDEST PUSH20 0xFFFFFFFFFFFFFFFFFFFFFFFFFFFFFFFFFFFFFFFF AND EQ PUSH2 0x154C JUMPI PUSH2 0x1510 PUSH2 0x160F JUMP JUMPDEST PUSH1 0x40 MLOAD PUSH32 0x118CDAA700000000000000000000000000000000000000000000000000000000 DUP2 MSTORE PUSH1 0x4 ADD PUSH2 0x1543 SWAP2 SWAP1 PUSH2 0x1785 JUMP JUMPDEST PUSH1 0x40 MLOAD DUP1 SWAP2 SUB SWAP1 REVERT JUMPDEST JUMP JUMPDEST PUSH0 DUP1 PUSH0 SWAP1 SLOAD SWAP1 PUSH2 0x100 EXP SWAP1 DIV PUSH20 0xFFFFFFFFFFFFFFFFFFFFFFFFFFFFFFFFFFFFFFFF AND SWAP1 POP DUP2 PUSH0 DUP1 PUSH2 0x100 EXP DUP2 SLOAD DUP2 PUSH20 0xFFFFFFFFFFFFFFFFFFFFFFFFFFFFFFFFFFFFFFFF MUL NOT AND SWAP1 DUP4 PUSH20 0xFFFFFFFFFFFFFFFFFFFFFFFFFFFFFFFFFFFFFFFF AND MUL OR SWAP1 SSTORE POP DUP2 PUSH20 0xFFFFFFFFFFFFFFFFFFFFFFFFFFFFFFFFFFFFFFFF AND DUP2 PUSH20 0xFFFFFFFFFFFFFFFFFFFFFFFFFFFFFFFFFFFFFFFF AND PUSH32 0x8BE0079C531659141344CD1FD0A4F28419497F9722A3DAAFE3B4186F6B6457E0 PUSH1 0x40 MLOAD PUSH1 0x40 MLOAD DUP1 SWAP2 SUB SWAP1 LOG3 POP POP JUMP JUMPDEST PUSH0 CALLER SWAP1 POP SWAP1 JUMP JUMPDEST PUSH0 DUP1 REVERT JUMPDEST PUSH0 PUSH20 0xFFFFFFFFFFFFFFFFFFFFFFFFFFFFFFFFFFFFFFFF DUP3 AND SWAP1 POP SWAP2 SWAP1 POP JUMP JUMPDEST PUSH0 PUSH2 0x1643 DUP3 PUSH2 0x161A JUMP JUMPDEST SWAP1 POP SWAP2 SWAP1 POP JUMP JUMPDEST PUSH2 0x1653 DUP2 PUSH2 0x1639 JUMP JUMPDEST DUP2 EQ PUSH2 0x165D JUMPI PUSH0 DUP1 REVERT JUMPDEST POP JUMP JUMPDEST PUSH0 DUP2 CALLDATALOAD SWAP1 POP PUSH2 0x166E DUP2 PUSH2 0x164A JUMP JUMPDEST SWAP3 SWAP2 POP POP JUMP JUMPDEST PUSH0 DUP2 SWAP1 POP SWAP2 SWAP1 POP JUMP JUMPDEST PUSH2 0x1686 DUP2 PUSH2 0x1674 JUMP JUMPDEST DUP2 EQ PUSH2 0x1690 JUMPI PUSH0 DUP1 REVERT JUMPDEST POP JUMP JUMPDEST PUSH0 DUP2 CALLDATALOAD SWAP1 POP PUSH2 0x16A1 DUP2 PUSH2 0x167D JUMP JUMPDEST SWAP3 SWAP2 POP POP JUMP JUMPDEST PUSH0 DUP1 PUSH1 0x40 DUP4 DUP6 SUB SLT ISZERO PUSH2 0x16BD JUMPI PUSH2 0x16BC PUSH2 0x1616 JUMP JUMPDEST JUMPDEST PUSH0 PUSH2 0x16CA DUP6 DUP3 DUP7 ADD PUSH2 0x1660 JUMP JUMPDEST SWAP3 POP POP PUSH1 0x20 PUSH2 0x16DB DUP6 DUP3 DUP7 ADD PUSH2 0x1693 JUMP JUMPDEST SWAP2 POP POP SWAP3 POP SWAP3 SWAP1 POP JUMP JUMPDEST PUSH2 0x16EE DUP2 PUSH2 0x1674 JUMP JUMPDEST DUP3 MSTORE POP POP JUMP JUMPDEST PUSH0 PUSH1 0x20 DUP3 ADD SWAP1 POP PUSH2 0x1707 PUSH0 DUP4 ADD DUP5 PUSH2 0x16E5 JUMP JUMPDEST SWAP3 SWAP2 POP POP JUMP JUMPDEST PUSH0 PUSH1 0x20 DUP3 DUP5 SUB SLT ISZERO PUSH2 0x1722 JUMPI PUSH2 0x1721 PUSH2 0x1616 JUMP JUMPDEST JUMPDEST PUSH0 PUSH2 0x172F DUP5 DUP3 DUP6 ADD PUSH2 0x1660 JUMP JUMPDEST SWAP2 POP POP SWAP3 SWAP2 POP POP JUMP JUMPDEST PUSH0 DUP1 PUSH1 0x40 DUP4 DUP6 SUB SLT ISZERO PUSH2 0x174E JUMPI PUSH2 0x174D PUSH2 0x1616 JUMP JUMPDEST JUMPDEST PUSH0 PUSH2 0x175B DUP6 DUP3 DUP7 ADD PUSH2 0x1693 JUMP JUMPDEST SWAP3 POP POP PUSH1 0x20 PUSH2 0x176C DUP6 DUP3 DUP7 ADD PUSH2 0x1693 JUMP JUMPDEST SWAP2 POP POP SWAP3 POP SWAP3 SWAP1 POP JUMP JUMPDEST PUSH2 0x177F DUP2 PUSH2 0x1639 JUMP JUMPDEST DUP3 MSTORE POP POP JUMP JUMPDEST PUSH0 PUSH1 0x20 DUP3 ADD SWAP1 POP PUSH2 0x1798 PUSH0 DUP4 ADD DUP5 PUSH2 0x1776 JUMP JUMPDEST SWAP3 SWAP2 POP POP JUMP JUMPDEST PUSH0 DUP2 ISZERO ISZERO SWAP1 POP SWAP2 SWAP1 POP JUMP JUMPDEST PUSH2 0x17B2 DUP2 PUSH2 0x179E JUMP JUMPDEST DUP3 MSTORE POP POP JUMP JUMPDEST PUSH0 PUSH1 0x20 DUP3 ADD SWAP1 POP PUSH2 0x17CB PUSH0 DUP4 ADD DUP5 PUSH2 0x17A9 JUMP JUMPDEST SWAP3 SWAP2 POP POP JUMP JUMPDEST PUSH0 DUP2 SWAP1 POP SWAP2 SWAP1 POP JUMP JUMPDEST PUSH0 PUSH2 0x17F4 PUSH2 0x17EF PUSH2 0x17EA DUP5 PUSH2 0x161A JUMP JUMPDEST PUSH2 0x17D1 JUMP JUMPDEST PUSH2 0x161A JUMP JUMPDEST SWAP1 POP SWAP2 SWAP1 POP JUMP JUMPDEST PUSH0 PUSH2 0x1805 DUP3 PUSH2 0x17DA JUMP JUMPDEST SWAP1 POP SWAP2 SWAP1 POP JUMP JUMPDEST PUSH0 PUSH2 0x1816 DUP3 PUSH2 0x17FB JUMP JUMPDEST SWAP1 POP SWAP2 SWAP1 POP JUMP JUMPDEST PUSH2 0x1826 DUP2 PUSH2 0x180C JUMP JUMPDEST DUP3 MSTORE POP POP JUMP JUMPDEST PUSH0 PUSH1 0x20 DUP3 ADD SWAP1 POP PUSH2 0x183F PUSH0 DUP4 ADD DUP5 PUSH2 0x181D JUMP JUMPDEST SWAP3 SWAP2 POP POP JUMP JUMPDEST PUSH0 DUP3 DUP3 MSTORE PUSH1 0x20 DUP3 ADD SWAP1 POP SWAP3 SWAP2 POP POP JUMP JUMPDEST PUSH32 0x50726573616C652068617320656E646564000000000000000000000000000000 PUSH0 DUP3 ADD MSTORE POP JUMP JUMPDEST PUSH0 PUSH2 0x1889 PUSH1 0x11 DUP4 PUSH2 0x1845 JUMP JUMPDEST SWAP2 POP PUSH2 0x1894 DUP3 PUSH2 0x1855 JUMP JUMPDEST PUSH1 0x20 DUP3 ADD SWAP1 POP SWAP2 SWAP1 POP JUMP JUMPDEST PUSH0 PUSH1 0x20 DUP3 ADD SWAP1 POP DUP2 DUP2 SUB PUSH0 DUP4 ADD MSTORE PUSH2 0x18B6 DUP2 PUSH2 0x187D JUMP JUMPDEST SWAP1 POP SWAP2 SWAP1 POP JUMP JUMPDEST PUSH32 0x50726573616C6520697320636C6F736564000000000000000000000000000000 PUSH0 DUP3 ADD MSTORE POP JUMP JUMPDEST PUSH0 PUSH2 0x18F1 PUSH1 0x11 DUP4 PUSH2 0x1845 JUMP JUMPDEST SWAP2 POP PUSH2 0x18FC DUP3 PUSH2 0x18BD JUMP JUMPDEST PUSH1 0x20 DUP3 ADD SWAP1 POP SWAP2 SWAP1 POP JUMP JUMPDEST PUSH0 PUSH1 0x20 DUP3 ADD SWAP1 POP DUP2 DUP2 SUB PUSH0 DUP4 ADD MSTORE PUSH2 0x191E DUP2 PUSH2 0x18E5 JUMP JUMPDEST SWAP1 POP SWAP2 SWAP1 POP JUMP JUMPDEST PUSH32 0x496E76616C696420636F6E747269627574696F6E20616D6F756E740000000000 PUSH0 DUP3 ADD MSTORE POP JUMP JUMPDEST PUSH0 PUSH2 0x1959 PUSH1 0x1B DUP4 PUSH2 0x1845 JUMP JUMPDEST SWAP2 POP PUSH2 0x1964 DUP3 PUSH2 0x1925 JUMP JUMPDEST PUSH1 0x20 DUP3 ADD SWAP1 POP SWAP2 SWAP1 POP JUMP JUMPDEST PUSH0 PUSH1 0x20 DUP3 ADD SWAP1 POP DUP2 DUP2 SUB PUSH0 DUP4 ADD MSTORE PUSH2 0x1986 DUP2 PUSH2 0x194D JUMP JUMPDEST SWAP1 POP SWAP2 SWAP1 POP JUMP JUMPDEST PUSH32 0x4E487B7100000000000000000000000000000000000000000000000000000000 PUSH0 MSTORE PUSH1 0x11 PUSH1 0x4 MSTORE PUSH1 0x24 PUSH0 REVERT JUMPDEST PUSH0 PUSH2 0x19C4 DUP3 PUSH2 0x1674 JUMP JUMPDEST SWAP2 POP PUSH2 0x19CF DUP4 PUSH2 0x1674 JUMP JUMPDEST SWAP3 POP DUP3 DUP3 ADD SWAP1 POP DUP1 DUP3 GT ISZERO PUSH2 0x19E7 JUMPI PUSH2 0x19E6 PUSH2 0x198D JUMP JUMPDEST JUMPDEST SWAP3 SWAP2 POP POP JUMP JUMPDEST PUSH32 0x4578636565646564206D6178696D756D20636F6E747269627574696F6E206C69 PUSH0 DUP3 ADD MSTORE PUSH32 0x6D69740000000000000000000000000000000000000000000000000000000000 PUSH1 0x20 DUP3 ADD MSTORE POP JUMP JUMPDEST PUSH0 PUSH2 0x1A47 PUSH1 0x23 DUP4 PUSH2 0x1845 JUMP JUMPDEST SWAP2 POP PUSH2 0x1A52 DUP3 PUSH2 0x19ED JUMP JUMPDEST PUSH1 0x40 DUP3 ADD SWAP1 POP SWAP2 SWAP1 POP JUMP JUMPDEST PUSH0 PUSH1 0x20 DUP3 ADD SWAP1 POP DUP2 DUP2 SUB PUSH0 DUP4 ADD MSTORE PUSH2 0x1A74 DUP2 PUSH2 0x1A3B JUMP JUMPDEST SWAP1 POP SWAP2 SWAP1 POP JUMP JUMPDEST PUSH32 0x50726573616C6520636170207265616368656400000000000000000000000000 PUSH0 DUP3 ADD MSTORE POP JUMP JUMPDEST PUSH0 PUSH2 0x1AAF PUSH1 0x13 DUP4 PUSH2 0x1845 JUMP JUMPDEST SWAP2 POP PUSH2 0x1ABA DUP3 PUSH2 0x1A7B JUMP JUMPDEST PUSH1 0x20 DUP3 ADD SWAP1 POP SWAP2 SWAP1 POP JUMP JUMPDEST PUSH0 PUSH1 0x20 DUP3 ADD SWAP1 POP DUP2 DUP2 SUB PUSH0 DUP4 ADD MSTORE PUSH2 0x1ADC DUP2 PUSH2 0x1AA3 JUMP JUMPDEST SWAP1 POP SWAP2 SWAP1 POP JUMP JUMPDEST PUSH0 PUSH1 0x40 DUP3 ADD SWAP1 POP PUSH2 0x1AF6 PUSH0 DUP4 ADD DUP6 PUSH2 0x1776 JUMP JUMPDEST PUSH2 0x1B03 PUSH1 0x20 DUP4 ADD DUP5 PUSH2 0x16E5 JUMP JUMPDEST SWAP4 SWAP3 POP POP POP JUMP JUMPDEST PUSH2 0x1B13 DUP2 PUSH2 0x179E JUMP JUMPDEST DUP2 EQ PUSH2 0x1B1D JUMPI PUSH0 DUP1 REVERT JUMPDEST POP JUMP JUMPDEST PUSH0 DUP2 MLOAD SWAP1 POP PUSH2 0x1B2E DUP2 PUSH2 0x1B0A JUMP JUMPDEST SWAP3 SWAP2 POP POP JUMP JUMPDEST PUSH0 PUSH1 0x20 DUP3 DUP5 SUB SLT ISZERO PUSH2 0x1B49 JUMPI PUSH2 0x1B48 PUSH2 0x1616 JUMP JUMPDEST JUMPDEST PUSH0 PUSH2 0x1B56 DUP5 DUP3 DUP6 ADD PUSH2 0x1B20 JUMP JUMPDEST SWAP2 POP POP SWAP3 SWAP2 POP POP JUMP JUMPDEST PUSH0 PUSH1 0x60 DUP3 ADD SWAP1 POP PUSH2 0x1B72 PUSH0 DUP4 ADD DUP7 PUSH2 0x16E5 JUMP JUMPDEST PUSH2 0x1B7F PUSH1 0x20 DUP4 ADD DUP6 PUSH2 0x16E5 JUMP JUMPDEST PUSH2 0x1B8C PUSH1 0x40 DUP4 ADD DUP5 PUSH2 0x17A9 JUMP JUMPDEST SWAP5 SWAP4 POP POP POP POP JUMP JUMPDEST PUSH32 0x43616C6C6572206973206E6F7420746865206F776E6572000000000000000000 PUSH0 DUP3 ADD MSTORE POP JUMP JUMPDEST PUSH0 PUSH2 0x1BC8 PUSH1 0x17 DUP4 PUSH2 0x1845 JUMP JUMPDEST SWAP2 POP PUSH2 0x1BD3 DUP3 PUSH2 0x1B94 JUMP JUMPDEST PUSH1 0x20 DUP3 ADD SWAP1 POP SWAP2 SWAP1 POP JUMP JUMPDEST PUSH0 PUSH1 0x20 DUP3 ADD SWAP1 POP DUP2 DUP2 SUB PUSH0 DUP4 ADD MSTORE PUSH2 0x1BF5 DUP2 PUSH2 0x1BBC JUMP JUMPDEST SWAP1 POP SWAP2 SWAP1 POP JUMP JUMPDEST PUSH32 0x50726573616C65206973207374696C6C20616374697665000000000000000000 PUSH0 DUP3 ADD MSTORE POP JUMP JUMPDEST PUSH0 PUSH2 0x1C30 PUSH1 0x17 DUP4 PUSH2 0x1845 JUMP JUMPDEST SWAP2 POP PUSH2 0x1C3B DUP3 PUSH2 0x1BFC JUMP JUMPDEST PUSH1 0x20 DUP3 ADD SWAP1 POP SWAP2 SWAP1 POP JUMP JUMPDEST PUSH0 PUSH1 0x20 DUP3 ADD SWAP1 POP DUP2 DUP2 SUB PUSH0 DUP4 ADD MSTORE PUSH2 0x1C5D DUP2 PUSH2 0x1C24 JUMP JUMPDEST SWAP1 POP SWAP2 SWAP1 POP JUMP JUMPDEST PUSH32 0x416D6F756E742073686F756C642062652067726561746572207468616E203000 PUSH0 DUP3 ADD MSTORE POP JUMP JUMPDEST PUSH0 PUSH2 0x1C98 PUSH1 0x1F DUP4 PUSH2 0x1845 JUMP JUMPDEST SWAP2 POP PUSH2 0x1CA3 DUP3 PUSH2 0x1C64 JUMP JUMPDEST PUSH1 0x20 DUP3 ADD SWAP1 POP SWAP2 SWAP1 POP JUMP JUMPDEST PUSH0 PUSH1 0x20 DUP3 ADD SWAP1 POP DUP2 DUP2 SUB PUSH0 DUP4 ADD MSTORE PUSH2 0x1CC5 DUP2 PUSH2 0x1C8C JUMP JUMPDEST SWAP1 POP SWAP2 SWAP1 POP JUMP JUMPDEST PUSH32 0x5075626C69632073616C65206973207374696C6C206163746976650000000000 PUSH0 DUP3 ADD MSTORE POP JUMP JUMPDEST PUSH0 PUSH2 0x1D00 PUSH1 0x1B DUP4 PUSH2 0x1845 JUMP JUMPDEST SWAP2 POP PUSH2 0x1D0B DUP3 PUSH2 0x1CCC JUMP JUMPDEST PUSH1 0x20 DUP3 ADD SWAP1 POP SWAP2 SWAP1 POP JUMP JUMPDEST PUSH0 PUSH1 0x20 DUP3 ADD SWAP1 POP DUP2 DUP2 SUB PUSH0 DUP4 ADD MSTORE PUSH2 0x1D2D DUP2 PUSH2 0x1CF4 JUMP JUMPDEST SWAP1 POP SWAP2 SWAP1 POP JUMP JUMPDEST PUSH32 0x526566756E64206E6F7420616C6C6F7765642079657400000000000000000000 PUSH0 DUP3 ADD MSTORE POP JUMP JUMPDEST PUSH0 PUSH2 0x1D68 PUSH1 0x16 DUP4 PUSH2 0x1845 JUMP JUMPDEST SWAP2 POP PUSH2 0x1D73 DUP3 PUSH2 0x1D34 JUMP JUMPDEST PUSH1 0x20 DUP3 ADD SWAP1 POP SWAP2 SWAP1 POP JUMP JUMPDEST PUSH0 PUSH1 0x20 DUP3 ADD SWAP1 POP DUP2 DUP2 SUB PUSH0 DUP4 ADD MSTORE PUSH2 0x1D95 DUP2 PUSH2 0x1D5C JUMP JUMPDEST SWAP1 POP SWAP2 SWAP1 POP JUMP JUMPDEST PUSH32 0x4E6F20726566756E6420617661696C61626C6500000000000000000000000000 PUSH0 DUP3 ADD MSTORE POP JUMP JUMPDEST PUSH0 PUSH2 0x1DD0 PUSH1 0x13 DUP4 PUSH2 0x1845 JUMP JUMPDEST SWAP2 POP PUSH2 0x1DDB DUP3 PUSH2 0x1D9C JUMP JUMPDEST PUSH1 0x20 DUP3 ADD SWAP1 POP SWAP2 SWAP1 POP JUMP JUMPDEST PUSH0 PUSH1 0x20 DUP3 ADD SWAP1 POP DUP2 DUP2 SUB PUSH0 DUP4 ADD MSTORE PUSH2 0x1DFD DUP2 PUSH2 0x1DC4 JUMP JUMPDEST SWAP1 POP SWAP2 SWAP1 POP JUMP JUMPDEST PUSH32 0x5075626C69632073616C65206973206E6F742061637469766500000000000000 PUSH0 DUP3 ADD MSTORE POP JUMP JUMPDEST PUSH0 PUSH2 0x1E38 PUSH1 0x19 DUP4 PUSH2 0x1845 JUMP JUMPDEST SWAP2 POP PUSH2 0x1E43 DUP3 PUSH2 0x1E04 JUMP JUMPDEST PUSH1 0x20 DUP3 ADD SWAP1 POP SWAP2 SWAP1 POP JUMP JUMPDEST PUSH0 PUSH1 0x20 DUP3 ADD SWAP1 POP DUP2 DUP2 SUB PUSH0 DUP4 ADD MSTORE PUSH2 0x1E65 DUP2 PUSH2 0x1E2C JUMP JUMPDEST SWAP1 POP SWAP2 SWAP1 POP JUMP JUMPDEST PUSH32 0x5075626C69632073616C6520697320636C6F7365640000000000000000000000 PUSH0 DUP3 ADD MSTORE POP JUMP JUMPDEST PUSH0 PUSH2 0x1EA0 PUSH1 0x15 DUP4 PUSH2 0x1845 JUMP JUMPDEST SWAP2 POP PUSH2 0x1EAB DUP3 PUSH2 0x1E6C JUMP JUMPDEST PUSH1 0x20 DUP3 ADD SWAP1 POP SWAP2 SWAP1 POP JUMP JUMPDEST PUSH0 PUSH1 0x20 DUP3 ADD SWAP1 POP DUP2 DUP2 SUB PUSH0 DUP4 ADD MSTORE PUSH2 0x1ECD DUP2 PUSH2 0x1E94 JUMP JUMPDEST SWAP1 POP SWAP2 SWAP1 POP JUMP JUMPDEST PUSH32 0x5075626C69632073616C65206361702072656163686564000000000000000000 PUSH0 DUP3 ADD MSTORE POP JUMP JUMPDEST PUSH0 PUSH2 0x1F08 PUSH1 0x17 DUP4 PUSH2 0x1845 JUMP JUMPDEST SWAP2 POP PUSH2 0x1F13 DUP3 PUSH2 0x1ED4 JUMP JUMPDEST PUSH1 0x20 DUP3 ADD SWAP1 POP SWAP2 SWAP1 POP JUMP JUMPDEST PUSH0 PUSH1 0x20 DUP3 ADD SWAP1 POP DUP2 DUP2 SUB PUSH0 DUP4 ADD MSTORE PUSH2 0x1F35 DUP2 PUSH2 0x1EFC JUMP JUMPDEST SWAP1 POP SWAP2 SWAP1 POP JUMP JUMPDEST PUSH32 0x4E6F206578636573732066756E64730000000000000000000000000000000000 PUSH0 DUP3 ADD MSTORE POP JUMP JUMPDEST PUSH0 PUSH2 0x1F70 PUSH1 0xF DUP4 PUSH2 0x1845 JUMP JUMPDEST SWAP2 POP PUSH2 0x1F7B DUP3 PUSH2 0x1F3C JUMP JUMPDEST PUSH1 0x20 DUP3 ADD SWAP1 POP SWAP2 SWAP1 POP JUMP JUMPDEST PUSH0 PUSH1 0x20 DUP3 ADD SWAP1 POP DUP2 DUP2 SUB PUSH0 DUP4 ADD MSTORE PUSH2 0x1F9D DUP2 PUSH2 0x1F64 JUMP JUMPDEST SWAP1 POP SWAP2 SWAP1 POP JUMP JUMPDEST PUSH0 PUSH2 0x1FAE DUP3 PUSH2 0x1674 JUMP JUMPDEST SWAP2 POP PUSH2 0x1FB9 DUP4 PUSH2 0x1674 JUMP JUMPDEST SWAP3 POP DUP3 DUP3 SUB SWAP1 POP DUP2 DUP2 GT ISZERO PUSH2 0x1FD1 JUMPI PUSH2 0x1FD0 PUSH2 0x198D JUMP JUMPDEST JUMPDEST SWAP3 SWAP2 POP POP JUMP JUMPDEST PUSH0 PUSH2 0x1FE1 DUP3 PUSH2 0x1674 JUMP JUMPDEST SWAP2 POP PUSH2 0x1FEC DUP4 PUSH2 0x1674 JUMP JUMPDEST SWAP3 POP DUP3 DUP3 MUL PUSH2 0x1FFA DUP2 PUSH2 0x1674 JUMP JUMPDEST SWAP2 POP DUP3 DUP3 DIV DUP5 EQ DUP4 ISZERO OR PUSH2 0x2011 JUMPI PUSH2 0x2010 PUSH2 0x198D JUMP JUMPDEST JUMPDEST POP SWAP3 SWAP2 POP POP JUMP INVALID LOG2 PUSH5 0x6970667358 0x22 SLT KECCAK256 SWAP16 0xBB 0xDB PUSH31 0xBEAB067683B6C2695034B5872D9569AB05A92275241774B539F0F74F64736F PUSH13 0x63430008160033000000000000 "
				},
				"gasEstimates": {
					"creation": {
						"codeDepositCost": "1654000",
						"executionCost": "infinite",
						"totalCost": "infinite"
					},
					"external": {
						"claimRefund()": "infinite",
						"closePresaleAndStartPublicSale()": "50896",
						"closePublicSale()": "28811",
						"contributeToPresale()": "infinite",
						"contributeToPublicSale()": "infinite",
						"distributeTokens(address,uint256)": "infinite",
						"extendSalePeriod(uint256,uint256)": "infinite",
						"owner()": "2626",
						"presaleCap()": "2536",
						"presaleClosed()": "2599",
						"presaleContributions(address)": "2869",
						"presaleEndTime()": "2537",
						"presaleMaxContribution()": "2514",
						"presaleMinContribution()": "2492",
						"publicSaleCap()": "2558",
						"publicSaleClosed()": "2606",
						"publicSaleContributions(address)": "2847",
						"publicSaleEndTime()": "2515",
						"publicSaleMaxContribution()": "2470",
						"publicSaleMinContribution()": "2559",
						"publicSaleStartTime()": "2448",
						"renounceOwnership()": "infinite",
						"token()": "infinite",
						"transferOwnership(address)": "infinite",
						"withdrawExcessFunds()": "infinite"
					},
					"internal": {
						"calculateTokenAmount(uint256)": "infinite"
					}
				},
				"methodIdentifiers": {
					"claimRefund()": "b5545a3c",
					"closePresaleAndStartPublicSale()": "1207c90d",
					"closePublicSale()": "2af89179",
					"contributeToPresale()": "0269d3b4",
					"contributeToPublicSale()": "e59c9510",
					"distributeTokens(address,uint256)": "158a4988",
					"extendSalePeriod(uint256,uint256)": "5e4d3b4b",
					"owner()": "8da5cb5b",
					"presaleCap()": "63d5502f",
					"presaleClosed()": "abd2cc5f",
					"presaleContributions(address)": "477f1eba",
					"presaleEndTime()": "249b7c19",
					"presaleMaxContribution()": "87e449c3",
					"presaleMinContribution()": "c4849847",
					"publicSaleCap()": "64826b7a",
					"publicSaleClosed()": "ccf125d8",
					"publicSaleContributions(address)": "35f74869",
					"publicSaleEndTime()": "1e4d185f",
					"publicSaleMaxContribution()": "7146e4fa",
					"publicSaleMinContribution()": "2a517ab2",
					"publicSaleStartTime()": "6bb7b1d9",
					"renounceOwnership()": "715018a6",
					"token()": "fc0c546a",
					"transferOwnership(address)": "f2fde38b",
					"withdrawExcessFunds()": "fcb67c5b"
				}
			},
			"storageLayout": {
				"storage": [
					{
						"astId": 8,
						"contract": "contracts/sale.sol:TokenSale",
						"label": "_owner",
						"offset": 0,
						"slot": "0",
						"type": "t_address"
					},
					{
						"astId": 942,
						"contract": "contracts/sale.sol:TokenSale",
						"label": "token",
						"offset": 0,
						"slot": "1",
						"type": "t_contract(ERC20)799"
					},
					{
						"astId": 944,
						"contract": "contracts/sale.sol:TokenSale",
						"label": "presaleCap",
						"offset": 0,
						"slot": "2",
						"type": "t_uint256"
					},
					{
						"astId": 946,
						"contract": "contracts/sale.sol:TokenSale",
						"label": "publicSaleCap",
						"offset": 0,
						"slot": "3",
						"type": "t_uint256"
					},
					{
						"astId": 948,
						"contract": "contracts/sale.sol:TokenSale",
						"label": "presaleMinContribution",
						"offset": 0,
						"slot": "4",
						"type": "t_uint256"
					},
					{
						"astId": 950,
						"contract": "contracts/sale.sol:TokenSale",
						"label": "presaleMaxContribution",
						"offset": 0,
						"slot": "5",
						"type": "t_uint256"
					},
					{
						"astId": 952,
						"contract": "contracts/sale.sol:TokenSale",
						"label": "publicSaleMinContribution",
						"offset": 0,
						"slot": "6",
						"type": "t_uint256"
					},
					{
						"astId": 954,
						"contract": "contracts/sale.sol:TokenSale",
						"label": "publicSaleMaxContribution",
						"offset": 0,
						"slot": "7",
						"type": "t_uint256"
					},
					{
						"astId": 956,
						"contract": "contracts/sale.sol:TokenSale",
						"label": "presaleEndTime",
						"offset": 0,
						"slot": "8",
						"type": "t_uint256"
					},
					{
						"astId": 958,
						"contract": "contracts/sale.sol:TokenSale",
						"label": "publicSaleStartTime",
						"offset": 0,
						"slot": "9",
						"type": "t_uint256"
					},
					{
						"astId": 960,
						"contract": "contracts/sale.sol:TokenSale",
						"label": "publicSaleEndTime",
						"offset": 0,
						"slot": "10",
						"type": "t_uint256"
					},
					{
						"astId": 964,
						"contract": "contracts/sale.sol:TokenSale",
						"label": "presaleContributions",
						"offset": 0,
						"slot": "11",
						"type": "t_mapping(t_address,t_uint256)"
					},
					{
						"astId": 968,
						"contract": "contracts/sale.sol:TokenSale",
						"label": "publicSaleContributions",
						"offset": 0,
						"slot": "12",
						"type": "t_mapping(t_address,t_uint256)"
					},
					{
						"astId": 971,
						"contract": "contracts/sale.sol:TokenSale",
						"label": "presaleClosed",
						"offset": 0,
						"slot": "13",
						"type": "t_bool"
					},
					{
						"astId": 974,
						"contract": "contracts/sale.sol:TokenSale",
						"label": "publicSaleClosed",
						"offset": 1,
						"slot": "13",
						"type": "t_bool"
					}
				],
				"types": {
					"t_address": {
						"encoding": "inplace",
						"label": "address",
						"numberOfBytes": "20"
					},
					"t_bool": {
						"encoding": "inplace",
						"label": "bool",
						"numberOfBytes": "1"
					},
					"t_contract(ERC20)799": {
						"encoding": "inplace",
						"label": "contract ERC20",
						"numberOfBytes": "20"
					},
					"t_mapping(t_address,t_uint256)": {
						"encoding": "mapping",
						"key": "t_address",
						"label": "mapping(address => uint256)",
						"numberOfBytes": "32",
						"value": "t_uint256"
					},
					"t_uint256": {
						"encoding": "inplace",
						"label": "uint256",
						"numberOfBytes": "32"
					}
				}
			},
			"userdoc": {
				"kind": "user",
				"methods": {},
				"version": 1
			}
		}
	}
}