{
	"data": {
		"bytecode": {
			"linkReferences": {},
			"object": "60806040525f600d5f6101000a81548160ff0219169083151502179055505f600d60016101000a81548160ff02191690831515021790555034801562000043575f80fd5b50604051620024ad380380620024ad83398181016040528101906200006991906200031f565b805f73ffffffffffffffffffffffffffffffffffffffff168173ffffffffffffffffffffffffffffffffffffffff1603620000dd575f6040517f1e4fbdf7000000000000000000000000000000000000000000000000000000008152600401620000d4919062000436565b60405180910390fd5b620000ee816200017f60201b60201c565b508a60015f6101000a81548173ffffffffffffffffffffffffffffffffffffffff021916908373ffffffffffffffffffffffffffffffffffffffff160217905550896002819055508860038190555087600481905550866005819055508560068190555084600781905550836008819055508260098190555081600a81905550505050505050505050505062000451565b5f805f9054906101000a900473ffffffffffffffffffffffffffffffffffffffff169050815f806101000a81548173ffffffffffffffffffffffffffffffffffffffff021916908373ffffffffffffffffffffffffffffffffffffffff1602179055508173ffffffffffffffffffffffffffffffffffffffff168173ffffffffffffffffffffffffffffffffffffffff167f8be0079c531659141344cd1fd0a4f28419497f9722a3daafe3b4186f6b6457e060405160405180910390a35050565b5f80fd5b5f73ffffffffffffffffffffffffffffffffffffffff82169050919050565b5f6200026f8262000244565b9050919050565b5f620002828262000263565b9050919050565b620002948162000276565b81146200029f575f80fd5b50565b5f81519050620002b28162000289565b92915050565b5f819050919050565b620002cc81620002b8565b8114620002d7575f80fd5b50565b5f81519050620002ea81620002c1565b92915050565b620002fb8162000263565b811462000306575f80fd5b50565b5f815190506200031981620002f0565b92915050565b5f805f805f805f805f805f6101608c8e03121562000342576200034162000240565b5b5f620003518e828f01620002a2565b9b50506020620003648e828f01620002da565b9a50506040620003778e828f01620002da565b99505060606200038a8e828f01620002da565b98505060806200039d8e828f01620002da565b97505060a0620003b08e828f01620002da565b96505060c0620003c38e828f01620002da565b95505060e0620003d68e828f01620002da565b945050610100620003ea8e828f01620002da565b935050610120620003fe8e828f01620002da565b925050610140620004128e828f0162000309565b9150509295989b509295989b9093969950565b620004308162000263565b82525050565b5f6020820190506200044b5f83018462000425565b92915050565b61204e806200045f5f395ff3fe608060405260043610610165575f3560e01c80636bb7b1d9116100d0578063b5545a3c11610089578063e59c951011610063578063e59c95101461048b578063f2fde38b14610495578063fc0c546a146104bd578063fcb67c5b146104e757610165565b8063b5545a3c14610421578063c484984714610437578063ccf125d81461046157610165565b80636bb7b1d9146103395780637146e4fa14610363578063715018a61461038d57806387e449c3146103a35780638da5cb5b146103cd578063abd2cc5f146103f757610165565b80632af89179116101225780632af891791461022f57806335f7486914610245578063477f1eba146102815780635e4d3b4b146102bd57806363d5502f146102e557806364826b7a1461030f57610165565b80630269d3b4146101695780631207c90d14610173578063158a4988146101895780631e4d185f146101b1578063249b7c19146101db5780632a517ab214610205575b5f80fd5b6101716104fd565b005b34801561017e575f80fd5b506101876107fb565b005b348015610194575f80fd5b506101af60048036038101906101aa91906116a7565b6108d8565b005b3480156101bc575f80fd5b506101c5610a7e565b6040516101d291906116f4565b60405180910390f35b3480156101e6575f80fd5b506101ef610a84565b6040516101fc91906116f4565b60405180910390f35b348015610210575f80fd5b50610219610a8a565b60405161022691906116f4565b60405180910390f35b34801561023a575f80fd5b50610243610a90565b005b348015610250575f80fd5b5061026b6004803603810190610266919061170d565b610b67565b60405161027891906116f4565b60405180910390f35b34801561028c575f80fd5b506102a760048036038101906102a2919061170d565b610b7c565b6040516102b491906116f4565b60405180910390f35b3480156102c8575f80fd5b506102e360048036038101906102de9190611738565b610b91565b005b3480156102f0575f80fd5b506102f9610c18565b60405161030691906116f4565b60405180910390f35b34801561031a575f80fd5b50610323610c1e565b60405161033091906116f4565b60405180910390f35b348015610344575f80fd5b5061034d610c24565b60405161035a91906116f4565b60405180910390f35b34801561036e575f80fd5b50610377610c2a565b60405161038491906116f4565b60405180910390f35b348015610398575f80fd5b506103a1610c30565b005b3480156103ae575f80fd5b506103b7610c43565b6040516103c491906116f4565b60405180910390f35b3480156103d8575f80fd5b506103e1610c49565b6040516103ee9190611785565b60405180910390f35b348015610402575f80fd5b5061040b610c70565b60405161041891906117b8565b60405180910390f35b34801561042c575f80fd5b50610435610c82565b005b348015610442575f80fd5b5061044b610fb2565b60405161045891906116f4565b60405180910390f35b34801561046c575f80fd5b50610475610fb8565b60405161048291906117b8565b60405180910390f35b610493610fcb565b005b3480156104a0575f80fd5b506104bb60048036038101906104b6919061170d565b6112d7565b005b3480156104c8575f80fd5b506104d161135b565b6040516104de919061182c565b60405180910390f35b3480156104f2575f80fd5b506104fb611380565b005b6008544210610541576040517f08c379a00000000000000000000000000000000000000000000000000000000081526004016105389061189f565b60405180910390fd5b600d5f9054906101000a900460ff1615610590576040517f08c379a000000000000000000000000000000000000000000000000000000000815260040161058790611907565b60405180910390fd5b60045434101580156105a457506005543411155b6105e3576040517f08c379a00000000000000000000000000000000000000000000000000000000081526004016105da9061196f565b60405180910390fd5b5f34600b5f3373ffffffffffffffffffffffffffffffffffffffff1673ffffffffffffffffffffffffffffffffffffffff1681526020019081526020015f205461062d91906119ba565b9050600554811115610674576040517f08c379a000000000000000000000000000000000000000000000000000000000815260040161066b90611a5d565b60405180910390fd5b80600b5f3373ffffffffffffffffffffffffffffffffffffffff1673ffffffffffffffffffffffffffffffffffffffff1681526020019081526020015f20819055506002544711156106fb576040517f08c379a00000000000000000000000000000000000000000000000000000000081526004016106f290611ac5565b60405180910390fd5b5f610705346114ad565b905060015f9054906101000a900473ffffffffffffffffffffffffffffffffffffffff1673ffffffffffffffffffffffffffffffffffffffff1663a9059cbb33836040518363ffffffff1660e01b8152600401610763929190611ae3565b6020604051808303815f875af115801561077f573d5f803e3d5ffd5b505050506040513d601f19601f820116820180604052508101906107a39190611b34565b503373ffffffffffffffffffffffffffffffffffffffff167f17dbed7147e35a6b6887ff6124ff77b06f413095af19e1057e0ecf80722b456e828460016040516107ef93929190611b5f565b60405180910390a25050565b3373ffffffffffffffffffffffffffffffffffffffff1661081a610c49565b73ffffffffffffffffffffffffffffffffffffffff1614610870576040517f08c379a000000000000000000000000000000000000000000000000000000000815260040161086790611bde565b60405180910390fd5b6008544210156108b5576040517f08c379a00000000000000000000000000000000000000000000000000000000081526004016108ac90611c46565b60405180910390fd5b6001600d5f6101000a81548160ff02191690831515021790555042600981905550565b3373ffffffffffffffffffffffffffffffffffffffff166108f7610c49565b73ffffffffffffffffffffffffffffffffffffffff161461094d576040517f08c379a000000000000000000000000000000000000000000000000000000000815260040161094490611bde565b60405180910390fd5b5f811161098f576040517f08c379a000000000000000000000000000000000000000000000000000000000815260040161098690611cae565b60405180910390fd5b60015f9054906101000a900473ffffffffffffffffffffffffffffffffffffffff1673ffffffffffffffffffffffffffffffffffffffff1663a9059cbb83836040518363ffffffff1660e01b81526004016109eb929190611ae3565b6020604051808303815f875af1158015610a07573d5f803e3d5ffd5b505050506040513d601f19601f82011682018060405250810190610a2b9190611b34565b508173ffffffffffffffffffffffffffffffffffffffff167f16b0da2ffcb90c6723317bd637d9aad7f04711f42bbe0ac0918ebe10f1f9001c82604051610a7291906116f4565b60405180910390a25050565b600a5481565b60085481565b60065481565b3373ffffffffffffffffffffffffffffffffffffffff16610aaf610c49565b73ffffffffffffffffffffffffffffffffffffffff1614610b05576040517f08c379a0000000000000000000000000000000000000000000000000000000008152600401610afc90611bde565b60405180910390fd5b600a54421015610b4a576040517f08c379a0000000000000000000000000000000000000000000000000000000008152600401610b4190611d16565b60405180910390fd5b6001600d60016101000a81548160ff021916908315150217905550565b600c602052805f5260405f205f915090505481565b600b602052805f5260405f205f915090505481565b3373ffffffffffffffffffffffffffffffffffffffff16610bb0610c49565b73ffffffffffffffffffffffffffffffffffffffff1614610c06576040517f08c379a0000000000000000000000000000000000000000000000000000000008152600401610bfd90611bde565b60405180910390fd5b8160088190555080600a819055505050565b60025481565b60035481565b60095481565b60075481565b610c386114c7565b610c415f61154e565b565b60055481565b5f805f9054906101000a900473ffffffffffffffffffffffffffffffffffffffff16905090565b600d5f9054906101000a900460ff1681565b6008544210158015610ca05750600d5f9054906101000a900460ff16155b80610cc65750600a544210158015610cc55750600d60019054906101000a900460ff16155b5b610d05576040517f08c379a0000000000000000000000000000000000000000000000000000000008152600401610cfc90611d7e565b60405180910390fd5b5f600d5f9054906101000a900460ff168015610d5d57505f600b5f3373ffffffffffffffffffffffffffffffffffffffff1673ffffffffffffffffffffffffffffffffffffffff1681526020019081526020015f2054115b15610df057600b5f3373ffffffffffffffffffffffffffffffffffffffff1673ffffffffffffffffffffffffffffffffffffffff1681526020019081526020015f205481610dab91906119ba565b90505f600b5f3373ffffffffffffffffffffffffffffffffffffffff1673ffffffffffffffffffffffffffffffffffffffff1681526020019081526020015f20819055505b600d60019054906101000a900460ff168015610e4857505f600c5f3373ffffffffffffffffffffffffffffffffffffffff1673ffffffffffffffffffffffffffffffffffffffff1681526020019081526020015f2054115b15610edb57600c5f3373ffffffffffffffffffffffffffffffffffffffff1673ffffffffffffffffffffffffffffffffffffffff1681526020019081526020015f205481610e9691906119ba565b90505f600c5f3373ffffffffffffffffffffffffffffffffffffffff1673ffffffffffffffffffffffffffffffffffffffff1681526020019081526020015f20819055505b5f8111610f1d576040517f08c379a0000000000000000000000000000000000000000000000000000000008152600401610f1490611de6565b60405180910390fd5b3373ffffffffffffffffffffffffffffffffffffffff166108fc8290811502906040515f60405180830381858888f19350505050158015610f60573d5f803e3d5ffd5b503373ffffffffffffffffffffffffffffffffffffffff167f358fe4192934d3bf28ae181feda1f4bd08ca67f5e2fad55582cce5eb67304ae982604051610fa791906116f4565b60405180910390a250565b60045481565b600d60019054906101000a900460ff1681565b6009544210158015610fde5750600a5442105b61101d576040517f08c379a000000000000000000000000000000000000000000000000000000000815260040161101490611e4e565b60405180910390fd5b600d60019054906101000a900460ff161561106d576040517f08c379a000000000000000000000000000000000000000000000000000000000815260040161106490611eb6565b60405180910390fd5b600654341015801561108157506007543411155b6110c0576040517f08c379a00000000000000000000000000000000000000000000000000000000081526004016110b79061196f565b60405180910390fd5b5f34600c5f3373ffffffffffffffffffffffffffffffffffffffff1673ffffffffffffffffffffffffffffffffffffffff1681526020019081526020015f205461110a91906119ba565b9050600754811115611151576040517f08c379a000000000000000000000000000000000000000000000000000000000815260040161114890611a5d565b60405180910390fd5b80600c5f3373ffffffffffffffffffffffffffffffffffffffff1673ffffffffffffffffffffffffffffffffffffffff1681526020019081526020015f20819055506003544711156111d8576040517f08c379a00000000000000000000000000000000000000000000000000000000081526004016111cf90611f1e565b60405180910390fd5b5f6111e2346114ad565b905060015f9054906101000a900473ffffffffffffffffffffffffffffffffffffffff1673ffffffffffffffffffffffffffffffffffffffff1663a9059cbb33836040518363ffffffff1660e01b8152600401611240929190611ae3565b6020604051808303815f875af115801561125c573d5f803e3d5ffd5b505050506040513d601f19601f820116820180604052508101906112809190611b34565b503373ffffffffffffffffffffffffffffffffffffffff167f17dbed7147e35a6b6887ff6124ff77b06f413095af19e1057e0ecf80722b456e82845f6040516112cb93929190611b5f565b60405180910390a25050565b6112df6114c7565b5f73ffffffffffffffffffffffffffffffffffffffff168173ffffffffffffffffffffffffffffffffffffffff160361134f575f6040517f1e4fbdf70000000000000000000000000000000000000000000000000000000081526004016113469190611785565b60405180910390fd5b6113588161154e565b50565b60015f9054906101000a900473ffffffffffffffffffffffffffffffffffffffff1681565b3373ffffffffffffffffffffffffffffffffffffffff1661139f610c49565b73ffffffffffffffffffffffffffffffffffffffff16146113f5576040517f08c379a00000000000000000000000000000000000000000000000000000000081526004016113ec90611bde565b60405180910390fd5b60035460025461140591906119ba565b4711611446576040517f08c379a000000000000000000000000000000000000000000000000000000000815260040161143d90611f86565b60405180910390fd5b61144e610c49565b73ffffffffffffffffffffffffffffffffffffffff166108fc600354600254476114789190611fa4565b6114829190611fa4565b90811502906040515f60405180830381858888f193505050501580156114aa573d5f803e3d5ffd5b50565b5f806064905080836114bf9190611fd7565b915050919050565b6114cf61160f565b73ffffffffffffffffffffffffffffffffffffffff166114ed610c49565b73ffffffffffffffffffffffffffffffffffffffff161461154c5761151061160f565b6040517f118cdaa70000000000000000000000000000000000000000000000000000000081526004016115439190611785565b60405180910390fd5b565b5f805f9054906101000a900473ffffffffffffffffffffffffffffffffffffffff169050815f806101000a81548173ffffffffffffffffffffffffffffffffffffffff021916908373ffffffffffffffffffffffffffffffffffffffff1602179055508173ffffffffffffffffffffffffffffffffffffffff168173ffffffffffffffffffffffffffffffffffffffff167f8be0079c531659141344cd1fd0a4f28419497f9722a3daafe3b4186f6b6457e060405160405180910390a35050565b5f33905090565b5f80fd5b5f73ffffffffffffffffffffffffffffffffffffffff82169050919050565b5f6116438261161a565b9050919050565b61165381611639565b811461165d575f80fd5b50565b5f8135905061166e8161164a565b92915050565b5f819050919050565b61168681611674565b8114611690575f80fd5b50565b5f813590506116a18161167d565b92915050565b5f80604083850312156116bd576116bc611616565b5b5f6116ca85828601611660565b92505060206116db85828601611693565b9150509250929050565b6116ee81611674565b82525050565b5f6020820190506117075f8301846116e5565b92915050565b5f6020828403121561172257611721611616565b5b5f61172f84828501611660565b91505092915050565b5f806040838503121561174e5761174d611616565b5b5f61175b85828601611693565b925050602061176c85828601611693565b9150509250929050565b61177f81611639565b82525050565b5f6020820190506117985f830184611776565b92915050565b5f8115159050919050565b6117b28161179e565b82525050565b5f6020820190506117cb5f8301846117a9565b92915050565b5f819050919050565b5f6117f46117ef6117ea8461161a565b6117d1565b61161a565b9050919050565b5f611805826117da565b9050919050565b5f611816826117fb565b9050919050565b6118268161180c565b82525050565b5f60208201905061183f5f83018461181d565b92915050565b5f82825260208201905092915050565b7f50726573616c652068617320656e6465640000000000000000000000000000005f82015250565b5f611889601183611845565b915061189482611855565b602082019050919050565b5f6020820190508181035f8301526118b68161187d565b9050919050565b7f50726573616c6520697320636c6f7365640000000000000000000000000000005f82015250565b5f6118f1601183611845565b91506118fc826118bd565b602082019050919050565b5f6020820190508181035f83015261191e816118e5565b9050919050565b7f496e76616c696420636f6e747269627574696f6e20616d6f756e7400000000005f82015250565b5f611959601b83611845565b915061196482611925565b602082019050919050565b5f6020820190508181035f8301526119868161194d565b9050919050565b7f4e487b71000000000000000000000000000000000000000000000000000000005f52601160045260245ffd5b5f6119c482611674565b91506119cf83611674565b92508282019050808211156119e7576119e661198d565b5b92915050565b7f4578636565646564206d6178696d756d20636f6e747269627574696f6e206c695f8201527f6d69740000000000000000000000000000000000000000000000000000000000602082015250565b5f611a47602383611845565b9150611a52826119ed565b604082019050919050565b5f6020820190508181035f830152611a7481611a3b565b9050919050565b7f50726573616c65206361702072656163686564000000000000000000000000005f82015250565b5f611aaf601383611845565b9150611aba82611a7b565b602082019050919050565b5f6020820190508181035f830152611adc81611aa3565b9050919050565b5f604082019050611af65f830185611776565b611b0360208301846116e5565b9392505050565b611b138161179e565b8114611b1d575f80fd5b50565b5f81519050611b2e81611b0a565b92915050565b5f60208284031215611b4957611b48611616565b5b5f611b5684828501611b20565b91505092915050565b5f606082019050611b725f8301866116e5565b611b7f60208301856116e5565b611b8c60408301846117a9565b949350505050565b7f43616c6c6572206973206e6f7420746865206f776e65720000000000000000005f82015250565b5f611bc8601783611845565b9150611bd382611b94565b602082019050919050565b5f6020820190508181035f830152611bf581611bbc565b9050919050565b7f50726573616c65206973207374696c6c206163746976650000000000000000005f82015250565b5f611c30601783611845565b9150611c3b82611bfc565b602082019050919050565b5f6020820190508181035f830152611c5d81611c24565b9050919050565b7f416d6f756e742073686f756c642062652067726561746572207468616e2030005f82015250565b5f611c98601f83611845565b9150611ca382611c64565b602082019050919050565b5f6020820190508181035f830152611cc581611c8c565b9050919050565b7f5075626c69632073616c65206973207374696c6c2061637469766500000000005f82015250565b5f611d00601b83611845565b9150611d0b82611ccc565b602082019050919050565b5f6020820190508181035f830152611d2d81611cf4565b9050919050565b7f526566756e64206e6f7420616c6c6f77656420796574000000000000000000005f82015250565b5f611d68601683611845565b9150611d7382611d34565b602082019050919050565b5f6020820190508181035f830152611d9581611d5c565b9050919050565b7f4e6f20726566756e6420617661696c61626c65000000000000000000000000005f82015250565b5f611dd0601383611845565b9150611ddb82611d9c565b602082019050919050565b5f6020820190508181035f830152611dfd81611dc4565b9050919050565b7f5075626c69632073616c65206973206e6f7420616374697665000000000000005f82015250565b5f611e38601983611845565b9150611e4382611e04565b602082019050919050565b5f6020820190508181035f830152611e6581611e2c565b9050919050565b7f5075626c69632073616c6520697320636c6f73656400000000000000000000005f82015250565b5f611ea0601583611845565b9150611eab82611e6c565b602082019050919050565b5f6020820190508181035f830152611ecd81611e94565b9050919050565b7f5075626c69632073616c652063617020726561636865640000000000000000005f82015250565b5f611f08601783611845565b9150611f1382611ed4565b602082019050919050565b5f6020820190508181035f830152611f3581611efc565b9050919050565b7f4e6f206578636573732066756e647300000000000000000000000000000000005f82015250565b5f611f70600f83611845565b9150611f7b82611f3c565b602082019050919050565b5f6020820190508181035f830152611f9d81611f64565b9050919050565b5f611fae82611674565b9150611fb983611674565b9250828203905081811115611fd157611fd061198d565b5b92915050565b5f611fe182611674565b9150611fec83611674565b9250828202611ffa81611674565b915082820484148315176120115761201061198d565b5b509291505056fea26469706673582212209fbbdb7ebeab067683b6c2695034b5872d9569ab05a92275241774b539f0f74f64736f6c63430008160033",
			"opcodes": "PUSH1 0x80 PUSH1 0x40 MSTORE PUSH0 PUSH1 0xD PUSH0 PUSH2 0x100 EXP DUP2 SLOAD DUP2 PUSH1 0xFF MUL NOT AND SWAP1 DUP4 ISZERO ISZERO MUL OR SWAP1 SSTORE POP PUSH0 PUSH1 0xD PUSH1 0x1 PUSH2 0x100 EXP DUP2 SLOAD DUP2 PUSH1 0xFF MUL NOT AND SWAP1 DUP4 ISZERO ISZERO MUL OR SWAP1 SSTORE POP CALLVALUE DUP1 ISZERO PUSH3 0x43 JUMPI PUSH0 DUP1 REVERT JUMPDEST POP PUSH1 0x40 MLOAD PUSH3 0x24AD CODESIZE SUB DUP1 PUSH3 0x24AD DUP4 CODECOPY DUP2 DUP2 ADD PUSH1 0x40 MSTORE DUP2 ADD SWAP1 PUSH3 0x69 SWAP2 SWAP1 PUSH3 0x31F JUMP JUMPDEST DUP1 PUSH0 PUSH20 0xFFFFFFFFFFFFFFFFFFFFFFFFFFFFFFFFFFFFFFFF AND DUP2 PUSH20 0xFFFFFFFFFFFFFFFFFFFFFFFFFFFFFFFFFFFFFFFF AND SUB PUSH3 0xDD JUMPI PUSH0 PUSH1 0x40 MLOAD PUSH32 0x1E4FBDF700000000000000000000000000000000000000000000000000000000 DUP2 MSTORE PUSH1 0x4 ADD PUSH3 0xD4 SWAP2 SWAP1 PUSH3 0x436 JUMP JUMPDEST PUSH1 0x40 MLOAD DUP1 SWAP2 SUB SWAP1 REVERT JUMPDEST PUSH3 0xEE DUP2 PUSH3 0x17F PUSH1 0x20 SHL PUSH1 0x20 SHR JUMP JUMPDEST POP DUP11 PUSH1 0x1 PUSH0 PUSH2 0x100 EXP DUP2 SLOAD DUP2 PUSH20 0xFFFFFFFFFFFFFFFFFFFFFFFFFFFFFFFFFFFFFFFF MUL NOT AND SWAP1 DUP4 PUSH20 0xFFFFFFFFFFFFFFFFFFFFFFFFFFFFFFFFFFFFFFFF AND MUL OR SWAP1 SSTORE POP DUP10 PUSH1 0x2 DUP2 SWAP1 SSTORE POP DUP9 PUSH1 0x3 DUP2 SWAP1 SSTORE POP DUP8 PUSH1 0x4 DUP2 SWAP1 SSTORE POP DUP7 PUSH1 0x5 DUP2 SWAP1 SSTORE POP DUP6 PUSH1 0x6 DUP2 SWAP1 SSTORE POP DUP5 PUSH1 0x7 DUP2 SWAP1 SSTORE POP DUP4 PUSH1 0x8 DUP2 SWAP1 SSTORE POP DUP3 PUSH1 0x9 DUP2 SWAP1 SSTORE POP DUP2 PUSH1 0xA DUP2 SWAP1 SSTORE POP POP POP POP POP POP POP POP POP POP POP POP PUSH3 0x451 JUMP JUMPDEST PUSH0 DUP1 PUSH0 SWAP1 SLOAD SWAP1 PUSH2 0x100 EXP SWAP1 DIV PUSH20 0xFFFFFFFFFFFFFFFFFFFFFFFFFFFFFFFFFFFFFFFF AND SWAP1 POP DUP2 PUSH0 DUP1 PUSH2 0x100 EXP DUP2 SLOAD DUP2 PUSH20 0xFFFFFFFFFFFFFFFFFFFFFFFFFFFFFFFFFFFFFFFF MUL NOT AND SWAP1 DUP4 PUSH20 0xFFFFFFFFFFFFFFFFFFFFFFFFFFFFFFFFFFFFFFFF AND MUL OR SWAP1 SSTORE POP DUP2 PUSH20 0xFFFFFFFFFFFFFFFFFFFFFFFFFFFFFFFFFFFFFFFF AND DUP2 PUSH20 0xFFFFFFFFFFFFFFFFFFFFFFFFFFFFFFFFFFFFFFFF AND PUSH32 0x8BE0079C531659141344CD1FD0A4F28419497F9722A3DAAFE3B4186F6B6457E0 PUSH1 0x40 MLOAD PUSH1 0x40 MLOAD DUP1 SWAP2 SUB SWAP1 LOG3 POP POP JUMP JUMPDEST PUSH0 DUP1 REVERT JUMPDEST PUSH0 PUSH20 0xFFFFFFFFFFFFFFFFFFFFFFFFFFFFFFFFFFFFFFFF DUP3 AND SWAP1 POP SWAP2 SWAP1 POP JUMP JUMPDEST PUSH0 PUSH3 0x26F DUP3 PUSH3 0x244 JUMP JUMPDEST SWAP1 POP SWAP2 SWAP1 POP JUMP JUMPDEST PUSH0 PUSH3 0x282 DUP3 PUSH3 0x263 JUMP JUMPDEST SWAP1 POP SWAP2 SWAP1 POP JUMP JUMPDEST PUSH3 0x294 DUP2 PUSH3 0x276 JUMP JUMPDEST DUP2 EQ PUSH3 0x29F JUMPI PUSH0 DUP1 REVERT JUMPDEST POP JUMP JUMPDEST PUSH0 DUP2 MLOAD SWAP1 POP PUSH3 0x2B2 DUP2 PUSH3 0x289 JUMP JUMPDEST SWAP3 SWAP2 POP POP JUMP JUMPDEST PUSH0 DUP2 SWAP1 POP SWAP2 SWAP1 POP JUMP JUMPDEST PUSH3 0x2CC DUP2 PUSH3 0x2B8 JUMP JUMPDEST DUP2 EQ PUSH3 0x2D7 JUMPI PUSH0 DUP1 REVERT JUMPDEST POP JUMP JUMPDEST PUSH0 DUP2 MLOAD SWAP1 POP PUSH3 0x2EA DUP2 PUSH3 0x2C1 JUMP JUMPDEST SWAP3 SWAP2 POP POP JUMP JUMPDEST PUSH3 0x2FB DUP2 PUSH3 0x263 JUMP JUMPDEST DUP2 EQ PUSH3 0x306 JUMPI PUSH0 DUP1 REVERT JUMPDEST POP JUMP JUMPDEST PUSH0 DUP2 MLOAD SWAP1 POP PUSH3 0x319 DUP2 PUSH3 0x2F0 JUMP JUMPDEST SWAP3 SWAP2 POP POP JUMP JUMPDEST PUSH0 DUP1 PUSH0 DUP1 PUSH0 DUP1 PUSH0 DUP1 PUSH0 DUP1 PUSH0 PUSH2 0x160 DUP13 DUP15 SUB SLT ISZERO PUSH3 0x342 JUMPI PUSH3 0x341 PUSH3 0x240 JUMP JUMPDEST JUMPDEST PUSH0 PUSH3 0x351 DUP15 DUP3 DUP16 ADD PUSH3 0x2A2 JUMP JUMPDEST SWAP12 POP POP PUSH1 0x20 PUSH3 0x364 DUP15 DUP3 DUP16 ADD PUSH3 0x2DA JUMP JUMPDEST SWAP11 POP POP PUSH1 0x40 PUSH3 0x377 DUP15 DUP3 DUP16 ADD PUSH3 0x2DA JUMP JUMPDEST SWAP10 POP POP PUSH1 0x60 PUSH3 0x38A DUP15 DUP3 DUP16 ADD PUSH3 0x2DA JUMP JUMPDEST SWAP9 POP POP PUSH1 0x80 PUSH3 0x39D DUP15 DUP3 DUP16 ADD PUSH3 0x2DA JUMP JUMPDEST SWAP8 POP POP PUSH1 0xA0 PUSH3 0x3B0 DUP15 DUP3 DUP16 ADD PUSH3 0x2DA JUMP JUMPDEST SWAP7 POP POP PUSH1 0xC0 PUSH3 0x3C3 DUP15 DUP3 DUP16 ADD PUSH3 0x2DA JUMP JUMPDEST SWAP6 POP POP PUSH1 0xE0 PUSH3 0x3D6 DUP15 DUP3 DUP16 ADD PUSH3 0x2DA JUMP JUMPDEST SWAP5 POP POP PUSH2 0x100 PUSH3 0x3EA DUP15 DUP3 DUP16 ADD PUSH3 0x2DA JUMP JUMPDEST SWAP4 POP POP PUSH2 0x120 PUSH3 0x3FE DUP15 DUP3 DUP16 ADD PUSH3 0x2DA JUMP JUMPDEST SWAP3 POP POP PUSH2 0x140 PUSH3 0x412 DUP15 DUP3 DUP16 ADD PUSH3 0x309 JUMP JUMPDEST SWAP2 POP POP SWAP3 SWAP6 SWAP9 SWAP12 POP SWAP3 SWAP6 SWAP9 SWAP12 SWAP1 SWAP4 SWAP7 SWAP10 POP JUMP JUMPDEST PUSH3 0x430 DUP2 PUSH3 0x263 JUMP JUMPDEST DUP3 MSTORE POP POP JUMP JUMPDEST PUSH0 PUSH1 0x20 DUP3 ADD SWAP1 POP PUSH3 0x44B PUSH0 DUP4 ADD DUP5 PUSH3 0x425 JUMP JUMPDEST SWAP3 SWAP2 POP POP JUMP JUMPDEST PUSH2 0x204E DUP1 PUSH3 0x45F PUSH0 CODECOPY PUSH0 RETURN INVALID PUSH1 0x80 PUSH1 0x40 MSTORE PUSH1 0x4 CALLDATASIZE LT PUSH2 0x165 JUMPI PUSH0 CALLDATALOAD PUSH1 0xE0 SHR DUP1 PUSH4 0x6BB7B1D9 GT PUSH2 0xD0 JUMPI DUP1 PUSH4 0xB5545A3C GT PUSH2 0x89 JUMPI DUP1 PUSH4 0xE59C9510 GT PUSH2 0x63 JUMPI DUP1 PUSH4 0xE59C9510 EQ PUSH2 0x48B JUMPI DUP1 PUSH4 0xF2FDE38B EQ PUSH2 0x495 JUMPI DUP1 PUSH4 0xFC0C546A EQ PUSH2 0x4BD JUMPI DUP1 PUSH4 0xFCB67C5B EQ PUSH2 0x4E7 JUMPI PUSH2 0x165 JUMP JUMPDEST DUP1 PUSH4 0xB5545A3C EQ PUSH2 0x421 JUMPI DUP1 PUSH4 0xC4849847 EQ PUSH2 0x437 JUMPI DUP1 PUSH4 0xCCF125D8 EQ PUSH2 0x461 JUMPI PUSH2 0x165 JUMP JUMPDEST DUP1 PUSH4 0x6BB7B1D9 EQ PUSH2 0x339 JUMPI DUP1 PUSH4 0x7146E4FA EQ PUSH2 0x363 JUMPI DUP1 PUSH4 0x715018A6 EQ PUSH2 0x38D JUMPI DUP1 PUSH4 0x87E449C3 EQ PUSH2 0x3A3 JUMPI DUP1 PUSH4 0x8DA5CB5B EQ PUSH2 0x3CD JUMPI DUP1 PUSH4 0xABD2CC5F EQ PUSH2 0x3F7 JUMPI PUSH2 0x165 JUMP JUMPDEST DUP1 PUSH4 0x2AF89179 GT PUSH2 0x122 JUMPI DUP1 PUSH4 0x2AF89179 EQ PUSH2 0x22F JUMPI DUP1 PUSH4 0x35F74869 EQ PUSH2 0x245 JUMPI DUP1 PUSH4 0x477F1EBA EQ PUSH2 0x281 JUMPI DUP1 PUSH4 0x5E4D3B4B EQ PUSH2 0x2BD JUMPI DUP1 PUSH4 0x63D5502F EQ PUSH2 0x2E5 JUMPI DUP1 PUSH4 0x64826B7A EQ PUSH2 0x30F JUMPI PUSH2 0x165 JUMP JUMPDEST DUP1 PUSH4 0x269D3B4 EQ PUSH2 0x169 JUMPI DUP1 PUSH4 0x1207C90D EQ PUSH2 0x173 JUMPI DUP1 PUSH4 0x158A4988 EQ PUSH2 0x189 JUMPI DUP1 PUSH4 0x1E4D185F EQ PUSH2 0x1B1 JUMPI DUP1 PUSH4 0x249B7C19 EQ PUSH2 0x1DB JUMPI DUP1 PUSH4 0x2A517AB2 EQ PUSH2 0x205 JUMPI JUMPDEST PUSH0 DUP1 REVERT JUMPDEST PUSH2 0x171 PUSH2 0x4FD JUMP JUMPDEST STOP JUMPDEST CALLVALUE DUP1 ISZERO PUSH2 0x17E JUMPI PUSH0 DUP1 REVERT JUMPDEST POP PUSH2 0x187 PUSH2 0x7FB JUMP JUMPDEST STOP JUMPDEST CALLVALUE DUP1 ISZERO PUSH2 0x194 JUMPI PUSH0 DUP1 REVERT JUMPDEST POP PUSH2 0x1AF PUSH1 0x4 DUP1 CALLDATASIZE SUB DUP2 ADD SWAP1 PUSH2 0x1AA SWAP2 SWAP1 PUSH2 0x16A7 JUMP JUMPDEST PUSH2 0x8D8 JUMP JUMPDEST STOP JUMPDEST CALLVALUE DUP1 ISZERO PUSH2 0x1BC JUMPI PUSH0 DUP1 REVERT JUMPDEST POP PUSH2 0x1C5 PUSH2 0xA7E JUMP JUMPDEST PUSH1 0x40 MLOAD PUSH2 0x1D2 SWAP2 SWAP1 PUSH2 0x16F4 JUMP JUMPDEST PUSH1 0x40 MLOAD DUP1 SWAP2 SUB SWAP1 RETURN JUMPDEST CALLVALUE DUP1 ISZERO PUSH2 0x1E6 JUMPI PUSH0 DUP1 REVERT JUMPDEST POP PUSH2 0x1EF PUSH2 0xA84 JUMP JUMPDEST PUSH1 0x40 MLOAD PUSH2 0x1FC SWAP2 SWAP1 PUSH2 0x16F4 JUMP JUMPDEST PUSH1 0x40 MLOAD DUP1 SWAP2 SUB SWAP1 RETURN JUMPDEST CALLVALUE DUP1 ISZERO PUSH2 0x210 JUMPI PUSH0 DUP1 REVERT JUMPDEST POP PUSH2 0x219 PUSH2 0xA8A JUMP JUMPDEST PUSH1 0x40 MLOAD PUSH2 0x226 SWAP2 SWAP1 PUSH2 0x16F4 JUMP JUMPDEST PUSH1 0x40 MLOAD DUP1 SWAP2 SUB SWAP1 RETURN JUMPDEST CALLVALUE DUP1 ISZERO PUSH2 0x23A JUMPI PUSH0 DUP1 REVERT JUMPDEST POP PUSH2 0x243 PUSH2 0xA90 JUMP JUMPDEST STOP JUMPDEST CALLVALUE DUP1 ISZERO PUSH2 0x250 JUMPI PUSH0 DUP1 REVERT JUMPDEST POP PUSH2 0x26B PUSH1 0x4 DUP1 CALLDATASIZE SUB DUP2 ADD SWAP1 PUSH2 0x266 SWAP2 SWAP1 PUSH2 0x170D JUMP JUMPDEST PUSH2 0xB67 JUMP JUMPDEST PUSH1 0x40 MLOAD PUSH2 0x278 SWAP2 SWAP1 PUSH2 0x16F4 JUMP JUMPDEST PUSH1 0x40 MLOAD DUP1 SWAP2 SUB SWAP1 RETURN JUMPDEST CALLVALUE DUP1 ISZERO PUSH2 0x28C JUMPI PUSH0 DUP1 REVERT JUMPDEST POP PUSH2 0x2A7 PUSH1 0x4 DUP1 CALLDATASIZE SUB DUP2 ADD SWAP1 PUSH2 0x2A2 SWAP2 SWAP1 PUSH2 0x170D JUMP JUMPDEST PUSH2 0xB7C JUMP JUMPDEST PUSH1 0x40 MLOAD PUSH2 0x2B4 SWAP2 SWAP1 PUSH2 0x16F4 JUMP JUMPDEST PUSH1 0x40 MLOAD DUP1 SWAP2 SUB SWAP1 RETURN JUMPDEST CALLVALUE DUP1 ISZERO PUSH2 0x2C8 JUMPI PUSH0 DUP1 REVERT JUMPDEST POP PUSH2 0x2E3 PUSH1 0x4 DUP1 CALLDATASIZE SUB DUP2 ADD SWAP1 PUSH2 0x2DE SWAP2 SWAP1 PUSH2 0x1738 JUMP JUMPDEST PUSH2 0xB91 JUMP JUMPDEST STOP JUMPDEST CALLVALUE DUP1 ISZERO PUSH2 0x2F0 JUMPI PUSH0 DUP1 REVERT JUMPDEST POP PUSH2 0x2F9 PUSH2 0xC18 JUMP JUMPDEST PUSH1 0x40 MLOAD PUSH2 0x306 SWAP2 SWAP1 PUSH2 0x16F4 JUMP JUMPDEST PUSH1 0x40 MLOAD DUP1 SWAP2 SUB SWAP1 RETURN JUMPDEST CALLVALUE DUP1 ISZERO PUSH2 0x31A JUMPI PUSH0 DUP1 REVERT JUMPDEST POP PUSH2 0x323 PUSH2 0xC1E JUMP JUMPDEST PUSH1 0x40 MLOAD PUSH2 0x330 SWAP2 SWAP1 PUSH2 0x16F4 JUMP JUMPDEST PUSH1 0x40 MLOAD DUP1 SWAP2 SUB SWAP1 RETURN JUMPDEST CALLVALUE DUP1 ISZERO PUSH2 0x344 JUMPI PUSH0 DUP1 REVERT JUMPDEST POP PUSH2 0x34D PUSH2 0xC24 JUMP JUMPDEST PUSH1 0x40 MLOAD PUSH2 0x35A SWAP2 SWAP1 PUSH2 0x16F4 JUMP JUMPDEST PUSH1 0x40 MLOAD DUP1 SWAP2 SUB SWAP1 RETURN JUMPDEST CALLVALUE DUP1 ISZERO PUSH2 0x36E JUMPI PUSH0 DUP1 REVERT JUMPDEST POP PUSH2 0x377 PUSH2 0xC2A JUMP JUMPDEST PUSH1 0x40 MLOAD PUSH2 0x384 SWAP2 SWAP1 PUSH2 0x16F4 JUMP JUMPDEST PUSH1 0x40 MLOAD DUP1 SWAP2 SUB SWAP1 RETURN JUMPDEST CALLVALUE DUP1 ISZERO PUSH2 0x398 JUMPI PUSH0 DUP1 REVERT JUMPDEST POP PUSH2 0x3A1 PUSH2 0xC30 JUMP JUMPDEST STOP JUMPDEST CALLVALUE DUP1 ISZERO PUSH2 0x3AE JUMPI PUSH0 DUP1 REVERT JUMPDEST POP PUSH2 0x3B7 PUSH2 0xC43 JUMP JUMPDEST PUSH1 0x40 MLOAD PUSH2 0x3C4 SWAP2 SWAP1 PUSH2 0x16F4 JUMP JUMPDEST PUSH1 0x40 MLOAD DUP1 SWAP2 SUB SWAP1 RETURN JUMPDEST CALLVALUE DUP1 ISZERO PUSH2 0x3D8 JUMPI PUSH0 DUP1 REVERT JUMPDEST POP PUSH2 0x3E1 PUSH2 0xC49 JUMP JUMPDEST PUSH1 0x40 MLOAD PUSH2 0x3EE SWAP2 SWAP1 PUSH2 0x1785 JUMP JUMPDEST PUSH1 0x40 MLOAD DUP1 SWAP2 SUB SWAP1 RETURN JUMPDEST CALLVALUE DUP1 ISZERO PUSH2 0x402 JUMPI PUSH0 DUP1 REVERT JUMPDEST POP PUSH2 0x40B PUSH2 0xC70 JUMP JUMPDEST PUSH1 0x40 MLOAD PUSH2 0x418 SWAP2 SWAP1 PUSH2 0x17B8 JUMP JUMPDEST PUSH1 0x40 MLOAD DUP1 SWAP2 SUB SWAP1 RETURN JUMPDEST CALLVALUE DUP1 ISZERO PUSH2 0x42C JUMPI PUSH0 DUP1 REVERT JUMPDEST POP PUSH2 0x435 PUSH2 0xC82 JUMP JUMPDEST STOP JUMPDEST CALLVALUE DUP1 ISZERO PUSH2 0x442 JUMPI PUSH0 DUP1 REVERT JUMPDEST POP PUSH2 0x44B PUSH2 0xFB2 JUMP JUMPDEST PUSH1 0x40 MLOAD PUSH2 0x458 SWAP2 SWAP1 PUSH2 0x16F4 JUMP JUMPDEST PUSH1 0x40 MLOAD DUP1 SWAP2 SUB SWAP1 RETURN JUMPDEST CALLVALUE DUP1 ISZERO PUSH2 0x46C JUMPI PUSH0 DUP1 REVERT JUMPDEST POP PUSH2 0x475 PUSH2 0xFB8 JUMP JUMPDEST PUSH1 0x40 MLOAD PUSH2 0x482 SWAP2 SWAP1 PUSH2 0x17B8 JUMP JUMPDEST PUSH1 0x40 MLOAD DUP1 SWAP2 SUB SWAP1 RETURN JUMPDEST PUSH2 0x493 PUSH2 0xFCB JUMP JUMPDEST STOP JUMPDEST CALLVALUE DUP1 ISZERO PUSH2 0x4A0 JUMPI PUSH0 DUP1 REVERT JUMPDEST POP PUSH2 0x4BB PUSH1 0x4 DUP1 CALLDATASIZE SUB DUP2 ADD SWAP1 PUSH2 0x4B6 SWAP2 SWAP1 PUSH2 0x170D JUMP JUMPDEST PUSH2 0x12D7 JUMP JUMPDEST STOP JUMPDEST CALLVALUE DUP1 ISZERO PUSH2 0x4C8 JUMPI PUSH0 DUP1 REVERT JUMPDEST POP PUSH2 0x4D1 PUSH2 0x135B JUMP JUMPDEST PUSH1 0x40 MLOAD PUSH2 0x4DE SWAP2 SWAP1 PUSH2 0x182C JUMP JUMPDEST PUSH1 0x40 MLOAD DUP1 SWAP2 SUB SWAP1 RETURN JUMPDEST CALLVALUE DUP1 ISZERO PUSH2 0x4F2 JUMPI PUSH0 DUP1 REVERT JUMPDEST POP PUSH2 0x4FB PUSH2 0x1380 JUMP JUMPDEST STOP JUMPDEST PUSH1 0x8 SLOAD TIMESTAMP LT PUSH2 0x541 JUMPI PUSH1 0x40 MLOAD PUSH32 0x8C379A000000000000000000000000000000000000000000000000000000000 DUP2 MSTORE PUSH1 0x4 ADD PUSH2 0x538 SWAP1 PUSH2 0x189F JUMP JUMPDEST PUSH1 0x40 MLOAD DUP1 SWAP2 SUB SWAP1 REVERT JUMPDEST PUSH1 0xD PUSH0 SWAP1 SLOAD SWAP1 PUSH2 0x100 EXP SWAP1 DIV PUSH1 0xFF AND ISZERO PUSH2 0x590 JUMPI PUSH1 0x40 MLOAD PUSH32 0x8C379A000000000000000000000000000000000000000000000000000000000 DUP2 MSTORE PUSH1 0x4 ADD PUSH2 0x587 SWAP1 PUSH2 0x1907 JUMP JUMPDEST PUSH1 0x40 MLOAD DUP1 SWAP2 SUB SWAP1 REVERT JUMPDEST PUSH1 0x4 SLOAD CALLVALUE LT ISZERO DUP1 ISZERO PUSH2 0x5A4 JUMPI POP PUSH1 0x5 SLOAD CALLVALUE GT ISZERO JUMPDEST PUSH2 0x5E3 JUMPI PUSH1 0x40 MLOAD PUSH32 0x8C379A000000000000000000000000000000000000000000000000000000000 DUP2 MSTORE PUSH1 0x4 ADD PUSH2 0x5DA SWAP1 PUSH2 0x196F JUMP JUMPDEST PUSH1 0x40 MLOAD DUP1 SWAP2 SUB SWAP1 REVERT JUMPDEST PUSH0 CALLVALUE PUSH1 0xB PUSH0 CALLER PUSH20 0xFFFFFFFFFFFFFFFFFFFFFFFFFFFFFFFFFFFFFFFF AND PUSH20 0xFFFFFFFFFFFFFFFFFFFFFFFFFFFFFFFFFFFFFFFF AND DUP2 MSTORE PUSH1 0x20 ADD SWAP1 DUP2 MSTORE PUSH1 0x20 ADD PUSH0 KECCAK256 SLOAD PUSH2 0x62D SWAP2 SWAP1 PUSH2 0x19BA JUMP JUMPDEST SWAP1 POP PUSH1 0x5 SLOAD DUP2 GT ISZERO PUSH2 0x674 JUMPI PUSH1 0x40 MLOAD PUSH32 0x8C379A000000000000000000000000000000000000000000000000000000000 DUP2 MSTORE PUSH1 0x4 ADD PUSH2 0x66B SWAP1 PUSH2 0x1A5D JUMP JUMPDEST PUSH1 0x40 MLOAD DUP1 SWAP2 SUB SWAP1 REVERT JUMPDEST DUP1 PUSH1 0xB PUSH0 CALLER PUSH20 0xFFFFFFFFFFFFFFFFFFFFFFFFFFFFFFFFFFFFFFFF AND PUSH20 0xFFFFFFFFFFFFFFFFFFFFFFFFFFFFFFFFFFFFFFFF AND DUP2 MSTORE PUSH1 0x20 ADD SWAP1 DUP2 MSTORE PUSH1 0x20 ADD PUSH0 KECCAK256 DUP2 SWAP1 SSTORE POP PUSH1 0x2 SLOAD SELFBALANCE GT ISZERO PUSH2 0x6FB JUMPI PUSH1 0x40 MLOAD PUSH32 0x8C379A000000000000000000000000000000000000000000000000000000000 DUP2 MSTORE PUSH1 0x4 ADD PUSH2 0x6F2 SWAP1 PUSH2 0x1AC5 JUMP JUMPDEST PUSH1 0x40 MLOAD DUP1 SWAP2 SUB SWAP1 REVERT JUMPDEST PUSH0 PUSH2 0x705 CALLVALUE PUSH2 0x14AD JUMP JUMPDEST SWAP1 POP PUSH1 0x1 PUSH0 SWAP1 SLOAD SWAP1 PUSH2 0x100 EXP SWAP1 DIV PUSH20 0xFFFFFFFFFFFFFFFFFFFFFFFFFFFFFFFFFFFFFFFF AND PUSH20 0xFFFFFFFFFFFFFFFFFFFFFFFFFFFFFFFFFFFFFFFF AND PUSH4 0xA9059CBB CALLER DUP4 PUSH1 0x40 MLOAD DUP4 PUSH4 0xFFFFFFFF AND PUSH1 0xE0 SHL DUP2 MSTORE PUSH1 0x4 ADD PUSH2 0x763 SWAP3 SWAP2 SWAP1 PUSH2 0x1AE3 JUMP JUMPDEST PUSH1 0x20 PUSH1 0x40 MLOAD DUP1 DUP4 SUB DUP2 PUSH0 DUP8 GAS CALL ISZERO DUP1 ISZERO PUSH2 0x77F JUMPI RETURNDATASIZE PUSH0 DUP1 RETURNDATACOPY RETURNDATASIZE PUSH0 REVERT JUMPDEST POP POP POP POP PUSH1 0x40 MLOAD RETURNDATASIZE PUSH1 0x1F NOT PUSH1 0x1F DUP3 ADD AND DUP3 ADD DUP1 PUSH1 0x40 MSTORE POP DUP2 ADD SWAP1 PUSH2 0x7A3 SWAP2 SWAP1 PUSH2 0x1B34 JUMP JUMPDEST POP CALLER PUSH20 0xFFFFFFFFFFFFFFFFFFFFFFFFFFFFFFFFFFFFFFFF AND PUSH32 0x17DBED7147E35A6B6887FF6124FF77B06F413095AF19E1057E0ECF80722B456E DUP3 DUP5 PUSH1 0x1 PUSH1 0x40 MLOAD PUSH2 0x7EF SWAP4 SWAP3 SWAP2 SWAP1 PUSH2 0x1B5F JUMP JUMPDEST PUSH1 0x40 MLOAD DUP1 SWAP2 SUB SWAP1 LOG2 POP POP JUMP JUMPDEST CALLER PUSH20 0xFFFFFFFFFFFFFFFFFFFFFFFFFFFFFFFFFFFFFFFF AND PUSH2 0x81A PUSH2 0xC49 JUMP JUMPDEST PUSH20 0xFFFFFFFFFFFFFFFFFFFFFFFFFFFFFFFFFFFFFFFF AND EQ PUSH2 0x870 JUMPI PUSH1 0x40 MLOAD PUSH32 0x8C379A000000000000000000000000000000000000000000000000000000000 DUP2 MSTORE PUSH1 0x4 ADD PUSH2 0x867 SWAP1 PUSH2 0x1BDE JUMP JUMPDEST PUSH1 0x40 MLOAD DUP1 SWAP2 SUB SWAP1 REVERT JUMPDEST PUSH1 0x8 SLOAD TIMESTAMP LT ISZERO PUSH2 0x8B5 JUMPI PUSH1 0x40 MLOAD PUSH32 0x8C379A000000000000000000000000000000000000000000000000000000000 DUP2 MSTORE PUSH1 0x4 ADD PUSH2 0x8AC SWAP1 PUSH2 0x1C46 JUMP JUMPDEST PUSH1 0x40 MLOAD DUP1 SWAP2 SUB SWAP1 REVERT JUMPDEST PUSH1 0x1 PUSH1 0xD PUSH0 PUSH2 0x100 EXP DUP2 SLOAD DUP2 PUSH1 0xFF MUL NOT AND SWAP1 DUP4 ISZERO ISZERO MUL OR SWAP1 SSTORE POP TIMESTAMP PUSH1 0x9 DUP2 SWAP1 SSTORE POP JUMP JUMPDEST CALLER PUSH20 0xFFFFFFFFFFFFFFFFFFFFFFFFFFFFFFFFFFFFFFFF AND PUSH2 0x8F7 PUSH2 0xC49 JUMP JUMPDEST PUSH20 0xFFFFFFFFFFFFFFFFFFFFFFFFFFFFFFFFFFFFFFFF AND EQ PUSH2 0x94D JUMPI PUSH1 0x40 MLOAD PUSH32 0x8C379A000000000000000000000000000000000000000000000000000000000 DUP2 MSTORE PUSH1 0x4 ADD PUSH2 0x944 SWAP1 PUSH2 0x1BDE JUMP JUMPDEST PUSH1 0x40 MLOAD DUP1 SWAP2 SUB SWAP1 REVERT JUMPDEST PUSH0 DUP2 GT PUSH2 0x98F JUMPI PUSH1 0x40 MLOAD PUSH32 0x8C379A000000000000000000000000000000000000000000000000000000000 DUP2 MSTORE PUSH1 0x4 ADD PUSH2 0x986 SWAP1 PUSH2 0x1CAE JUMP JUMPDEST PUSH1 0x40 MLOAD DUP1 SWAP2 SUB SWAP1 REVERT JUMPDEST PUSH1 0x1 PUSH0 SWAP1 SLOAD SWAP1 PUSH2 0x100 EXP SWAP1 DIV PUSH20 0xFFFFFFFFFFFFFFFFFFFFFFFFFFFFFFFFFFFFFFFF AND PUSH20 0xFFFFFFFFFFFFFFFFFFFFFFFFFFFFFFFFFFFFFFFF AND PUSH4 0xA9059CBB DUP4 DUP4 PUSH1 0x40 MLOAD DUP4 PUSH4 0xFFFFFFFF AND PUSH1 0xE0 SHL DUP2 MSTORE PUSH1 0x4 ADD PUSH2 0x9EB SWAP3 SWAP2 SWAP1 PUSH2 0x1AE3 JUMP JUMPDEST PUSH1 0x20 PUSH1 0x40 MLOAD DUP1 DUP4 SUB DUP2 PUSH0 DUP8 GAS CALL ISZERO DUP1 ISZERO PUSH2 0xA07 JUMPI RETURNDATASIZE PUSH0 DUP1 RETURNDATACOPY RETURNDATASIZE PUSH0 REVERT JUMPDEST POP POP POP POP PUSH1 0x40 MLOAD RETURNDATASIZE PUSH1 0x1F NOT PUSH1 0x1F DUP3 ADD AND DUP3 ADD DUP1 PUSH1 0x40 MSTORE POP DUP2 ADD SWAP1 PUSH2 0xA2B SWAP2 SWAP1 PUSH2 0x1B34 JUMP JUMPDEST POP DUP2 PUSH20 0xFFFFFFFFFFFFFFFFFFFFFFFFFFFFFFFFFFFFFFFF AND PUSH32 0x16B0DA2FFCB90C6723317BD637D9AAD7F04711F42BBE0AC0918EBE10F1F9001C DUP3 PUSH1 0x40 MLOAD PUSH2 0xA72 SWAP2 SWAP1 PUSH2 0x16F4 JUMP JUMPDEST PUSH1 0x40 MLOAD DUP1 SWAP2 SUB SWAP1 LOG2 POP POP JUMP JUMPDEST PUSH1 0xA SLOAD DUP2 JUMP JUMPDEST PUSH1 0x8 SLOAD DUP2 JUMP JUMPDEST PUSH1 0x6 SLOAD DUP2 JUMP JUMPDEST CALLER PUSH20 0xFFFFFFFFFFFFFFFFFFFFFFFFFFFFFFFFFFFFFFFF AND PUSH2 0xAAF PUSH2 0xC49 JUMP JUMPDEST PUSH20 0xFFFFFFFFFFFFFFFFFFFFFFFFFFFFFFFFFFFFFFFF AND EQ PUSH2 0xB05 JUMPI PUSH1 0x40 MLOAD PUSH32 0x8C379A000000000000000000000000000000000000000000000000000000000 DUP2 MSTORE PUSH1 0x4 ADD PUSH2 0xAFC SWAP1 PUSH2 0x1BDE JUMP JUMPDEST PUSH1 0x40 MLOAD DUP1 SWAP2 SUB SWAP1 REVERT JUMPDEST PUSH1 0xA SLOAD TIMESTAMP LT ISZERO PUSH2 0xB4A JUMPI PUSH1 0x40 MLOAD PUSH32 0x8C379A000000000000000000000000000000000000000000000000000000000 DUP2 MSTORE PUSH1 0x4 ADD PUSH2 0xB41 SWAP1 PUSH2 0x1D16 JUMP JUMPDEST PUSH1 0x40 MLOAD DUP1 SWAP2 SUB SWAP1 REVERT JUMPDEST PUSH1 0x1 PUSH1 0xD PUSH1 0x1 PUSH2 0x100 EXP DUP2 SLOAD DUP2 PUSH1 0xFF MUL NOT AND SWAP1 DUP4 ISZERO ISZERO MUL OR SWAP1 SSTORE POP JUMP JUMPDEST PUSH1 0xC PUSH1 0x20 MSTORE DUP1 PUSH0 MSTORE PUSH1 0x40 PUSH0 KECCAK256 PUSH0 SWAP2 POP SWAP1 POP SLOAD DUP2 JUMP JUMPDEST PUSH1 0xB PUSH1 0x20 MSTORE DUP1 PUSH0 MSTORE PUSH1 0x40 PUSH0 KECCAK256 PUSH0 SWAP2 POP SWAP1 POP SLOAD DUP2 JUMP JUMPDEST CALLER PUSH20 0xFFFFFFFFFFFFFFFFFFFFFFFFFFFFFFFFFFFFFFFF AND PUSH2 0xBB0 PUSH2 0xC49 JUMP JUMPDEST PUSH20 0xFFFFFFFFFFFFFFFFFFFFFFFFFFFFFFFFFFFFFFFF AND EQ PUSH2 0xC06 JUMPI PUSH1 0x40 MLOAD PUSH32 0x8C379A000000000000000000000000000000000000000000000000000000000 DUP2 MSTORE PUSH1 0x4 ADD PUSH2 0xBFD SWAP1 PUSH2 0x1BDE JUMP JUMPDEST PUSH1 0x40 MLOAD DUP1 SWAP2 SUB SWAP1 REVERT JUMPDEST DUP2 PUSH1 0x8 DUP2 SWAP1 SSTORE POP DUP1 PUSH1 0xA DUP2 SWAP1 SSTORE POP POP POP JUMP JUMPDEST PUSH1 0x2 SLOAD DUP2 JUMP JUMPDEST PUSH1 0x3 SLOAD DUP2 JUMP JUMPDEST PUSH1 0x9 SLOAD DUP2 JUMP JUMPDEST PUSH1 0x7 SLOAD DUP2 JUMP JUMPDEST PUSH2 0xC38 PUSH2 0x14C7 JUMP JUMPDEST PUSH2 0xC41 PUSH0 PUSH2 0x154E JUMP JUMPDEST JUMP JUMPDEST PUSH1 0x5 SLOAD DUP2 JUMP JUMPDEST PUSH0 DUP1 PUSH0 SWAP1 SLOAD SWAP1 PUSH2 0x100 EXP SWAP1 DIV PUSH20 0xFFFFFFFFFFFFFFFFFFFFFFFFFFFFFFFFFFFFFFFF AND SWAP1 POP SWAP1 JUMP JUMPDEST PUSH1 0xD PUSH0 SWAP1 SLOAD SWAP1 PUSH2 0x100 EXP SWAP1 DIV PUSH1 0xFF AND DUP2 JUMP JUMPDEST PUSH1 0x8 SLOAD TIMESTAMP LT ISZERO DUP1 ISZERO PUSH2 0xCA0 JUMPI POP PUSH1 0xD PUSH0 SWAP1 SLOAD SWAP1 PUSH2 0x100 EXP SWAP1 DIV PUSH1 0xFF AND ISZERO JUMPDEST DUP1 PUSH2 0xCC6 JUMPI POP PUSH1 0xA SLOAD TIMESTAMP LT ISZERO DUP1 ISZERO PUSH2 0xCC5 JUMPI POP PUSH1 0xD PUSH1 0x1 SWAP1 SLOAD SWAP1 PUSH2 0x100 EXP SWAP1 DIV PUSH1 0xFF AND ISZERO JUMPDEST JUMPDEST PUSH2 0xD05 JUMPI PUSH1 0x40 MLOAD PUSH32 0x8C379A000000000000000000000000000000000000000000000000000000000 DUP2 MSTORE PUSH1 0x4 ADD PUSH2 0xCFC SWAP1 PUSH2 0x1D7E JUMP JUMPDEST PUSH1 0x40 MLOAD DUP1 SWAP2 SUB SWAP1 REVERT JUMPDEST PUSH0 PUSH1 0xD PUSH0 SWAP1 SLOAD SWAP1 PUSH2 0x100 EXP SWAP1 DIV PUSH1 0xFF AND DUP1 ISZERO PUSH2 0xD5D JUMPI POP PUSH0 PUSH1 0xB PUSH0 CALLER PUSH20 0xFFFFFFFFFFFFFFFFFFFFFFFFFFFFFFFFFFFFFFFF AND PUSH20 0xFFFFFFFFFFFFFFFFFFFFFFFFFFFFFFFFFFFFFFFF AND DUP2 MSTORE PUSH1 0x20 ADD SWAP1 DUP2 MSTORE PUSH1 0x20 ADD PUSH0 KECCAK256 SLOAD GT JUMPDEST ISZERO PUSH2 0xDF0 JUMPI PUSH1 0xB PUSH0 CALLER PUSH20 0xFFFFFFFFFFFFFFFFFFFFFFFFFFFFFFFFFFFFFFFF AND PUSH20 0xFFFFFFFFFFFFFFFFFFFFFFFFFFFFFFFFFFFFFFFF AND DUP2 MSTORE PUSH1 0x20 ADD SWAP1 DUP2 MSTORE PUSH1 0x20 ADD PUSH0 KECCAK256 SLOAD DUP2 PUSH2 0xDAB SWAP2 SWAP1 PUSH2 0x19BA JUMP JUMPDEST SWAP1 POP PUSH0 PUSH1 0xB PUSH0 CALLER PUSH20 0xFFFFFFFFFFFFFFFFFFFFFFFFFFFFFFFFFFFFFFFF AND PUSH20 0xFFFFFFFFFFFFFFFFFFFFFFFFFFFFFFFFFFFFFFFF AND DUP2 MSTORE PUSH1 0x20 ADD SWAP1 DUP2 MSTORE PUSH1 0x20 ADD PUSH0 KECCAK256 DUP2 SWAP1 SSTORE POP JUMPDEST PUSH1 0xD PUSH1 0x1 SWAP1 SLOAD SWAP1 PUSH2 0x100 EXP SWAP1 DIV PUSH1 0xFF AND DUP1 ISZERO PUSH2 0xE48 JUMPI POP PUSH0 PUSH1 0xC PUSH0 CALLER PUSH20 0xFFFFFFFFFFFFFFFFFFFFFFFFFFFFFFFFFFFFFFFF AND PUSH20 0xFFFFFFFFFFFFFFFFFFFFFFFFFFFFFFFFFFFFFFFF AND DUP2 MSTORE PUSH1 0x20 ADD SWAP1 DUP2 MSTORE PUSH1 0x20 ADD PUSH0 KECCAK256 SLOAD GT JUMPDEST ISZERO PUSH2 0xEDB JUMPI PUSH1 0xC PUSH0 CALLER PUSH20 0xFFFFFFFFFFFFFFFFFFFFFFFFFFFFFFFFFFFFFFFF AND PUSH20 0xFFFFFFFFFFFFFFFFFFFFFFFFFFFFFFFFFFFFFFFF AND DUP2 MSTORE PUSH1 0x20 ADD SWAP1 DUP2 MSTORE PUSH1 0x20 ADD PUSH0 KECCAK256 SLOAD DUP2 PUSH2 0xE96 SWAP2 SWAP1 PUSH2 0x19BA JUMP JUMPDEST SWAP1 POP PUSH0 PUSH1 0xC PUSH0 CALLER PUSH20 0xFFFFFFFFFFFFFFFFFFFFFFFFFFFFFFFFFFFFFFFF AND PUSH20 0xFFFFFFFFFFFFFFFFFFFFFFFFFFFFFFFFFFFFFFFF AND DUP2 MSTORE PUSH1 0x20 ADD SWAP1 DUP2 MSTORE PUSH1 0x20 ADD PUSH0 KECCAK256 DUP2 SWAP1 SSTORE POP JUMPDEST PUSH0 DUP2 GT PUSH2 0xF1D JUMPI PUSH1 0x40 MLOAD PUSH32 0x8C379A000000000000000000000000000000000000000000000000000000000 DUP2 MSTORE PUSH1 0x4 ADD PUSH2 0xF14 SWAP1 PUSH2 0x1DE6 JUMP JUMPDEST PUSH1 0x40 MLOAD DUP1 SWAP2 SUB SWAP1 REVERT JUMPDEST CALLER PUSH20 0xFFFFFFFFFFFFFFFFFFFFFFFFFFFFFFFFFFFFFFFF AND PUSH2 0x8FC DUP3 SWAP1 DUP2 ISZERO MUL SWAP1 PUSH1 0x40 MLOAD PUSH0 PUSH1 0x40 MLOAD DUP1 DUP4 SUB DUP2 DUP6 DUP9 DUP9 CALL SWAP4 POP POP POP POP ISZERO DUP1 ISZERO PUSH2 0xF60 JUMPI RETURNDATASIZE PUSH0 DUP1 RETURNDATACOPY RETURNDATASIZE PUSH0 REVERT JUMPDEST POP CALLER PUSH20 0xFFFFFFFFFFFFFFFFFFFFFFFFFFFFFFFFFFFFFFFF AND PUSH32 0x358FE4192934D3BF28AE181FEDA1F4BD08CA67F5E2FAD55582CCE5EB67304AE9 DUP3 PUSH1 0x40 MLOAD PUSH2 0xFA7 SWAP2 SWAP1 PUSH2 0x16F4 JUMP JUMPDEST PUSH1 0x40 MLOAD DUP1 SWAP2 SUB SWAP1 LOG2 POP JUMP JUMPDEST PUSH1 0x4 SLOAD DUP2 JUMP JUMPDEST PUSH1 0xD PUSH1 0x1 SWAP1 SLOAD SWAP1 PUSH2 0x100 EXP SWAP1 DIV PUSH1 0xFF AND DUP2 JUMP JUMPDEST PUSH1 0x9 SLOAD TIMESTAMP LT ISZERO DUP1 ISZERO PUSH2 0xFDE JUMPI POP PUSH1 0xA SLOAD TIMESTAMP LT JUMPDEST PUSH2 0x101D JUMPI PUSH1 0x40 MLOAD PUSH32 0x8C379A000000000000000000000000000000000000000000000000000000000 DUP2 MSTORE PUSH1 0x4 ADD PUSH2 0x1014 SWAP1 PUSH2 0x1E4E JUMP JUMPDEST PUSH1 0x40 MLOAD DUP1 SWAP2 SUB SWAP1 REVERT JUMPDEST PUSH1 0xD PUSH1 0x1 SWAP1 SLOAD SWAP1 PUSH2 0x100 EXP SWAP1 DIV PUSH1 0xFF AND ISZERO PUSH2 0x106D JUMPI PUSH1 0x40 MLOAD PUSH32 0x8C379A000000000000000000000000000000000000000000000000000000000 DUP2 MSTORE PUSH1 0x4 ADD PUSH2 0x1064 SWAP1 PUSH2 0x1EB6 JUMP JUMPDEST PUSH1 0x40 MLOAD DUP1 SWAP2 SUB SWAP1 REVERT JUMPDEST PUSH1 0x6 SLOAD CALLVALUE LT ISZERO DUP1 ISZERO PUSH2 0x1081 JUMPI POP PUSH1 0x7 SLOAD CALLVALUE GT ISZERO JUMPDEST PUSH2 0x10C0 JUMPI PUSH1 0x40 MLOAD PUSH32 0x8C379A000000000000000000000000000000000000000000000000000000000 DUP2 MSTORE PUSH1 0x4 ADD PUSH2 0x10B7 SWAP1 PUSH2 0x196F JUMP JUMPDEST PUSH1 0x40 MLOAD DUP1 SWAP2 SUB SWAP1 REVERT JUMPDEST PUSH0 CALLVALUE PUSH1 0xC PUSH0 CALLER PUSH20 0xFFFFFFFFFFFFFFFFFFFFFFFFFFFFFFFFFFFFFFFF AND PUSH20 0xFFFFFFFFFFFFFFFFFFFFFFFFFFFFFFFFFFFFFFFF AND DUP2 MSTORE PUSH1 0x20 ADD SWAP1 DUP2 MSTORE PUSH1 0x20 ADD PUSH0 KECCAK256 SLOAD PUSH2 0x110A SWAP2 SWAP1 PUSH2 0x19BA JUMP JUMPDEST SWAP1 POP PUSH1 0x7 SLOAD DUP2 GT ISZERO PUSH2 0x1151 JUMPI PUSH1 0x40 MLOAD PUSH32 0x8C379A000000000000000000000000000000000000000000000000000000000 DUP2 MSTORE PUSH1 0x4 ADD PUSH2 0x1148 SWAP1 PUSH2 0x1A5D JUMP JUMPDEST PUSH1 0x40 MLOAD DUP1 SWAP2 SUB SWAP1 REVERT JUMPDEST DUP1 PUSH1 0xC PUSH0 CALLER PUSH20 0xFFFFFFFFFFFFFFFFFFFFFFFFFFFFFFFFFFFFFFFF AND PUSH20 0xFFFFFFFFFFFFFFFFFFFFFFFFFFFFFFFFFFFFFFFF AND DUP2 MSTORE PUSH1 0x20 ADD SWAP1 DUP2 MSTORE PUSH1 0x20 ADD PUSH0 KECCAK256 DUP2 SWAP1 SSTORE POP PUSH1 0x3 SLOAD SELFBALANCE GT ISZERO PUSH2 0x11D8 JUMPI PUSH1 0x40 MLOAD PUSH32 0x8C379A000000000000000000000000000000000000000000000000000000000 DUP2 MSTORE PUSH1 0x4 ADD PUSH2 0x11CF SWAP1 PUSH2 0x1F1E JUMP JUMPDEST PUSH1 0x40 MLOAD DUP1 SWAP2 SUB SWAP1 REVERT JUMPDEST PUSH0 PUSH2 0x11E2 CALLVALUE PUSH2 0x14AD JUMP JUMPDEST SWAP1 POP PUSH1 0x1 PUSH0 SWAP1 SLOAD SWAP1 PUSH2 0x100 EXP SWAP1 DIV PUSH20 0xFFFFFFFFFFFFFFFFFFFFFFFFFFFFFFFFFFFFFFFF AND PUSH20 0xFFFFFFFFFFFFFFFFFFFFFFFFFFFFFFFFFFFFFFFF AND PUSH4 0xA9059CBB CALLER DUP4 PUSH1 0x40 MLOAD DUP4 PUSH4 0xFFFFFFFF AND PUSH1 0xE0 SHL DUP2 MSTORE PUSH1 0x4 ADD PUSH2 0x1240 SWAP3 SWAP2 SWAP1 PUSH2 0x1AE3 JUMP JUMPDEST PUSH1 0x20 PUSH1 0x40 MLOAD DUP1 DUP4 SUB DUP2 PUSH0 DUP8 GAS CALL ISZERO DUP1 ISZERO PUSH2 0x125C JUMPI RETURNDATASIZE PUSH0 DUP1 RETURNDATACOPY RETURNDATASIZE PUSH0 REVERT JUMPDEST POP POP POP POP PUSH1 0x40 MLOAD RETURNDATASIZE PUSH1 0x1F NOT PUSH1 0x1F DUP3 ADD AND DUP3 ADD DUP1 PUSH1 0x40 MSTORE POP DUP2 ADD SWAP1 PUSH2 0x1280 SWAP2 SWAP1 PUSH2 0x1B34 JUMP JUMPDEST POP CALLER PUSH20 0xFFFFFFFFFFFFFFFFFFFFFFFFFFFFFFFFFFFFFFFF AND PUSH32 0x17DBED7147E35A6B6887FF6124FF77B06F413095AF19E1057E0ECF80722B456E DUP3 DUP5 PUSH0 PUSH1 0x40 MLOAD PUSH2 0x12CB SWAP4 SWAP3 SWAP2 SWAP1 PUSH2 0x1B5F JUMP JUMPDEST PUSH1 0x40 MLOAD DUP1 SWAP2 SUB SWAP1 LOG2 POP POP JUMP JUMPDEST PUSH2 0x12DF PUSH2 0x14C7 JUMP JUMPDEST PUSH0 PUSH20 0xFFFFFFFFFFFFFFFFFFFFFFFFFFFFFFFFFFFFFFFF AND DUP2 PUSH20 0xFFFFFFFFFFFFFFFFFFFFFFFFFFFFFFFFFFFFFFFF AND SUB PUSH2 0x134F JUMPI PUSH0 PUSH1 0x40 MLOAD PUSH32 0x1E4FBDF700000000000000000000000000000000000000000000000000000000 DUP2 MSTORE PUSH1 0x4 ADD PUSH2 0x1346 SWAP2 SWAP1 PUSH2 0x1785 JUMP JUMPDEST PUSH1 0x40 MLOAD DUP1 SWAP2 SUB SWAP1 REVERT JUMPDEST PUSH2 0x1358 DUP2 PUSH2 0x154E JUMP JUMPDEST POP JUMP JUMPDEST PUSH1 0x1 PUSH0 SWAP1 SLOAD SWAP1 PUSH2 0x100 EXP SWAP1 DIV PUSH20 0xFFFFFFFFFFFFFFFFFFFFFFFFFFFFFFFFFFFFFFFF AND DUP2 JUMP JUMPDEST CALLER PUSH20 0xFFFFFFFFFFFFFFFFFFFFFFFFFFFFFFFFFFFFFFFF AND PUSH2 0x139F PUSH2 0xC49 JUMP JUMPDEST PUSH20 0xFFFFFFFFFFFFFFFFFFFFFFFFFFFFFFFFFFFFFFFF AND EQ PUSH2 0x13F5 JUMPI PUSH1 0x40 MLOAD PUSH32 0x8C379A000000000000000000000000000000000000000000000000000000000 DUP2 MSTORE PUSH1 0x4 ADD PUSH2 0x13EC SWAP1 PUSH2 0x1BDE JUMP JUMPDEST PUSH1 0x40 MLOAD DUP1 SWAP2 SUB SWAP1 REVERT JUMPDEST PUSH1 0x3 SLOAD PUSH1 0x2 SLOAD PUSH2 0x1405 SWAP2 SWAP1 PUSH2 0x19BA JUMP JUMPDEST SELFBALANCE GT PUSH2 0x1446 JUMPI PUSH1 0x40 MLOAD PUSH32 0x8C379A000000000000000000000000000000000000000000000000000000000 DUP2 MSTORE PUSH1 0x4 ADD PUSH2 0x143D SWAP1 PUSH2 0x1F86 JUMP JUMPDEST PUSH1 0x40 MLOAD DUP1 SWAP2 SUB SWAP1 REVERT JUMPDEST PUSH2 0x144E PUSH2 0xC49 JUMP JUMPDEST PUSH20 0xFFFFFFFFFFFFFFFFFFFFFFFFFFFFFFFFFFFFFFFF AND PUSH2 0x8FC PUSH1 0x3 SLOAD PUSH1 0x2 SLOAD SELFBALANCE PUSH2 0x1478 SWAP2 SWAP1 PUSH2 0x1FA4 JUMP JUMPDEST PUSH2 0x1482 SWAP2 SWAP1 PUSH2 0x1FA4 JUMP JUMPDEST SWAP1 DUP2 ISZERO MUL SWAP1 PUSH1 0x40 MLOAD PUSH0 PUSH1 0x40 MLOAD DUP1 DUP4 SUB DUP2 DUP6 DUP9 DUP9 CALL SWAP4 POP POP POP POP ISZERO DUP1 ISZERO PUSH2 0x14AA JUMPI RETURNDATASIZE PUSH0 DUP1 RETURNDATACOPY RETURNDATASIZE PUSH0 REVERT JUMPDEST POP JUMP JUMPDEST PUSH0 DUP1 PUSH1 0x64 SWAP1 POP DUP1 DUP4 PUSH2 0x14BF SWAP2 SWAP1 PUSH2 0x1FD7 JUMP JUMPDEST SWAP2 POP POP SWAP2 SWAP1 POP JUMP JUMPDEST PUSH2 0x14CF PUSH2 0x160F JUMP JUMPDEST PUSH20 0xFFFFFFFFFFFFFFFFFFFFFFFFFFFFFFFFFFFFFFFF AND PUSH2 0x14ED PUSH2 0xC49 JUMP JUMPDEST PUSH20 0xFFFFFFFFFFFFFFFFFFFFFFFFFFFFFFFFFFFFFFFF AND EQ PUSH2 0x154C JUMPI PUSH2 0x1510 PUSH2 0x160F JUMP JUMPDEST PUSH1 0x40 MLOAD PUSH32 0x118CDAA700000000000000000000000000000000000000000000000000000000 DUP2 MSTORE PUSH1 0x4 ADD PUSH2 0x1543 SWAP2 SWAP1 PUSH2 0x1785 JUMP JUMPDEST PUSH1 0x40 MLOAD DUP1 SWAP2 SUB SWAP1 REVERT JUMPDEST JUMP JUMPDEST PUSH0 DUP1 PUSH0 SWAP1 SLOAD SWAP1 PUSH2 0x100 EXP SWAP1 DIV PUSH20 0xFFFFFFFFFFFFFFFFFFFFFFFFFFFFFFFFFFFFFFFF AND SWAP1 POP DUP2 PUSH0 DUP1 PUSH2 0x100 EXP DUP2 SLOAD DUP2 PUSH20 0xFFFFFFFFFFFFFFFFFFFFFFFFFFFFFFFFFFFFFFFF MUL NOT AND SWAP1 DUP4 PUSH20 0xFFFFFFFFFFFFFFFFFFFFFFFFFFFFFFFFFFFFFFFF AND MUL OR SWAP1 SSTORE POP DUP2 PUSH20 0xFFFFFFFFFFFFFFFFFFFFFFFFFFFFFFFFFFFFFFFF AND DUP2 PUSH20 0xFFFFFFFFFFFFFFFFFFFFFFFFFFFFFFFFFFFFFFFF AND PUSH32 0x8BE0079C531659141344CD1FD0A4F28419497F9722A3DAAFE3B4186F6B6457E0 PUSH1 0x40 MLOAD PUSH1 0x40 MLOAD DUP1 SWAP2 SUB SWAP1 LOG3 POP POP JUMP JUMPDEST PUSH0 CALLER SWAP1 POP SWAP1 JUMP JUMPDEST PUSH0 DUP1 REVERT JUMPDEST PUSH0 PUSH20 0xFFFFFFFFFFFFFFFFFFFFFFFFFFFFFFFFFFFFFFFF DUP3 AND SWAP1 POP SWAP2 SWAP1 POP JUMP JUMPDEST PUSH0 PUSH2 0x1643 DUP3 PUSH2 0x161A JUMP JUMPDEST SWAP1 POP SWAP2 SWAP1 POP JUMP JUMPDEST PUSH2 0x1653 DUP2 PUSH2 0x1639 JUMP JUMPDEST DUP2 EQ PUSH2 0x165D JUMPI PUSH0 DUP1 REVERT JUMPDEST POP JUMP JUMPDEST PUSH0 DUP2 CALLDATALOAD SWAP1 POP PUSH2 0x166E DUP2 PUSH2 0x164A JUMP JUMPDEST SWAP3 SWAP2 POP POP JUMP JUMPDEST PUSH0 DUP2 SWAP1 POP SWAP2 SWAP1 POP JUMP JUMPDEST PUSH2 0x1686 DUP2 PUSH2 0x1674 JUMP JUMPDEST DUP2 EQ PUSH2 0x1690 JUMPI PUSH0 DUP1 REVERT JUMPDEST POP JUMP JUMPDEST PUSH0 DUP2 CALLDATALOAD SWAP1 POP PUSH2 0x16A1 DUP2 PUSH2 0x167D JUMP JUMPDEST SWAP3 SWAP2 POP POP JUMP JUMPDEST PUSH0 DUP1 PUSH1 0x40 DUP4 DUP6 SUB SLT ISZERO PUSH2 0x16BD JUMPI PUSH2 0x16BC PUSH2 0x1616 JUMP JUMPDEST JUMPDEST PUSH0 PUSH2 0x16CA DUP6 DUP3 DUP7 ADD PUSH2 0x1660 JUMP JUMPDEST SWAP3 POP POP PUSH1 0x20 PUSH2 0x16DB DUP6 DUP3 DUP7 ADD PUSH2 0x1693 JUMP JUMPDEST SWAP2 POP POP SWAP3 POP SWAP3 SWAP1 POP JUMP JUMPDEST PUSH2 0x16EE DUP2 PUSH2 0x1674 JUMP JUMPDEST DUP3 MSTORE POP POP JUMP JUMPDEST PUSH0 PUSH1 0x20 DUP3 ADD SWAP1 POP PUSH2 0x1707 PUSH0 DUP4 ADD DUP5 PUSH2 0x16E5 JUMP JUMPDEST SWAP3 SWAP2 POP POP JUMP JUMPDEST PUSH0 PUSH1 0x20 DUP3 DUP5 SUB SLT ISZERO PUSH2 0x1722 JUMPI PUSH2 0x1721 PUSH2 0x1616 JUMP JUMPDEST JUMPDEST PUSH0 PUSH2 0x172F DUP5 DUP3 DUP6 ADD PUSH2 0x1660 JUMP JUMPDEST SWAP2 POP POP SWAP3 SWAP2 POP POP JUMP JUMPDEST PUSH0 DUP1 PUSH1 0x40 DUP4 DUP6 SUB SLT ISZERO PUSH2 0x174E JUMPI PUSH2 0x174D PUSH2 0x1616 JUMP JUMPDEST JUMPDEST PUSH0 PUSH2 0x175B DUP6 DUP3 DUP7 ADD PUSH2 0x1693 JUMP JUMPDEST SWAP3 POP POP PUSH1 0x20 PUSH2 0x176C DUP6 DUP3 DUP7 ADD PUSH2 0x1693 JUMP JUMPDEST SWAP2 POP POP SWAP3 POP SWAP3 SWAP1 POP JUMP JUMPDEST PUSH2 0x177F DUP2 PUSH2 0x1639 JUMP JUMPDEST DUP3 MSTORE POP POP JUMP JUMPDEST PUSH0 PUSH1 0x20 DUP3 ADD SWAP1 POP PUSH2 0x1798 PUSH0 DUP4 ADD DUP5 PUSH2 0x1776 JUMP JUMPDEST SWAP3 SWAP2 POP POP JUMP JUMPDEST PUSH0 DUP2 ISZERO ISZERO SWAP1 POP SWAP2 SWAP1 POP JUMP JUMPDEST PUSH2 0x17B2 DUP2 PUSH2 0x179E JUMP JUMPDEST DUP3 MSTORE POP POP JUMP JUMPDEST PUSH0 PUSH1 0x20 DUP3 ADD SWAP1 POP PUSH2 0x17CB PUSH0 DUP4 ADD DUP5 PUSH2 0x17A9 JUMP JUMPDEST SWAP3 SWAP2 POP POP JUMP JUMPDEST PUSH0 DUP2 SWAP1 POP SWAP2 SWAP1 POP JUMP JUMPDEST PUSH0 PUSH2 0x17F4 PUSH2 0x17EF PUSH2 0x17EA DUP5 PUSH2 0x161A JUMP JUMPDEST PUSH2 0x17D1 JUMP JUMPDEST PUSH2 0x161A JUMP JUMPDEST SWAP1 POP SWAP2 SWAP1 POP JUMP JUMPDEST PUSH0 PUSH2 0x1805 DUP3 PUSH2 0x17DA JUMP JUMPDEST SWAP1 POP SWAP2 SWAP1 POP JUMP JUMPDEST PUSH0 PUSH2 0x1816 DUP3 PUSH2 0x17FB JUMP JUMPDEST SWAP1 POP SWAP2 SWAP1 POP JUMP JUMPDEST PUSH2 0x1826 DUP2 PUSH2 0x180C JUMP JUMPDEST DUP3 MSTORE POP POP JUMP JUMPDEST PUSH0 PUSH1 0x20 DUP3 ADD SWAP1 POP PUSH2 0x183F PUSH0 DUP4 ADD DUP5 PUSH2 0x181D JUMP JUMPDEST SWAP3 SWAP2 POP POP JUMP JUMPDEST PUSH0 DUP3 DUP3 MSTORE PUSH1 0x20 DUP3 ADD SWAP1 POP SWAP3 SWAP2 POP POP JUMP JUMPDEST PUSH32 0x50726573616C652068617320656E646564000000000000000000000000000000 PUSH0 DUP3 ADD MSTORE POP JUMP JUMPDEST PUSH0 PUSH2 0x1889 PUSH1 0x11 DUP4 PUSH2 0x1845 JUMP JUMPDEST SWAP2 POP PUSH2 0x1894 DUP3 PUSH2 0x1855 JUMP JUMPDEST PUSH1 0x20 DUP3 ADD SWAP1 POP SWAP2 SWAP1 POP JUMP JUMPDEST PUSH0 PUSH1 0x20 DUP3 ADD SWAP1 POP DUP2 DUP2 SUB PUSH0 DUP4 ADD MSTORE PUSH2 0x18B6 DUP2 PUSH2 0x187D JUMP JUMPDEST SWAP1 POP SWAP2 SWAP1 POP JUMP JUMPDEST PUSH32 0x50726573616C6520697320636C6F736564000000000000000000000000000000 PUSH0 DUP3 ADD MSTORE POP JUMP JUMPDEST PUSH0 PUSH2 0x18F1 PUSH1 0x11 DUP4 PUSH2 0x1845 JUMP JUMPDEST SWAP2 POP PUSH2 0x18FC DUP3 PUSH2 0x18BD JUMP JUMPDEST PUSH1 0x20 DUP3 ADD SWAP1 POP SWAP2 SWAP1 POP JUMP JUMPDEST PUSH0 PUSH1 0x20 DUP3 ADD SWAP1 POP DUP2 DUP2 SUB PUSH0 DUP4 ADD MSTORE PUSH2 0x191E DUP2 PUSH2 0x18E5 JUMP JUMPDEST SWAP1 POP SWAP2 SWAP1 POP JUMP JUMPDEST PUSH32 0x496E76616C696420636F6E747269627574696F6E20616D6F756E740000000000 PUSH0 DUP3 ADD MSTORE POP JUMP JUMPDEST PUSH0 PUSH2 0x1959 PUSH1 0x1B DUP4 PUSH2 0x1845 JUMP JUMPDEST SWAP2 POP PUSH2 0x1964 DUP3 PUSH2 0x1925 JUMP JUMPDEST PUSH1 0x20 DUP3 ADD SWAP1 POP SWAP2 SWAP1 POP JUMP JUMPDEST PUSH0 PUSH1 0x20 DUP3 ADD SWAP1 POP DUP2 DUP2 SUB PUSH0 DUP4 ADD MSTORE PUSH2 0x1986 DUP2 PUSH2 0x194D JUMP JUMPDEST SWAP1 POP SWAP2 SWAP1 POP JUMP JUMPDEST PUSH32 0x4E487B7100000000000000000000000000000000000000000000000000000000 PUSH0 MSTORE PUSH1 0x11 PUSH1 0x4 MSTORE PUSH1 0x24 PUSH0 REVERT JUMPDEST PUSH0 PUSH2 0x19C4 DUP3 PUSH2 0x1674 JUMP JUMPDEST SWAP2 POP PUSH2 0x19CF DUP4 PUSH2 0x1674 JUMP JUMPDEST SWAP3 POP DUP3 DUP3 ADD SWAP1 POP DUP1 DUP3 GT ISZERO PUSH2 0x19E7 JUMPI PUSH2 0x19E6 PUSH2 0x198D JUMP JUMPDEST JUMPDEST SWAP3 SWAP2 POP POP JUMP JUMPDEST PUSH32 0x4578636565646564206D6178696D756D20636F6E747269627574696F6E206C69 PUSH0 DUP3 ADD MSTORE PUSH32 0x6D69740000000000000000000000000000000000000000000000000000000000 PUSH1 0x20 DUP3 ADD MSTORE POP JUMP JUMPDEST PUSH0 PUSH2 0x1A47 PUSH1 0x23 DUP4 PUSH2 0x1845 JUMP JUMPDEST SWAP2 POP PUSH2 0x1A52 DUP3 PUSH2 0x19ED JUMP JUMPDEST PUSH1 0x40 DUP3 ADD SWAP1 POP SWAP2 SWAP1 POP JUMP JUMPDEST PUSH0 PUSH1 0x20 DUP3 ADD SWAP1 POP DUP2 DUP2 SUB PUSH0 DUP4 ADD MSTORE PUSH2 0x1A74 DUP2 PUSH2 0x1A3B JUMP JUMPDEST SWAP1 POP SWAP2 SWAP1 POP JUMP JUMPDEST PUSH32 0x50726573616C6520636170207265616368656400000000000000000000000000 PUSH0 DUP3 ADD MSTORE POP JUMP JUMPDEST PUSH0 PUSH2 0x1AAF PUSH1 0x13 DUP4 PUSH2 0x1845 JUMP JUMPDEST SWAP2 POP PUSH2 0x1ABA DUP3 PUSH2 0x1A7B JUMP JUMPDEST PUSH1 0x20 DUP3 ADD SWAP1 POP SWAP2 SWAP1 POP JUMP JUMPDEST PUSH0 PUSH1 0x20 DUP3 ADD SWAP1 POP DUP2 DUP2 SUB PUSH0 DUP4 ADD MSTORE PUSH2 0x1ADC DUP2 PUSH2 0x1AA3 JUMP JUMPDEST SWAP1 POP SWAP2 SWAP1 POP JUMP JUMPDEST PUSH0 PUSH1 0x40 DUP3 ADD SWAP1 POP PUSH2 0x1AF6 PUSH0 DUP4 ADD DUP6 PUSH2 0x1776 JUMP JUMPDEST PUSH2 0x1B03 PUSH1 0x20 DUP4 ADD DUP5 PUSH2 0x16E5 JUMP JUMPDEST SWAP4 SWAP3 POP POP POP JUMP JUMPDEST PUSH2 0x1B13 DUP2 PUSH2 0x179E JUMP JUMPDEST DUP2 EQ PUSH2 0x1B1D JUMPI PUSH0 DUP1 REVERT JUMPDEST POP JUMP JUMPDEST PUSH0 DUP2 MLOAD SWAP1 POP PUSH2 0x1B2E DUP2 PUSH2 0x1B0A JUMP JUMPDEST SWAP3 SWAP2 POP POP JUMP JUMPDEST PUSH0 PUSH1 0x20 DUP3 DUP5 SUB SLT ISZERO PUSH2 0x1B49 JUMPI PUSH2 0x1B48 PUSH2 0x1616 JUMP JUMPDEST JUMPDEST PUSH0 PUSH2 0x1B56 DUP5 DUP3 DUP6 ADD PUSH2 0x1B20 JUMP JUMPDEST SWAP2 POP POP SWAP3 SWAP2 POP POP JUMP JUMPDEST PUSH0 PUSH1 0x60 DUP3 ADD SWAP1 POP PUSH2 0x1B72 PUSH0 DUP4 ADD DUP7 PUSH2 0x16E5 JUMP JUMPDEST PUSH2 0x1B7F PUSH1 0x20 DUP4 ADD DUP6 PUSH2 0x16E5 JUMP JUMPDEST PUSH2 0x1B8C PUSH1 0x40 DUP4 ADD DUP5 PUSH2 0x17A9 JUMP JUMPDEST SWAP5 SWAP4 POP POP POP POP JUMP JUMPDEST PUSH32 0x43616C6C6572206973206E6F7420746865206F776E6572000000000000000000 PUSH0 DUP3 ADD MSTORE POP JUMP JUMPDEST PUSH0 PUSH2 0x1BC8 PUSH1 0x17 DUP4 PUSH2 0x1845 JUMP JUMPDEST SWAP2 POP PUSH2 0x1BD3 DUP3 PUSH2 0x1B94 JUMP JUMPDEST PUSH1 0x20 DUP3 ADD SWAP1 POP SWAP2 SWAP1 POP JUMP JUMPDEST PUSH0 PUSH1 0x20 DUP3 ADD SWAP1 POP DUP2 DUP2 SUB PUSH0 DUP4 ADD MSTORE PUSH2 0x1BF5 DUP2 PUSH2 0x1BBC JUMP JUMPDEST SWAP1 POP SWAP2 SWAP1 POP JUMP JUMPDEST PUSH32 0x50726573616C65206973207374696C6C20616374697665000000000000000000 PUSH0 DUP3 ADD MSTORE POP JUMP JUMPDEST PUSH0 PUSH2 0x1C30 PUSH1 0x17 DUP4 PUSH2 0x1845 JUMP JUMPDEST SWAP2 POP PUSH2 0x1C3B DUP3 PUSH2 0x1BFC JUMP JUMPDEST PUSH1 0x20 DUP3 ADD SWAP1 POP SWAP2 SWAP1 POP JUMP JUMPDEST PUSH0 PUSH1 0x20 DUP3 ADD SWAP1 POP DUP2 DUP2 SUB PUSH0 DUP4 ADD MSTORE PUSH2 0x1C5D DUP2 PUSH2 0x1C24 JUMP JUMPDEST SWAP1 POP SWAP2 SWAP1 POP JUMP JUMPDEST PUSH32 0x416D6F756E742073686F756C642062652067726561746572207468616E203000 PUSH0 DUP3 ADD MSTORE POP JUMP JUMPDEST PUSH0 PUSH2 0x1C98 PUSH1 0x1F DUP4 PUSH2 0x1845 JUMP JUMPDEST SWAP2 POP PUSH2 0x1CA3 DUP3 PUSH2 0x1C64 JUMP JUMPDEST PUSH1 0x20 DUP3 ADD SWAP1 POP SWAP2 SWAP1 POP JUMP JUMPDEST PUSH0 PUSH1 0x20 DUP3 ADD SWAP1 POP DUP2 DUP2 SUB PUSH0 DUP4 ADD MSTORE PUSH2 0x1CC5 DUP2 PUSH2 0x1C8C JUMP JUMPDEST SWAP1 POP SWAP2 SWAP1 POP JUMP JUMPDEST PUSH32 0x5075626C69632073616C65206973207374696C6C206163746976650000000000 PUSH0 DUP3 ADD MSTORE POP JUMP JUMPDEST PUSH0 PUSH2 0x1D00 PUSH1 0x1B DUP4 PUSH2 0x1845 JUMP JUMPDEST SWAP2 POP PUSH2 0x1D0B DUP3 PUSH2 0x1CCC JUMP JUMPDEST PUSH1 0x20 DUP3 ADD SWAP1 POP SWAP2 SWAP1 POP JUMP JUMPDEST PUSH0 PUSH1 0x20 DUP3 ADD SWAP1 POP DUP2 DUP2 SUB PUSH0 DUP4 ADD MSTORE PUSH2 0x1D2D DUP2 PUSH2 0x1CF4 JUMP JUMPDEST SWAP1 POP SWAP2 SWAP1 POP JUMP JUMPDEST PUSH32 0x526566756E64206E6F7420616C6C6F7765642079657400000000000000000000 PUSH0 DUP3 ADD MSTORE POP JUMP JUMPDEST PUSH0 PUSH2 0x1D68 PUSH1 0x16 DUP4 PUSH2 0x1845 JUMP JUMPDEST SWAP2 POP PUSH2 0x1D73 DUP3 PUSH2 0x1D34 JUMP JUMPDEST PUSH1 0x20 DUP3 ADD SWAP1 POP SWAP2 SWAP1 POP JUMP JUMPDEST PUSH0 PUSH1 0x20 DUP3 ADD SWAP1 POP DUP2 DUP2 SUB PUSH0 DUP4 ADD MSTORE PUSH2 0x1D95 DUP2 PUSH2 0x1D5C JUMP JUMPDEST SWAP1 POP SWAP2 SWAP1 POP JUMP JUMPDEST PUSH32 0x4E6F20726566756E6420617661696C61626C6500000000000000000000000000 PUSH0 DUP3 ADD MSTORE POP JUMP JUMPDEST PUSH0 PUSH2 0x1DD0 PUSH1 0x13 DUP4 PUSH2 0x1845 JUMP JUMPDEST SWAP2 POP PUSH2 0x1DDB DUP3 PUSH2 0x1D9C JUMP JUMPDEST PUSH1 0x20 DUP3 ADD SWAP1 POP SWAP2 SWAP1 POP JUMP JUMPDEST PUSH0 PUSH1 0x20 DUP3 ADD SWAP1 POP DUP2 DUP2 SUB PUSH0 DUP4 ADD MSTORE PUSH2 0x1DFD DUP2 PUSH2 0x1DC4 JUMP JUMPDEST SWAP1 POP SWAP2 SWAP1 POP JUMP JUMPDEST PUSH32 0x5075626C69632073616C65206973206E6F742061637469766500000000000000 PUSH0 DUP3 ADD MSTORE POP JUMP JUMPDEST PUSH0 PUSH2 0x1E38 PUSH1 0x19 DUP4 PUSH2 0x1845 JUMP JUMPDEST SWAP2 POP PUSH2 0x1E43 DUP3 PUSH2 0x1E04 JUMP JUMPDEST PUSH1 0x20 DUP3 ADD SWAP1 POP SWAP2 SWAP1 POP JUMP JUMPDEST PUSH0 PUSH1 0x20 DUP3 ADD SWAP1 POP DUP2 DUP2 SUB PUSH0 DUP4 ADD MSTORE PUSH2 0x1E65 DUP2 PUSH2 0x1E2C JUMP JUMPDEST SWAP1 POP SWAP2 SWAP1 POP JUMP JUMPDEST PUSH32 0x5075626C69632073616C6520697320636C6F7365640000000000000000000000 PUSH0 DUP3 ADD MSTORE POP JUMP JUMPDEST PUSH0 PUSH2 0x1EA0 PUSH1 0x15 DUP4 PUSH2 0x1845 JUMP JUMPDEST SWAP2 POP PUSH2 0x1EAB DUP3 PUSH2 0x1E6C JUMP JUMPDEST PUSH1 0x20 DUP3 ADD SWAP1 POP SWAP2 SWAP1 POP JUMP JUMPDEST PUSH0 PUSH1 0x20 DUP3 ADD SWAP1 POP DUP2 DUP2 SUB PUSH0 DUP4 ADD MSTORE PUSH2 0x1ECD DUP2 PUSH2 0x1E94 JUMP JUMPDEST SWAP1 POP SWAP2 SWAP1 POP JUMP JUMPDEST PUSH32 0x5075626C69632073616C65206361702072656163686564000000000000000000 PUSH0 DUP3 ADD MSTORE POP JUMP JUMPDEST PUSH0 PUSH2 0x1F08 PUSH1 0x17 DUP4 PUSH2 0x1845 JUMP JUMPDEST SWAP2 POP PUSH2 0x1F13 DUP3 PUSH2 0x1ED4 JUMP JUMPDEST PUSH1 0x20 DUP3 ADD SWAP1 POP SWAP2 SWAP1 POP JUMP JUMPDEST PUSH0 PUSH1 0x20 DUP3 ADD SWAP1 POP DUP2 DUP2 SUB PUSH0 DUP4 ADD MSTORE PUSH2 0x1F35 DUP2 PUSH2 0x1EFC JUMP JUMPDEST SWAP1 POP SWAP2 SWAP1 POP JUMP JUMPDEST PUSH32 0x4E6F206578636573732066756E64730000000000000000000000000000000000 PUSH0 DUP3 ADD MSTORE POP JUMP JUMPDEST PUSH0 PUSH2 0x1F70 PUSH1 0xF DUP4 PUSH2 0x1845 JUMP JUMPDEST SWAP2 POP PUSH2 0x1F7B DUP3 PUSH2 0x1F3C JUMP JUMPDEST PUSH1 0x20 DUP3 ADD SWAP1 POP SWAP2 SWAP1 POP JUMP JUMPDEST PUSH0 PUSH1 0x20 DUP3 ADD SWAP1 POP DUP2 DUP2 SUB PUSH0 DUP4 ADD MSTORE PUSH2 0x1F9D DUP2 PUSH2 0x1F64 JUMP JUMPDEST SWAP1 POP SWAP2 SWAP1 POP JUMP JUMPDEST PUSH0 PUSH2 0x1FAE DUP3 PUSH2 0x1674 JUMP JUMPDEST SWAP2 POP PUSH2 0x1FB9 DUP4 PUSH2 0x1674 JUMP JUMPDEST SWAP3 POP DUP3 DUP3 SUB SWAP1 POP DUP2 DUP2 GT ISZERO PUSH2 0x1FD1 JUMPI PUSH2 0x1FD0 PUSH2 0x198D JUMP JUMPDEST JUMPDEST SWAP3 SWAP2 POP POP JUMP JUMPDEST PUSH0 PUSH2 0x1FE1 DUP3 PUSH2 0x1674 JUMP JUMPDEST SWAP2 POP PUSH2 0x1FEC DUP4 PUSH2 0x1674 JUMP JUMPDEST SWAP3 POP DUP3 DUP3 MUL PUSH2 0x1FFA DUP2 PUSH2 0x1674 JUMP JUMPDEST SWAP2 POP DUP3 DUP3 DIV DUP5 EQ DUP4 ISZERO OR PUSH2 0x2011 JUMPI PUSH2 0x2010 PUSH2 0x198D JUMP JUMPDEST JUMPDEST POP SWAP3 SWAP2 POP POP JUMP INVALID LOG2 PUSH5 0x6970667358 0x22 SLT KECCAK256 SWAP16 0xBB 0xDB PUSH31 0xBEAB067683B6C2695034B5872D9569AB05A92275241774B539F0F74F64736F PUSH13 0x63430008160033000000000000 "
		},
		"gasEstimates": {
			"creation": {
				"codeDepositCost": "1654000",
				"executionCost": "infinite",
				"totalCost": "infinite"
			},
			"external": {
				"claimRefund()": "infinite",
				"closePresaleAndStartPublicSale()": "50896",
				"closePublicSale()": "28811",
				"contributeToPresale()": "infinite",
				"contributeToPublicSale()": "infinite",
				"distributeTokens(address,uint256)": "infinite",
				"extendSalePeriod(uint256,uint256)": "infinite",
				"owner()": "2626",
				"presaleCap()": "2536",
				"presaleClosed()": "2599",
				"presaleContributions(address)": "2869",
				"presaleEndTime()": "2537",
				"presaleMaxContribution()": "2514",
				"presaleMinContribution()": "2492",
				"publicSaleCap()": "2558",
				"publicSaleClosed()": "2606",
				"publicSaleContributions(address)": "2847",
				"publicSaleEndTime()": "2515",
				"publicSaleMaxContribution()": "2470",
				"publicSaleMinContribution()": "2559",
				"publicSaleStartTime()": "2448",
				"renounceOwnership()": "infinite",
				"token()": "infinite",
				"transferOwnership(address)": "infinite",
				"withdrawExcessFunds()": "infinite"
			},
			"internal": {
				"calculateTokenAmount(uint256)": "infinite"
			}
		},
		"methodIdentifiers": {
			"claimRefund()": "b5545a3c",
			"closePresaleAndStartPublicSale()": "1207c90d",
			"closePublicSale()": "2af89179",
			"contributeToPresale()": "0269d3b4",
			"contributeToPublicSale()": "e59c9510",
			"distributeTokens(address,uint256)": "158a4988",
			"extendSalePeriod(uint256,uint256)": "5e4d3b4b",
			"owner()": "8da5cb5b",
			"presaleCap()": "63d5502f",
			"presaleClosed()": "abd2cc5f",
			"presaleContributions(address)": "477f1eba",
			"presaleEndTime()": "249b7c19",
			"presaleMaxContribution()": "87e449c3",
			"presaleMinContribution()": "c4849847",
			"publicSaleCap()": "64826b7a",
			"publicSaleClosed()": "ccf125d8",
			"publicSaleContributions(address)": "35f74869",
			"publicSaleEndTime()": "1e4d185f",
			"publicSaleMaxContribution()": "7146e4fa",
			"publicSaleMinContribution()": "2a517ab2",
			"publicSaleStartTime()": "6bb7b1d9",
			"renounceOwnership()": "715018a6",
			"token()": "fc0c546a",
			"transferOwnership(address)": "f2fde38b",
			"withdrawExcessFunds()": "fcb67c5b"
		}
	},
	"abi": [
		{
			"inputs": [
				{
					"internalType": "contract ERC20",
					"name": "_token",
					"type": "address"
				},
				{
					"internalType": "uint256",
					"name": "_presaleCap",
					"type": "uint256"
				},
				{
					"internalType": "uint256",
					"name": "_publicSaleCap",
					"type": "uint256"
				},
				{
					"internalType": "uint256",
					"name": "_presaleMinContribution",
					"type": "uint256"
				},
				{
					"internalType": "uint256",
					"name": "_presaleMaxContribution",
					"type": "uint256"
				},
				{
					"internalType": "uint256",
					"name": "_publicSaleMinContribution",
					"type": "uint256"
				},
				{
					"internalType": "uint256",
					"name": "_publicSaleMaxContribution",
					"type": "uint256"
				},
				{
					"internalType": "uint256",
					"name": "_presaleEndTime",
					"type": "uint256"
				},
				{
					"internalType": "uint256",
					"name": "_publicSaleStartTime",
					"type": "uint256"
				},
				{
					"internalType": "uint256",
					"name": "_publicSaleEndTime",
					"type": "uint256"
				},
				{
					"internalType": "address",
					"name": "_owner",
					"type": "address"
				}
			],
			"stateMutability": "nonpayable",
			"type": "constructor"
		},
		{
			"inputs": [
				{
					"internalType": "address",
					"name": "owner",
					"type": "address"
				}
			],
			"name": "OwnableInvalidOwner",
			"type": "error"
		},
		{
			"inputs": [
				{
					"internalType": "address",
					"name": "account",
					"type": "address"
				}
			],
			"name": "OwnableUnauthorizedAccount",
			"type": "error"
		},
		{
			"anonymous": false,
			"inputs": [
				{
					"indexed": true,
					"internalType": "address",
					"name": "previousOwner",
					"type": "address"
				},
				{
					"indexed": true,
					"internalType": "address",
					"name": "newOwner",
					"type": "address"
				}
			],
			"name": "OwnershipTransferred",
			"type": "event"
		},
		{
			"anonymous": false,
			"inputs": [
				{
					"indexed": true,
					"internalType": "address",
					"name": "contributor",
					"type": "address"
				},
				{
					"indexed": false,
					"internalType": "uint256",
					"name": "amount",
					"type": "uint256"
				}
			],
			"name": "RefundClaimed",
			"type": "event"
		},
		{
			"anonymous": false,
			"inputs": [
				{
					"indexed": true,
					"internalType": "address",
					"name": "recipient",
					"type": "address"
				},
				{
					"indexed": false,
					"internalType": "uint256",
					"name": "amount",
					"type": "uint256"
				}
			],
			"name": "TokensDistributed",
			"type": "event"
		},
		{
			"anonymous": false,
			"inputs": [
				{
					"indexed": true,
					"internalType": "address",
					"name": "buyer",
					"type": "address"
				},
				{
					"indexed": false,
					"internalType": "uint256",
					"name": "amount",
					"type": "uint256"
				},
				{
					"indexed": false,
					"internalType": "uint256",
					"name": "totalContribution",
					"type": "uint256"
				},
				{
					"indexed": false,
					"internalType": "bool",
					"name": "isPresale",
					"type": "bool"
				}
			],
			"name": "TokensPurchased",
			"type": "event"
		},
		{
			"inputs": [],
			"name": "claimRefund",
			"outputs": [],
			"stateMutability": "nonpayable",
			"type": "function"
		},
		{
			"inputs": [],
			"name": "closePresaleAndStartPublicSale",
			"outputs": [],
			"stateMutability": "nonpayable",
			"type": "function"
		},
		{
			"inputs": [],
			"name": "closePublicSale",
			"outputs": [],
			"stateMutability": "nonpayable",
			"type": "function"
		},
		{
			"inputs": [],
			"name": "contributeToPresale",
			"outputs": [],
			"stateMutability": "payable",
			"type": "function"
		},
		{
			"inputs": [],
			"name": "contributeToPublicSale",
			"outputs": [],
			"stateMutability": "payable",
			"type": "function"
		},
		{
			"inputs": [
				{
					"internalType": "address",
					"name": "_recipient",
					"type": "address"
				},
				{
					"internalType": "uint256",
					"name": "_amount",
					"type": "uint256"
				}
			],
			"name": "distributeTokens",
			"outputs": [],
			"stateMutability": "nonpayable",
			"type": "function"
		},
		{
			"inputs": [
				{
					"internalType": "uint256",
					"name": "_presaleEndTime",
					"type": "uint256"
				},
				{
					"internalType": "uint256",
					"name": "_publicSaleEndTime",
					"type": "uint256"
				}
			],
			"name": "extendSalePeriod",
			"outputs": [],
			"stateMutability": "nonpayable",
			"type": "function"
		},
		{
			"inputs": [],
			"name": "owner",
			"outputs": [
				{
					"internalType": "address",
					"name": "",
					"type": "address"
				}
			],
			"stateMutability": "view",
			"type": "function"
		},
		{
			"inputs": [],
			"name": "presaleCap",
			"outputs": [
				{
					"internalType": "uint256",
					"name": "",
					"type": "uint256"
				}
			],
			"stateMutability": "view",
			"type": "function"
		},
		{
			"inputs": [],
			"name": "presaleClosed",
			"outputs": [
				{
					"internalType": "bool",
					"name": "",
					"type": "bool"
				}
			],
			"stateMutability": "view",
			"type": "function"
		},
		{
			"inputs": [
				{
					"internalType": "address",
					"name": "",
					"type": "address"
				}
			],
			"name": "presaleContributions",
			"outputs": [
				{
					"internalType": "uint256",
					"name": "",
					"type": "uint256"
				}
			],
			"stateMutability": "view",
			"type": "function"
		},
		{
			"inputs": [],
			"name": "presaleEndTime",
			"outputs": [
				{
					"internalType": "uint256",
					"name": "",
					"type": "uint256"
				}
			],
			"stateMutability": "view",
			"type": "function"
		},
		{
			"inputs": [],
			"name": "presaleMaxContribution",
			"outputs": [
				{
					"internalType": "uint256",
					"name": "",
					"type": "uint256"
				}
			],
			"stateMutability": "view",
			"type": "function"
		},
		{
			"inputs": [],
			"name": "presaleMinContribution",
			"outputs": [
				{
					"internalType": "uint256",
					"name": "",
					"type": "uint256"
				}
			],
			"stateMutability": "view",
			"type": "function"
		},
		{
			"inputs": [],
			"name": "publicSaleCap",
			"outputs": [
				{
					"internalType": "uint256",
					"name": "",
					"type": "uint256"
				}
			],
			"stateMutability": "view",
			"type": "function"
		},
		{
			"inputs": [],
			"name": "publicSaleClosed",
			"outputs": [
				{
					"internalType": "bool",
					"name": "",
					"type": "bool"
				}
			],
			"stateMutability": "view",
			"type": "function"
		},
		{
			"inputs": [
				{
					"internalType": "address",
					"name": "",
					"type": "address"
				}
			],
			"name": "publicSaleContributions",
			"outputs": [
				{
					"internalType": "uint256",
					"name": "",
					"type": "uint256"
				}
			],
			"stateMutability": "view",
			"type": "function"
		},
		{
			"inputs": [],
			"name": "publicSaleEndTime",
			"outputs": [
				{
					"internalType": "uint256",
					"name": "",
					"type": "uint256"
				}
			],
			"stateMutability": "view",
			"type": "function"
		},
		{
			"inputs": [],
			"name": "publicSaleMaxContribution",
			"outputs": [
				{
					"internalType": "uint256",
					"name": "",
					"type": "uint256"
				}
			],
			"stateMutability": "view",
			"type": "function"
		},
		{
			"inputs": [],
			"name": "publicSaleMinContribution",
			"outputs": [
				{
					"internalType": "uint256",
					"name": "",
					"type": "uint256"
				}
			],
			"stateMutability": "view",
			"type": "function"
		},
		{
			"inputs": [],
			"name": "publicSaleStartTime",
			"outputs": [
				{
					"internalType": "uint256",
					"name": "",
					"type": "uint256"
				}
			],
			"stateMutability": "view",
			"type": "function"
		},
		{
			"inputs": [],
			"name": "renounceOwnership",
			"outputs": [],
			"stateMutability": "nonpayable",
			"type": "function"
		},
		{
			"inputs": [],
			"name": "token",
			"outputs": [
				{
					"internalType": "contract ERC20",
					"name": "",
					"type": "address"
				}
			],
			"stateMutability": "view",
			"type": "function"
		},
		{
			"inputs": [
				{
					"internalType": "address",
					"name": "newOwner",
					"type": "address"
				}
			],
			"name": "transferOwnership",
			"outputs": [],
			"stateMutability": "nonpayable",
			"type": "function"
		},
		{
			"inputs": [],
			"name": "withdrawExcessFunds",
			"outputs": [],
			"stateMutability": "nonpayable",
			"type": "function"
		}
	]
}